:020000040800F2
:10000000D8090020C5000008DD3100082F230008B2
:1000100000000000000000000000000000000000E0
:10002000000000000000000000000000A1330008F4
:100030000000000000000000DF3100085534000817
:10004000D700000800000000D7000008D700000813
:10005000D7000008D7000008D7000008D700000824
:1000600000000000D7000008D7000008D7000008F3
:10007000D7000008D7000008D700000800000000E3
:10008000D70000080000000000000000D7000008B2
:1000900000000000DD340008ED340008D70000083F
:1000A00000000000D700000800000000D700000892
:1000B0000348854600F0ECFA00480047C9370008BD
:1000C000D80900200448804704480047FEE7FEE7BF
:1000D000FEE7FEE7FEE7FEE7D9340008B1000008BE
:1000E00010B5202A04DB0846203AD040002110BD7C
:1000F0000B46D340D0402024A21A91400843194611
:1001000010BD03460B439B0703D009E008C9121F2B
:1001100008C0042AFAD203E00B780370401C491C83
:10012000521EF9D27047D2B201E00270401C491E43
:10013000FBD270470022F6E710B513460A46044684
:100140001946FFF7F0FF204610BD421C0178401C05
:100150000029FBD1801A704730B5044600200346C1
:1001600000E05B1C934203D2E05CCD5C401BF8D006
:1001700030BD0000F0B507460846584087B0C00FB4
:10018000049048000E46590040084908BC1A8841AE
:1001900005D2384631461E4617460B4602465800E1
:1001A000400810434CD0300D039040055900400DDD
:1001B000490D0590401A0290402872DA1803012177
:1001C000000B09050843019004980092002805D00F
:1001D00001995242002088410092019002984021EA
:1001E0000A1A0199009800F090F905460C466B46F2
:1001F00007CB00F09AF9C0197141039A0E0D002344
:10020000D71756401A467A40164344D0049A002A1B
:100210002DD0029A012A039A15DC1205C01A9141C9
:1002200001263605001C7141D20F059ED2070093AE
:10023000019202962A46234600F0D8F907B0F0BD95
:1002400038463146FAE71605224A0F46B218C01A58
:10025000B74101210905001C4F4100187F4111469B
:1002600018187941E20F10436D19644113E0E20759
:100270006D0815436408C2071443039A012612054A
:10028000C01A91413605001C7141CE074008304329
:100290004908C01851412A46234600F09AF9CDE793
:1002A000FFE7049801224000C117121A00238B4176
:1002B00004983146C417381AA141EEE730B401243E
:1002C000E407634030BC55E730B40124E4076140E3
:1002D00030BC4FE70000E0FFF0B51FB488B00B99C9
:1002E0000998002448400999C00F4900490809911C
:1002F000C0070B990090490049080B91099908988B
:10030000A64608431CD00B990A98084318D00998B0
:1003100001244000420D4800410D099824050003C6
:10032000000B204309900B980003000B20430B9017
:1003300050181C494018002201901446104605E050
:10034000002001460DB0F0BD032801DA034600E0AD
:1003500003239C46C11A0AAE0AE05F0008ADED5BBC
:100360004F00F75B7D430027AA187C41491C5B1EA8
:100370006145F2DD410004AB5A522104120C0A43DC
:10038000240C401C0828DFDB01980290009970467D
:1003900001910090059B049A0799069800F026F9B0
:1003A000D0E700000DFCFFFF0EB5054902910021CA
:1003B00000910A460B46019100F018F903B000BD08
:1003C0003304000070B5CD0F4A0009030123090B67
:1003D0001B0519430B4BED070024520D9A4201DA1D
:1003E000002070BD074B34339A4203DC9A1AFFF7A2
:1003F00077FE02E00449511888402C43F1D0404276
:1004000070BD0000FF030000CDFBFFFFC20FD2074D
:10041000400040080BD0C10D0723DB01C918400282
:100420000905400A1143C2084007114370470020E4
:1004300001467047CB0FDB07490010B5490802465B
:100440000A4307D00A0D07240903E401090B121B14
:10045000002A01DC002010BDC900440F0C43C1007C
:10046000E018D205801800F073F810BD70B504468E
:10047000002903D000202022012310E0002801D011
:100480000020C043C046C0460DE02546D5408D4201
:1004900005D30D469540641B1D46954040191546F1
:1004A000521E002DF1DC214670BDF0B51FB406468A
:1004B000002082B005464024019100901BE0019984
:1004C00022460F463046FFF70BFE049A059B801A22
:1004D000994110D310461946224600F016F8361AF4
:1004E0008F410197224601200021009F00F00DF866
:1004F00038184D4100902046641E0028DFDC019B27
:1005000000982946324607B0F0BD10B5202A04DB1A
:100510000146203A9140002010BD914020239C1AB2
:100520000346E3401943904010BD10B5202A06DB76
:10053000CB170846203A1041C1170B4306E00B4683
:100540001341D0402024A21A91400843194610BDFF
:10055000002904DA401C490001D1400840007047DE
:1005600070B40024050C05D11024000402D1002928
:1005700021D01124050E01D100020834050F01D14C
:100580000001241D850F01D18000A41C002801DB7F
:100590004000641C002908D020252E1B0D46F54084
:1005A000A14000D001212943084301061B1B000A7A
:1005B000DB1D02D5002070BC7047DB0518188018C1
:1005C0000029F8DA401C4900F5D170BC4008400011
:1005D000704710B5002B08DA0024401C61419218C6
:1005E0005B411A4301D14008400010BDF0B51FB473
:1005F00082B005460C0003D0084605F0AFF802E0D3
:1006000005F0ACF820300246009021462846FFF75E
:100610007CFF049B059A04460F4618431143084388
:1006200014D0184610431BD0009840210A1A1846CF
:100630000599FFF755FD05460E46009A0599049861
:10064000FFF763FF084305D0012004E02046394648
:1006500007B0F0BD0020C11705430E432C433743BC
:1006600000990E986305401A7905E40A00220C43AC
:10067000FD0A0A3002D500200146E9E701051019FC
:1006800069410C9C0D9D00196941FFF7A2FFDFE74E
:10069000064C0125064E05E0E36807CC2B430C3CD5
:1006A00098471034B442F7D3FFF706FD405D0008C9
:1006B000605D000870B58C180578401C6B075B0FF7
:1006C00001D10378401C2A1106D10278401C03E0B6
:1006D00006780E70401C491C5B1EF9D12B0705D40F
:1006E0000023521E0DD40B70491CFAE70378401CFE
:1006F000CB1A921C03E01D780D70491C5B1C521E26
:10070000F9D5A142D8D3002070BD0000F0B581B06A
:1007100004466E460121062530462A4600F04AF975
:1007200030782070002804D13C4800F08DF86846ED
:1007300000782621414339484018418861808188EA
:10074000A180C188E18000290ED00022D3B26B4382
:10075000C618B789E3189F8137891F8176895E8122
:10076000521CD3B29942F1D801B0F0BDB0B52B4CB8
:10077000E28806256A43204608302949FFF7C1FC74
:10078000A28D6A4320462E302649FFF7BAFC52203C
:10079000225A6A43204654302349FFF7B2FC78209E
:1007A000225A6A4320467A302049FFF7AAFC9E204D
:1007B000225A6A432046A0301D49FFF7A2FCC420FC
:1007C000225A6A432046C6301A49FFF79AFCEA20AB
:1007D000225A6A432046EC301749FFF792FC8920E1
:1007E0004000201811210901625A6A431349FFF79A
:1007F00088FC2720C00020189B214900625A6A43C8
:100800000F49FFF77EFCAF204000201857218900D8
:10081000625A6A430B49FFF774FCB0BD80020020A6
:100820007C000020A8000020940000201800002078
:10083000040000204400002070000020B8000020C8
:1008400058000020E8000020B0B505460224C4800E
:1008500000202870A81C0722214600F0ABF8281DB4
:100860000922214600F0A6F8284608300B2221462E
:1008700000F0A0F828460A300D22214600F09AF830
:1008800028460C300F22214600F094F828460E30FE
:100890001122214600F08EF82846103013222146FE
:1008A00000F088F8123515222846214600F082F81B
:1008B000B0BDB0B58AB06C46139DA584129D089555
:1008C000119D0795109D06950F9D05950E9D00AFF6
:1008D0002FC7A01C02250722294600F089F8201DF9
:1008E0000922294600F084F8204608300B222946C8
:1008F00000F07EF820460A300D22294600F078F8F4
:1009000020460C300F22294600F072F820460E30A7
:100910001122294600F06CF8204610301322294697
:1009200000F066F8123415222046294600F060F8DF
:100930000AB0B0BD10B51248044901221302FF24C9
:100940000234848112040AC0026010BDFA00002043
:100950000B4A1379834212D0117310710121517324
:10096000917211810021D180032808D8C100054B64
:10097000CB40537140B2800003A10858106070470B
:100980002804002001010301FA000020C400002017
:10099000C8000020D400002080B501462120484333
:1009A0000A2805D30A21FFF761FD00BF401EFCD1D4
:1009B00080BD0000F0B585B004920D4607460020CA
:1009C000C6432A4CA02101222046334600F094FA67
:1009D0000028F7D10097019502962448A021012311
:1009E000049A00F023FB322000F0F8F805B0F0BDC7
:1009F000F0B589B008920C4606900920C006012186
:100A0000C902002605900491324600F0D4F90A206C
:100A100000F0E4F80794002C1ED0F443134FA021FB
:100A2000012538462A46234600F066FA0028F6D10A
:100A3000069880190090019502940898301882B2A7
:100A4000A02138462B4600F0B9FB0A2000F0C6F87A
:100A5000761C07988642E2D101220598049900F09D
:100A6000AAF90A2000F0BAF809B0F0BD8804002005
:100A7000EFF3108072B6FEE770B5040C04996418A9
:100A80000028254600DA0D462EB2059DAE420ADD4D
:100A9000002800DA214609B2A94206DA1A49097883
:100AA000002905D01CE0184818E0174900240C70F4
:100AB00081180004154CA0420D4600DC15462DB2ED
:100AC0009D420ADDA04200DC0A4610B2984215DAC7
:100AD0000F480078002803D113E00D480121017070
:100AE000002401204103AB4D2846224600F063F963
:100AF00010212846224600F05EF970BD044800210E
:100B000001700124EDE7C046380400200000FFFF1B
:100B100039040020B0B50446022525222946FFF7F6
:100B200049FFA01C27222946FFF744FF012020711E
:100B3000B0BDB0B582B06C46A180009002252522E0
:100B400020462946FFF754FFA01C27222946FFF71D
:100B50004FFF02B0B0BD0000B0B50171481E444265
:100B60004441012041038B4D2846224600F023F9E1
:100B700010212846224600F01EF9B0BD70B58AB09B
:100B80006A46139C9484119A0792109A06920E9AC0
:100B900004920393020614D0090C020C15D0159888
:100BA00083B200242046C5B206266E436D46AD19B9
:100BB000AD896419A5B2AB4208D3401CAA42F2D851
:100BC00004E099B24842484104E00020C2B2914298
:100BD00000D8481EC0B20AB070BD0000B0B50446CF
:100BE00000F0F0F80546601C02D0044800780419B3
:100BF00000F0E8F8401BA042FAD3B0BD1E0400206C
:100C0000F0B58AB003900F68002F00D1B8E05D48BE
:100C1000039A824201D0052000E0032000900023C7
:100C20001A461C46089101260596A640374000D179
:100C30009DE00792032002469A400293D3434968FD
:100C40000D4605406A1E012A0693049113D80197A8
:100C5000039FB8681840089AD268029B9A400243E2
:100C6000BA60C806C00FA0407A68B2433E46019FF2
:100C70000243726006E0032D039E029B02D10546EB
:100C8000079A1EE0F0680699084008998A689A4019
:100C90000243F260022D079A13D11C2010400F214D
:100CA0008140E2089200B218156A8D43089E3169AE
:100CB000814029431162079A7068039E03250490BE
:100CC00005409D40306806990840284330600498EC
:100CD0008003800F08994AD02C490868059D284355
:100CE00008600868284009900C2010400F228240BC
:100CF000032125468D430999254EA9599143AD19E4
:100D00000922D206039E96420CD0224A964206D071
:100D1000214A9642009A1C4E06D1022204E01A4E45
:100D2000059A01E00022184E82400A432A60356885
:100D3000089801464068C20301D53D4300E0BD4329
:100D400035607568820301D53D4300E0BD437560A1
:100D5000B568C20201D53D4300E0BD43B560F2680D
:100D6000800201D53A4300E0BA43F260079A641C5E
:100D70000F683846E0409B1C121D002800D052E747
:100D80000AB0F0BD000C00480004014018100240F9
:100D900008000140000400480008004800690840BD
:100DA000411E8841704742690B4693430A40110433
:100DB000C91881617047002A01D0182200E028225A
:100DC00081507047014800687047C046D005002038
:100DD000B0B50246034640335C780220202C17D180
:100DE0001C78012C14D0242058701068026801244B
:100DF000A2430260220305689543056002680A4326
:100E000002600168214301600020187020215970A0
:100E1000B0BDB0B50246034640335C780220202CBA
:100E200017D11C78012C14D0242058701068026847
:100E30000124A24302600F221202056895430902B1
:100E400029430160016821430160002018702021BE
:100E50005970B0BDF0B581B0002822D004460546D7
:100E600040356878002804D100202870204600F022
:100E70006DFA242068702068026801218A430260AC
:100E80000F2212066368934303618368184A134074
:100E90008360A368E668012E05D1CE0333438360E7
:100EA00009E0012022E02127BF023B438360022E9C
:100EB00001D1CB02436043680E4E1E434660C368B7
:100EC0001340C360226963691343A26912021A4383
:100ED000C260E269236A1343036002680A43026046
:100EE00000206064202169702063A87001B0F0BD0B
:100EF000FF7FFFFF00800002F0B58BB01D46044667
:100F000000270A97034640335878022620287CD1D0
:100F10000797206887693F0477D408921A78012AD6
:100F200073D024225A70012201921A70079A6264C7
:100F30009E4A11403C4A8A1804920522D20289181E
:100F400002910393E1680129049900D0029941605C
:100F5000FFF738FF099020688169202739408269AE
:100F60001026324089180ED1691C08D0FFF72AFFDD
:100F7000002D42D00999401AA8423ED820688169C4
:100F800039408269EDE78069069009980090202138
:100F90000027204605913A462B4601F01BFB069997
:100FA000C90635D500283DD12068C6610599C161C3
:100FB0000A99089A914214D10126B10342680A4362
:100FC00042600998009020270022204639462B468F
:100FD00001F000FB0028039B17D12068C761089A25
:100FE00000E0039B0A99491C0A910A999142A9D3EE
:100FF00005995970606C084303E0039B5F70606C57
:101000003843606401260798187030460BB0F0BD75
:101010000028019E039BF8D120680599C161597091
:101020003E46F0E7019EF0E700200002F0B589B0EF
:1010300005460446403466780220202E3BD10E9FA0
:10104000002F35D00F9E002E32D007962678012E25
:1010500031D003920493069101262670FFF7B2FE69
:1010600008900090F103192328460596324601F0B6
:10107000B1FA00281AD11099222060704020A07087
:10108000002068646F620F46029068630798688565
:101090000091089801902846069E3146039A049BC9
:1010A00001F00CFA002808D002982070059802E0A0
:1010B00001204102696409B0F0BD0797688D000AFC
:1010C0009E483B490AD00640286842680A40069676
:1010D0003243394911434160FF200CE00640688DDE
:1010E0002A6853680B40C1B209041943069631437C
:1010F000304B0B435360079B2885924E0898009015
:101100000421002728463A4601F064FA0028CDD190
:10111000686A2968496A0170688D401E6885686A36
:10112000401C6862288D401E2885698D002925D0C5
:10113000000423D108980090802100222846079BB4
:1011400001F048FA0028B1D1688D000A07D0FF20CD
:101150002885296848683040091D794A0AE0688D69
:10116000288529684A683240C0B200041043012231
:101170005206091D069B184310430860688D00281D
:10118000079BBBD128461946089A01F058FA002857
:10119000059890D128682021C16142686A4B1340AC
:1011A000436061702770A770384684E7FF03000032
:1011B0000098007C002400820024FF81F0B589B0F3
:1011C0000546074640377C780220202C39D10E9CFA
:1011D000002C33D00F9E002E30D008963E78012E82
:1011E0002FD003920493069101263E70FFF7EAFD8B
:1011F00005900090F103192328460796324601F026
:10120000E9F9002818D11099212078704020B87091
:10121000002068646C6204466863089868850891D9
:101220000091059E019628460699039A049B01F0B9
:1012300089F9002807D03C70079802E0012041029C
:10124000696409B0F0BD039401246106688D000A49
:101250003A483C4B079404910BD0069A0240286808
:101260004168194014461143354A11434160FF203B
:101270000FE0069E0640688D2A68069252681A4062
:10128000C3B21B04134334463343059E0B430699F4
:101290004B60089B288528461946324601F0F7F92D
:1012A0000028C9D12868696A0A788262688D401E60
:1012B0006885481C6862288D401E2885698D002934
:1012C000089B24D0000422D10096802100222846C9
:1012D00001F080F90028AFD1688D000A08D0FF2006
:1012E000288529684868174A1040091D144A0AE0F1
:1012F000688D288529684A68124B1A40C0B20004DC
:101300001043091D049A089B204310430860688D10
:101310000028C0D128461946324601F090F900282D
:1013200007988ED128682021C1614268064B13407E
:101330004360797003983870B87082E7FF0300004B
:101340000000FF01009C00FC00E800FEB0B586B084
:101350000068114988421DD10125A8040F4C21685D
:1013600001432160216801400091059503951220F9
:10137000029003200490800201900098084801A97F
:10138000FFF73EFC6805A1680143A160A168014028
:101390000091009806B0B0BD005400401410024007
:1013A00000040048B0B5002822D004460068134964
:1013B00001601349016061684160A1688160FFF7C5
:1013C00001FD05462068C16849070AD0FFF7FAFC0D
:1013D000411B20682829F6D3C1684907F3D00320B0
:1013E000B0BDE16802698A4204D10949016002E0A6
:1013F0000120B0BD01610020B0BDC046CCCC0000D2
:101400005555000000680249016000207047C04641
:10141000AAAA00001A48007802490A681018086051
:101420007047C046D005002010B5B34801681022AF
:101430000A4302600024204600F004F800F024F87B
:10144000204610BDB0B504467D20C0000C49097887
:10145000FFF70CF80146AB480068FFF707F800F00B
:1014600073FB0125032C09D8002807D10025E84388
:1014700021462A4600F02AF8024804602846B0BDFA
:101480001E0400202004002082B0094801680122C7
:1014900011430160016811400191019911074268EF
:1014A0000A434260406808400090009802B07047CC
:1014B00018100240002805D41F2108400121814056
:1014C000014801607047C04600E100E0002805D4F3
:1014D0000322034693430A4A9A1803E00C2202406F
:1014E000064BD2188007C00E8901C9B28140FF2384
:1014F00083401068984308431060704714ED00E083
:1015000000E400E0F0B585B004468078C007384BB1
:101510004AD001200390010718680840029006D1C4
:1015200018680843186018680840049004980191EE
:10153000304E3068C00511D4039807023068384334
:101540003060FFF73FFC05463068384206D1FFF7B0
:1015500039FC401B6428F7D9032537E0032528020E
:10156000234B5968014012D06268024091420ED06C
:101570000398000459685A6802435A605A688243C3
:101580005A6008461C4A10405860C80721D1586864
:10159000194908406168014359600298002803D145
:1015A00018680199884318602068C10705D05969F7
:1015B00003229143A2680A435A610025800605D59B
:1015C000586910218843E16801435961284605B0F4
:1015D000F0BDFFF7F7FB0646484F054B58688007FC
:1015E000D5D4FFF7EFFB801BB842F6D9EEE7C04633
:1015F0001C10024000700040FFFCFFFFF0B581B0FE
:1016000000284CD004463C4A1368012003408B421A
:1016100008D213680126B3430B43136012683240AB
:101620008A4266D1009121688A070ED54A0705D5FE
:1016300007221202424D2B6813432B60404D2A684B
:10164000F0239A43A36813432B60C90729D12A4981
:10165000086801263040009A904205D90868B043D6
:1016600008600868C00744D12078400707D50720E4
:101670000002334A11688143E0680843106000F0BB
:1016800043F82F4909680906090F1D4A515CC840F3
:101690001C49086000263046FFF7D4FE29E00126E9
:1016A00027E06168264A121F022904D0012905D1CA
:1016B0001268920304E01268920101E01268920736
:1016C000064616D51E4A10680326B043084310602C
:1016D000FFF778FB0746094D194800680C210140C7
:1016E000606880008142B2D0FFF76CFBC01BA8424B
:1016F000F2D9304601B0F0BD00200240881300004E
:10170000265C00080001002010B50D490A680C2372
:1017100013400C48082B08D193021B0F0AA4E45C69
:10172000896AD20303D4104807E0044606E00F227A
:10173000114009A2515CFEF799FE4443204610BDBA
:101740000410024000127A0002030405060708098B
:101750000A0B0C0D0E0F10100102030405060708FA
:10176000090A0B0C0D0E0F1000093D00F0B587B0F3
:1017700004460120002C00D1BCE104902078C00771
:10178000EE4E059426D071680C20014004291AD031
:1017900071680140082902D17068C00313D46168E0
:1017A00001204704002900D178E1052900D18CE10E
:1017B000012900D18DE1010432688A43326081043D
:1017C0003068884388E13068800303D5606800286A
:1017D00000D1B5E0207880071AD570680007800F27
:1017E00007D070680C210140082971D17068C003CE
:1017F0006ED430688007059C03D5E068012800D0CE
:101800009EE03068F82188432169C90001433160B6
:10181000059C2078000724D42078400734D4207811
:10182000C00600D4ABE005984069411D00D19AE0A4
:10183000012800D0EAE0706B042101437163706BF2
:10184000012101437163FFF7BDFA0546706B800704
:1018500000D58CE0FFF7B6FA411B03200229F5D929
:1018600048E1706AE16900295AD001210843706299
:10187000FFF7A8FA0546706A8007CDD4FFF7A2FAF1
:10188000401B0228F7D934E1012003900107F069D9
:101890000840029006D1F0690843F061F069084001
:1018A000069006980191A64F3868C00524D4039885
:1018B0000402386820433860FFF784FA0546386828
:1018C000204219D1FFF77EFA401B6428F7D910E1B6
:1018D0003068059CE168002934D00121084330605C
:1018E000FFF770FA0546306880078AD4FFF76AFA76
:1018F000401B0228F7D9FCE005988068914F00282A
:1019000000D198E0052800D1AAE0012800D1ABE081
:10191000306A039988433062306A04218843A6E024
:10192000012188437062FFF74DFA0546706A80070F
:1019300000D471E7FFF746FA401B0228F6D9D8E039
:101940000498D7E0012188433060FFF73BFA054651
:101950003068800700D45BE7FFF734FA411B0320AF
:101960000229F5D9C6E0706B042188437063706B5F
:10197000F821884305998969C90001437163059875
:10198000046A002C1ED070680C21014008291BD16C
:10199000012C049800D1ADE00120030471680B40D4
:1019A000F26A059D6C6AA34200D0A3E00F231A409F
:1019B000EC6AA24200D09DE09A041140AA6A9142CA
:1019C00000D097E0002095E00120020631680492E3
:1019D000914331604706FFF7F5F90546022C0BD11C
:1019E000049C3068384200D186E0FFF7EBF9411BD8
:1019F00003200229F5D97DE030683842E2D0FFF7B4
:101A0000E1F9411B03200229F6D973E0706B042130
:101A100001437163706B012188437063FFF7D2F952
:101A20000546706B8007AAD5FFF7CCF9411B032050
:101A30000229F6D95EE0306A039988433062306A41
:101A4000042188433062FFF7BDF90546306A8007FC
:101A50001AD5FFF7B7F9411B0320B942F6D949E07F
:101A6000306A042101433162306A039908433062CD
:101A7000FFF7A8F90546306A800705D4FFF7A2F9F9
:101A8000401BB842F7D934E002980028059C00D0EA
:101A9000C5E6F06901998843F061C0E60104326847
:101AA0008A4332608004316881433160FFF78AF9EC
:101AB0000546059C3068384200D18BE6FFF782F975
:101AC000411B03206429F5D914E0810432680A43DC
:101AD00032600104306808433060FFF773F905464F
:101AE0003068384200D075E6FFF76CF9401B642877
:101AF000F6D9032007B0F0BDF06A0F218843059A9C
:101B0000D16A0143F1623D20000471688143906A0B
:101B10000843516A01437160306820433060FFF729
:101B200051F904463068384200D04BE7FFF74AF9D4
:101B3000011B03200229F5D9DCE7C0460010024052
:101B40000070004088130000401E010E01D00120EB
:101B500070470749074A5060074803680B40032154
:101B600089075918016000209060072111607047B3
:101B7000FFFFFF0010E000E020ED00E0704770473D
:101B800070B53C22825C012A01D1022223E0034687
:101B90003C3300221A703F231B02CC689C430F2366
:101BA0009D028E68AE432643DB024C689C4334435F
:101BB00007231B030D689D43254303235B030C6927
:101BC0009C432C434B6923430124A403A343C969C9
:101BD000194300684164104670BD000010B53C22F6
:101BE000825C012A01D1022010BD02463C32022350
:101BF0005370006843687024A3430C681C438368D7
:101C000044604B4CA04202D04A4CA04204D18024F4
:101C1000A34349681943816000201070012151706D
:101C200010BDC04670B500281FD0044605463C359F
:101C300006463E366878002804D1002028702046E9
:101C400000F016F80220687001CC214601F056FC25
:101C50000120307230707070B070F070307170713F
:101C6000B071F0716870002070BD012070BD00007F
:101C700010B584B000681B49884210D01A498842C8
:101C80001BD0E34988422BD10120C00217490A68C2
:101C900002430A60096801400391039820E0012192
:101CA0008804124A136803431360126802400192C9
:101CB00001981624002220460DE0012040040B4923
:101CC0000A6802430A6009680140029102981524DB
:101CD000002120460A46FFF7F9FB2046FFF7EAFB02
:101CE00004B010BD004801400044014018100240FB
:101CF0003D21415C012918D101463D3102220A7083
:101D00000068C26801210A43C260C14A904202D001
:101D1000084A904204D1826807231340062B02D060
:101D200002680A4302600020704701207047C046E5
:101D3000002C014000040040F0B53C22825C012AE6
:101D400001D10220F0BD02463C32022353700468E8
:101D5000A0684B4E3040A0600D6800234F2D1EDC64
:101D60001F2D36DD202D38D0302D36D0402D00D01F
:101D700084E0206A256A0126B5432562A569F0261C
:101D8000B543CE6836012E43A6610A25A8434968AB
:101D900001432162A06847210143302067E06F2D95
:101DA00023DD01204703BD423DD000038542184694
:101DB00060D0702D62D17736A06830404D688E6853
:101DC000C9682E43090231430143A160A06877210D
:101DD00036E0002D01D0102D50D1A068702188432D
:101DE000054307202843A06043E0502D2AD0602DF2
:101DF00044D11020C043256A054025620F252D03DC
:101E0000A669AE43CD682D033543266AA561A0259A
:101E1000AE434968090131432162A16867250D433A
:101E20000540A56025E07736A56835404E688F6887
:101E3000C9683743090239432943A1608003A16877
:101E4000014315E0206A256A0126B5432562A5698C
:101E5000F026B543CE6836012E43A6610A25A84375
:101E6000496801432162A068572101432020814332
:101E7000A1601846137001215170F0BD0120F9E7EF
:101E80008800FFFF7047B0B504468020C543206836
:101E90000169890717D5C168890714D529467E319C
:101EA0000161012121778069800703D02046FFF777
:101EB000E9FF05E0204600F0AFF8204600F034F9D5
:101EC0000020207720680169490718D5C1684907B3
:101ED00015D529467C310161022121778069800571
:101EE000800F03D02046FFF7CDFF05E0204600F02D
:101EF00093F8204600F018F9002020772068016947
:101F0000090717D5C168090714D529467831016139
:101F100004212177C069800703D02046FFF7B2FF74
:101F200005E0204600F078F8204600F0FDF800209B
:101F3000207720680169C90618D5C168C90615D57A
:101F400029467031016108212177C0698005800F21
:101F500003D02046FFF796FF05E0204600F05CF82E
:101F6000204600F0E1F80020207720680169C907C9
:101F700009D0C168C90706D029467F3101612046D2
:101F800000F028F920680169090607D5C16809062B
:101F900004D505612046FFF7F1FD20680169490677
:101FA00009D5C168490606D5294640310161204658
:101FB00000F0BCF920680169890607D5C168890667
:101FC00004D5603505612046FFF7D9FDB0BD00009E
:101FD00080B586B000687E49884216D10120410450
:101FE0000C4A13680B43136012680A4000920221E6
:101FF000059100220492039202914002019009206F
:10200000C006009901A9FEF7FBFD06B080BDC046E1
:10201000002C0140141002407047000070B50546C6
:102020003C20285C012801D1022070BD0C462E46C0
:102030003C36012030700221CA41032A4BD8C046E9
:102040007A441279520097440110223128682146BF
:1020500001F096FA2868816908220A438261816941
:1020600004229143816121690FE02868214601F033
:10207000C3FA0121CA022868836913438361890274
:1020800082698A4382612169090218301FE0286849
:10209000214601F0EDFA2868C16908220A43C261AD
:1020A000C16904229143C16121690FE0286821467A
:1020B00001F01CFB0121CA022868C3691343C361F4
:1020C0008902C2698A43C261216909021C3002681F
:1020D0000A43026000200021317070BD70B50028F5
:1020E0001FD0044605463C3506463E366878002833
:1020F00004D100202870204600F015F802206870F6
:1021000001CC214601F0FAF9012030723070707074
:10211000B070F07030717071B071F0716870002043
:1021200070BD012070BD70477047000002463E320E
:10213000002905D0082909D0042909D1531C08E039
:102140001378012B0FD10223137011E0931C00E0D0
:10215000D31C1B78012B06D10223082905D00429A2
:1021600005D1537004E001207047937000E0D370F4
:102170001F221140012213468B400068016A9943D7
:102180000162016A194301620F49884204DC0F4968
:1021900088420ED00E4903E05F49884202D05A4976
:1021A00088420BD1D103436C0B43436408498842F6
:1021B00004D1816807230B40062B02D0016811432C
:1021C000016000207047C046FF430140000400400A
:1021D000002C0140F0B581B0044600684A498842AD
:1021E00078D14A48417B002933D001894A1C0281B9
:1021F000C1880368857A002D07D08900595A92B2A8
:102200008A4219D90021018114E08D005B195B8895
:1022100092B29A4217D9491CC180427989B291423F
:1022200005D30021C180027B002A00D14173002127
:102230000181012181720CE0C07A002809D10122BC
:102240005103334803E00120410331480022FEF7E7
:10225000B2FD00252F4E7719B989B868FEF79EFDAB
:1022600070557978012905D1002803D10021B98062
:10227000798001E0002904D078701035402DEAD132
:1022800027E0002810D00128F6D17979091F2329E9
:1022900007D8F978002904D13979002901D1012121
:1022A000B97000217971E7E77979491C7971C9B270
:1022B000C92904D3002179710121F970DCE7FA788A
:1022C000002AD9D01529D7D300217971012139717C
:1022D000D2E720681049884214D1104901200870C3
:1022E0000F490A78521C0A700A78032A03D1002287
:1022F0000A700C4908700C480178002902D0017856
:10230000491E017001B0F0BD0044014028040020C6
:10231000000800483C04002000480140CC05002093
:102320007D040020CD0500207C0400207047FEE7DE
:10233000F0B581B00C46074601B21448994202DA62
:102340008021012213E01D46164680210022FEF75F
:1023500032FDB5420EDD7D20C000334909688A6B2D
:10236000821A120400D08863012251022F48FEF71E
:1023700022FD08E03814301AA84201DAA0B200E0C9
:10238000200C00F03DF801B0F0BDC046001400483C
:10239000B0B50546022431222146FEF70BFBA81CEE
:1023A00029222146FEF706FB281D2B222146FEF797
:1023B00001FBA81D23222146FEF7FCFA1A4804213E
:1023C000FFF7B4FEB0BDC046B0B582B00191009039
:1023D0006D460224312228462146FEF709FBA81C3F
:1023E00029222146FEF704FB281D2B222146FEF759
:1023F000FFFAA81D23222146FEF7FAFA02B0B0BD6B
:1024000080B57D21C900084A1268936BCB1A9BB234
:10241000834201D0091A91634242424101204102A4
:10242000F748FEF7C8FC80BDE40400200004004823
:10243000F0B581B00E46044600688169C90601D432
:10244000002037E015464168890104D40121890341
:1024500042680A43426027464037816989060BD4A7
:10246000711CFAD0FEF7AEFC2021002E19D0401BC3
:10247000B04216D82068F0E71021C1612021C16167
:102480008169890701D5002181628169C90703D16A
:10249000816901220A4382614168074A0A40426019
:1024A0000421606C0843606420207870002038703C
:1024B000B870012001B0F0BD00E800FEF0B583B0B7
:1024C00002920446404808400193D9B20904081812
:1024D00021684A683D4B13401818194A8018486013
:1024E000089F099D204639462A4600F0D0F801266B
:1024F000002822D12A4602992068019B012B04D191
:10250000C9B281623B4617460EE0090A8162204645
:102510003D463946174600F0BAF800280DD120682C
:102520000299C9B281622B460097402100222046C1
:1025300000F050F80646401E8641304603B0F0BD1C
:1025400000200080F0B583B0029204461E48084087
:102550000193D9B20904081821684A681B4B13403B
:1025600018181B4A80184860089F099D2046394664
:102570002A4600F08CF80126002822D12A4602992A
:102580002068019B012B04D1C9B281623B461746EA
:102590000EE0090A816220463D463946174600F0A2
:1025A00076F800280DD120680299C9B281622B46C5
:1025B000009780210022204600F00CF80646401EBD
:1025C0008641304603B0F0BDFF0300000098007C58
:1025D00000200081F0B583B01D4616460F46044624
:1025E000036899693940C91B4A424A410020B242F6
:1025F00023D1019020464030009008980290691C39
:1026000008D0FEF7DFFB002D0DD00299401AA8423A
:1026100009D8236899693940C91B4A424A41B242E4
:10262000EDD0019809E0606C202108436064009AB5
:102630005170002010709070012003B0F0BDF0B513
:1026400081B016460F4604464030009020688069ED
:10265000800618D4204639463246FFF7E9FE0125A8
:10266000002811D1FEF7AEFB002F02D0801BB8422C
:10267000ECD9606C202108436064009A51700020FE
:102680001070907000E00025284601B0F0BDF0B554
:1026900083B00446006880690027800725D415466A
:1026A0000E460297204640300190204631462A4689
:1026B000FFF7BEFE0127002817D1701C06D0FEF7D9
:1026C00081FB002E08D0401BB04205D820688069ED
:1026D0008007EAD5029F08E0606C2021084360640F
:1026E000019A5170002010709070384603B0F0BD10
:1026F000F0B589B0019000270897079706970597CE
:1027000080260496B54804A9FEF77AFA012000F065
:1027100077FDB24C40210122B048FEF74CFB03206C
:1027200000BF401EFCD10397212000BF401EFCD1FA
:10273000802120460291FEF731FB0546402100270B
:1027400020463A46FEF737FB012D304600D038468A
:10275000212100BF491EFCD1039F07437608D9D130
:10276000019800F065FD032000BF401EFCD1402110
:1027700001229A48FEF71FFB102000BF401EFCD12B
:1027800040210025954C20462A46FEF714FB08956B
:102790000795069505950298049004A92046FEF732
:1027A0002FFA102000BF401EFCD1F8B209B0F0BDD6
:1027B000B0B586B00024059404940394029480205C
:1027C0000190864D01A92846FEF71AFA0594049453
:1027D000039402944020019001A92846FEF710FAC4
:1027E000204600F025FD212000BF401EFCD1002026
:1027F00000F006FD212000BF401EFCD106B0B0BD98
:1028000000040048B0B586B00024204600F010FD5A
:10281000204600F0F5FC05940494039402944020B3
:1028200001906E4D01A92846FEF7EAF9212000BF6C
:10283000401EFCD1059404940394029480200190DE
:1028400001A92846FEF7DCF9212000BF401EFCD17B
:1028500006B0B0BDF0B587B001900024204600F06E
:10286000E7FC204600F0CCFC80255C4C2A46019811
:102870000240501E8241802620463146FEF79BFAD8
:10288000032000BF401EFCD1402101222046FEF75C
:1028900092FA172000BF401EFCD14021002720469D
:1028A0003A46FEF788FA172000BF401EFCD16D089B
:1028B000DCD10697059704970397029602A9204654
:1028C000FEF79EF9402101222046FEF774FA062009
:1028D00000BF401EFCD180212046FEF75FFA05466E
:1028E000102000BF401EFCD1402100222046FEF7F0
:1028F00062FA212000BF401EFCD1691E48424841B7
:1029000007B0F0BDB0B50B0EC478E518C5700B0C60
:102910008478E418847003885B18038081888918A0
:102920008180EAB23C2A0FD30022C270641C8470FA
:10293000E4B23C2C08D382705B1C03809BB2182B42
:1029400002D30280491C8180B0BD80B501210906F7
:102950000022FFF7D7FF80BDB0B58AB06C46139D4B
:10296000A584129C0894119C0794109C06940F9CBB
:1029700005940E9C01AD1EC58AB2000C801A15AAE2
:102980001288824209DB080C062141436846081878
:10299000C088002801D0012000E000200AB0B0BDAE
:1029A0000D480021818081848182818680218181FE
:1029B0000221818509498162012282838161042289
:1029C000828781630921C9068160FF21023101608C
:1029D00001620161016370473C040020000400486B
:1029E000F0B583B002904508782635400920C4062A
:1029F0000122019220462946FEF7DDF975400027A5
:102A0000204629463A46FEF7D6F902F07BFE0298A8
:102A10000007450E20462946019AFEF7CCF975407D
:102A2000204629463A46FEF7C6F902F06BFE03B08F
:102A3000F0BD70B50920C4060125002620462946B0
:102A40003246FEF7B8F92846FFF7CAFF2046294666
:102A50003246FEF7B0F90220FFF7C2FF70BDF0B5B5
:102A600081B01446009107460920C50601210026C1
:102A700028463246FEF79FF90098002800D04037DC
:102A800080203843C0B2FFF7ABFF002C0AD00121F1
:102A900028460A46FEF78FF92020FFF7A1FF761C93
:102AA000A642F4D301B0F0BD70B506460920C406B5
:102AB0000121002520462A46FEF77DF9002E01D08F
:102AC000C02000E08020FFF78BFF012120460A464E
:102AD000FEF771F92020FFF783FF681C0F2D0546D4
:102AE000F3D370BDF0B581B00C4607460920C5068A
:102AF0000121002628463246FEF75DF97807800E50
:102B00004030FFF76DFFA75D012128460A46FEF71A
:102B100052F93846FFF764FF761C082EF3D101B056
:102B2000F0BD80B50920C00601210022FEF743F95F
:102B30000C20FFF755FF80BD80B50920C00601219C
:102B40000022FEF738F90E20FFF74AFF80BDB0B52E
:102B50000D4604460920C00601210022FEF72BF98C
:102B6000002D00D0403480202043C0B2FFF738FF52
:102B7000B0BD70B50920C4060221002520462A46B2
:102B8000FEF719F90A20FEF729F8012620463146FA
:102B90002A46FEF710F93320FFF722FF2046314680
:102BA0002A46FEF708F93220FFF71AFF2046314681
:102BB0002A46FEF700F92820FFF712FF204631468B
:102BC0002A46FEF7F8F80C20FFF70AFFFFF731FF5F
:102BD000204631462A46FEF7EEF80620FFF700FFB2
:102BE00070BD0000F0B585B00492002501261228C2
:102BF00002912FD857494F1C800002A210582A4634
:102C00008746C046512C0008592C0008AD2C0008FE
:102C10005D2C0008612C0008652C0008692C000858
:102C20006D2C0008712C0008752C0008792C000808
:102C30007D2C0008812C0008852C00088D2C0008B4
:102C4000912C0008992C0008A12C0008A52C000844
:102C50004B4922E02A4643E048491EE04F491CE028
:102C60004D491AE04B4918E0494916E0474914E03C
:102C7000454912E0434910E03F490EE03D490CE070
:102C80003B490AE039494F1C39480EE0364904E017
:102C900034494F1C344808E030494F1C2A4605E0AF
:102CA0002F4900E02C494F1C2C4802780C786042D8
:102CB0006041002C14D0019003930026B85DC00041
:102CC000374909189019C0B23D461746FFF70AFF69
:102CD0003A462F46761CB442F0D1019E2546039B0E
:102CE000002B0396019207D0012B029C06D0022BE9
:102CF0000AD11020441B07E0002405E01020401BEF
:102D000081B2C90B401844100920C60601210027D2
:102D100030463A46FEF74FF80498002800D0403479
:102D200080202043C0B2FFF75BFE039800280FD13C
:102D300001984419012130460A46FEF73CF8F84351
:102D40002018C0B2FFF74CFE7F1CF8B2A842F1D3A6
:102D500005B0F0BD88000020640000203B0000208A
:102D6000E1000020D800002009010020DC00002044
:102D7000300000202400002004010020A0000020DA
:102D800034000020F400002050000020B400002097
:102D900068000020400000200000002010000020FB
:102DA0000E010020B0B5441C05780920C0060121A1
:102DB0000A46FEF700F8E8B2FFF712FE601C25781D
:102DC000002D0446F1D1B0BDB0B514460546022B26
:102DD00005D0012B09D0002B0DD100210BE0284696
:102DE000FDF7B3F91021091A05E02846FDF7ADF902
:102DF0001021081A4108C9B22846224600F001F8FD
:102E0000B0BD70B516460D4604460920C006012126
:102E10000022FDF7D0FF002E00D04035802028434F
:102E2000C0B2FFF7DDFD2046FFF7BCFF70BD00001C
:102E3000F0B589B0002408940127F90438480268E5
:102E40000A43026002680A40039203997904026807
:102E50000A43026002680A4003920399B9040268B7
:102E60000A43026002680A4003920399B9050268A6
:102E70000A43026000680840039003987E03294DCE
:102E8000284631462246FDF796FF0920C0060190EC
:102E900025492246FDF78FFFF14824492246FDF7D8
:102EA0008AFF2348802102912246FDF784FF079480
:102EB00006940597049604AE28463146FDF7A0FE19
:102EC00007940694059718480490019D28463146BA
:102ED000FDF796FE06970594029804902846314621
:102EE000FDF78EFE0697059407200490DC4D2846DA
:102EF0003146FDF785FE0794069405970B4804902C
:102F000028463146FDF77CFE079406940597029803
:102F1000049007483146FDF773FE09B0F0BDC04686
:102F200014100240000800487F090000D8F3000098
:102F30000014004810B5134C01200021124A134B15
:102F400023606260A160E060204610301421FDF72C
:102F5000F1F82046FDF77EFF002801D0FDF788FD3F
:102F600008480021FDF734FF002801D0FDF780FD5F
:102F700004480021FDF74DFF002801D0FDF778FD42
:102F800010BDC046880400207C1D10000054004085
:102F900080B5074807490622074B036042608160FD
:102FA000C160FEF7FFF9002801D0FDF761FD80BD8B
:102FB000D4040020FF0F00000030004010B50A4884
:102FC0000021F04A094BFF24E03418C00160426040
:102FD0008160C16001610838FEF724FE002801D03D
:102FE000FDF746FD10BDC0462C0500200044014001
:102FF00010B509480021094A094B0A4C0460436096
:103000008160C260016141618161FEF70BFE0028B1
:1030100001D0FDF72DFD10BD74050020CF07000085
:10302000BF5D00000048014070B596B000251595C1
:10303000149513951195109509A81C21FDF77AF8A0
:1030400001A82021FDF776F82A48CE492A4A2B4BC1
:10305000036042608560C160056145618561FEF77E
:10306000E1FD002801D0FDF703FD01263003129099
:10307000204812A9FEF760FE002801D0FDF7F8FCF9
:103080001C48FFF72BF8002801D0FDF7F1FC119543
:103090001095184810A9FEF7A1FD002801D0FDF7F2
:1030A000E7FC60200990FF20F4300A9009AC20462C
:1030B00008301421FDF73EF80E4804222146FEF7A1
:1030C000ADFF002801D0FDF7D3FC01AC1421204650
:1030D000FDF730F808957003069006482146FEF784
:1030E0004FFD002801D0FDF7C3FC0248FEF770FF3A
:1030F00016B070BDE40400207FBB0000002C01402E
:10310000F0B583B00446C07C002801D003B0F0BD08
:10311000A07C01281CD00028F8D1A388218A22880D
:103120006588A089E68902AF0097360430182D041F
:10313000AA1800F020FB3878012825D80125E903DA
:103140008F482A46FDF737FE0020E081A08119E074
:103150006389218AE2882589A089E68902AF0097E0
:10316000360430182D04AA1800F005FB0120C10315
:103170003A788348012A0CD800252A46FDF71BFE21
:10318000E581A581A574C1E70120C1037C48002227
:1031900000E00122FDF70FFEB8E7C046B0B50446D7
:1031A000002060822082E081A0810625172220462F
:1031B0002946FDF7FFFBA01D1D222946FDF7FAFB5E
:1031C000B0BD000080B58174012905D80A460120F0
:1031D000C1036B48FDF7EFFD80BDC046FEE77047B9
:1031E00080B586B0002005900490039002904020A6
:1031F0000190634801A9FDF703FD06B080BDC046FC
:10320000B0B586B00246401E82415D4C4025204646
:103210002946FDF7D0FD0020049003900121029182
:103220000195059001A92046FDF7EAFC06B0B0BD66
:10323000B0B586B00246401E8241514C80252046E2
:103240002946FDF7B8FD002004900390012102916A
:103250000195059001A92046FDF7D2FC06B0B0BD4E
:1032600000040048F0B585B000910746FFF7A0FACA
:103270008020FFF7EFFA0446002F03D0012F05D17D
:10328000E32000E0E520FFF7E5FA04430394FFF7AD
:103290008FFA8120FFF7DEFA02900520FDF77CFB14
:1032A000FFF79EFF0024364E364D0120FDF796FCB9
:1032B00040213046FDF772FD012803D0601CAC426E
:1032C0000446F2D340213046FDF768FD0190002608
:1032D0003046FFF70DFA044604AD28703046FFF77C
:1032E00007FA687021020C180120FFF701FA054661
:1032F000012F0ED0002F1DD1032084432046FDF75F
:1033000053F80024244B2246FCF7E6FF234B2246C9
:103310000AE0032084432046FDF746F81A4A1B4B77
:10332000FCF7DAFF1A4A1B4BFCF724FFFDF782F883
:1033300000990860314604A8805D48400821420099
:1033400040B2002801D5312042401046491E0A06ED
:10335000F5D1761C022E0146EDD1C0B2401B411EB4
:10336000884184000398029901430198002801D103
:10337000022001430C43FFF745FA204605B0F0BD9B
:1033800000040048E7030000D7A3703D0AF7653F3B
:10339000CDCCCCCCCC6C47C000405F3F000018C007
:1033A0007047B0B504460020207020460830022542
:1033B0002D222946FDF7FEFAA01D2F222946FDF7F2
:1033C000F9FAB0BDF0B581B0044601206F46394628
:1033D000FFF748FF20700098FDF718F80025124EFF
:1033E0002A463346FCF778FFFCF7ECFF21890818E2
:1033F000A0804620FDF7F2FB28463946FFF732FF52
:103400002178014321700098FDF700F82A463346E1
:10341000FCF762FFFCF7D6FF2189081860801920AD
:10342000FDF7DCFB01B0F0BD00002440B0B584B076
:1034300001AD2A81029101902846083002242D22F4
:103440002146FDF7D5FAA81D2F222146FDF7D0FA17
:1034500004B0B0BD80B5FDF7DDFF80BD70B594B0A0
:1034600008AC201D1821FCF765FE002513950520EA
:10347000C004129011950226109601200F90102181
:103480000C910B900A200890029501952046FEF7BA
:103490006DF9002803D0EFF3108072B6FEE70795B0
:1034A000069505960720049004A80121FEF7A6F8CA
:1034B000002803D0EFF3108072B6FEE703952020BA
:1034C00000906846FEF71EF8002803D0EFF3108046
:1034D00072B6FEE714B070BD7047000080B50248B8
:1034E000FEF7D1FC80BDC0462C05002080B5024807
:1034F000FEF7C9FC80BDC0467405002010B5046805
:10350000914A904202D01B4B984204D170239C43B5
:103510004B68234300E02346174CA04206DD90424F
:103520000AD08A4CA04207D0894C03E0114CA0423B
:1035300002D0124CA0421AD103242402A343CC6827
:103540001C4380239C434B69234303608B68C36205
:103550000B688362904205D07C4A904202D07C4A3C
:10356000904201D1096901630121416110BD1C46EE
:10357000E7E7C04600040040FF2B01400020004068
:10358000F0B581B0026A01239A430262026A022303
:103590009A438E68164344680A68009283696A4FAA
:1035A000B84205D0694DA84202D0694DA84206D163
:1035B0000C25AE43CD6804229543354300E03546E3
:1035C000B84205D0614A904202D0614A904207D188
:1035D0000322120294434E698A692643164300E08F
:1035E0002646466073229343009A134383614968D9
:1035F0004163056201B0F0BDF0B581B0026A1023ED
:103600009A430262026A20239A438B681E01164382
:1036100045680A68009282694B4FB84201D034462F
:1036200006E0C024A643CC68240140239C433443D5
:10363000B84205D0454B984202D0454B984208D13C
:1036400003239B029D434B698E691E43B6002E43A4
:1036500000E02E46466073231B029A43009B1B0228
:103660001343836149688163046201B0F0BDC046C1
:10367000F0B581B001221302046A9C430462520235
:10368000036A93438A6816021E4345680A680092DB
:10369000C3692D4FB84201D0344607E00324A40289
:1036A000A643CC682202104C14403443B84205D0E3
:1036B000264A904202D0264A904208D103221203A1
:1036C00095434A698E69164336012E4300E02E4623
:1036D000466073229343009A1343C3614968C163F0
:1036E000046201B0F0BDC04600FBFFFFF0B581B041
:1036F00001221303046A9C430462036A44688D68D0
:1037000000950E68C569104FB84205D00F4FB842FA
:1037100002D00F4FB84205D19703BC434F69BF0198
:10372000274300E02746476073242402A543340260
:103730002C43C4614968016451038B430099090318
:103740001943016201B0F0BD002C01400048014066
:103750000044014080B506210022FDF72BF980BD11
:1037600080B582B06B469980009006211846FDF71F
:103770003FF902B080BDF0B581B09DB28EB2012498
:103780000699AE4210D8FF23AE420ED3150E009517
:10379000170C060E050C92B280B2904204D804D3E6
:1037A000F8B2EAB2824203D923460B7001B0F0BDF1
:1037B000FBD3009886422346F7D800230098864220
:1037C000F3D2DB43F1E7000000B5EDB0FDF72CFECE
:1037D000FFF744FEFFF72CFBFFF7ACFBFFF724FCE1
:1037E000FFF7ECFBFFF704FCFFF7D2FBCF48FEF737
:1037F0007FFACF48FEF77CFA01256902CD4C2046BE
:103800002A46FDF7D8FA2902204636912A46FDF7C6
:10381000D2FA1021204609912A46FDF7CCFA082158
:1038200020463C912A46FDF7C6FA2903204612910C
:103830002A46FDF7C0FAA90320462A46FDF7BBFA3F
:10384000E90320462A46FDF7B6FABB4880212A46FE
:10385000FDF7B1FAFCF78AFFFFF78BF9FDF76AF87D
:10386000FFF79EF8002628463146FDF771F862A85A
:1038700086806296B1A0314632462B46FFF7A4FA05
:10388000B24831462A462B46FFF79EFA61AC16969F
:1038900026703326204629463246FDF78BF8C8208D
:1038A000FDF79CF92046294638963246FDF782F806
:1038B000A74E3078414241412078A138421E9041C4
:1038C00008431921490113910128489500D09DE032
:1038D0001398FDF783F961A80078A138411E88414B
:1038E0003178002900D00546012D00D08EE099A046
:1038F00000260124314622462346FFF765FA61A8D7
:10390000A121017033222146FDF772F862A8818857
:1039100062983246FFF724FF64A80470062221460D
:10392000FDF766F88F4881894791C18946910189E1
:1039300045914189449181884391C1884291018890
:10394000419141884091018A3F91418A3E91818A0B
:103950003D91C78A068B458B848BC38B028C418C2F
:10396000808C0590080480180490180400190390B6
:1039700028048019029038043D99401801903E981F
:1039800000043F9940180090409800044199401865
:1039900042990904439A8918449A1204459BD21803
:1039A000469B1B04479C1B19FCF783FF6E4C208829
:1039B000618809040818A1881722FFF7D1FEE08862
:1039C00021890904081861891D22FFF7C9FE67498A
:1039D00008884A88120410188988FDF7AAF86449F3
:1039E00008884A88120410188A88C9880904891826
:1039F000FEF7EAFC5F4A108851880904081891888C
:103A0000D3881B0459181289FFF710FDFEF7C8FF71
:103A100001252846FFF748F857A016992A462B4655
:103A2000FFF7D2F962AF3846FFF794FE57AE304643
:103A3000FCF76CFE52AC2046FFF7B0FB4FA8FFF737
:103A4000B0FC4DA8FDF766F84BA8FEF7A1FCB08CC2
:103A50004490B88845905A984790599846905898FD
:103A60004390579842905B9E5C9F5D985E995F9AE9
:103A7000629B00960197364F02AE07C644980590A8
:103A800006934598079042984399469A479BFDF7BD
:103A900075F83C48FDF7A2F8FEF7CBFF3A48FDF772
:103AA00081FC169E30463E952946FCF751FF204684
:103AB0000C301190E01C0B90A01D0A9009340C945E
:103AC00065A81030469009200890C00635902F4D0B
:103AD0003F9634962C48FDF795FC102EFAD8B0008E
:103AE00001A108588746C0461F3C00083B3D00081E
:103AF000D53D000879400008D1400008913B0008FE
:103B00001D41000851410008D1410008C33B000895
:103B1000C33B0008933B0008933B0008933B00081D
:103B2000933B0008933B0008933B00082C050020C2
:103B300074050020000400480014004847686F67BF
:103B4000686E6F6F7320506C75732B00825C000879
:103B50003C040020536176652044656661756C7491
:103B60002E2E2E00800200200A040020FC030020DC
:103B7000020400207E0400204C6F6164696E672E91
:103B80002E2E0000B80B0000D40400207C0400207E
:103B9000A0E73979481E8141B8780028489A00D1B9
:103BA0000A46012A00D099E3002834D00020B870DA
:103BB0000E2E00D03EE31420287047980A3047901C
:103BC0006DE33879411E8841B9780029489900D1C0
:103BD0000146012901D000F04BFE00203871B87079
:103BE00014202870459FF8B2022801D100F013FE7E
:103BF000012801D100F018FE00284499439B01D010
:103C000000F019FE481C81B2632901D200F013FEB6
:103C1000632100F010FE002038710A220BE369498D
:103C20000878002801D100F05EFC0020399008706F
:103C300062AE3046FEF789FEF078634C002809D169
:103C40000D99214062A880880143629800220D915D
:103C5000FFF786FD2F99214062A82C9080880143B0
:103C600057A82B90808C2F905A982A905998299079
:103C700058982890579827905B9F5C9E5D9D5E9812
:103C800025905F9B629826902E9820402F9A104393
:103C9000009701960295259A039204932E90059021
:103CA000269806902F91079127AB0FCBFCF766FF64
:103CB00027901198FEF749FE319921402C98808871
:103CC00001432B98808C31905A982C9059982B90C6
:103CD00058982A90579829905B9D5C9F5D9E5E9BAB
:103CE0005F9A629828903098374C2040319C20434E
:103CF00000950197029603930492309005902898BE
:103D000006903191079129AB0FCBFEF725FE0821D4
:103D1000002801D100F054FF00222C48FDF74BF899
:103D200052A8C07C00282A4C01D000F051FF52A8B4
:103D30000121FFF747FA00F04BFF3879411E884117
:103D4000B9780029489900D10146012918D10024E9
:103D50003C71BC70142028700420012608223146D2
:103D6000FEF77DFE4098401CC1B20929214600D8CB
:103D700001464091C8B2214632463346FEF732FF33
:103D80003846203001794A1E91418278002A489AAB
:103D900000D10A46012A01D000F0B2FD1421297099
:103DA0000024047184700420012608223146FEF7A5
:103DB00056FE4099080601D100F09AFD491E00F018
:103DC00098FDC046CC0500200000FFFF000400481D
:103DD000CD0500203879411E8841B97800294899DD
:103DE00000D1014601297FD1002038713990B87087
:103DF000142028704098C0B226214143F348471848
:103E0000BA892C92FA892B923A892A927A89299234
:103E1000BA882892FA882792405A26907B88388A56
:103E20002590788A1C90B88A1B90F88A1A90388B53
:103E30001990788B1890BC8BFD8B3A8C798CBF8C49
:103E400042980006439EF6B236048019449EB6B2EC
:103E500080190690F24E209830403843209005900B
:103E6000080480180490280400190390189800048E
:103E70001999401802901A9800041B994018019053
:103E80001C9800042599401800901F9931403D9AD4
:103E9000521C90B2984200D3399A3D9296B2314367
:103EA0001F91079118042699401827990904289A08
:103EB0008918299A12042A9BD2182B9B1B042C9C2C
:103EC0001B19FEF749FD0028D649469C00D0D6496B
:103ED0002046324601F02EFC012202232046399969
:103EE000FEF772FFD14FD24D3846203001794A1E7D
:103EF00091418278002A489A00D10A46012A00D0CE
:103F000084E0142129700021017181704098C0B2B1
:103F10003D9B190404D126214143C04A51184B88C6
:103F200026214143BD484518AA893992EA892C9235
:103F30002A892B926A892992AA882892EA8827924C
:103F4000405A269068882590288A1C90688A1B9081
:103F5000A88A1A90E88A1990288B1890688B179075
:103F6000AA8BEC8B2F8C6E8CAD8CAD491D980840C4
:103F70005B1E3D939BB22A9318431D900790429875
:103F80000006439BDBB21B04C018449B9BB2C018C5
:103F900006901E98084028431E9005903004C019D2
:103FA0000490200480180390179800041899401872
:103FB0000290199800041A99401801901B98000467
:103FC0001C994018009025980004269940182799BC
:103FD0000904289A8918299A12042B9BD2182C9B21
:103FE0001B04399C1B19FEF7B7FC00288D4900D033
:103FF0008D49469C20462A9A01F09CFB0021012213
:1040000002232046FEF7E0FE884F894DB87C002849
:104010002ED000262E70BE74FEF70BFD0124F14851
:10402000314632462346FEF7CFFE62AF3D9ABA8054
:1040300062967B482D99014090B2014330462D9104
:104040003246FFF78DFB3846784FFFF783FB57AEBC
:104050004098307052A8FFF7A1F80622304621465A
:10406000FCF7C6FC3220FCF7B9FD3046FCF74EFBEE
:104070002878022600F06EFFB878002800D136E2DA
:10408000142028700024BC70DF2000904B20C0005A
:104090004199491C0BB2834200DB034618B2FA492E
:1040A0004843C10F801442180A2050434193181A04
:1040B00003B2469D2846F54E314601F03BFB0122F6
:1040C000284621461346FEF77FFE594D574F0FE213
:1040D000B878002800D1B7E2142028700024BC7002
:1040E0007D20C0003B99491C0EB2864200DB06468B
:1040F00030B2EA494843C10F801442180A205043A5
:10410000301A03B2469D2846E54901F013FB01220F
:10411000284621461346FEF757FE97E23879411E9E
:104120008841B9780029489900D10146012901D078
:1041300000F0C4FC00213971B970142028703A983D
:10414000C4B2482C01D100F05FFC122000F05DFCED
:104150003879411E8841B9780029489900D1014633
:10416000012919D14598C1B249A8425C521C53B2E9
:10417000392B00DD3022425400213971B9701422EC
:104180002A70012422462346FEF71EFE4598801D14
:10419000C0B22146FEF7DBFC3A4620321079411EC0
:1041A000884191780029489900D10146012901D020
:1041B00000F045FC4598C1B249A8435C302B01D1C1
:1041C00000F02BFC5B1E00F029FCC04680020020A2
:1041D00022203A5C511E8A41B9780029489B00D1BF
:1041E0001346012B54D114222A70002901D100F06A
:1041F000A7FD0020B8704598441CE0B2082801D8FB
:1042000000F0A5FDFEF715FC00F0BAFD0090469801
:10421000A44901F08FFA00F047FFC0468002002059
:104220000000FFFF445C0008145D00083C0400200F
:104230007C04002001221421297047988018102E38
:1042400001D900F0D7FD0122B2401521C9020A426E
:104250000FD1112109030A421DD000B2642800DBEE
:104260006420479001F014FA469D28468E498F4AF3
:1042700025E000B2642800DB6420479001F008FAD2
:10428000DF23469D28468A49884A01F053FA18E000
:10429000459C00F00FFF47900E2E469D11D1479987
:1042A00009B27D20C000814200DB01467B48479176
:1042B0004843C10F80144218469D28467D4901F0AD
:1042C00039FA00210124284622462346FEF77CFDC8
:1042D00008202146FEF73BFC774D784F38462030CA
:1042E00001794A1E914180780028489A00D10A46F7
:1042F000012A62D100280BD02220002139540E2E31
:104300000BD11420287047980A384790469D3BE00F
:104310002420002139546A4A01E0694A09321421F3
:10432000297047988018102E01D900F067FD0122EE
:10433000B2401521C9020A4211D1112109030A42D2
:104340001ED000B26321C943884200DC0846479072
:1043500001F09EF9469D28465349544A1EE000B29A
:104360006321C943884200DC0846479001F090F978
:10437000DF23469D28464E494C4A01F0DBF90FE009
:1043800047900E2E469D0BD1479909B2C81781431D
:104390004C4847914843C20C2846464901F0CAF9A7
:1043A00000210124284622462346FEF70DFD082061
:1043B0002146FEF7CCFB404D404FB87C002853D03F
:1043C00000202870B874FEF7ACFB30460B38052887
:1043D0004AD8C046784400794000874405101E241E
:1043E0002C38C046785C00084DA8479901803649B2
:1043F000219A0A40808802434D98219209E04DA8F5
:10440000479941803049229A0A40808802434D985A
:1044100022921146FCF78DFB26E04BA8479941807C
:104420004C994B9804E04BA8479981804B984C9944
:10443000FDF7CAFF18E04FA8479901812248239A47
:10444000024088B202434F98509923920AE04FA845
:104450004799C1801C49249A0A40008902434F9819
:1044600050992492FEF7E2FF2878002801D0FFF748
:1044700031FBFEF756FB0B3E052E00D9B9E104A136
:1044800076008E5B7600B744676600008B5C0008A0
:104490002100740180018D019B01A8016766000065
:1044A0005B5C0008EB5C0008725C0008BC05002047
:1044B000A45C0008525C00087C0400203C0400203E
:1044C000F6FF0000CDCC00000000FFFF00204DA94A
:1044D000085E01F0DDF8DF234698F849F84A01F05C
:1044E00029F9022084E13E9E3F9900F007FFF54E36
:1044F0003879002825D01420287000243C71DF2052
:1045000000904B20C000419B0A331BB2834200DB6A
:10451000034618B2EC494843C10F801442180A20E0
:1045200050434193181A03B2469D2846314601F084
:1045300001F90122284621461346FEF745FCE34DCA
:10454000E34F2220395C002921D000243C54142060
:104550002870DF200090419800B2652800DC6520BB
:10456000431E98B2DB494843C20C0A205043419392
:10457000181A83B2469D2846314601F0DBF8012225
:10458000284621461346FEF71FFCD04DD04F24206D
:10459000395C002921D000243C5414202870DF20ED
:1045A0000090419B1BB26E2B00DC6E230A3B98B23D
:1045B000C8494843C20C0A2050434193181A83B299
:1045C000469D2846314601F0B5F80122284621468D
:1045D0001346FEF7F9FBBD4DBD4FB87C00287FD0D8
:1045E000142028700024BC743798C0B206214143BF
:1045F000B94840180589FEF71CFA0D20012621460E
:1046000022463346FEF7EEFAB44831463246FEF70C
:10461000F8FB28B2AC494843C10F801442180A2065
:1046200050433B95281A03B2469D2846AC4901F0F9
:1046300081F82846A54DA64F214632463346FEF75F
:10464000C3FB042600F085FC469D3B9E459FA04A87
:10465000107900281FD014209C4908700024147180
:104660007D20C0000A3636B2864200DB064630B2F4
:1046700095494843C10F801442180A205043301A0C
:1046800003B22846964901F055F8012228462146F2
:104690001346FEF799FB22208D4A115C00294597AD
:1046A00021D00024145414208849087030B2012607
:1046B000012800DC3046431E98B286494843C20CAC
:1046C0000A2050431F46181A83B22846844901F035
:1046D00031F82846214632463346FEF775FB03E0A3
:1046E000032600F036FC37462420794A115C002965
:1046F0001FD0002414541420744908703E463EB262
:104700000A200A2E00DC06460A3EB1B2714A514325
:10471000CA0C5043301A83B22846714901F00AF896
:104720000122284621461346FEF74EFB6749684A98
:1047300001E066493E46907C00283B9617D0142045
:10474000087000249474FEF774F9102001262146A5
:1047500022463346FEF746FA604831463246FEF7B7
:1047600050FB3798C5B2002D47D0122046E00426F2
:10477000EDE302204DA9085E00F08AFF46985949F2
:104780004F4A00F0D7FF032032E002204BA9085E19
:1047900000F07EFFDF2346984849494A00F0CAFFEF
:1047A000042025E004204BA9085E47494843C10F77
:1047B0008014421846984C4900F0BCFF052017E0D1
:1047C0004FA83C99405E00F063FFDF2346983B49C9
:1047D0003B4A00F0AFFF06200AE006204FA9085E22
:1047E00000F056FF46983F49354A00F0A3FF0720E6
:1047F000459000210122469886E311202146324649
:104800003346FEF7EFF9002D01D0482000E0532099
:104810003A9006269BE34298401CC0B23B2800D346
:104820003B204499439B07E04398401CC3B23B2B79
:10483000449900D33B2342984290C0B200904491E7
:104840008AB24393DBB2469D2846284900F072FFA6
:1048500000210124284622462346FEF7B5FA03200C
:104860007843401DC0B22146FEF771F9174D184F2D
:104870003846203001794A1E91418278002A489AB0
:1048800000D10A46012A00D0E0E21421297000215B
:1048900001718170459FF8B2022800D1FDE0012826
:1048A00000D101E100284499439B00D0B1E288B2D5
:1048B000002800D0A6E20146ABE2C046A45C000896
:1048C000BC0500208B5C0008676600007C040020AB
:1048D0003C040020CDCC000080020020885C000851
:1048E0005B5C0008725C0008525C0008EB5C00082E
:1048F00009214091C8B2214632463346FEF772F98B
:10490000B87C00287ED02E46142535700024BC7457
:10491000FEF78FF8409F380600D18FE10126E0A016
:1049200031462246FEF76DFA0F2003233146324608
:10493000FEF758F9F8B226214143DC4A5018838922
:104940004493C38943930389429343893D93838866
:104950003993C3882C93515A2B9141882A91018A0B
:104960002991418A2891818A2791C18A2691018BB8
:104970002591418B1C91868BC58B038C428C818C3D
:10498000F84F1498384014900790069415983840C2
:104990000843159005901004C0180490280480194D
:1049A00003901C9800042599401802902698000452
:1049B00027994018019028980004299940180090E0
:1049C0002A9800042B9940182C990904399A8918BF
:1049D0003D9A1204429BD218439B1B04449D5B19D1
:1049E000FDF7BAFF0028F34900D0F349469F384647
:1049F000224600F09FFE02254494439442942E46A2
:104A00003D9444E10126A2E2112001221346FEF763
:104A1000E9F8482C50D048204FE039234354142162
:104A20002970002111719170012422462346FEF75E
:104A3000CBF94598801DC0B22146FEF788F8B87CB6
:104A40000726002800D182E2142028700024BC74BC
:104A500045994D1CE8B2042818D3FEF762F849A81E
:104A60000522D6A1FBF778FB002800D154E20122F1
:104A7000D44821461346FEF7A7F97D200001FCF734
:104A8000ADF8D14804704595054661E2C81DC0B235
:104A90000121FEF75CF8459559E2429AD0B2002810
:104AA00000D0B1E10246B0E1439BD8B2002844995E
:104AB00000D0ADE10346ACE153203A9038462030B7
:104AC00001794A1E91418278002A489A00D10A460B
:104AD000012A15D1142129700021017181703A98A1
:104AE000C4B2482C01D0122000E01120012213464C
:104AF000FEF778F8482C01D0482000E053203A9087
:104B0000B87C002859D000242C70BC74FDF791FFAC
:104B10000123AE4821462246FEF756F962AEB48024
:104B20006294964D33992940204633912246FEF7F0
:104B300017FE3046FEF70EFE57A8A54941800470C7
:104B40003A98C0B2532808D157A8818184804199EE
:104B5000418144823B99018107E057A841828180CD
:104B6000419901823B99C181848157AC0121062280
:104B70002046FBF73DFF32992940A08C01435A980B
:104B8000399059982C9058982B90579B5B9D5C9E20
:104B90005D9F5E985F9A009501960297039004923C
:104BA0003291059118462B992C9A399BFBF781FE7F
:104BB0002046FBF7ABFD874F834D28780626C9E1D9
:104BC00001228548FCF7F7F852A8FEF799FA834CC2
:104BD0002078002804D0399820704FA8FEF7F2FB07
:104BE0004FA800780028784D459861D04590399EAF
:104BF0003046FDF705FC4DA801242146FBF7ACFF2C
:104C0000FDF717FF7648314632462346FEF7DCF8BB
:104C100002202146FBF79CFE3498421CD0B2714919
:104C2000C978884200D83992884216942646694F3E
:104C300000D83E9E0321399834905FE335701B49BC
:104C400088894242424106203792504308184489DD
:104C50000C20002101250A462B46FDF7C3FF6248C0
:104C600029462A46FEF7CDF8DF20009020B25F49A2
:104C70004843C10F801442180A2050434194201A1F
:104C800003B2469F38465A4900F054FD03260021DE
:104C9000012238462B46FEF797F84E4F4A4D58E111
:104CA0004461792053656C656374000080020020C4
:104CB000042039904FAC205E2B9006202799484362
:104CC00057A90F180A26BB5F08202A90395E0220D8
:104CD0002C90255E4DA882884D980091019527491A
:104CE0000E9D0D4015430E9529461A462B9BFBF74A
:104CF000C3FE3998235E2B96BA5F4C994B98FDF70B
:104D000017FB2A98385E2C99615E012681422A960B
:104D100000DA00263598369D29463246FCF74BF8D6
:104D20002D4829463246FCF746F83998205E2B9CE0
:104D3000395F4A1F824200DC1CE1234D2A9895E22C
:104D4000002139544599080600D119E14C1EFDF7A0
:104D500070FEE0B2082800D9A6E103A14000085A7D
:104D6000400087440000FFFF0D001A00310144019C
:104D7000560169017D0190010F01C0460000FFFF4F
:104D800000240123D54821462246FEF71DF852A8EB
:104D900083780288C078FFF739FA00210124D0A077
:104DA0000A462346FEF710F852A8037AC288407AD2
:104DB000FFF72CFA445C0008145D000831333635E7
:104DC00000000000055D00087C040020785C0008FD
:104DD000E70300003C04002000040048CD0500204B
:104DE000C95C00082D000020885C00086766000090
:104DF0008B5C00084790469DFFF763FA4790469DFD
:104E0000FFF7CEFA491E04E0521E4499439B01E08D
:104E10005B1E429A4292D0B2009044918AB2439370
:104E2000DBB2469D2846B14900F084FC00210124F4
:104E3000284622462346FDF7C7FF03207843401D3E
:104E4000C0B22146FDF783FEA94DAA4FB87C0028C9
:104E50003AD0142028700020B874459A521CD1B260
:104E60000329459217D32870429800064399C9B286
:104E700009044018449989B240183D9CA1B2092EFA
:104E800011D152AA948052909B4A0F9B13400B431E
:104E900017220F9313E003205043401DC0B201219D
:104EA000FDF755FE10E00A9B188052AA5481020CAF
:104EB0005A80914A109B13400B431D2210931946B0
:104EC000FEF74EFCFDF72DFE2878002801D0FEF7F6
:104ED00001FEFDF726FE092E06D152A8837802882E
:104EE000002045900B9805E052A8037AC288012063
:104EF00045900C9800780090469C20467B4900F035
:104F000019FC0021012220461346FDF75DFF142005
:104F100028703C9EFEF7DEFDFDF78BFD01266F48F5
:104F2000214622463346FDF74FFF52A88378028878
:104F3000C0780090469D28466C4900F0FBFB28464F
:104F4000214632463346FDF73FFF08264594684D1B
:104F5000684F2878002801D0FEF7BCFDFDF769FDF9
:104F600052A80026C674012164483E9101703F9604
:104F7000FEF7B0FD491D814213DA03205C4D75E157
:104F8000FDF757FD002101245DA00A462346FDF7E9
:104F90001BFF2046FDF788FD65A82021018208241B
:104FA00082E008374FA82C99415E0026BA5F13466D
:104FB0003C3B8B424E4D2A9800DD57E13C328A4201
:104FC00000DA52E1304651E1002401234EA021468F
:104FD0002246FDF7F9FE4DA8005F00F059FBDF23E4
:104FE00046984D494D4A00F0A5FB02245CE00021A3
:104FF00001234BA00A46FDF7E7FE02204DA9085EFB
:1050000000F046FB46984949444A00F093FB0324CC
:105010004AE00021012346A00A46FDF7D5FE022002
:105020004BA9085E00F034FBDF2346983A493B4A1F
:1050300000F080FB042437E00021012340A00A4651
:10504000FDF7C2FE04204BA9085E41494843C10F49
:105050008014421846983F4900F06CFB052423E079
:10506000002101233CA00A46FDF7AEFE08204FA90F
:10507000085E00F00DFBDF2346982749274A00F021
:1050800059FB062410E00021012337A00A46FDF752
:105090009BFE06204FA9085E00F0FAFA46982349C5
:1050A0001E4A00F047FB07240021012246981346C0
:1050B000FDF78AFEB87C082600286ED000204590B7
:1050C000B874E0B2082868D8784400794000874472
:1050D00053667D8995A1ADBAC700C0460B5D000837
:1050E0004D6F746F72204F6666000000EB5C000825
:1050F0007C0400203C0400200000FFFFCC050020C1
:10510000455849540000000041646A2046616E2001
:1051100054656D7000000000A45C0008BC05002010
:1051200041646A2046616E2048554D00725C00085B
:1051300041646A20486561742054656D7000000008
:1051400041646A20486561742050574D000000009A
:1051500067660000525C000843616C696220534836
:10516000542054656D70000043616C69622053489F
:10517000542048554D00000052A880883D90529C14
:10518000FDF7DAFC05200121FDF7E1FC200E42903D
:105190004494200C4390089EDBE64594D9E652A83F
:1051A00040893D900A9804884588FDF7C5FC052094
:1051B0000121FDF7CCFC2804F94DFA4F0119449167
:1051C000010E4291000C43900A26C2E64DA80088C9
:1051D0004790FDF7B1FC08200121FDF7B8FC0B2634
:1051E00002202EE04DA840884790FDF7A5FC08203E
:1051F0000121FDF7ACFC0C26032022E04BA84088DF
:105200004790FDF799FC08200121FDF7A0FC0D2631
:10521000042016E04BA880884790FDF78DFC0820FD
:105220000121FDF794FC0E2605200AE04FA8008915
:105230004790FDF781FC08200121FDF788FC0F262F
:105240000620459085E64FA8C0884790FDF774FC7E
:1052500008200121FDF77BFC07204590099E78E698
:10526000459828700826459673E6032001263146A6
:10527000FBF76EFB3498401C169900291ED0F649A6
:105280000978C2B28A4200D9002034900024012754
:10529000F648214622463B46FDF796FD57A8007882
:1052A00021463A463F973B46FDF79CFC300621D00D
:1052B000FDF7BFFB002616963F991EE02746E649FC
:1052C0003F9A895CC2B200238A421D4600D8054637
:1052D0008A42469C3E9E169300D901263F99022998
:1052E000349500D11DE1012900D150E10029D74DAD
:1052F000CCD002E0214616942646D34F38780028B9
:1053000012D03F9152A9012855D1C87C012852D111
:1053100052A80024C47401263146FDF753FF3F9480
:105320005594FDF786FB46E052A8C07C002810D1BA
:1053300052A80124C47400273946FDF743FFFDF746
:1053400078FB0B2039463A46BF4F2346FDF74AFC0F
:1053500003213F914FA80078002809D0469D284698
:10536000C3491CC91CC00A880280897881701CE06E
:105370004FA8418808B2B64D6843C20F8014821806
:1053800050980A231C465443091B09B2009201910C
:1053900001B26943CA0F89148A185343C01A03B271
:1053A000469D2846B34900F0C5F9012128460A4622
:1053B000FDF727FDA54D3220395C002905D00021DD
:1053C0003954A0481299FBF7EEFC3898385C002855
:1053D00019D0002438983C542046FDF765FBA64AB6
:1053E000D07A41424141D1720028A44800D0A4485B
:1053F000012321462246FDF7E7FC1398C830FBF74E
:10540000EDFBFDF716FB3E962320385C00260028B6
:1054100049D0F878002846D00026FE703E7114204E
:105420002870203739973E71FE703046FCF7E8FF50
:105430004DA801242146FBF78FFB52A8C4742146D6
:10544000FDF7C0FE3598369F39462246FBF7B3FC80
:105450007C4D284639467C4F2246FBF7ACFC0821A0
:1054600028467A4D2246FBF7A6FCFDF7E2FA85486E
:10547000314632462346FDF7A7FC49A8067182490A
:105480004991314622462346FDF79EFCFDF754FB29
:1054900006202146FDF75BFB39980671FE743E75C8
:1054A0004596C6700726B87C002801D1FEF712FB8E
:1054B000142028700024BC74FDF7BBFA0126734841
:1054C00031462246FDF79DFC624831463246FDF7E3
:1054D00098FC57A800784090214632463346FDF7A5
:1054E00081FB2046FCF78CFF4DA83146FBF734FBCF
:1054F00052A8C6743146FDF765FE3598369D29469B
:105500003246FBF758FC4F4C204629464F4D324659
:10551000FBF751FC082120463246FBF74CFCFEF716
:10552000D9FA0E200225002403232C932946224673
:10553000FDF758FB62A83E908378028865AF384635
:10554000464900F0F7F8072139913846169422466B
:105550002C9C2346FDF738FC0F2001223F9529465D
:1055600015462346FDF73EFB3E98828838463C4967
:1055700000F0E0F8384639992A462346FDF724FC26
:1055800030060AD0FDF755FA002631464FE04FA805
:105590000078002808D001214AE0169E4DE0C04660
:1055A0007C0400203C0400205098DF21009101B2CF
:1055B000274D6943CA0F89148A1839465143401A46
:1055C00003B265A83F90274900F0B4F84FA840887F
:1055D00001B26943CA0F89148A185743C01B03B22A
:1055E0002046214900F0A6F80C200025032421467E
:1055F0002A462346FDF7F6FA07213E913F982A46B0
:105600002346FDF7E1FB0D20012739463A462346A4
:10561000FDF7E8FA46983E993F973A462346FDF74C
:10562000D3FB300607D0FDF704FA00262C99169616
:10563000054F064D62E616952E46034F034DFEF7C5
:1056400053FFC046000400483C0400207C040020B6
:1056500067660000885C00082D000020365C0008AA
:10566000FA5C0008975C0008665C0008005D0008B2
:10567000305D0008D65C000828040020B45C0008F7
:10568000BF5C0008AB5C000830303030225D0008A1
:1056900080B501280ADB81B20F4A4A43D20C0A21A5
:1056A0005143401A83B20D4813A111E000280BD0DA
:1056B000404281B2084A4A43D20C0A215143401A5F
:1056C00083B2064806A103E0044808A1002213465D
:1056D00000F030F8014880BDCDCC0000BC050020B2
:1056E0002D2532642E25316400000000202532640F
:1056F0002E253164000000002B2532642E253164F4
:105700000000000010B50920C40604210122204633
:10571000FBF751FBC820002100BF4A1C632911463A
:10572000FAD3401E0104F6D1042100222046FBF7E3
:1057300042FB10BD0FB410B504A9074B02AA039891
:1057400000F032F8044602A9002000F067FA204673
:1057500010BC08BC04B018471D5C00082021020CD6
:1057600001D010211046020A01D010460839020962
:1057700001D01046091F820801D01046891E420838
:1057800001D0881E7047081A704702E008C8121F2F
:1057900008C1002AFAD170477047002001E001C11A
:1057A000121F002AFBD17047FFB591B00F46054686
:1057B000002606E025280AD0149A139990476D1CFC
:1057C000761C28780028F5D1304615B0F0BD0024AD
:1057D00000940121F34A029400E004436D1C2B78ED
:1057E0000846203B98401042F7D128782A280ED04E
:1057F000022128780246303A092A15D8009A0A234D
:105800005A43303A80180C436D1C0090F1E701CFE9
:105810000090002805DA012040030443009840422C
:105820000090022004436D1C28782E2815D10420F6
:10583000044368786D1C2A280AD101CF6D1C0290A0
:105840000BE002990A225143303940186D1C029036
:105850002878014630390929F3D928786C2810D0E6
:1058600006DC4C281AD068280ED06A2817D104E02C
:10587000742813D07A2812D110E001204005044387
:105880000CE00121090501E0032109050C436978B9
:10589000814203D10120000524186D1C6D1C28785D
:1058A00003906E281ED00CDC632831D004DC002865
:1058B0008AD0582811D1B2E064287BD069280CD155
:1058C00078E073282DD004DC6F2870D0702804D1C4
:1058D000A7E075286CD078286BD0149A139990475C
:1058E000761C62E06002400F022807D003280AD02D
:1058F000042838680AD006603F1D56E03868F11762
:1059000006604160F8E738680680F5E70670F3E75F
:105910003878694608740020487404A80390012070
:1059200003E0386803900020C0433F1D61070FD596
:10593000002101E00199491C029A0191914213DA78
:105940008142F7DB019A0399895C0029F2D10BE0CF
:10595000002101E00199491C01918142FADB019A81
:105960000399895C0029F5D101990098139A401A8E
:1059700000902146149B00F03BF9019980194618CC
:1059800007E0039803990078491C0391149A13992E
:1059900090470198401E0190401CF2D12146149B73
:1059A000139A009800F014F986196D1C09E741E07C
:1059B00033E034E00A200021049005916002410F99
:1059C000022905D001CFC2179446032905D007E06C
:1059D000FF1DFF08FF0003CF06E000B2C217944688
:1059E000042902D140B2C1178C4600226146944579
:1059F00006DA0A460021404291418C462D2102E000
:105A0000210504D52B216A461176012103E0E10727
:105A100001D02021F7E7019154E00A200BE010208B
:105A200009E010200490002104200443082005917F
:105A3000029003E008200021059104906002410FCC
:105A4000022905D001CF00229446032906D006E0A2
:105A5000FF1DFF08FF0003CF8C4603E080B204293E
:105A600000D1C0B20021019121072BD503997029E3
:105A700006D0049A1021059B4A401A4305D00EE037
:105A800040216A461176012108E06146014306D0B3
:105A900030216A4611760399517602210191049AC8
:105AA0000821059B4A401A430CD16146014301D1AC
:105AB000610707D530216A461176012101910299CB
:105AC000491E02910399582904D037A103910FA9C7
:105AD0000F910DE039A1F9E76146059B049AFAF7A9
