:020000040800F2
:1000000068070020C5000008B92800086F1F000815
:1000100000000000000000000000000000000000E0
:10002000000000000000000000000000C52A0008D9
:100030000000000000000000BB280008752B00082D
:10004000D700000800000000D7000008D700000813
:10005000D7000008D7000008D7000008D700000824
:1000600000000000D7000008D7000008D7000008F3
:10007000D7000008D7000008D700000800000000E3
:10008000D70000080000000000000000D7000008B2
:1000900000000000092C0008192C0008D7000008F7
:1000A00000000000D700000800000000D700000892
:1000B0000348854600F0AEFA004800472D2F00089F
:1000C000680700200448804704480047FEE7FEE731
:1000D000FEE7FEE7FEE7FEE7052C0008B10000089A
:1000E00010B5202A04DB0846203AD040002110BD7C
:1000F0000B46D340D0402024A21A91400843194611
:1001000010BD03460B439B0703D009E008C9121F2B
:1001100008C0042AFAD203E00B780370401C491C83
:10012000521EF9D27047D2B201E00270401C491E43
:10013000FBD270470022F6E710B513460A46044684
:100140001946FFF7F0FF204610BD421C0178401C05
:100150000029FBD1801A7047F0B507460846584081
:1001600087B0C00F049048000E4659004008490867
:10017000BC1A884105D2384631461E4617460B4602
:1001800002465800400810434CD0300D0390400503
:100190005900400D490D0590401A0290402872DA2E
:1001A00018030121000B09050843019004980092EF
:1001B000002805D001995242002088410092019008
:1001C000029840210A1A0199009800F060F905464A
:1001D0000C466B4607CB00F06AF9C0197141039ACF
:1001E0000E0D0023D71756401A467A40164344D0C6
:1001F000049A002A2DD0029A012A039A15DC1205CE
:10020000C01A914101263605001C7141D20F059E8E
:10021000D2070093019202962A46234600F0A8F9DD
:1002200007B0F0BD38463146FAE71605224A0F46B8
:10023000B218C01AB74101210905001C4F4100182E
:100240007F41114618187941E20F10436D1964413E
:1002500013E0E2076D0815436408C2071443039ACC
:1002600001261205C01A91413605001C7141CE07C6
:10027000400830434908C01851412A46234600F03F
:100280006AF9CDE7FFE7049801224000C117121A6E
:1002900000238B4104983146C417381AA141EEE778
:1002A00030B40124E407634030BC55E730B4012486
:1002B000E407614030BC4FE70000E0FFF0B51FB439
:1002C00088B00B990998002448400999C00F49004B
:1002D00049080991C0070B990090490049080B9102
:1002E00009990898A64608431CD00B990A98084318
:1002F00018D0099801244000420D4800410D09988A
:1003000024050003000B204309900B980003000B09
:1003100020430B9050181C494018002201901446AD
:10032000104605E0002001460DB0F0BD032801DABB
:10033000034600E003239C46C11A0AAE0AE05F00B0
:1003400008ADED5B4F00F75B7D430027AA187C41A9
:10035000491C5B1E6145F2DD410004AB5A52210489
:10036000120C0A43240C401C0828DFDB0198029081
:100370000099704601910090059B049A0799069890
:1003800000F0F6F8D0E700000DFCFFFF0EB50549C0
:100390000291002100910A460B46019100F0E8F815
:1003A00003B000BD3304000070B5CD0F4A0009034F
:1003B0000123090B1B0519430B4BED070024520DBC
:1003C0009A4201DA002070BD074B34339A4203DCB5
:1003D0009A1AFFF785FE02E00449511888402C4321
:1003E000F1D0404270BD0000FF030000CDFBFFFFD5
:1003F000C20FD207400040080BD0C10D0723DB011C
:10040000C91840020905400A1143C20840071143B8
:100410007047002001467047CB0FDB07490010B53D
:10042000490802460A4307D00A0D07240903E401DC
:10043000090B121B002A01DC002010BDC900440F6B
:100440000C43C100E018D205801800F043F810BD3D
:1004500070B50446002903D000202022012310E0BB
:10046000002801D00020C043C046C0460DE025460C
:10047000D5408D4205D30D469540641B1D469540E1
:1004800040191546521E002DF1DC214670BD10B5F5
:10049000202A04DB0146203A9140002010BD914003
:1004A00020239C1A0346E3401943904010BD10B529
:1004B000202A06DBCB170846203A1041C1170B4310
:1004C00006E00B461341D0402024A21A9140084375
:1004D000194610BD002904DA401C490001D140082A
:1004E0004000704770B40024050C05D110240004AE
:1004F00002D1002921D01124050E01D100020834B7
:10050000050F01D10001241D850F01D18000A41C1D
:10051000002801DB4000641C002908D020252E1B88
:100520000D46F540A14000D00121294308430106B2
:100530001B1B000ADB1D02D5002070BC7047DB05C9
:10054000181880180029F8DA401C4900F5D170BC51
:1005500040084000704710B5002B08DA0024401C0A
:10056000614192185B411A4301D14008400010BD1F
:10057000F0B51FB482B005460C0003D0084602F067
:100580004BFE02E002F048FE203002460090214679
:100590002846FFF77CFF049B059A04460F46184344
:1005A0001143084314D0184610431BD00098402133
:1005B0000A1A18460599FFF793FD05460E46009A5C
:1005C00005990498FFF763FF084305D0012004E074
:1005D0002046394607B0F0BD0020C11705430E4341
:1005E0002C43374300990E986305401A7905E40AB5
:1005F00000220C43FD0A0A3002D500200146E9E73B
:100600000105101969410C9C0D9D00196941FFF706
:10061000A2FFDFE7064C0125064E05E0E36807CCA4
:100620002B430C3C98471034B442F7D3FFF744FDFA
:10063000743200089432000870B58C180578401C9C
:100640006B075B0F01D10378401C2A1106D1027899
:10065000401C03E006780E70401C491C5B1EF9D15B
:100660002B0705D40023521E0DD40B70491CFAE74A
:100670000378401CCB1A921C03E01D780D70491CB6
:100680005B1C521EF9D5A142D8D3002070BD0000DA
:1006900010B504460121062200F098F820680028D1
:1006A00003D1064800F00CF82078C0B200010349DD
:1006B000091810222046FFF724FD10BD84000020F9
:1006C00070B505460224048100202860281D0722F9
:1006D000124E2146B047A81D09222146B047E868BE
:1006E0000B222146B047E868801C0D222146B04706
:1006F000E868001D0F222146B047E868801D1122DE
:100700002146B047E868083013222146B047E86820
:100710000A3015222146B04770BDC046CD070008FB
:100720007FB500AC0FC46E46301D02240722124D67
:100730002146A847B01D09222146A84703980B224D
:100740002146A8470398801C0D222146A8470398FC
:10075000001D0F222146A8470398801D1122214623
:10076000A8470398083013222146A84703980A3067
:1007700015222146A8477FBD090800080C48002122
:10078000018181710170418101730A214180192128
:10079000090181807047C04610B5054C00212181B8
:1007A000012121700A21FFF753FE608010BDC04671
:1007B0005801002080B52B2148430A21FFF748FE4D
:1007C000002802D000BF401EFAE780BDF0B585B01A
:1007D00004920D4607460020C643264CA021012264
:1007E0002046334600F064FA0028F7D100970195BF
:1007F00002962048A0210123049A00F0E9FA0A2079
:1008000000F0D2F805B0F0BDF0B589B007920891BC
:1008100006900920C0060121C90200260590049116
:10082000324600F0ACF9F443124F089886421AD0D1
:10083000A021012538462A46234600F039FA00282F
:10084000F6D1069880190090019502940798301807
:1008500082B2A02138462B4600F06AFB0A2000F045
:10086000A3F8761CE1E701220598049900F087F9C6
:1008700009B0F0BDC8010020EFF3108072B6FEE7AA
:100880001CB51C46019100900023A2420DDD121BF5
:10089000000C0121824209DA0748008800B2201AC0
:1008A000002803DC194604D500E01946684600F02C
:1008B00043F8014804801CBD660100201CB51C469D
:1008C000019100900023A2420DDD121B80B2012194
:1008D000824209DA0748008800B2201A002803DCA7
:1008E000194604D500E01946684600F025F801488D
:1008F00004801CBD68010020B0B5044602252522F5
:100900002946FFF763FFA01C27222946FFF75EFF59
:1009100001206060B0BDBCB5019100906C4602251D
:10092000252220462946FFF76FFFA01C27222946D3
:10093000FFF76AFFBCBD0000B0B541604D1E681EE8
:100940002A46824101204103844C204600F017F9D9
:100950006A426A411021204600F011F9B0BDC0463C
:10096000F8B507A8048889B200200646C5B2B6B219
:10097000B14209D906276F43DF19BF88F619B7B20C
:10098000A74201D8401CF1E791B2A94200D2501E03
:10099000C4B2481E021B501E82417048082100F05C
:1009A000EEF82046F8BDC046B0B5044600F0EEF8BB
:1009B0000546601C02D004484068041900F0E6F8BF
:1009C000401BA042FAD3B0BD00000020F0B588B0B3
:1009D00007465E48874201D0052000E003200090D2
:1009E00000220692144605970E683046E04000D17A
:1009F000AAE001250295A5402E4000D19EE0049476
:100A000003924A68032314461C40601E01281AD82A
:100A100003230192069A9340B8689843CF689740A1
:100A20000743059887600198C006C00F049A90405C
:100A3000059F7F68AF43074305984760059FD843EC
:100A40005500019A08E01846069DA840C043032CB3
:100A500002D1069D1C461CE0FB6803408F68AF4036
:100A60001F43059BDF60059F022C12D11C22039BB4
:100A70001A400F239340049CE408A4003C19276A01
:100A80009F430B6993403B43059F23624A680324BD
:100A90001440AC403B68034023433B609003800F0D
:100AA000039A049C4AD02B4B1868029D2843186077
:100AB00018682840079023460C2414400F20A040BB
:100AC00003229343079A244D5A5982435B19092004
:100AD000C006874208D02148874207D02048874275
:100AE000009804D1022002E0002000E00298A0401B
:100AF00010431860164800684B68DA0301D530438C
:100B000000E0B043049C124A106050689A0301D57B
:100B1000304300E0B0430E4A50609068DA0201D5DD
:100B2000304300E0B0430A4A9060D0689A0201D591
:100B3000304300E0B043039A054BD860121D06987D
:100B4000801C0690641C4FE708B0F0BD000C004804
:100B50000004014018100240080001400004004851
:100B60000008004800690840411E884170474269FA
:100B70000B4693430A401104C91881617047002A4B
:100B800001D0182200E028228150704701480068F7
:100B90007047C04664030020B0B5436C0222202B8E
:100BA00017D1036C012B14D024224264026813680D
:100BB0000124A3431360230315689D431560136844
:100BC0000B4313601168214311600022026420214D
:100BD00041641046B0BDB0B5436C0222202B17D142
:100BE000036C012B14D02422426402681368012490
:100BF000A34313600F231B0215689D430902294379
:100C000011601168214311600022026420214164B7
:100C10001046B0BD70B5002820D00446406C0028B6
:100C200004D100202064204600F032FA24206064C1
:100C30002068026801218A4302600F22120663685D
:100C4000934303618368184A13408360A368E5688F
:100C5000012D05D1CD032B43836009E0012070BD38
:100C60002126B60233438360022D01D1CB024360BB
:100C700043680E4D1D434560C3681340C36022693D
:100C800063691343A26912021A43C260E269236ACC
:100C90001343036002680A4302600020E0642021DD
:100CA00061642063A06470BDFF7FFFFF00800002CD
:100CB000F0B589B01D461346044600220892406CE8
:100CC0000227202873D107922068826912046ED40B
:100CD000226C012A6BD024226264012202922264D7
:100CE000079AE264384A1140384A8F180522D20226
:100CF0008918039106930497E1680129394600D0C9
:100D000003994160FFF742FF06462068816949095F
:100D1000826912090A43D10709D1681CF5D0FFF78F
:100D200035FF801BA8423AD8002DEED137E0876905
:100D30000096202100222046059101922B4601F0C9
:100D400023FAF90636D5002830D120681021C16178
:100D50000599C1610899069B994211D10127B903F0
:100D600042680A434260009620260022204631460F
:100D70002B4601F009FA069B002818D12068C661AD
:100D80000899491C089108999942049FB4D3059980
:100D9000616401982064E06C0843E06406E0202070
:100DA000606407992164E16C0143E164029F384665
:100DB00009B0F0BD0028029FF9D120680599C161F2
:100DC000019F27646164F2E7FF0300000020000236
:100DD000F0B587B00546406C0224202838D10C9F1E
:100DE000002F32D016460D9A002A2ED0286C0128EA
:100DF0002ED003920693059101242C64FFF7C6FEC2
:100E000004900090E10319232846224601F0BCF922
:100E100000281DD10E99222068644020A86400207B
:100E2000E8646F620F4602906863039868850091DA
:100E300004980190284605993246069B01F028F94E
:100E4000002808D00298286402E001246002E864C7
:100E5000204607B0F0BD0697012426066306688D7C
:100E6000000A32480396029306D0FF222A8500909A
:100E700028460599334605E0698D29850090CAB258
:100E80002846059901F06AF9049E069B0096042104
:100E9000002728463A4601F077F90028D8D1686A39
:100EA0002968496A0170688D401E6885686A401C1F
:100EB0006862288D411E2985688D0904069B1FD113
:100EC00000281DD00096802100262846324601F0D9
:100ED0005BF90028BCD1688D000A06D0FF222A8564
:100EE000009628460599039B06E0688D28850096A4
:100EF000C2B228460599029B01F030F9049E069B78
:100F0000688D0028C2D128461946324601F061F9A1
:100F100000289DD128682021C16142685B4B1340A5
:100F2000436069642F64AF643C4691E7002400800D
:100F3000F0B589B00546406C0224202838D10E9FB8
:100F4000002F32D016460F9A002A2ED0286C012886
:100F50002ED008920593079101242C64FFF716FE0A
:100F600004900090E10319232846224601F00CF971
:100F700000281DD11099212068644020A864002019
:100F8000E8646F620690686308986885089100912C
:100F9000049F0197284607993246059B01F0AAF85D
:100FA000002808D00698286402E001246002E86462
:100FB000204609B0F0BD012426066306688D000AAC
:100FC000059603930AD0FF222A8500200090284628
:100FD0000799334601F0C2F8069E08E0688D28851F
:100FE000069E0096C2B22846079901F0B7F8089B02
:100FF000284619463A4601F00FF90028D8D128684A
:10100000696A0A788262688D401E6885481C686239
:10101000288D411E2985688D0904089B1FD1002851
:101020001DD00097802100262846324601F0ACF8FA
:101030000028BDD1688D000A06D0FF222A850096BF
:1010400028460799059B06E0688D28850096C2B260
:1010500028460799039B01F081F8069E089B688D3E
:101060000028C5D1284619463A4601F0B2F80028B2
:101070009ED128682021C1614268044B134043601F
:1010800069642E64AE64344692E7C04600E800FE10
:10109000B0B586B0044601A81421FFF74BF82068CC
:1010A000114988421DD10125A804104C2168014333
:1010B000216021680140009105950395122002905E
:1010C00003200490800201900098094801A9FFF7CD
:1010D0007DFC6805A1680143A160A1680140009101
:1010E000009806B0B0BDC046005400401410024045
:1010F00000040048B0B5002822D004460068134917
:1011000001601349016061684160A1688160FFF777
:101110003DFD05462068C16849070AD0FFF736FD46
:10112000401B2828F6D32068C0684007F2D003206F
:10113000B0BDE16802698A4204D10949016002E058
:101140000120B0BD01610020B0BDC046CCCC000084
:101150005555000000680249016000207047C046F4
:10116000AAAA00001A48406802490A6810180860D4
:101170007047C0466403002010B5A54801681022DE
:101180000A4302600024204600F004F800F022F830
:10119000204610BD70B504467D20C0000C4E71681D
:1011A000FFF756F901469D480068FFF751F900F036
:1011B0004FFB0125032C08D8002806D10025E84361
:1011C00021462A4600F028F83460284670BDC04603
:1011D0000000002082B0094801680122114301602B
:1011E0000168114001910199110742680A43426068
:1011F000406808400090009802B070471810024004
:10120000002805D41F2108400121814001480160C8
:101210007047C04600E100E080B501F05BFE80BD94
:10122000F0B585B004468078C007384B38D001202F
:101230000290010718680840039006D11868084317
:10124000186018680840049004980191304E306886
:10125000C00538D5032528022C4B5968014012D00F
:101260006268024091420ED00298000459685A68A0
:1012700002435A605A6882435A600846254A104021
:101280005860C80731D15868224908406168014355
:1012900059600398002803D11868019988431860A1
:1012A0002068C10705D0596903229143A2680A4307
:1012B0005A610025800625D5586910218843E168C8
:1012C000014359611EE002980702306838433060DC
:1012D000FFF75CFC054630683842BBD1FFF756FC8F
:1012E000401B6428F7D903250CE0FFF74FFC0646A6
:1012F000484F064B58688007C5D4FFF747FC801B52
:10130000B842F6D9284605B0F0BDC0461C100240D0
:1013100000700040FFFCFFFFF8B500284CD00446E9
:101320003B4A1368012003408B4208D21368012610
:10133000B3430B431360126832408A4266D1009176
:1013400021688A070ED54A0705D507221202424DA9
:101350002B6813432B60404D2A68F0239A43A368FF
:1013600013432B60C90729D1294908680126304059
:10137000009A904205D90868B04308600868C00721
:1013800044D12078400707D507200002324A11686F
:101390008143E0680843106000F042F82E49096874
:1013A0000906090F1C4A515CC8401C490860002608
:1013B0003046FFF7EFFE29E0012627E06168264A64
:1013C000121F022904D0012905D11268920304E0FA
:1013D0001268920101E012689207064616D51E4A6D
:1013E00010680326B04308431060FFF7CFFB0746A1
:1013F000084D194800680C21014060688000814256
:10140000B2D0FFF7C3FBC01BA842F2D93046F8BDEB
:101410000020024088130000643200088000002091
:1014200010B50D490A680C2313400C48082B08D14D
:1014300093021B0F0AA4E45C896AD20303D4104808
:1014400007E0044606E00F22114009A2515CFEF7B6
:10145000FFFF4443204610BD0410024000127A00F2
:1014600002030405060708090A0B0C0D0E0F1010E5
:101470000102030405060708090A0B0C0D0E0F10E4
:1014800000093D00F0B587B004460120002C00D1D2
:1014900095E104902078C007EA4E059411D0716858
:1014A0000C200140042906D071680140082937D179
:1014B0007068C00334D53068800302D560680028A6
:1014C00042D02078800758D570680007800F1BD065
:1014D00070680C210140082902D17068C00313D53F
:1014E0003068059CE168002930D001210843306054
:1014F000FFF74CFB05463068800737D4FFF746FB03
:10150000401B0228F7D930E130688007059A02D5E0
:10151000D068012818D13068F8218843116929E082
:10152000616801204704002900D1F3E0052900D1BA
:1015300007E1012900D108E1010432688A433260E1
:1015400081043068884303E1049838E1012188432D
:101550003060FFF71BFB0546306880070DD5FFF7AD
:1015600015FB411B03200229F6D928E13068F82138
:1015700088432169C90001433160059C2078000738
:1015800027D42078400700D488E001200390010789
:10159000F0690840029006D1F0690843F061F069F3
:1015A0000840069006980191A74F3868C00532D5CB
:1015B00005988068A54F00283FD0052852D0012803
:1015C00054D0306A039988433062306A04218843DA
:1015D0004FE0706AE16900290ED001210843706272
:1015E000FFF7D4FA0546706A8007CAD4FFF7CEFA2F
:1015F000401B0228F7D9B8E0012188437062FFF749
:10160000C5FA0546706A8007BBD5FFF7BFFA401BD5
:101610000228F7D9A9E0039804023868204338600B
:10162000FFF7B4FA054638682042C1D1FFF7AEFA99
:10163000411B03206429F6D9C1E0306A039988432D
:101640003062306A042188433062FFF79FFA054612
:10165000306A80071AD5FFF799FA411B0320B94277
:10166000F6D9ACE0306A042101433162306A039953
:1016700008433062FFF78AFA0546306A800705D4CE
:10168000FFF784FA401BB842F7D96EE002980028B1
:10169000059C03D1F06901998843F0612078C00668
:1016A0006DD5059A5069411D16D001281DD1706B6A
:1016B000042101437163706B012101437163FFF7E2
:1016C00065FA0546706B800751D4FFF75FFA411B3E
:1016D00003200229F6D972E0706B042188437063FD
:1016E000706BF8218843916946E0706B04210143D7
:1016F0007163706B012188437063FFF747FA0546F9
:10170000706B80073BD5FFF741FA411B032002298C
:10171000F6D954E0010432688A43326080043168AB
:1017200081433160FFF732FA0546059C3068384244
:1017300000D1C6E6FFF72AFA411B03206429F5D938
:101740003DE0810432680A43326001043068084396
:101750003060FFF71BFA05463068384200D0B0E62B
:10176000FFF714FA401B6428F6D9032027E0706BBA
:10177000F821884305998969C90001437163059877
:10178000046A002C1AD070680C210140082918D175
:10179000012C049813D00120030471680B40F26AF5
:1017A000059D6C6AA3420AD10F231A40EC6AA2423B
:1017B00005D19A041140AA6A914200D1002007B0D5
:1017C000F0BD012002063168049291433160470662
:1017D000FFF7DCF90546022C0AD1049C3068384238
:1017E00010D0FFF7D3F9411B03200229F6D9E6E711
:1017F00030683842E2D0FFF7C9F9411B03200229C3
:10180000F6D9DCE7F06A0F218843059AD16A0143D3
:10181000F1623D20000471688143906A0843516A77
:1018200001437160306820433060FFF7AFF9044630
:1018300030683842C2D1FFF7A9F9011B0320022901
:10184000F6D9BCE700100240007000408813000089
:10185000401E010E01D0012070470749074A506021
:10186000074803680B4003218907591801600020CD
:101870009060072111607047FFFFFF0010E000E05B
:1018800020ED00E07047704770B50246C06B01283C
:1018900001D1022070BD0020D0633F231B02CC6821
:1018A0009C430F239D028E68AE432643DB024C68A7
:1018B0009C43344307231B030D689D4325430323A7
:1018C0005B030C699C432C434B6923430124A40311
:1018D000A343C96919431268516470BDB0B5C26BA6
:1018E000012A01D1022119E0022202640122C2630D
:1018F00003685C687025AC430D6825439C685D6097
:10190000EA4DAB4202D0474DAB4204D18025AC43F7
:101910004968214399600021C16302640846B0BD53
:1019200010B500281BD00446006C002804D100200C
:10193000E063204600F016F8022020642068211D94
:1019400001F072F9012060666064A064E0642065C3
:101950006065A065E06520662064002010BD012060
:1019600010BD00001FB500681A49884210D01A49FE
:1019700088421BD0CD4988422BD10120C002174993
:101980000A6802430A6009680140039103981FBD79
:1019900001218804114A136803431360126802404E
:1019A000019201981624002220460DE001204004F7
:1019B0000A490A6802430A600968014002910298D4
:1019C0001524002120460A46FFF726FC2046FFF793
:1019D00017FC1FBD004801400044014018100240A0
:1019E000016C012916D1022101640168C868012235
:1019F0001043C860AD48814202D00A4881420BD1F1
:101A00008868072303400020062B09D00B68134386
:101A10000B60704701207047086810430860002081
:101A20007047C04600040040F8B50446C06B01286A
:101A300001D1022269E0022020640125E5632068CB
:101A40008268344B1A4082600F680026002F22D033
:101A5000102F20D0202F1ED0302F1CD0402F22D06E
:101A6000502F2AD0602F32D06A0397423AD02A03EF
:101A70009742324647D0702F49D1773382681A4057
:101A80004B688F68C9681F4309023943114381605D
:101A90008168772234E08168702291430F430721E7
:101AA000394381602EE0CA68496801F0DDF9206899
:101AB000816847220A43302112E0CA68496801F070
:101AC000D3F92068816857220A43202108E0CA68B8
:101AD000496801F0DAF92068816867220A43102119
:101AE0008A430EE0773382681A404B688F68C96872
:101AF0001F43090239431143816001218903826830
:101B00000A4382603246E66325641046F8BD2A46E1
:101B1000F9E7C0468800FFFF7047B0B50446802053
:101B2000C54320680169890717D5C168890714D59D
:101B300029467E3101610121E1618069800703D07E
:101B40002046FFF7E9FF05E0204600F0B3F8204605
:101B500000F030F90020E06120680169490718D5DC
:101B6000C168490715D529467C3101610221E1612F
:101B700080698005800F03D02046FFF7CDFF05E088
:101B8000204600F097F8204600F014F90020E061AC
:101B900020680169090717D5C168090714D52946C6
:101BA000783101610421E161C069800703D02046DA
:101BB000FFF7B2FF05E0204600F07CF8204600F079
:101BC000F9F80020E06120680169C90618D5C168EC
:101BD000C90615D52946703101610821E161C06946
:101BE0008005800F03D02046FFF796FF05E02046D2
:101BF00000F060F8204600F0DDF80020E061206889
:101C00000169C90709D0C168C90706D029467F31D3
:101C10000161204600F022F920680169090607D514
:101C2000C168090604D505612046FFF72BFE206830
:101C30000169490609D5C168490606D529464031DA
:101C40000161204600F092F920680169890607D5F4
:101C5000C168890604D5603505612046FFF713FE8B
:101C6000B0BD000010B586B0044601A81421FEF7EF
:101C700061FA20687849884216D1012041040C4A53
:101C800013680B43136012680A4000920221059109
:101C90000022049203920291400201900920C006A2
:101CA000009901A9FEF792FE06B010BD002C01407C
:101CB0001410024070470000B0B50446C06B012804
:101CC00001D10220B0BD0D460120E0630221CA41CE
:101CD000032A4AD87A4412795200974401102231DB
:101CE0002068294600F0EAFF2068816908220A433B
:101CF0008261816904229143816129690FE0206832
:101D0000294601F015F80121CA02206883691343AE
:101D10008361890282698A438261296909021830D4
:101D20001FE02068294601F037F82068C1690822C1
:101D30000A43C261C16904229143C16129690FE06C
:101D40002068294601F05EF80121CA022068C369B3
:101D50001343C3618902C2698A43C26129690902C6
:101D60001C3002680A43026000200021E163B0BD1C
:101D700010B500281BD00446006C002804D10020B8
:101D8000E063204600F015F8022020642068211D41
:101D900000F04AFF012060666064A064E064206592
:101DA0006065A065E06520662064002010BD01200C
:101DB00010BD704770470000B0B50446002906D03A
:101DC0002046082909D0042909D1483008E0606C70
:101DD00001280FD12046443011E04C3000E0503053
:101DE0000068012806D12046082905D0042905D11C
:101DF000483004E00120B0BD4C3000E050300222F9
:101E00000260206801252A4600F04AFF2168114837
:101E1000814213D01048814205D0534A914202D0EA
:101E20004C4A914205D1EA034B6C13434B64814207
:101E300004D0086828430860002005E0886807226D
:101E400002400020062A00D1B0BD0A682A430A6079
:101E5000B0BDC04600040040002C0140F8B5026847
:101E60003C498A426ED13C4C21780029009018D020
:101E7000207B002804D1012251033848FEF77FFE61
:101E80002089401C2081618880B2884217D90025B2
:101E900025810120410331482A46FEF770FE257056
:101EA0000DE0A07900280AD06089401C6081A188DB
:101EB00080B2884203D90120207000206081002573
:101EC000274E284F502D3BD07419218AE068FEF729
:101ED00049FE705178606168002804D1012902D15F
:101EE0000021A16001E0002902D060601435E9E71B
:101EF000002810D00128F8D1E17A091F232907D83A
:101F0000617A002904D1A17A002901D1012121722D
:101F10000021E172E9E7E17A491CE172C9B2C929FD
:101F200004D30021E17201216172DEE70B29DCD3C9
:101F3000617A0029D9D00021E1720121A172D4E790
:101F40000098026808498A4200D0F8BD054801217E
:101F50000170F8BD0044014058010020000800480D
:101F60006C01002050010020004801407047FEE74E
:101F700080B59A4201DA002104E0D21A83B29A4273
:101F800000DA010C88B200F02DF880BD70B505466E
:101F900002242922074E2146B047A81C2B222146A5
:101FA000B047281D23222146B04714480421FFF7DB
:101FB00003FF70BDCD0700087CB56C46A180009082
:101FC00002252922064E20462946B047A01C2B2276
:101FD0002946B047201D23222946B0477CBDC04674
:101FE0000908000880B505490968886342424241F2
:101FF00001204102C548FEF7C2FD80BD2C02002031
:1020000000688169890701D5002181628169C9075A
:1020100003D1816901220A438261704770B50E467F
:10202000044600688169C90601D4002070BD1546C8
:102030004168890110D40121890342680A43426042
:102040000AE0711C08D0FEF7A1FD411B2020B1421F
:1020500012D8002E10D0206881698906F1D5102190
:10206000C1612021C1612046FFF7CAFF2068416895
:10207000064A0A4042600420E16C0143E1642020EA
:10208000606400202064A064012070BD00E800FEB0
:10209000FEB51D46029204462F480090DAB2002396
:1020A000204600F05BF8089E099F204631463A46DC
:1020B00000F0B2F8002801D00120FEBD012D0AD0A9
:1020C00020680299090A8162204631463A4600F0AA
:1020D000A3F80028F0D120680299C9B28162009764
:1020E000402100222046334600F04EF8411E884130
:1020F000FEBDC046FEB51D4602920446164800903D
:10210000DAB201200306204600F028F8089E099F55
:10211000204631463A4600F07FF8002801D00120E1
:10212000FEBD012D0AD020680299090A816220466D
:1021300031463A4600F070F80028F0D12068029944
:10214000C9B281620097802100222046334600F008
:102150001BF8411E8841FEBD0020008070B5049C24
:10216000650D00684668AE43054D3540054E0E408E
:102170001E431104314321432943416070BDC046D1
:10218000009C00FCFF030000F8B51D4616460F46F4
:10219000044606980090206880693840C01B414280
:1021A0004141B14213D1681CF5D0FEF7EFFC009914
:1021B000401AA84201D8002DEDD1E06C202108433F
:1021C000E064616400202064A0640120F8BD002068
:1021D000F8BDF8B516460F460446206880698006AB
:1021E00017D4204639463246FFF718FF012500284C
:1021F00010D1FEF7CBFC801BB84201D8002FECD1E8
:10220000E06C20210843E064616400202064A06445
:1022100000E000252846F8BDF8B516460F460446EE
:1022200020688069800719D4204639463246FFF776
:10223000F5FE0125002812D1781CF1D0FEF7A6FC8E
:10224000801BB84201D8002FEAD1E06C202108435E
:10225000E064616400202064A06400E0002528465A
:10226000F8BD0000F0B585B0019000F04DFB0120F5
:1022700000F032FB00268020C4B2002C26D0049649
:102280004026012503907F4831462A46FEF777FC19
:102290002846584DA8470A273846A847802179483C
:1022A000FEF760FC02900025764831462A46FEF78C
:1022B00066FC38464F4988470298C0B20128039807
:1022C00000D02846049E06436008D5E7019800F038
:1022D00029FB01242046474FB8474025694F38461F
:1022E00029462246FEF74BFC0524204641498847F3
:1022F000002238462946FEF742FC00F005FB204646
:102300003C498847F0B205B0F0BDC0460004004823
:10231000B0B500F0F9FA00F0D1FA0024204600F040
:1023200001FB0A252846FEF745FA204600F0D4FABC
:102330002846FEF73FFAB0BD10B50024204600F055
:10234000F1FA204600F0C8FA00F0B8FA0A24204654
:10235000FEF730FA00F0D8FA2046FEF72BFA10BD4F
:10236000F8B500900024204600F0DCFA204600F08A
:10237000B3FA80221F4DD4B2002C1CD0009802402A
:10238000501E82418021D548D24B984701263046C5
:10239000A8474027D14839463246CE4B98470726B2
:1023A0003046A8470022CD483946CA4B98473046A8
:1023B000A8476208DFE700F0A7FA40270122C74DCF
:1023C00028463946FEF7DBFB02200A4CA047802155
:1023D0002846FEF7C7FB06460520A04700222846F0
:1023E0003946FEF7CCFB0A20A047F0B2411E484216
:1023F0004841F8BDB5070008B0B50B0EC478E31826
:10240000C370DBB23C2B13D30023C37084780D0C54
:102410002C19641C8470E4B23C2C09D383700488AA
:102420000919491C018089B2182901D382800380CF
:10243000B0BD80B5012109060022FFF7DDFF80BD98
:102440004C210F4804224252012141600022826047
:1024500080230382016002230387A04B8162C16253
:1024600002634363818441618161C2610362C1632C
:102470000164426483640921C906C1607047C04693
:102480006C01002000040048FEB502904508782643
:1024900035400920C406012201928E4B2046294670
:1024A000984775400027204629463A46894B984769
:1024B00000F0A0FE02980007450E20462946019A2A
:1024C000844B9847834B7540204629463A469847A7
:1024D00000F090FEFEBDC04610B50120002421464C
:1024E00000F072F80220214600F06EF810BD10B521
:1024F00001460024204600F009F8102C05D22020C7
:10250000012100F061F8641CF7E710BD80B50029D7
:1025100000D0403080210143C8B2002100F054F8BF
:1025200080BD0000B0B50920C0060221002422466B
:10253000FEF725FB0A20FEF737FA3320084D214627
:10254000A84732202146A84728202146A8470C202A
:102550002146A847FFF7C0FF06202146A847B0BD87
:10256000C925000810B5441C0078C0B2012100F054
:102570002BF8611C207800280C46F6D110BDB0B5B0
:102580000C460546022A08D0012A0CD12846FDF740
:10259000DCFD1021081A400806E02846FDF7D5FDAD
:1025A0001021081A00E00020C1B22846224600F09F
:1025B00001F8B0BD10B5044608461146FFF7A6FF66
:1025C0002046FFF7CFFF10BD10B50446012903D008
:1025D000002907D1002200E001220920C0060121C4
:1025E000FEF7CDFA2046FFF74FFF10BDF0B589B0DA
:1025F000002408940127F904344802680A43026061
:1026000002680A4003920399790402680A4302604F
:1026100002680A4003920399B90402680A430260FF
:1026200002680A4003920399B90502680A430260EE
:1026300000680840039003987E032548254D3146E5
:102640002246A8470920C006019023492246A847F0
:10265000C04823492246A8472248802102912246A9
:10266000A847079406940597049604AE1E4A184896
:102670003146904707940694059717480490019DAA
:1026800028463146184A90470697059402980490C8
:1026900028463146144DA847069705940720049014
:1026A000AC483146A8470794069405970C48049017
:1026B000A8483146A84707940694059702980490C5
:1026C00008483146A84709B0F0BDC0461410024082
:1026D000000800487F0B00087F0900000004004844
:1026E000D8F3000000140048CD09000810B5134CC1
:1026F00001200021124A134B23606260A160E06058
:10270000204610301421FDF715FD2046FEF782FA11
:10271000002801D0FEF7B0F808480021FEF73CFA87
:10272000002801D0FEF7A8F804480021FEF753FA6C
:10273000002801D0FEF7A0F810BDC046C801002057
:102740000E0900200054004010B50A4800210A4A32
:102750000A4BFF24E03418C0016042608160C16010
:1027600001610838FFF7DCF8002801D0FEF784F893
:1027700010BDC04694020020E70300000044014061
:1027800010B509480021094A094B0A4C046043600E
:102790008160C260016141618161FFF7C1F8002879
:1027A00001D0FEF769F810BDFC020020CF07000041
:1027B000BF5D00000048014070B596B0002515953A
:1027C0001495139512951195109509A81C21FDF7E4
:1027D000B1FC01A82021FDF7ADFC2B482B492C4A68
:1027E0000260416028318560C16005614561856195
:1027F000FFF796F8002801D0FEF73EF801263003D7
:102800001290214812A9FFF70FF9002801D0FEF716
:1028100033F81D48FFF7ACFA002801D0FEF72CF87A
:1028200011951095184810A9FFF758F8002801D005
:10283000FEF722F860200990FF20F4300A9009ACDE
:10284000204608301421FDF775FC0F48042221466C
:10285000FFF732FA002801D0FEF70EF801AC142180
:102860002046FDF767FC0895700306900648214650
:10287000FFF70AF8002801D0FDF7FEFF0248FFF736
:10288000F1F916B070BDC0462C020020BF03000055
:10289000002C0140B0B5044600202082E060606159
:1028A0000625172220462946FDF790FFA01D1D2270
:1028B0002946FDF78BFFB0BDFEE77047FEB500204F
:1028C0000590049003900290402001907B4801A95C
:1028D000FEF77CF806B080BDB0B586B00246401E5B
:1028E0008241764C402520462946FEF748F90020D3
:1028F00004900390012102910195059001A92046C1
:10290000FEF764F806B0B0BDFEB500200590049057
:102910000390029080200190684801A9FEF756F8C4
:1029200006B080BDB0B586B00246401E8241634C01
:10293000802520462946FEF722F9002004900390C6
:10294000012102910195059001A92046FEF73EF86C
:1029500006B0B0BD0004004810B503218843FDF760
:1029600015FD0024054B2246FDF7A8FC044B22462A
:10297000FDF7F2FBFDF750FD10BDC04600405F3F84
:10298000000018C080B503218843FDF7FFFC054A0D
:10299000054BFDF793FC054A054BFDF7DDFBFDF705
:1029A0003BFD80BDD7A3703D0AF7653FCDCCCCCCB5
:1029B000CC6C47C070B500231C468B4210D0C55C60
:1029C00065400824260608D06E006DB2002D01DA9D
:1029D00031256E403546641EF4E75B1C2C46ECE75F
:1029E000E0B2801A411E8841800070BDF0B585B00C
:1029F00000910446FFF78CFC8020FFF7B1FC0746EE
:102A0000002C03D0012C05D1E32000E0E520FFF7E6
:102A1000A7FC07430394FFF77BFC8120FFF7A0FC92
:102A200004460520FDF7C6FE3C430194FFF746FF30
:102A30000027224CF8087C280AD80120FDF7B4FFB3
:102A400040212046FEF78EF8C0B27F1C0128F1D14C
:102A500040212046FEF786F802900024184E2046BA
:102A6000B047074604AD28702046B0476870390269
:102A70000F180120B04704460398012805D000280C
:102A800008D13846FFF768FF02E03846FFF77AFFC3
:102A90000099086004A8022631462246FFF78AFF03
:102AA00004460298000601D0019801E001983043E5
:102AB0000443FFF741FC204605B0F0BD0004004888
:102AC000652200087047B0B50446002020702046FB
:102AD000083002252D222946FDF778FEA01D2F2261
:102AE0002946FDF773FEB0BDF8B5044601206D46DA
:102AF0002946FFF77BFF2178014321700098FDF7FD
:102B000077FC0026114F32463B46FDF7D7FBFDF719
:102B10004BFC21890818A0804620FDF745FF304670
:102B20002946FFF763FF2178014321700098FDF7E4
:102B30005FFC32463B46FDF7C1FBFDF735FC2189C2
:102B4000081860801920FDF72FFFF8BD0000244011
:102B5000BFB501AD2A8102910190284608300224B8
:102B60002D222146FDF750FEA81D2F222146FDF7FC
:102B70004BFEBFBD80B5FEF7F5FA80BD70B594B0D1
:102B800008AC201D1821FDF7D5FA002507950695FC
:102B90000595049513950520C00412901195022601
:102BA000109601200F9010210C910B900A20089094
:102BB00003950295019500952046FEF763FC0028D9
:102BC00003D0EFF3108072B6FEE7079506950596E1
:102BD0000720049004A80121FEF79EFB002803D0E3
:102BE000EFF3108072B6FEE7039520200090684650
:102BF000FEF716FB002803D0EFF3108072B6FEE755
:102C000014B070BD7047000080B50248FEF785FF24
:102C100080BDC0469402002080B50248FEF77DFFCB
:102C200080BDC046FC02002010B504688B4A90426B
:102C300004D0194B984201D0234605E070239C43F1
:102C40004B68234390420CD0134CA04209D0134C44
:102C5000A04206D0824CA04203D0824CA0421C4627
:102C600004D103242402A343CC681C4380239C4347
:102C70004B69234303608B68C3620B688362904295
:102C800005D0774A904202D0764A904201D1096934
:102C900001630121416110BD00040040002000409B
:102CA00010B51F230B4001219940046A8C43046234
:102CB0009A40016A1143016210BD0000F8B5026A32
:102CC00001239A430262026A02239A438E681643E2
:102CD00044680A6800928369604FB84205D0604D2D
:102CE000A84202D05F4DA84208D10C25AE43CD6862
:102CF000042295433543B84201D106E03546584A8F
:102D0000904202D0574A904207D1032212029443C4
:102D10004E698A692643164300E02646009C4660B9
:102D20007322934323438361496841630562F8BD7D
:102D3000F0B5026A10239A430262036A2022934389
:102D40008A6812011A4345680C688369434EB04291
:102D500006D0434EB0420AD0424EB04207D00FE0F8
:102D6000C026B243CE6836014027BE433243032615
:102D7000B602B5434E698F69B6002E43BD00354398
:102D8000456073252D02AB4324021C4384614968CE
:102D900081630262F0BDC046F0B501221302046AED
:102DA0009C4304625202036A93438A6812021A43E4
:102DB00045680B68C469294EB04206D0284EB0421F
:102DC0000BD0284EB04208D010E00326B602B24322
:102DD000CE6836020A4F37403A4303263603B543DE
:102DE0004E698F6936012E433D0135434560732599
:102DF000AC431C43C4614968C1630262F0BDC04674
:102E000000FBFFFFF8B501221303046A9C43046230
:102E1000036A44688D6800950E68C5690F4FB84213
:102E200005D00F4FB84202D00E4FB84205D19703DC
:102E3000BC434F69BF01274300E027464760732426
:102E40002402A54334022C43C46149680164510340
:102E50008B430099090319430162F8BD002C01401E
:102E60000048014000440140B0B5036A046A0125EE
:102E7000AC4304628469F025AC43120122438261B1
:102E80000A2293430B430362B0BD10B5036A1024BA
:102E9000A34303620F231B0384699C431203224351
:102EA000036A8261A022934309011943016210BDA4
:102EB000E0B5019001A806210022FDF787FC8CBD3A
:102EC000E0B56B469980009006211846FDF79CFC02
:102ED0008CBD0000002805D40322034693430C4A0E
:102EE0009A1806E00F220240083A03239A43074B40
:102EF000D2188007C00E8901C9B28140FF238340E8
:102F000010689843084310607047C0461CED00E00D
:102F100000E400E0010407D00021642902D200BFD0
:102F2000491CFAE7401EF5E7704700009EB0FEF727
:102F300023F9FFF723FEFFF759FBFFF7D7FBFFF756
:102F40003BFCFFF701FCFFF71BFC8F48FEF748FD39
:102F50008E48FEF745FD012779028D4D8D4C2846A0
:102F60003A46A0473902284604913A46A047102124
:102F700028463A46A047082128463A46A047FFF788
:102F8000D1FAFDF7FBFBFFF75BFA6420FDF704FCC9
:102F90001BA8002686801B967FA031463A46FFF785
:102FA000EEFA80A031463A46FFF7E9FA8049086810
:102FB000896A014332D100207E4C01460246A04777
:102FC0001DA8077006223946FDF71EFC7A4B0FCB71
:102FD000FDF7A6FB794DA98828681722A047E88845
:102FE00029890904081869891D22A047744903C961
:102FF000FDF791FC734908884A88120410188988E3
:10300000FEF7DAFF704A1088518809040818918881
:10301000D3881B0459181289FFF79AFD1BAC204670
:10302000FFF746FF17A8FDF733FB11A8FFF732FCA7
:103030000EA8FFF748FD0CA8FDF75EFC0AA8FEF7F6
:10304000A5FFA48817AD2FCD00950194FDF788FC4E
:10305000FFF742FA5D48FEF74DF80920C0060390DD
:103060000796534C05975948FEF774F85949087864
:10307000002868D00E701BAC2046FFF7DAF9E07824
:10308000002802D00895524C09E0514C25401BA85D
:10309000818829431B9800220891FFF711FF099DA1
:1030A00025401BA88088054317AC1FCC00940995C8
:1030B0000195FDF755FC05460EAE3046FFF714FDB1
:1030C0003078002801D0089D3BE002260EAFBB5FA0
:1030D00006246C431A98025F0D990C98FDF7D0FBFB
:1030E00004257B5F1A980019825F0D990C98FDF7F3
:1030F000E5FB7B5F1A980019825F0699344801400E
:103100000AA8808801430A980691FEF731FFB85F4C
:103110001A99095F884207DA01220398049C214624
:10312000FDF72DFD002206E000220398049C2146B5
:10313000FDF725FD012216482146FDF720FD089DDB
:10314000059F079E1A4C4420215C002904D0265478
:1031500039030F48FDF70BFD4620215C002982D082
:1031600026543046FFF7C3F91B4A107B41424141C8
:103170001173002801D01CA000E018A001223146E4
:10318000FFF7FDF96FE7C04694020020FC02002023
:10319000000400487F0B000847686F67686E6F6F18
:1031A000730000004C6F6164696E672E2E2E000064
:1031B0006C010020C12E0008840000203401002092
:1031C000240100202C010020BC0100201C02002052
:1031D0000000FFFF500100205801002042555A5ABC
:1031E0004552204F4E00000042555A5A4552204F3A
:1031F00046460000B0B50920C40604250122204639
:103200002946FDF7BCFCC820FFF784FE00222046BB
:103210002946FDF7B4FCB0BD2021020C01D01021DD
:103220001046020A01D010460839020901D01046A2
:10323000091F820801D01046891E420801D0881E4D
:103240007047081A704702E008C8121F08C1002A18
:10325000FAD170477047002001E001C1121F002A17
:10326000FBD17047000000000000000001020304D1
:1032700006070809983200080000002050010000ED
:103280003806000808330008500100201806000026
:103290005632000800000000320432013EC20172C2
:1032A0000112060A6B030C1153127A121512033223
:1032B0000222442A209069101A5C10290869101A09
:1032C0007410193679101A2C1029C469101A681054
:1032D0009A05101A38109A06101A20039A07101A25
:1032E0000810190479101A14109A09101A501012A3
:1032F0000A12322994120A3B2C017D3927291E011A
:083300001200000000000000B3
:04000005080000B13E
:00000001FF
