:020000040800F2
:1000000068070020C500000895280008731F000835
:1000100000000000000000000000000000000000E0
:10002000000000000000000000000000F32A0008AB
:10003000000000000000000097280008F52A0008D2
:10004000D700000800000000D7000008D700000813
:10005000D7000008D7000008D7000008D700000824
:1000600000000000D7000008D7000008D7000008F3
:10007000D7000008D7000008D700000800000000E3
:10008000D70000080000000000000000D7000008B2
:1000900000000000892B0008992B0008D7000008F9
:1000A00000000000D700000800000000D700000892
:1000B0000348854600F026FB00480047D12E000883
:1000C000680700200448804704480047FEE7FEE731
:1000D000FEE7FEE7FEE7FEE7852B0008B10000081B
:1000E00010B5202A04DB0846203AD040002110BD7C
:1000F0000B46D340D0402024A21A91400843194611
:1001000010BD03460B439B0703D009E008C9121F2B
:1001100008C0042AFAD203E00B780370401C491C83
:10012000521EF9D27047D2B201E00270401C491E43
:10013000FBD270470022F6E710B513460A46044684
:100140001946FFF7F0FF204610BD421C0178401C05
:100150000029FBD1801A7047F0B507460846584081
:1001600087B0C00F049048000E4659004008490867
:10017000BC1A884105D2384631461E4617460B4602
:1001800002465800400810434CD0300D0390400503
:100190005900400D490D0590401A0290402872DA2E
:1001A00018030121000B09050843019004980092EF
:1001B000002805D001995242002088410092019008
:1001C000029840210A1A0199009800F0D8F90546D2
:1001D0000C466B4607CB00F0E2F9C0197141039A57
:1001E0000E0D0023D71756401A467A40164344D0C6
:1001F000049A002A2DD0029A012A039A15DC1205CE
:10020000C01A914101263605001C7141D20F059E8E
:10021000D2070093019202962A46234600F020FA64
:1002200007B0F0BD38463146FAE71605224A0F46B8
:10023000B218C01AB74101210905001C4F4100182E
:100240007F41114618187941E20F10436D1964413E
:1002500013E0E2076D0815436408C2071443039ACC
:1002600001261205C01A91413605001C7141CE07C6
:10027000400830434908C01851412A46234600F03F
:10028000E2F9CDE7FFE7049801224000C117121AF6
:1002900000238B4104983146C417381AA141EEE778
:1002A00030B40124E407634030BC55E730B4012486
:1002B000E407614030BC4FE70000E0FFF0B51FB439
:1002C00088B00B990998002448400999C00F49004B
:1002D00049080991C0070B990090490049080B9102
:1002E00009990898A64608431CD00B990A98084318
:1002F00018D0099801244000420D4800410D09988A
:1003000024050003000B204309900B980003000B09
:1003100020430B9050181C494018002201901446AD
:10032000104605E0002001460DB0F0BD032801DABB
:10033000034600E003239C46C11A0AAE0AE05F00B0
:1003400008ADED5B4F00F75B7D430027AA187C41A9
:10035000491C5B1E6145F2DD410004AB5A52210489
:10036000120C0A43240C401C0828DFDB0198029081
:100370000099704601910090059B049A0799069890
:1003800000F06EF9D0E700000DFCFFFFF0B50C4661
:100390005C4085B0E40FE40703944C000026640839
:1003A00059009446490802460296224321D06246EB
:1003B0000A431ED06200570D4A000E032303550D59
:1003C000012402462C492405781B1B0B360B4018D0
:1003D00023432643614600901C46501AB44103D380
:1003E0000098401C009002E0921800985B410028A1
:1003F00003DA0020014605B0F0BD00200121090507
:100400000746864611E064461D46141BB54106D3D7
:100410006546521BB341744607430C43A646CD07BD
:1004200040084908284392185B4105460D43EAD12C
:100430001046184313D06046194650407140084397
:1004400006D06046101AB34106D20122002306E00E
:1004500000220123DB0702E00122D243531000985F
:1004600074460105381C6141029C039D00196941D5
:1004700000F0E9F8BFE70000FD0300000EB50549F4
:100480000291002100910A460B46019100F0E8F824
:1004900003B000BD3304000070B5CD0F4A0009035E
:1004A0000123090B1B0519430B4BED070024520DCB
:1004B0009A4201DA002070BD074B34339A4203DCC4
:1004C0009A1AFFF70DFE02E00449511888402C43A8
:1004D000F1D0404270BD0000FF030000CDFBFFFFE4
:1004E000C20FD207400040080BD0C10D0723DB012B
:1004F000C91840020905400A1143C20840071143C8
:100500007047002001467047CB0FDB07490010B54C
:10051000490802460A4307D00A0D07240903E401EB
:10052000090B121B002A01DC002010BDC900440F7A
:100530000C43C100E018D205801800F043F810BD4C
:1005400070B50446002903D000202022012310E0CA
:10055000002801D00020C043C046C0460DE025461B
:10056000D5408D4205D30D469540641B1D469540F0
:1005700040191546521E002DF1DC214670BD10B504
:10058000202A04DB0146203A9140002010BD914012
:1005900020239C1A0346E3401943904010BD10B538
:1005A000202A06DBCB170846203A1041C1170B431F
:1005B00006E00B461341D0402024A21A9140084384
:1005C000194610BD002904DA401C490001D1400839
:1005D0004000704770B40024050C05D110240004BD
:1005E00002D1002921D01124050E01D100020834C6
:1005F000050F01D10001241D850F01D18000A41C2D
:10060000002801DB4000641C002908D020252E1B97
:100610000D46F540A14000D00121294308430106C1
:100620001B1B000ADB1D02D5002070BC7047DB05D8
:10063000181880180029F8DA401C4900F5D170BC60
:1006400040084000704710B5002B08DA0024401C19
:10065000614192185B411A4301D14008400010BD2E
:10066000F0B51FB482B005460C0003D0084602F076
:10067000C1FD02E002F0BEFD20300246009021469E
:100680002846FFF77CFF049B059A04460F46184353
:100690001143084314D0184610431BD00098402142
:1006A0000A1A18460599FFF71BFD05460E46009AE3
:1006B00005990498FFF763FF084305D0012004E083
:1006C0002046394607B0F0BD0020C11705430E4350
:1006D0002C43374300990E986305401A7905E40AC4
:1006E00000220C43FD0A0A3002D500200146E9E74A
:1006F0000105101969410C9C0D9D00196941FFF716
:10070000A2FFDFE7064C0125064E05E0E36807CCB3
:100710002B430C3C98471034B442F7D3FFF7CCFC82
:1007200084340008A434000830B58C180278401CCA
:1007300013071B0F01D10378401C120906D1027860
:10074000401C03E005780D70401C491C5B1EF9D16C
:1007500001E00B70491C521EFBD1A142E6D30020E0
:1007600030BD00001D48002101818171017041816F
:1007700001730A2141801921090181807047C04617
:10078000164908737047C04610B5144C00212181EA
:10079000012121700A21FFF7D3FE608010BDC04601
:1007A00070B504460D4EB079002800D070BD002011
:1007B000708130810120B07130700A2508462946C9
:1007C000FFF7BEFEB08020462946FFF7B9FE7080D5
:1007D00070BDC0460148002181717047680100204A
:1007E00080B52B2148430A21FFF7AAFE002802D03A
:1007F00000BF401EFAE780BDF0B589B016460491EF
:1008000003900024E7437A4D0498844231D0A0211C
:10081000012228463B4600F085FA0028F7D10297CE
:1008200002200190069408AC0094B2B2A0210123EA
:10083000284600F007FB2078FFF720FE07960646C3
:1008400005916078069CFFF719FE0022674BFFF7C1
:100850009DFD3246079E059BFFF77EFCE200039B51
:100860009850981841600A2000F0E0F8641CB61C0B
:10087000CAE709B0F0BDC046F0B587B00591049055
:1008800000200690C6435A4FA021012538462A462B
:10089000334600F047FA0028F6D10698C1B203911A
:1008A0000498401800A961C1059CA2B2A021384655
:1008B0002B4600F0C7FA0A2000F0B8F80498039914
:1008C000405C0699491C0691641C05940028DBD104
:1008D00007B0F0BDF0B589B00792089106900920E5
:1008E000C0060121C902002605900491324600F09D
:1008F00080F9F4433E4F089886421AD0A021012582
:1009000038462A46234600F00DFA0028F6D106980C
:1009100080190090019502940798301882B2A021A6
:1009200038462B4600F03EFB0A2000F07FF8761C8C
:10093000E1E701220598049900F05BF909B0F0BDE8
:10094000F0B58DB014460791069009200590C006B9
:100950000121C902002604900391324600F049F9B2
:10096000F543234F0798864238D00B940A96F0003F
:1009700006990E580818446830462146FFF78CFD4A
:1009800008900CA909910870002230462146174BA7
:10099000FFF794FCFFF780FD0599C943089A51437E
:1009A000081809994870A021012238462B4600F00A
:1009B000B9F90028F7D10295022001900CA8009007
:1009C0000B9CA2B2A0210123384600F0EBFA0A20CA
:1009D00000F02CF80A9E761CA41CC3E701220498A0
:1009E000039900F006F90DB0F0BDC04600002440A8
:1009F000D80100207CB50C460546FFF7A6FBC1B226
:100A000028462246FFF766FF01AE002030702846D8
:100A1000FFF79BFB001982B201213046FFF75AFF16
:100A20007CBDEFF3108072B6FEE70000B0B504465F
:100A300000F0E6F80546601C02D00448406804193E
:100A400000F0DEF8401BA042FAD3B0BD0000002049
:100A5000F0B588B007465E48874201D0052000E027
:100A60000320009000220692144605970E68304637
:100A7000E04000D1AAE001250295A5402E4000D11A
:100A80009EE0049403924A68032314461C40601EAF
:100A900001281AD803230192069A9340B868984314
:100AA000CF6897400743059887600198C006C00F3C
:100AB000049A9040059F7F68AF43074305984760BD
:100AC000059FD8435500019A08E01846069DA840A6
:100AD000C043032C02D1069D1C461CE0FB6803406A
:100AE0008F68AF401F43059BDF60059F022C12D12A
:100AF0001C22039B1A400F239340049CE408A4008B
:100B00003C19276A9F430B6993403B43059F23622F
:100B10004A6803241440AC403B68034023433B60D5
:100B20009003800F039A049C4AD02B4B1868029DB7
:100B30002843186018682840079023460C24144066
:100B40000F20A04003229343079A244D5A59824311
:100B50005B190920C006874208D02148874207D088
:100B600020488742009804D1022002E0002000E0E3
:100B70000298A04010431860164800684B68DA03DA
:100B800001D5304300E0B043049C124A1060506825
:100B90009A0301D5304300E0B0430E4A506090689C
:100BA000DA0201D5304300E0B0430A4A9060D068D1
:100BB0009A0201D5304300E0B043039A054BD86058
:100BC000121D0698801C0690641C4FE708B0F0BD0B
:100BD000000C0048000401401810024008000140C9
:100BE000000400480008004800690840411E884190
:100BF0007047002A01D0182200E028228150704757
:100C0000014800687047C04664030020B0B5436CDB
:100C10000222202B17D1036C012B14D02422426412
:100C2000026813680124A3431360230315689D43DE
:100C3000156013680B431360116821431160002293
:100C40000264202141641046B0BDB0B5436C02225D
:100C5000202B17D1036C012B14D02422426402688C
:100C600013680124A34313600F231B0215689D43DF
:100C700009022943116011682143116000220264B6
:100C8000202141641046B0BD70B5002820D0044634
:100C9000406C002804D100202064204600F032FA85
:100CA000242060642068026801218A4302600F22C8
:100CB00012066368934303618368184A1340836094
:100CC000A368E568012D05D1CD032B43836009E0BE
:100CD000012070BD2126B60233438360022D01D16D
:100CE000CB02436043680E4D1D434560C36813400B
:100CF000C360226963691343A26912021A43C26086
:100D0000E269236A1343036002680A430260002019
:100D1000E064202161642063A06470BDFF7FFFFF59
:100D200000800002F0B589B01D461346044600223B
:100D30000892406C0227202873D1079220688269AC
:100D400012046ED4226C012A6BD024226264012228
:100D500002922264079AE264384A1140384A8F1896
:100D60000522D2028918039106930497E1680129AC
:100D7000394600D003994160FFF742FF06462068DC
:100D800081694909826912090A43D10709D1681C9E
:100D9000F5D0FFF735FF801BA8423AD8002DEED1E1
:100DA00037E08769009620210022204605910192B4
:100DB0002B4601F0A3F9F90636D5002830D120687A
:100DC0001021C1610599C1610899069B994211D111
:100DD0000127B90342680A43426000962026002298
:100DE000204631462B4601F089F9069B002818D190
:100DF0002068C6610899491C089108999942049F86
:100E0000B4D30599616401982064E06C0843E06400
:100E100006E02020606407992164E16C0143E164ED
:100E2000029F384609B0F0BD0028029FF9D1206822
:100E30000599C161019F27646164F2E7FF03000027
:100E400000200002F0B587B00546406C022420283F
:100E500038D10C9F002F32D016460D9A002A2ED082
:100E6000286C01282ED003920693059101242C644E
:100E7000FFF7C6FE04900090E1031923284622469E
:100E800001F03CF900281DD10E9922206864402011
:100E9000A8640020E8646F620F46029068630398BC
:100EA0006885009104980190284605993246069B72
:100EB00001F0A8F8002808D00298286402E0012474
:100EC0006002E864204607B0F0BD069701242606BC
:100ED0006306688D000A32480396029306D0FF220B
:100EE0002A85009028460599334605E0698D2985B5
:100EF0000090CAB22846059901F0EAF8049E069BC4
:100F000000960421002728463A4601F0F7F8002809
:100F1000D8D1686A2968496A0170688D401E688561
:100F2000686A401C6862288D411E2985688D090405
:100F3000069B1FD100281DD0009680210026284640
:100F4000324601F0DBF80028BCD1688D000A06D0DB
:100F5000FF222A85009628460599039B06E0688DA6
:100F600028850096C2B228460599029B01F0B0F888
:100F7000049E069B688D0028C2D128461946324639
:100F800001F0E1F800289DD128682021C161426864
:100F90005B4B1340436069642F64AF643C4691E748
:100FA00000240080F0B589B00546406C022420285A
:100FB00038D10E9F002F32D016460F9A002A2ED01D
:100FC000286C01282ED008920593079101242C64E7
:100FD000FFF716FE04900090E103192328462246ED
:100FE00001F08CF800281DD1109921206864402060
:100FF000A8640020E8646F620690686308986885BA
:1010000008910091049F0197284607993246059B55
:1010100001F02AF8002808D00698286402E001248C
:101020006002E864204609B0F0BD0124260663068C
:10103000688D000A059603930AD0FF222A850020B6
:10104000009028460799334601F042F8069E08E0D2
:10105000688D2885069E0096C2B22846079901F041
:1010600037F8089B284619463A4601F08FF80028C1
:10107000D8D12868696A0A788262688D401E6885BE
:10108000481C6862288D411E2985688D0904089BCB
:101090001FD100281DD00097802100262846324607
:1010A00001F02CF80028BDD1688D000A06D0FF227F
:1010B0002A85009628460799059B06E0688D2885B5
:1010C0000096C2B228460799039B01F001F8069EDC
:1010D000089B688D0028C5D1284619463A4601F07C
:1010E00032F800289ED128682021C1614268044B53
:1010F0001340436069642E64AE64344692E7C04690
:1011000000E800FEB0B586B0044601A81421FFF740
:1011100011F82068114988421DD10125A804104CFE
:1011200021680143216021680140009105950395E4
:101130001220029003200490800201900098094838
:1011400001A9FFF785FC6805A1680143A160A168BA
:1011500001400091009806B0B0BDC0460054004068
:1011600014100240000400481A48406802490A6806
:10117000101808607047C0466403002010B5A548E9
:10118000016810220A4302600024204600F004F89F
:1011900000F022F8204610BD70B504467D20C00046
:1011A0000C4E7168FFF7CCF901469D480068FFF7C7
:1011B000C7F900F04FFB0125032C08D8002806D101
:1011C0000025E84321462A4600F028F834602846E6
:1011D00070BDC0460000002082B0094801680122AD
:1011E00011430160016811400191019911074268A2
:1011F0000A434260406808400090009802B070477F
:1012000018100240002805D41F2108400121814008
:10121000014801607047C04600E100E080B501F080
:1012200007FE80BDF0B585B004468078C007384B16
:1012300038D001200290010718680840039006D1B9
:1012400018680843186018680840049004980191D1
:10125000304E3068C00538D5032528022C4B59681C
:10126000014012D06268024091420ED00298000400
:1012700059685A6802435A605A6882435A6008465D
:10128000254A10405860C80731D1586822490840A3
:101290006168014359600398002803D118680199D7
:1012A000884318602068C10705D05969032291431B
:1012B000A2680A435A610025800625D55869102185
:1012C0008843E168014359611EE0029807023068D3
:1012D00038433060FFF794FC054630683842BBD194
:1012E000FFF78EFC401B6428F7D903250CE0FFF7BD
:1012F00087FC0646484F064B58688007C5D4FFF761
:101300007FFC801BB842F6D9284605B0F0BDC04628
:101310001C10024000700040FFFCFFFFF8B50028E1
:101320004CD004463B4A1368012003408B4208D24C
:1013300013680126B3430B431360126832408A429C
:1013400066D1009121688A070ED54A0705D5072284
:101350001202424D2B6813432B60404D2A68F02344
:101360009A43A36813432B60C90729D12949086808
:1013700001263040009A904205D90868B0430860C1
:101380000868C00744D12078400707D5072000022D
:10139000324A11688143E0680843106000F042F867
:1013A0002E4909680906090F1C4A515CC8401C49AE
:1013B000086000263046FFF7EFFE29E0012627E00F
:1013C0006168264A121F022904D0012905D112683A
:1013D000920304E01268920101E012689207064647
:1013E00016D51E4A10680326B04308431060FFF765
:1013F00007FC0746084D194800680C210140606849
:1014000080008142B2D0FFF7FBFBC01BA842F2D99B
:101410003046F8BD00200240881300005834000810
:101420004C00002010B50D490A680C2313400C48ED
:10143000082B08D193021B0F0AA4E45C896AD2032B
:1014400003D4104807E0044606E00F22114009A229
:10145000515CFFF775F84443204610BD041002406C
:1014600000127A0002030405060708090A0B0C0D96
:101470000E0F10100102030405060708090A0B0CE1
:101480000D0E0F1000093D00F0B587B00446012095
:10149000002C00D195E104902078C007EA4E059415
:1014A00011D071680C200140042906D071680140F8
:1014B000082937D17068C00334D53068800302D55D
:1014C0006068002842D02078800758D570680007EF
:1014D000800F1BD070680C210140082902D1706870
:1014E000C00313D53068059CE168002930D0012184
:1014F00008433060FFF784FB05463068800737D427
:10150000FFF77EFB401B0228F7D930E130688007E7
:10151000059A02D5D068012818D13068F82188438F
:10152000116929E0616801204704002900D1F3E036
:10153000052900D107E1012900D108E10104326841
:101540008A43326081043068884303E1049838E1BB
:10155000012188433060FFF753FB05463068800760
:101560000DD5FFF74DFB411B03200229F6D928E1D9
:101570003068F82188432169C90001433160059C26
:101580002078000727D42078400700D488E0012085
:1015900003900107F0690840029006D1F069084302
:1015A000F061F0690840069006980191A74F3868ED
:1015B000C00532D505988068A54F00283FD0052882
:1015C00052D0012854D0306A039988433062306A7F
:1015D000042188434FE0706AE16900290ED001219F
:1015E00008437062FFF70CFB0546706A8007CAD497
:1015F000FFF706FB401B0228F7D9B8E0012188431A
:101600007062FFF7FDFA0546706A8007BBD5FFF7E9
:10161000F7FA401B0228F7D9A9E0039804023868BA
:1016200020433860FFF7ECFA054638682042C1D104
:10163000FFF7E6FA411B03206429F6D9C1E0306ABE
:10164000039988433062306A042188433062FFF78F
:10165000D7FA0546306A80071AD5FFF7D1FA411B41
:101660000320B942F6D9ACE0306A0421014331626B
:10167000306A039908433062FFF7C2FA0546306AC0
:10168000800705D4FFF7BCFA401BB842F7D96EE0DB
:1016900002980028059C03D1F06901998843F06104
:1016A0002078C0066DD5059A5069411D16D00128D5
:1016B0001DD1706B042101437163706B01210143E3
:1016C0007163FFF79DFA0546706B800751D4FFF7F1
:1016D00097FA411B03200229F6D972E0706B0421AE
:1016E00088437063706BF8218843916946E0706BA2
:1016F000042101437163706B012188437063FFF71C
:101700007FFA0546706B80073BD5FFF779FA411BDE
:1017100003200229F6D954E0010432688A4332607A
:101720008004316881433160FFF76AFA0546059C01
:101730003068384200D1C6E6FFF762FA411B032049
:101740006429F5D93DE0810432680A43326001041E
:10175000306808433060FFF753FA05463068384276
:1017600000D0B0E6FFF74CFA401B6428F6D90320FE
:1017700027E0706BF821884305998969C900014306
:1017800071630598046A002C1AD070680C2101401E
:10179000082918D1012C049813D001200304716882
:1017A0000B40F26A059D6C6AA3420AD10F231A40CE
:1017B000EC6AA24205D19A041140AA6A914200D172
:1017C000002007B0F0BD0120020631680492914369
:1017D00031604706FFF714FA0546022C0AD1049C33
:1017E0003068384210D0FFF70BFA411B0320022962
:1017F000F6D9E6E730683842E2D0FFF701FA411B3C
:1018000003200229F6D9DCE7F06A0F218843059A04
:10181000D16A0143F1623D20000471688143906AFE
:101820000843516A01437160306820433060FFF71C
:10183000E7F9044630683842C2D1FFF7E1F9011BED
:1018400003200229F6D9BCE70010024000700040D6
:1018500088130000401E010E01D001207047074987
:10186000074A5060074803680B400321890759184D
:10187000016000209060072111607047FFFFFF00AA
:1018800010E000E020ED00E07047704770B50246C0
:10189000C06B012801D1022070BD0020D0633F231E
:1018A0001B02CC689C430F239D028E68AE432643E7
:1018B000DB024C689C43344307231B030D689D43A4
:1018C000254303235B030C699C432C434B6923434F
:1018D0000124A403A343C96919431268516470BD6C
:1018E000B0B5C26B012A01D1022119E002220264C3
:1018F0000122C26303685C687025AC430D68254310
:101900009C685D60EA4DAB4202D0474DAB4204D1CA
:101910008025AC434968214399600021C16302647A
:101920000846B0BD10B500281BD00446006C002846
:1019300004D10020E063204600F016F80220206465
:101940002068211D01F030F9012060666064A06408
:10195000E06420656065A065E06520662064002085
:1019600010BD012010BD00001FB500681A49884253
:1019700010D01A4988421BD0CD4988422BD1012072
:10198000C00217490A6802430A60096801400391CE
:1019900003981FBD01218804114A13680343136093
:1019A00012680240019201981624002220460DE0A0
:1019B000012040040A490A6802430A60096801409C
:1019C000029102981524002120460A46FFF726FCC2
:1019D0002046FFF717FC1FBD0048014000440140AE
:1019E00018100240016C012916D10221016401681E
:1019F000C86801221043C860AD48814202D00A483D
:101A000081420BD18868072303400020062B09D0B0
:101A10000B6813430B607047012070470868104340
:101A2000086000207047C04600040040F8B5044636
:101A3000C06B012801D1022269E002202064012547
:101A4000E56320688268344B1A4082600F68002684
:101A5000002F22D0102F20D0202F1ED0302F1CD0AE
:101A6000402F22D0502F2AD0602F32D06A039742C5
:101A70003AD02A039742324647D0702F49D1773364
:101A800082681A404B688F68C9681F43090239434E
:101A9000114381608168772234E08168702291432C
:101AA0000F430721394381602EE0CA68496801F07D
:101AB0009BF92068816847220A43302112E0CA68F6
:101AC000496801F091F92068816857220A43202172
:101AD00008E0CA68496801F098F9206881686722BF
:101AE0000A4310218A430EE0773382681A404B681C
:101AF0008F68C9681F43090239431143816001217E
:101B0000890382680A4382603246E6632564104690
:101B1000F8BD2A46F9E7C0468800FFFF7047B0B518
:101B200004468020C54320680169890717D5C1682C
:101B3000890714D529467E3101610121E16180695F
:101B4000800703D02046FFF7E9FF05E0204600F0BC
:101B5000B3F8204600F030F90020E0612068016908
:101B6000490718D5C168490715D529467C31016157
:101B70000221E16180698005800F03D02046FFF7D4
:101B8000CDFF05E0204600F097F8204600F014F95C
:101B90000020E06120680169090717D5C1680907BD
:101BA00014D52946783101610421E161C0698007BB
:101BB00003D02046FFF7B2FF05E0204600F07CF896
:101BC000204600F0F9F80020E06120680169C906AC
:101BD00018D5C168C90615D529467031016108219B
:101BE000E161C0698005800F03D02046FFF796FFB2
:101BF00005E0204600F060F8204600F0DDF8002007
:101C0000E06120680169C90709D0C168C90706D029
:101C100029467F310161204600F022F920680169E0
:101C2000090607D5C168090604D505612046FFF7F6
:101C30002BFE20680169490609D5C168490606D509
:101C4000294640310161204600F092F9206801697F
:101C5000890607D5C168890604D560350561204627
:101C6000FFF713FEB0BD000010B586B0044601A812
:101C70001421FEF75FFA20687849884216D10120C6
:101C800041040C4A13680B43136012680A40009227
:101C900002210591002204920392029140020190D8
:101CA0000920C006009901A9FEF7D2FE06B010BDBA
:101CB000002C01401410024070470000B0B50446EB
:101CC000C06B012801D10220B0BD0D460120E063A8
:101CD0000221CA41032A4AD87A4412795200974411
:101CE000011022312068294600F0A8FF2068816990
:101CF00008220A4382618169042291438161296932
:101D00000FE02068294600F0D3FF0121CA022068B5
:101D1000836913438361890282698A4382612969E5
:101D2000090218301FE02068294600F0F5FF2068FE
:101D3000C16908220A43C261C16904229143C16199
:101D400029690FE02068294601F01CF80121CA0228
:101D50002068C3691343C3618902C2698A43C261AF
:101D6000296909021C3002680A4302600020002130
:101D7000E163B0BD10B500281BD00446006C0028FC
:101D800004D10020E063204600F015F80220206412
:101D90002068211D00F008FF012060666064A064D7
:101DA000E06420656065A065E06520662064002031
:101DB00010BD012010BD704770470000B0B504464B
:101DC000002906D02046082909D0042909D1483025
:101DD00008E0606C01280FD12046443011E04C30FF
:101DE00000E050300068012806D12046082905D0BF
:101DF000042905D1483004E00120B0BD4C3000E09A
:101E0000503002220260206801252A4600F008FFB7
:101E100021681148814213D01048814205D0534AAD
:101E2000914202D04C4A914205D1EA034B6C1343D4
:101E30004B64814204D0086828430860002005E014
:101E40008868072202400020062A00D1B0BD0A6837
:101E50002A430A60B0BDC04600040040002C014087
:101E6000F8B502683C498A426ED13C4C2178002981
:101E7000009018D0207B002804D10122510338485B
:101E8000FEF7B7FE2089401C2081618880B288421D
:101E900017D9002525810120410331482A46FEF744
:101EA000A8FE25700DE0A07900280AD06089401CAA
:101EB0006081A18880B2884203D90120207000206F
:101EC00060810025274E284F502D3BD07419218A60
:101ED000E068FEF789FE705178606168002804D1DF
:101EE000012902D10021A16001E0002902D0606037
:101EF0001435E9E7002810D00128F8D1E17A091F4C
:101F0000232907D8617A002904D1A17A002901D1B7
:101F1000012121720021E172E9E7E17A491CE172B5
:101F2000C9B2C92904D30021E17201216172DEE73F
:101F30000B29DCD3617A0029D9D00021E17201217B
:101F4000A172D4E70098026808498A4200D0F8BD1F
:101F5000054801210170F8BD0044014068010020DE
:101F6000000800487801002060010020004801407E
:101F70007047FEE700688169890701D50021816209
:101F80008169C90703D1816901220A4382617047CF
:101F900070B50E46044600688169C90601D4002068
:101FA00070BD15464168890110D40121890342683A
:101FB0000A4342600AE0711C08D0FEF721FE411B73
:101FC0002020B14212D8002E10D0206881698906E5
:101FD000F1D51021C1612021C1612046FFF7CAFF60
:101FE00020684168064A0A4042600420E16C0143CF
:101FF000E1642020606400202064A064012070BDA2
:1020000000E800FEFEB51D46029204462F480090EF
:10201000DAB20023204600F05BF8089E099F2046B4
:1020200031463A4600F0B2F8002801D00120FEBD4A
:10203000012D0AD020680299090A816220463146A2
:102040003A4600F0A3F80028F0D120680299C9B2FE
:1020500081620097402100222046334600F04EF86E
:10206000411E8841FEBDC046FEB51D460292044693
:1020700016480090DAB201200306204600F028F846
:10208000089E099F204631463A4600F07FF8002816
:1020900001D00120FEBD012D0AD020680299090A55
:1020A0008162204631463A4600F070F80028F0D1AF
:1020B00020680299C9B281620097802100222046DF
:1020C000334600F01BF8411E8841FEBD0020008011
:1020D00070B5049C650D00684668AE43054D3540FB
:1020E000054E0E401E4311043143214329434160F4
:1020F00070BDC046009C00FCFF030000F8B51D4603
:1021000016460F46044606980090206880693840BD
:10211000C01B41424141B14213D1681CF5D0FEF7CA
:102120006FFD0099401AA84201D8002DEDD1E06C56
:1021300020210843E064616400202064A064012041
:10214000F8BD0020F8BDF8B516460F4604462068D5
:102150008069800617D4204639463246FFF718FFBB
:102160000125002810D1FEF74BFD801BB84201D895
:10217000002FECD1E06C20210843E0646164002072
:102180002064A06400E000252846F8BDF8B5164696
:102190000F46044620688069800719D420463946D6
:1021A0003246FFF7F5FE0125002812D1781CF1D048
:1021B000FEF726FD801BB84201D8002FEAD1E06C63
:1021C00020210843E064616400202064A06400E0F2
:1021D00000252846F8BD0000F0B585B0019000F05C
:1021E00081FB012000F066FB00268020C4B2002C99
:1021F00026D004964026012503906C4831462A4695
:10220000FEF7F7FC2846574DA8470A273846A84747
:1022100080216648FEF7E8FC0290002563483146BD
:102220002A46FEF7E6FC38464E4988470298C0B277
:102230000128039800D02846049E06436008D5E78D
:10224000019800F05DFB01242046464FB847402529
:10225000564F384629462246FEF7CBFC0524204639
:1022600040498847002238462946FEF7C2FC00F064
:1022700039FB20463B498847F0B205B0F0BDC04667
:10228000B0B500F02FFB00F007FB0024204600F063
:1022900037FB0A252846FEF7A3FA204600F00AFB82
:1022A0002846FEF79DFAB0BD10B50024204600F088
:1022B00027FB204600F0FEFA00F0EEFA0A24204642
:1022C000FEF78EFA00F00EFB2046FEF789FA10BDED
:1022D000F8B500900024204600F012FB204600F0E4
:1022E000E9FA80221F4DD4B2002C1CD00098024085
:1022F000501E82418021F948F64B9847012630460E
:10230000A8474027F54839463246F24B98470726FA
:102310003046A8470022F1483946EE4B98473046F0
:10232000A8476208DFE700F0DDFA40270122EB4D05
:1023300028463946FEF75DFC02200A4CA047802162
:102340002846FEF751FC06460520A04700222846F5
:102350003946FEF74EFC0A20A047F0B2411E484223
:102360004841F8BDE10700084C210F4804224252C1
:1023700001214160002282608023038201600223E8
:102380000387D64B8162C1620263436381844161EA
:102390008161C2610362C163016442648364092193
:1023A000C906C1607047C04678010020000400489B
:1023B000FEB502904508782635400920C406012262
:1023C0000192C44B20462946984775400027204675
:1023D00029463A46BF4B984700F0E6FE02980007B0
:1023E000450E20462946019ABA4B9847B94B75408D
:1023F000204629463A46984700F0D6FEFEBDC04624
:1024000010B501200024214600F0DDF8022021460D
:1024100000F0D9F810BD10B501460024204600F0A8
:102420001BF8102C05D22020012100F0CCF8641CF0
:10243000F7E710BDB0B50C464007800E40300025D0
:10244000294600F0C0F8082D05D0605D012100F09C
:10245000BAF86D1CF7E7B0BD80B5002900D0403058
:1024600080210143C8B2002100F0ADF880BD00001A
:10247000B0B50920C006022100242246FEF7B9FBB0
:102480000A20FEF7D3FA3320084D2146A847322010
:102490002146A84728202146A8470C202146A847C6
:1024A000FFF7AEFF06202146A847B0BDC7250008AC
:1024B000FEB50292019100270F283E463C4611D8F6
:1024C00040B2800012A10C5821A10D5830490E587D
:1024D00008E0285CC0002F4909183819C0B2FFF77E
:1024E000A9FF7F1CF8B28642F3D801980299FFF742
:1024F000B3FFA4190025E8B2864207D9C0432018CB
:10250000C0B2012100F05FF86D1CF4E7FEBDC046CB
:1025100000000000000000000000000000000000BB
:1025200000000000000000000000000000000000AB
:10253000000000000000000000000000000000009B
:102540000000000003000000000000000400000084
:102550002D0000200F000020080000202100002096
:102560002A0000203800002027000020440000201E
:102570001D00002035000020500000201600002023
:102580001A0000203F000020540000203C000020E2
:10259000183400085800002010B5441C0078C0B260
:1025A000012100F010F8611C207800280C46F6D1BB
:1025B00010BD10B5044608461146FFF74DFF2046F2
:1025C000FFF7EAFF10BD10B50446012903D000292A
:1025D00007D1002200E001220920C0060121FEF7F8
:1025E00008FB2046FFF7E4FE10BD0000F0B589B0FF
:1025F000002408940127F904344802680A43026061
:1026000002680A4003920399790402680A4302604F
:1026100002680A4003920399B90402680A430260FF
:1026200002680A4003920399B90502680A430260EE
:1026300000680840039003987E032548254D3146E5
:102640002246A8470920C006019023492246A847F0
:10265000B74823492246A8472248802102912246B2
:10266000A847079406940597049604AE1E4A184896
:102670003146904707940694059717480490019DAA
:1026800028463146184A90470697059402980490C8
:1026900028463146144DA847069705940720049014
:1026A000A3483146A8470794069405970C48049020
:1026B0009F483146A84707940694059702980490CE
:1026C00008483146A84709B0F0BDC0461410024082
:1026D00000080048F30B00087F09000000040048D0
:1026E000D8F3000000140048510A000810B5134C3C
:1026F00001200021124A134B23606260A160E06058
:10270000204610301421FDF715FD2046FEF7BCFAD7
:10271000002801D0FEF785F908480021FEF776FA77
:10272000002801D0FEF77DF904480021FEF78DFA5C
:10273000002801D0FEF775F910BDC046D801002071
:102740000E0900200054004010B50A4800210A4A32
:102750000A4BFF24E03418C0016042608160C16010
:1027600001610838FFF7DEF8002801D0FEF759F9BB
:1027700010BDC04694020020E70300000044014061
:1027800010B509480021094A094B0A4C046043600E
:102790008160C260016141618161FFF7C3F8002877
:1027A00001D0FEF73EF910BDFC020020CF0700006B
:1027B000BF5D00000048014070B596B0002515953A
:1027C0001495139512951195109509A81C21FDF7E4
:1027D000B1FC01A82021FDF7ADFC2B482B492C4A68
:1027E0000260416028318560C16005614561856195
:1027F000FFF798F8002801D0FEF713F901263003FF
:102800001290214812A9FFF711F9002801D0FEF714
:1028100008F91D48FFF7AEFA002801D0FEF701F9CC
:1028200011951095184810A9FFF75AF8002801D003
:10283000FEF7F7F860200990FF20F4300A9009AC09
:10284000204608301421FDF775FC0F48042221466C
:10285000FFF734FA002801D0FEF7E3F801AC1421A9
:102860002046FDF767FC0895700306900648214650
:10287000FFF70CF8002801D0FEF7D3F80248FFF765
:10288000F3F916B070BDC0462C020020BF03000053
:10289000002C0140FEE77047FEB500200590049033
:1028A0000390029040200190864801A9FEF7D0F8DD
:1028B00006B080BDB0B586B00246401E8241814C54
:1028C000402520462946FEF794F900200490039005
:1028D000012102910195059001A92046FEF7B8F863
:1028E00006B0B0BDFEB500200590049003900290A4
:1028F00080200190734801A9FEF7AAF806B080BDB8
:10290000B0B586B00246401E82416E4C80252046FE
:102910002946FEF76EF900200490039001210291F0
:102920000195059001A92046FEF792F806B0B0BDCA
:102930000004004810B503218843FDF79FFD0024E3
:10294000054B2246FDF7BAFC044B2246FDF704FC7A
:10295000FDF7DAFD10BDC04600405F3F000018C023
:1029600080B503218843FDF789FD054A054BFDF736
:10297000A5FC054A054BFDF7EFFBFDF7C5FD80BD46
:10298000D7A3703D0AF7653FCDCCCCCCCC6C47C00B
:1029900070B500231C468B4210D0C55C65400824EE
:1029A000260608D06E006DB2002D01DA31256E408A
:1029B0003546641EF4E75B1C2C46ECE7E0B2801A57
:1029C000411E8841800070BDB0B50D460146012012
:1029D00000F010F804464620FEF728F800202946AB
:1029E00000F008F805461920FEF720F82543284690
:1029F000B0BD0000F0B585B000910446FFF740FC83
:102A00008020FFF765FC0746002C03D0012C05D180
:102A1000E32000E0E520FFF75BFC07430394FFF7AA
:102A20002FFC8120FFF754FC04460520FDF7D8FE5B
:102A30003C430194FFF730FF0027224CF8087C2824
:102A40000AD80120FDF7F2FF40212046FEF7CCF81E
:102A5000C0B27F1C0128F1D140212046FEF7C4F806
:102A600002900024184E2046B047074604AD287057
:102A70002046B047687039020F180120B04704465D
:102A80000398012805D0002808D13846FFF752FFE7
:102A900002E03846FFF764FF0099086004A80226A8
:102AA00031462246FFF774FF04460298000601D023
:102AB000019801E0019830430443FFF7F5FB2046FD
:102AC00005B0F0BD00040048D9210008B0B5FFF7FB
:102AD000D7FB8020FFF7FCFB0446FE20FFF7F8FB46
:102AE0000546FFF7E1FB1420FDF7A0FF254328462C
:102AF000B0BD704780B5FEF737FB80BD70B594B0B0
:102B000008AC201D1821FDF715FB0025079506953B
:102B10000595049513950520C00412901195022681
:102B2000109601200F9010210C910B900A20089014
:102B300003950295019500952046FEF7A5FC002817
:102B400003D0EFF3108072B6FEE707950695059661
:102B50000720049004A80121FEF7E0FB002803D021
:102B6000EFF3108072B6FEE70395202000906846D0
:102B7000FEF758FB002803D0EFF3108072B6FEE793
:102B800014B070BD7047000080B50248FEF7C7FF63
:102B900080BDC0469402002080B50248FEF7BFFF0A
:102BA00080BDC046FC02002010B504688B4A9042EC
:102BB00004D0194B984201D0234605E070239C4372
:102BC0004B68234390420CD0134CA04209D0134CC5
:102BD000A04206D0824CA04203D0824CA0421C46A8
:102BE00004D103242402A343CC681C4380239C43C8
:102BF0004B69234303608B68C3620B688362904216
:102C000005D0774A904202D0764A904201D10969B4
:102C100001630121416110BD00040040002000401B
:102C200010B51F230B4001219940046A8C430462B4
:102C30009A40016A1143016210BD0000F8B5026AB2
:102C400001239A430262026A02239A438E68164362
:102C500044680A6800928369604FB84205D0604DAD
:102C6000A84202D05F4DA84208D10C25AE43CD68E2
:102C7000042295433543B84201D106E03546584A0F
:102C8000904202D0574A904207D103221202944345
:102C90004E698A692643164300E02646009C46603A
:102CA0007322934323438361496841630562F8BDFE
:102CB000F0B5026A10239A430262036A202293430A
:102CC0008A6812011A4345680C688369434EB04212
:102CD00006D0434EB0420AD0424EB04207D00FE079
:102CE000C026B243CE6836014027BE433243032696
:102CF000B602B5434E698F69B6002E43BD00354319
:102D0000456073252D02AB4324021C43846149684E
:102D100081630262F0BDC046F0B501221302046A6D
:102D20009C4304625202036A93438A6812021A4364
:102D300045680B68C469294EB04206D0284EB0429F
:102D40000BD0284EB04208D010E00326B602B243A2
:102D5000CE6836020A4F37403A4303263603B5435E
:102D60004E698F6936012E433D0135434560732519
:102D7000AC431C43C4614968C1630262F0BDC046F4
:102D800000FBFFFFF8B501221303046A9C430462B1
:102D9000036A44688D6800950E68C5690F4FB84294
:102DA00005D00F4FB84202D00E4FB84205D197035D
:102DB000BC434F69BF01274300E0274647607324A7
:102DC0002402A54334022C43C461496801645103C1
:102DD0008B430099090319430162F8BD002C01409F
:102DE0000048014000440140B0B5036A046A01256F
:102DF000AC4304628469F025AC4312012243826132
:102E00000A2293430B430362B0BD10B5036A10243A
:102E1000A34303620F231B0384699C4312032243D1
:102E2000036A8261A022934309011943016210BD24
:102E3000002805D40322034693430C4A9A1806E05F
:102E40000F220240083A03239A43074BD218800707
:102E5000C00E8901C9B28140FF23834010689843A6
:102E6000084310607047C0461CED00E000E400E03D
:102E700070B50C46054600220B4BFDF71FFAFDF717
:102E80000BFB064628462146FDF706FB02460920B5
:102E9000C04350438019C3B2044C05A1204600F042
:102EA00095F9204670BDC04600002440C8010020AE
:102EB00025642E2564000000010407D00021642948
:102EC00002D200BF491CFAE7401EF5E77047000038
:102ED00094B0FEF753F9FFF711FEFFF787FBFFF7FA
:102EE00005FCFFF769FCFFF72FFCFFF749FC8C4856
:102EF0000421FEF763FF8B48FEF774FD8A48FEF756
:102F000071FD01267102894C894D20463246A84741
:102F1000310220463246A847102120463246A847B3
:102F2000082120463246A847FFF7A2FAFDF71AFC0F
:102F3000FFF71AFA0D20092100242246FFF7B8FAFC
:102F40000C2005212246FFF7B3FA7A487A49FFF7A9
:102F50008FFF024610AF7949384600F037F9784DB7
:102F6000384621463246A8477D200190C000FDF733
:102F70005DFD74487449FFF77BFF024638466F4990
:102F800000F024F9384621463246A847FFF79EFD57
:102F90006420FDF7F9FB2046FFF73DFA6BA10722FD
:102FA0003846FDF7AEF80E2538462946FDF722FDD6
:102FB0000AAE30462946FDF75FFC304621462246E0
:102FC0005F4B9847634906A80246E8C9E8C2022554
:102FD00029462246FDF7B4FC02A829462246FDF701
:102FE0000BFC5D48FDF722FD039F029E624D5B488E
:102FF0000078002831D0594804700FA80EA9FFF7B7
:10300000E3FC00280BD0019841016420FDF7C8FBC8
:1030100010A853A10CC90CC00988018018E0FDF765
:10302000D9FB0F98FDF75CFAFFF722FF024610ADBF
:1030300028464EA100F0CAF80E98FDF751FAFFF7A6
:1030400017FF034628464AA12A464B4D00F0BEF81A
:1030500010A800210A46FFF7ACFA287A002816D0FB
:103060002C7230463946454A454BFDF775F8064601
:103070000F46FFF7FDFE024610AD28462F4900F02F
:10308000A5F8012228463C4D2146FFF792FAA87A7E
:10309000002816D0AC72304639462246394BFDF72F
:1030A0005BF806460F46FFF7E3FE024610AD2846E2
:1030B000224900F08BF8012228462F4D2146FFF7C8
:1030C00078FA4520295C00291CD02C542E48007B1E
:1030D000002809D00020FDF753FB10A82BA10CC934
:1030E0000CC00978017008E00120FDF749FB10A829
:1030F00029A10CC90CC00988018010A800210A462A
:10310000FFF757FAA86A2968014300D06FE710A8B3
:1031100004712449109121462246FFF74AFA66E7D6
:103120002C02002094020020FC0200200004004831
:10313000F30B00083333333333333E407834000825
:10314000B3250008CDCCCCCCCC4C45406D65686433
:10315000695F0000683400088813000060010020E7
:103160002D2D2D2D2C2D2D2D2D00000025732C0007
:103170002573257300000000780100209A99999921
:103180009999B93F0000F03F68010020416C6172DD
:103190006D206F6E00000000416C61726D206F66E3
:1031A00066000000426F7468B0B50920C4060425AB
:1031B000012220462946FDF71CFDC820FFF77CFEB2
:1031C000002220462946FDF714FDB0BD0FB410B50E
:1031D00004A9074B02AA039800F032F8044602A99A
:1031E000002000F013F9204610BC08BC04B01847BA
:1031F0000D3400082021020C01D010211046020AD3
:1032000001D010460839020901D01046091F820872
:1032100001D01046891E420801D0881E7047081A46
:10322000704702E008C8121F08C1002AFAD170478F
:103230007047002001E001C1121F002AFBD1704736
:10324000FFB58DB00F460546002606E025280AD0BA
:10325000109A0F9990476D1C761C28780028F5D19C
:10326000304611B0F0BD00240121674A009400E00F
:1032700004436D1C2B780846203B98401042F7D140
:1032800028782E2815D10420044368786D1C2A283C
:103290000AD101CF6D1C00900BE000990A22514326
:1032A000303940186D1C00902878014630390929C2
:1032B000F3D92878692843D006DC0028D0D06328C9
:1032C0000BD0642804D13BE073280FD075284CD074
:1032D000109A0F999047761C94E0387869460872E6
:1032E0000020487202A80190012003E03868019094
:1032F0000020C0433F1D61070CD5002400E0641C82
:1033000000998C420FDA8442F9DB0199095D0029AA
:10331000F5D108E0002400E0641C8442FCDB019944
:10332000095D0029F8D1361907E001980199007864
:10333000491C0191109A0F999047641EF5D261E0E3
:103340000A20019001CF002802DA40422D2102E03C
:10335000210504D52B216A461172012103E0E10702
:1033600001D02021F7E70C9104E00A20019001CF61
:1033700000210C910BA90B9108E00199FDF7E0F8F1
:103380000A460B993032491E0B910A700028F4D17D
:103390000B9803A9081A20300190600701D5009806
:1033A00001E0012000900199884203DD0146019867
:1033B000081A00E000200024009006E002A8109AFD
:1033C000005D0F999047641C761C0C988442F5DBD5
:1033D00004E0109A30200F999047761C0099481EFF
:1033E00000900029F5DC08E00B980B990078491C47
:1033F0000B91109A0F999047761C0199481E0190E5
:103400000029F1DC6D1C28E7092801000A68531C1B
:103410000B601070704700000800000007000000FB
:103420000700000006000000030000000400000088
:10343000030000000600000004000000030000007C
:10344000040000000400000003000000050000006C
:103450000400000003000000000000000000000065
:10346000010203040607080966666666666624406C
:1034700033333333333329404D656864693A2573F8
:1034800000000000A83400080000002060010000D7
:1034900028070008C8350008600100200806000061
:1034A0003232000800000000420442014043070A93
:1034B0000D010E0F0C0708090A0B080C0E101C1D3D
:1034C0000D0B040D1817190910090408111504161D
:1034D0001213140001020304050601000102060193
:1034E0000D14012016011E08071F0317100001020A
:1034F0004C127A001A1B0B10160B040C641F0507E4
:10350000270202020418024D03040B080807040AEC
:103510000015151F360404040407380400061109B9
:103520000F106604040404044602021E00044C0E3C
:103530000A0F041800050007051F86020202021F79
:103540005B1F05070004001111110E460C02010259
:103550000C460E011F000E6602021F000C2B030416
:10356000180001010111110E6701020402011F3C44
:1035700002021F000401020402111F47020003049B
:10358000041F3802000202020418651802021F8498
:1035900015151F5B13120C1010161010110F4C0292
:1035A000021E000C04000609011F5E02050015172B
:1035B000141C04040407051F550A00111E170E0AE7
:0835C0000E02041800000000D7
:04000005080000B13E
:00000001FF
