:020000040800F2
:1000000078070020C5000008B51F0008CB180008BD
:1000100000000000000000000000000000000000E0
:100020000000000000000000000000001B2200088B
:100030000000000000000000B71F00081D2200089B
:10004000D700000800000000D7000008D700000813
:10005000D7000008D7000008D7000008D700000824
:1000600000000000D7000008D7000008D7000008F3
:10007000D7000008D7000008D700000800000000E3
:10008000D70000080000000000000000D7000008B2
:1000900000000000B1220008C1220008D7000008BB
:1000A00000000000D700000800000000D700000892
:1000B0000348854600F096FA0048004711260008DC
:1000C000780700200448804704480047FEE7FEE721
:1000D000FEE7FEE7FEE7FEE7AD220008B1000008FC
:1000E00030B50B46014600202022012409E00D46D0
:1000F000D5409D4205D31D469540491B2546954058
:1001000040191546521E002DF1DC30BD10B5202AD5
:1001100004DB0846203AD040002110BD0B46D340F6
:10012000D0402024A21A91400843194610BDD2B2F3
:1001300001E00270401C491EFBD270470022F6E726
:1001400010B513460A4604461946FFF7F0FF20464D
:1001500010BD0000F0B507460846584087B0C00FF4
:10016000049048000E46590040084908BC1A8841CE
:1001700005D2384631461E4617460B460246580001
:10018000400810434CD0300D039040055900400DFD
:10019000490D0590401A0290402872DA1803012197
:1001A000000B09050843019004980092002805D02F
:1001B000019952420020884100920190029840210A
:1001C0000A1A0199009800F049F905460C466B4659
:1001D00007CB00F053F9C0197141039A0E0D0023AB
:1001E000D71756401A467A40164344D0049A002A3C
:1001F0002DD0029A012A039A15DC1205C01A9141EA
:1002000001263605001C7141D20F059ED2070093CE
:10021000019202962A46234600F091F907B0F0BDFC
:1002200038463146FAE71605224A0F46B218C01A78
:10023000B74101210905001C4F4100187F411146BB
:1002400018187941E20F10436D19644113E0E20779
:100250006D0815436408C2071443039A012612056A
:10026000C01A91413605001C7141CE074008304349
:100270004908C01851412A46234600F053F9CDE7FA
:10028000FFE7049801224000C117121A00238B4196
:1002900004983146C417381AA141EEE730B401245E
:1002A000E407634030BC55E730B40124E407614003
:1002B00030BC4FE70000E0FFF0B51FB488B00B99E9
:1002C0000998002448400999C00F4900490809913C
:1002D000C0070B990090490049080B9109990898AB
:1002E000A64608431CD00B990A98084318D00998D1
:1002F00001244000420D4800410D099824050003E7
:10030000000B204309900B980003000B20430B9037
:1003100050181C494018002201901446104605E070
:10032000002001460DB0F0BD032801DA034600E0CD
:1003300003239C46C11A0AAE0AE05F0008ADED5BDC
:100340004F00F75B7D430027AA187C41491C5B1EC8
:100350006145F2DD410004AB5A522104120C0A43FC
:10036000240C401C0828DFDB01980290009970469D
:1003700001910090059B049A0799069800F0DFF818
:10038000D0E700000DFCFFFF10B5002296231146B8
:1003900000F08FF810BD00000EB505490291002154
:1003A00000910A460B46019100F0C9F803B000BD68
:1003B0003304000070B5CD0F4A0009030123090B77
:1003C0001B0519430B4BED070024520D9A4201DA2D
:1003D000002070BD074B34339A4203DC9A1AFFF7B2
:1003E00095FE02E00449511888402C43F1D0404268
:1003F00070BD0000FF030000CDFBFFFFC20FD2075E
:10040000400040080BD0C10D0723DB01C918400292
:100410000905400A1143C2084007114370470020F4
:1004200001467047CB0FDB07490010B5490802466B
:100430000A4307D00A0D07240903E401090B121B24
:10044000002A01DC002010BDC900440F0C43C1008C
:10045000E018D205801800F024F810BD10B5202A4D
:1004600004DB0146203A9140002010BD914020233A
:100470009C1A0346E3401943904010BD10B5202A52
:1004800006DBCB170846203A1041C1170B4306E0A4
:100490000B461341D0402024A21A9140084319462C
:1004A00010BD002904DA401C490001D14008400079
:1004B000704770B40024050C05D11024000402D14B
:1004C000002921D01124050E01D100020834050FA6
:1004D00001D10001241D850F01D18000A41C00283A
:1004E00001DB4000641C002908D020252E1B0D468E
:1004F000F540A14000D001212943084301061B1B00
:10050000000ADB1D02D5002070BC7047DB051818FF
:1005100080180029F8DA401C4900F5D170BC400869
:100520004000704710B5002B08DA0024401C6141E0
:1005300092185B411A4301D14008400010BDF0B54C
:100540001FB482B005460C0003D0084602F0D2F971
:1005500002E002F0CFF92030024600902146284602
:10056000FFF77CFF049B059A04460F46184311438E
:10057000084314D0184610431BD0009840210A1A93
:1005800018460599FFF7C2FD05460E46009A0599E3
:100590000498FFF763FF084305D0012004E02046DC
:1005A000394607B0F0BD0020C11705430E432C4368
:1005B000374300990E986305401A7905E40A002232
:1005C0000C43FD0A0A3002D500200146E9E7010587
:1005D000101969410C9C0D9D00196941FFF7A2FF9C
:1005E000DFE70000064C0125064E05E0E36807CC76
:1005F0002B430C3C98471034B442F7D3FFF75CFD13
:10060000742B0008942B000830B58C180278401C1D
:1006100013071B0F01D10378401C120906D1027881
:10062000401C03E005780D70401C491C5B1EF9D18D
:1006300001E00B70491C521EFBD1A142E6D3002001
:1006400030BD00001D480021018181710170418190
:1006500001730A2141801921090181807047C04638
:10066000164908737047C04610B5144C002121810B
:10067000012121700A21FFF733FD608010BDC046C3
:1006800070B504460D4EB079002800D070BD002032
:10069000708130810120B07130700A2508462946EA
:1006A000FFF71EFDB08020462946FFF719FD708038
:1006B00070BDC0460148002181717047680100206B
:1006C00080B52B2148430A21FFF70AFD0021814212
:1006D00002D200BF491CFAE780BDEFF3108072B66A
:1006E000FEE70000B0B5044600F0E0F80546601CE7
:1006F00002D0EF484068041900F0D8F8401BA0422F
:10070000FAD3B0BDF0B588B007465E48874201D045
:10071000052000E003200090002206921446059771
:100720000E683046E04000D1AAE001250295A540C0
:100730002E4000D19EE0049403924A68032314469D
:100740001C40601E01281AD803230192069A934088
:10075000B8689843CF689740074305988760019829
:10076000C006C00F049A9040059F7F68AF430743BF
:1007700005984760059FD8435500019A08E0184640
:10078000069DA840C043032C02D1069D1C461CE0D8
:10079000FB6803408F68AF401F43059BDF60059FE8
:1007A000022C12D11C22039B1A400F239340049C5D
:1007B000E408A4003C19276A9F430B6993403B431C
:1007C000059F23624A6803241440AC403B68034001
:1007D00023433B609003800F039A049C4AD0D74B7D
:1007E0001868029D2843186018682840079023461F
:1007F0000C2414400F20A04003229343079A234D5A
:100800005A5982435B190920C006874208D087489D
:10081000874207D01E488742009804D1022002E098
:10082000002000E00298A0401043186016480068BD
:100830004B68DA0301D5304300E0B043049C124A10
:10084000106050689A0301D5304300E0B0430E4A6F
:1008500050609068DA0201D5304300E0B0430A4AA4
:100860009060D0689A0201D5304300E0B043039A0B
:10087000054BD860121D0698801C0690641C4FE73B
:1008800008B0F0BD000C0048000401400800014021
:100890000008004800690840411E88417047002A4E
:1008A00001D0182200E0282281507047814800685A
:1008B0007047C046B0B5436C0222202B17D1036CA1
:1008C000012B14D024224264026813680124A3433C
:1008D0001360230315689D43156013680B43136071
:1008E00011682143116000220264202141641046F6
:1008F000B0BDB0B5436C0222202B17D1036C012B85
:1009000014D024224264026813680124A3431360B4
:100910000F231B0215689D430902294311601168CA
:100920002143116000220264202141641046B0BDC1
:1009300070B5002820D00446406C002804D1002067
:100940002064204600F042F8242060642068026899
:1009500001218A4302600F221206636893430361F8
:100960008368184A13408360A368E568012D05D1A8
:10097000CD032B43836009E0012070BD2126B60220
:1009800033438360022D01D1CB02436043680E4D97
:100990001D434560C3681340C36022696369134304
:1009A000A26912021A43C260E269236A1343036018
:1009B00002680A4302600020E06420216164206331
:1009C000A06470BDFF7FFFFF00800002B0B586B05D
:1009D000044601A81421FFF7B1FB206811498842A1
:1009E0001DD10125A804104C216801432160216814
:1009F0000140009105950395122002900320049078
:100A0000800201900098094801A9FFF77BFE680564
:100A1000A1680143A160A16801400091009806B05F
:100A2000B0BDC0460054004014100240000400480D
:100A3000B0B5002822D0044600681349016013496C
:100A4000016061684160A1688160FFF72FFF054682
:100A50002068C16849070AD0FFF728FF401B2828F3
:100A6000F6D32068C0684007F2D00320B0BDE1682B
:100A700002698A4204D10949016002E00120B0BD47
:100A800001610020B0BDC046CCCC0000555500002F
:100A900000680249016000207047C046AAAA000011
:100AA0001B48406803490A68101808607047C04630
:100AB000000000207403002010B5A7480168102230
:100AC0000A4302600024204600F004F800F022F8F7
:100AD000204610BD70B504467D20C0000C4E7168E4
:100AE000FFF7FEFA01469F480068FFF7F9FA00F0A9
:100AF00061FB0125032C08D8002806D10025E84316
:100B000021462A4600F028F83460284670BDC046C9
:100B10000000002082B009480168012211430160F1
:100B20000168114001910199110742680A4342602E
:100B3000406808400090009802B0704718100240CA
:100B4000002805D41F21084001218140014801608F
:100B50007047C04600E100E080B501F007FD80BDB0
:100B6000F0B585B004468078C007394B3BD00122F0
:100B700011071868C0000191029202D5002003906D
:100B800007E0186808431860186808400490049843
:100B90000392304E3068C00538D5032528022C4B0F
:100BA0005968014012D06268024091420ED002980A
:100BB000000459685A6802435A605A6882435A606E
:100BC0000846254A10405860C80731D15868224964
:100BD00008406168014359600398002803D01868F1
:100BE0000199884318602068C10705D0596903221C
:100BF0009143A2680A435A610025800625D55869A9
:100C000010218843E168014359611EE00298070200
:100C1000306838433060FFF749FE05463068384297
:100C2000BBD1FFF743FE401B6428F7D903250CE036
:100C3000FFF73CFE0646494F054B58688007C5D470
:100C4000FFF734FE801BB842F6D9284605B0F0BD48
:100C50001C10024000700040FFFCFFFFF8B50028A8
:100C60004ED004463C4B1A68012002408A4208D20A
:100C70001A680126B2430A431A601A6832408A424F
:100C800067D1009121688A070ED54A0705D507224A
:100C90001202434D2B6813432B60414D2A68F02309
:100CA0009A43A36813432B60C9072BD12A4A1068C3
:100CB000012630400099884207D91068B0430843A4
:100CC000106010683040884243D12078400707D533
:100CD00007200002324A11688143E068084310602F
:100CE00000F042F82E4909680906090F1C4A515CB8
:100CF000C8401C49086000263046FFF7EBFE28E09C
:100D0000012626E06168264A121F012902D11268D5
:100D1000920305E01268022901D1920100E09207D6
:100D2000064616D51E4A10680326B04308431060D5
:100D3000FFF7BCFD0746094D194800680C2101402A
:100D4000606880008142B1D0FFF7B0FDC01BA842AF
:100D5000F2D93046F8BDC04600200240881300009A
:100D6000582B00084C00002010B50D490A680C23D0
:100D700013400C48082B08D193021B0F0AA4E45C13
:100D8000896AD20303D4104807E0044606E00F2224
:100D9000114009A2515CFFF7A3F94443204610BD5E
:100DA0000410024000127A00020304050607080935
:100DB0000A0B0C0D0E0F10100102030405060708A4
:100DC000090A0B0C0D0E0F1000093D00F0B587B09D
:100DD00007460120002F00D1C2E104903878C007F7
:100DE000F14E059711D071680C200140042906D0FE
:100DF00071680140082937D17068C00334D5306864
:100E0000800302D57868002838D0387880074ED51E
:100E100070680007800F1BD070680C210140082902
:100E200002D17068C00313D53068059CE1680029C1
:100E300026D0012108433060FFF738FD05463068B1
:100E400080072DD4FFF732FD401B0228F7D986E139
:100E500030688007059A02D5D06801280ED1306825
:100E6000F821884311691FE07968002900D1C1E0A9
:100E7000012900D0D7E001200104DDE004986FE1F2
:100E8000012188433060FFF711FD05463068800777
:100E90000DD5FFF70BFD411B03200229F6D95FE1B9
:100EA0003068F82188432169C90001433160059CFD
:100EB0002078000720D42078400730D42078C0065E
:100EC00000D4C4E0059A5169012971D1706B0421E5
:100ED00001437163706B012101437163FFF7E6FC0D
:100EE0000546706B800700D5A9E0FFF7DFFC411BCA
:100EF00003200229F5D933E1706AE169002918D08D
:100F0000012108437062FFF7D1FC0546706A800733
:100F1000D1D4FFF7CBFC401B0228F7D91FE10122F7
:100F20001107F069C0000191039211D500200290D1
:100F300016E0012188437062FFF7B8FC0546706A2D
:100F40008007B8D5FFF7B2FC401B0228F7D906E1AD
:100F5000F0690843F061F069084006900698029233
:100F6000924F3868C00511D505988168904F0029C7
:100F70002AD00129039A06D0306A052900D0BCE0A6
:100F8000042108433062306A1043BBE00398040236
:100F9000386820433860FFF789FC054638682042EE
:100FA000E2D1FFF783FC411B03206429F6D9D7E087
:100FB000706B491D00D08CE0042188437063706B16
:100FC000F821884391693FE0306A03998843306291
:100FD000306A042188433062FFF768FC0546306AB6
:100FE000800700D49BE0FFF761FC411B0320B9425E
:100FF000F5D9B5E00120010432688A4332608104EA
:1010000032688A4332604404FFF750FC0546059F6E
:101010003068204200D1F8E6FFF748FC411B03206E
:101020006429F5D99CE03068052900D081E00121D0
:101030008A041043306009043068084380E0706B14
:10104000F821884305998969C900014371630598AE
:10105000046A002C1AD070680C210140082917D1AD
:10106000012C04987CD00120030471680B40F26AC3
:10107000059D6C6AA34273D10F231A40EC6AA24209
:101080006ED19A041140AA6A914269D1002067E0AA
:101090000120020631680492914331604706FFF750
:1010A00005FC0546022C0AD1049C3068384259D010
:1010B000FFF7FCFB411B03200229F6D950E0306802
:1010C0003842E3D0FFF7F2FB411B03200229F6D997
:1010D00046E0042108437063706B0121884370630C
:1010E000FFF7E4FB0546706B8007B0D5FFF7DEFB2A
:1010F000411B03200229F6D932E090433062306A66
:10110000042188433062FFF7D1FB0546306A80072F
:1011100005D4FFF7CBFB401BB842F7D91FE002987C
:101120000028059C00D1C9E6F06901998843F06167
:10113000C4E601210A049043306089043068884382
:10114000306001204404FFF7B1FB054630682042BF
:1011500000D05AE6FFF7AAFB401B6428F6D903200B
:1011600007B0F0BDF06A0F218843059AD16A0143A8
:10117000F1623D20000471688143906A0843516A1E
:1011800001437160306820433060FFF78FFB0446F5
:101190003068384200D079E7FFF788FB011B032055
:1011A0000229F5D9DCE7C04600100240007000407B
:1011B00088130000401E010E01D00120704707492E
:1011C000074A5060074803680B40032189075918F4
:1011D000016000209060072111607047FFFFFF0051
:1011E00010E000E020ED00E07047704770B5024667
:1011F000C06B012801D1022070BD0020D0633F23C5
:101200001B02CC689C430F239D028E68AE4326438D
:10121000DB024C689C43344307231B030D689D434A
:10122000254303235B030C699C432C434B692343F5
:101230000124A403A343C96919431268516470BD12
:10124000B0B5C26B012A01D1022119E00222026469
:101250000122C26303685C687025AC430D682543B6
:101260009C685D60EA4DAB4202D0474DAB4204D171
:101270008025AC434968214399600021C163026421
:101280000846B0BD10B500281BD00446006C0028ED
:1012900004D10020E063204600F016F8022020640C
:1012A0002068211D01F014F8012060666064A064CC
:1012B000E06420656065A065E0652066206400202C
:1012C00010BD012010BD00001FB500681A498842FA
:1012D00010D01A4988421BD0CD4988422BD1012019
:1012E000C00217490A6802430A6009680140039175
:1012F00003981FBD01218804114A1368034313603A
:1013000012680240019201981624002220460DE046
:10131000012040040A490A6802430A600968014042
:10132000029102981524002120460A46FFF714FC7A
:101330002046FFF705FC1FBD004801400044014066
:1013400018100240016C012916D1022101640168C4
:10135000C86801221043C860AD48814202D00A48E3
:1013600081420BD18868072303400020062B09D057
:101370000B6813430B6070470120704708681043E7
:10138000086000207047C04600040040F8B50446DD
:10139000C06B012801D1022269E0022020640125EE
:1013A000E56320688268344B1A4082600F6800262B
:1013B000002F22D0102F20D0202F1ED0302F1CD055
:1013C000402F22D0502F2AD0602F32D06A0397426C
:1013D0003AD02A039742324647D0702F49D177330B
:1013E00082681A404B688F68C9681F4309023943F5
:1013F000114381608168772234E0816870229143D3
:101400000F430721394381602EE0CA68496801F023
:1014100089F82068816847220A43302112E0CA68AF
:10142000496801F07FF82068816857220A4320212B
:1014300008E0CA68496801F086F820688168672278
:101440000A4310218A430EE0773382681A404B68C2
:101450008F68C9681F430902394311438160012124
:10146000890382680A4382603246E6632564104637
:10147000F8BD2A46F9E7C0468800FFFF7047B0B5BF
:1014800004468020C54320680169890717D5C168D3
:10149000890714D529467E3101610121E161806906
:1014A000800703D02046FFF7E9FF05E0204600F063
:1014B000B3F8204600F030F90020E06120680169AF
:1014C000490718D5C168490715D529467C310161FE
:1014D0000221E16180698005800F03D02046FFF77B
:1014E000CDFF05E0204600F097F8204600F014F903
:1014F0000020E06120680169090717D5C168090764
:1015000014D52946783101610421E161C069800761
:1015100003D02046FFF7B2FF05E0204600F07CF83C
:10152000204600F0F9F80020E06120680169C90652
:1015300018D5C168C90615D5294670310161082141
:10154000E161C0698005800F03D02046FFF796FF58
:1015500005E0204600F060F8204600F0DDF80020AD
:10156000E06120680169C90709D0C168C90706D0D0
:1015700029467F310161204600F020F92068016989
:10158000090607D5C168090604D505612046FFF79D
:101590002BFE20680169490609D5C168490606D5B0
:1015A000294640310161204600F08EF9206801692A
:1015B000890607D5C168890604D5603505612046CE
:1015C000FFF713FEB0BD000010B586B0044601A8B9
:1015D0001421FEF7B3FD20687749884216D1012017
:1015E00041040C4A13680B43136012680A400092CE
:1015F000022105910022049203920291400201907F
:101600000920C006009901A9FFF77CF806B010BDBB
:10161000002C01401410024070470000B0B5044691
:10162000C06B012801D10220B0BD0D460120E0634E
:101630000221CA41032A4AD87A44127952009744B7
:10164000011022312068294600F08EFE2068816951
:1016500008220A43826181690422914381612969D8
:101660000FE02068294600F0B9FE0121CA02206877
:10167000836913438361890282698A43826129698C
:10168000090218301FE02068294600F0DFFE2068BC
:10169000C16908220A43C261C16904229143C16140
:1016A00029690FE02068294600F00CFF0121CA02D9
:1016B0002068C3691343C3618902C2698A43C26156
:1016C000296909021C3002680A43026000200021D7
:1016D000E163B0BD10B500281BD00446006C0028A3
:1016E00004D10020E063204600F015F802202064B9
:1016F0002068211D00F0ECFD012060666064A0649C
:10170000E06420656065A065E065206620640020D7
:1017100010BD012010BD704770470000B0B50446F1
:10172000002905D0082905D0042905D1483004E056
:10173000443002E04C3000E050300068012808D10D
:101740002046002907D0082907D0042907D14830AE
:1017500006E00120B0BD443002E04C3000E05030E3
:1017600002220260206801252A4600F0EFFD216870
:101770001048814213D01048814205D0514A91420D
:1017800002D04C4A914205D1EA034B6C13434B649F
:10179000814204D0086828430860002005E088687A
:1017A000072202400020062A00D1B0BD0A682A4361
:1017B0000A60B0BD00040040002C0140F8B502688A
:1017C0003C498A426ED13C4C21780029009018D0C7
:1017D000207B002804D1012251033848FFF75FF82D
:1017E0002089401C2081618880B2884217D9002559
:1017F00025810120410331482A46FFF750F8257022
:101800000DE0A07900280AD06089401C6081A18881
:1018100080B2884203D90120207000206081002519
:101820009E4E274F502D3BD07419218AE068FFF758
:1018300031F8705178606168002804D1012902D123
:101840000021A16001E0002902D060601435E9E7C1
:10185000002810D00128F8D1E17A091F232907D8E0
:10186000617A002904D1A17A002901D101212172D4
:101870000021E172E9E7E17A491CE172C9B2C929A4
:1018800004D30021E17201216172DEE70B29DCD370
:10189000617A0029D9D00021E1720121A172D4E737
:1018A0000098026807498A4200D0F8BD0448012127
:1018B0000170F8BD004401406801002000080048A4
:1018C00060010020004801407047FEE7F0B585B098
:1018D000019000F097FB012000F07CFB00268020A7
:1018E000C4B2002C26D004964026012503906C48F3
:1018F00031462A46FEF7D3FF2846574DA8470A2708
:101900003846A84780216648FEF7C4FF02900025AC
:10191000634831462A46FEF7C2FF38464E4988479B
:101920000298C0B20128039800D02846049E0643BE
:101930006008D5E7019800F073FB01242046464F6C
:10194000B8474025564F384629462246FEF7A7FF9E
:101950000524204640498847002238462946FEF79C
:101960009EFF00F04FFB20463B498847F0B205B090
:10197000F0BDC046B0B500F045FB00F01DFB0024F3
:10198000204600F04DFB0A252846FEF799FE20462A
:1019900000F020FB2846FEF793FEB0BD10B50024F2
:1019A000204600F03DFB204600F014FB00F004FB55
:1019B0000A242046FEF784FE00F024FB2046FEF7B2
:1019C0007FFE10BDF8B500900024204600F028FBF3
:1019D000204600F0FFFA80221F4DD4B2002C1CD00C
:1019E00000980240501E82418021F948F64B9847EA
:1019F00001263046A8474027F54839463246F24B83
:101A0000984707263046A8470022F1483946EE4B52
:101A100098473046A8476208DFE700F0F3FA40270E
:101A20000122EB4D28463946FEF739FF02200A4CC9
:101A3000A04780212846FEF72DFF06460520A04737
:101A4000002228463946FEF72AFF0A20A047F0B2B6
:101A5000411E48424841F8BDC10600084C210F48CC
:101A600004224252012141600022826080230382CD
:101A7000016002230387D64B8162C1620263436324
:101A8000818441618161C2610362C1630164426416
:101A900083640921C906C1607047C04678010020EF
:101AA00000040048FEB5029045087826354009201C
:101AB000C40601220192C44B20462946984775402E
:101AC0000027204629463A46BF4B984700F0ECFED7
:101AD00002980007450E20462946019ABA4B9847BE
:101AE000B94B7540204629463A46984700F0DCFE3F
:101AF000FEBDC04610B501200024214600F0DDF8EF
:101B00000220214600F0D9F810BD10B5014600248E
:101B1000204600F01BF8102C05D22020012100F0F7
:101B2000CCF8641CF7E710BDB0B50C464007800E3A
:101B300040300025294600F0C0F8082D05D0605D32
:101B4000012100F0BAF86D1CF7E7B0BD80B500299F
:101B500000D0403080210143C8B2002100F0ADF830
:101B600080BD0000B0B50920C00602210024224635
:101B7000FEF795FE0A20FEF7B5FD3320084D2146FD
:101B8000A84732202146A84728202146A8470C20F4
:101B90002146A847FFF7AEFF06202146A847B0BD63
:101BA000BB1C0008FEB50292019100270F283E469B
:101BB0003C4611D840B2800012A10C5821A10D580A
:101BC00030490E5808E0285CC0002F490918381920
:101BD000C0B2FFF7A9FF7F1CF8B28642F3D8019884
:101BE0000299FFF7B3FFA4190025E8B2864207D98E
:101BF000C0432018C0B2012100F05FF86D1CF4E76B
:101C0000FEBDC04600000000000000000000000013
:101C100000000000000000000000000000000000C4
:101C200000000000000000000000000000000000B4
:101C300000000000000000000300000000000000A1
:101C4000040000002D0000200F00002008000020EC
:101C5000210000202A00002038000020270000205A
:101C6000440000201D00002035000020500000200E
:101C7000160000201A0000203F0000205400002021
:101C80003C000020182B00085800002010B5441C10
:101C90000078C0B2012100F010F8611C2078002803
:101CA0000C46F6D110BD10B5044608461146FFF7A4
:101CB0004DFF2046FFF7EAFF10BD10B5044601298D
:101CC00003D0002907D1002200E001220920C0062C
:101CD0000121FEF7E4FD2046FFF7E4FE10BD000001
:101CE000F0B589B0002408940127F904344802684B
:101CF0000A43026002680A40039203997904026869
:101D00000A43026002680A4003920399B904026818
:101D10000A43026002680A4003920399B905026807
:101D20000A43026000680840039003987E03254838
:101D3000254D31462246A8470920C0060190234977
:101D40002246A847C24823492246A8472248802164
:101D500002912246A847079406940597049604AE7C
:101D60001E4A18483146904707940694059717482D
:101D70000490019D28463146184A904706970594DD
:101D80000298049028463146144DA84706970594BA
:101D900007200490AE483146A8470794069405975B
:101DA0000C480490AA483146A84707940694059722
:101DB0000298049008483146A84709B0F0BDC046D3
:101DC00014100240000800489F0800087F09000026
:101DD00000040048D8F3000000140048050700087C
:101DE00010B5134C01200021124A134B236062608E
:101DF000A160E060204610301421FEF79FF92046D4
:101E0000FEF796FD002801D0FEF767FC0848002188
:101E1000FEF750FD002801D0FEF75FFC04480021CA
:101E2000FEF767FD002801D0FEF757FC10BDC04645
:101E3000D80100200E0900200054004080B507485A
:101E400007490622074B036042608160C160FEF7CC
:101E5000EFFD002801D0FEF740FC80BD2C020020E1
:101E6000FF0F00000030004010B50A4800210A4A68
:101E70000A4BFF24E03418C0016042608160C160F9
:101E800001610838FFF7FEF9002801D0FEF725FCB4
:101E900010BDC046A4020020E7030000004401403A
:101EA00010B509480021094A094B0A4C04604360F7
:101EB0008160C260016141618161FFF7E3F900283F
:101EC00001D0FEF70AFC10BD0C030020CF07000074
:101ED000BF5D00000048014070B596B00025159523
:101EE0001495139512951195109509A81C21FEF7CC
:101EF00025F901A82021FEF721F92B482B492C4A6E
:101F00000260416028318560C1600561456185617D
:101F1000FFF7B8F9002801D0FEF7DFFB01263003F8
:101F20001290214812A9FFF731FA002801D0FEF7DC
:101F3000D4FB1D48FFF7CEFB002801D0FEF7CDFBF8
:101F400011951095184810A9FFF77AF9002801D0CB
:101F5000FEF7C3FB60200990FF20F4300A9009AC23
:101F6000204608301421FEF7E9F80F4804222146E4
:101F7000FFF754FB002801D0FEF7AFFB01AC1421A2
:101F80002046FEF7DBF808957003069006482146C8
:101F9000FFF72CF9002801D0FEF79FFB0248FFF75E
:101FA00013FB16B070BDC0463C020020BF0300000A
:101FB000002C0140FEE77047FEB50020059004901C
:101FC0000390029040200190884801A9FEF79AFBF7
:101FD00006B080BDB0B586B00246401E8241834C3B
:101FE000402520462946FEF75AFC00200490039025
:101FF000012102910195059001A92046FEF782FB7F
:1020000006B0B0BDFEB5002005900490039002908C
:1020100080200190754801A9FEF774FB06B080BDD1
:10202000B0B586B00246401E8241704C80252046E5
:102030002946FEF734FC0020049003900121029110
:102040000195059001A92046FEF75CFB06B0B0BDE6
:102050000004004810B503218843FEF795F9FEF708
:10206000CDF90024054B2246FEF726F9044B224603
:10207000FEF770F8FEF7D6F910BDC04600405F3F8E
:10208000000018C080B503218843FEF77DF9FEF7F4
:10209000B5F9054A054BFEF70FF9054A054BFEF762
:1020A00059F8FEF7BFF980BDD7A3703D0AF7653F29
:1020B000CDCCCCCCCC6C47C070B500231C468B4239
:1020C0000FD0C55C65400824260607D06E002D069B
:1020D00001D531256E40F5B2641EF5E75B1C2C4638
:1020E000EDE7A01A411E8841800070BDB0B50D46D5
:1020F0000146012000F010F804464620FEF7F2FAEF
:102100000020294600F008F805461920FEF7EAFAF3
:1021100025432846B0BD0000F0B585B000910446C7
:10212000FFF728FC8020FFF74DFC0746002C03D06A
:10213000012C05D1E32000E0E520FFF743FC074335
:102140000294FFF717FC8120FFF73CFC04460520B2
:10215000FEF7B6FA3C430194FFF72EFF0024234F0D
:10216000E0087C280AD80120FEF7BCFA4021384656
:10217000FEF790FBC0B2641C0128F1D14021384623
:10218000FEF788FB03900025194C2846A047074618
:1021900004AE30702846A04770700399090602D03B
:1021A000029D019E03E00221019E0E43029D104A02
:1021B00039020C18012090470746012D05D0002D4B
:1021C00008D12046FFF746FF02E02046FFF75AFFFE
:1021D0000099086004A802213A46FFF76DFF044603
:1021E0003443FFF7DBFB204605B0F0BD0004004898
:1021F000CD180008B0B5FFF7BDFB8020FFF7E2FB6C
:102200000446FE20FFF7DEFB0546FFF7C7FB142060
:10221000FEF768FA25432846B0BD704780B5FEF743
:102220003FFC80BD70B594B008AC201D1821FDF7AF
:1022300085FF0025079506950595049513950520BE
:10224000C004129011950226109601200F901021C3
:102250000C910B900A20089003950295019500952A
:102260002046FEF7B3FD002803D0EFF3108072B6CE
:10227000FEE70795069505960720049004A801211E
:10228000FEF7ECFC002803D0EFF3108072B6FEE7F7
:102290000395202000906846FEF762FC002803D0DA
:1022A000EFF3108072B6FEE714B070BD7047000007
:1022B00080B50248FFF7E3F880BDC046A4020020C5
:1022C00080B50248FFF7DBF880BDC0460C03002054
:1022D00010B50468904A904202D01A4B984204D13B
:1022E00070239C434B68234300E02346154CA042D7
:1022F0000AD0154CA04207D0904205D0874CA0428E
:1023000002D0874CA0421AD103242402A343CC68F4
:102310001C4380239C434B69234303608B68C36247
:102320000B688362904205D07C4A904202D07C4A7E
:10233000904201D1096901630121416110BD1C4630
:10234000E7E7C046000400400020004010B51F230E
:102350000B4001219940046A8C4304629A40016A4F
:102360001143016210BD0000F0B5026A01239A43D7
:102370000262026A02239A438D68154343688269A8
:102380007324A2430E68644FB84205D0634CA04248
:1023900002D0634CA04207D10C24A543CC6804278B
:1023A000BC435D4F2C4300E02C463243B84205D07D
:1023B0005A4DA84202D05A4DA84207D103252D02FA
:1023C000AB434D698E691D43354300E01D464560B2
:1023D0008261496841630462F0BDC046F0B5026A9B
:1023E00010239A430262026A20239A438B681E01DB
:1023F0001643426873231B0285699D430B681B02C9
:10240000454FB84201D0344607E0C024A643CC680B
:1024100024014027BC43404F34432B43B84205D0EE
:102420003E4DA84202D03E4DA84208D10325AD0240
:10243000AA434D698E69AD001543B2002A4342603C
:102440008361496881630462F0BDC046F8B501222A
:102450001302046A9C4304625202036A93438A682B
:1024600015021D434368C2697324A2430E682A4FB4
:10247000B84201D02C460AE00324A402A543CC684C
:10248000240200940E4C009F3C40234F2C433243C7
:10249000B84205D0214DA84202D0214DA84208D112
:1024A00003252D03AB434D698E692D011D43330177
:1024B0002B434360C2614968C1630462F8BDC046F2
:1024C00000FBFFFF70B501231A03046A9443046202
:1024D0005A03046A94438A681203224344687325AA
:1024E0002D02C669AE430D682D0235430A4EB04237
:1024F00005D00A4EB04202D0094EB04205D19B032E
:102500009C434B699B01234300E023464360C56124
:1025100049680164026270BD002C0140004801401E
:1025200000440140B0B5036A046A0125AC4304626B
:102530008469F025AC431201224382610A2293434D
:102540000B430362B0BD10B5036A1024A3430362BA
:102550000F231B0384699C4312032243036A826195
:10256000A022934309011943016210BD002805D43C
:102570000322034693430C4A9A1806E00F220240B6
:10258000083A03239A43074BD2188007C00E8901EB
:10259000C9B28140FF23834010689843084310600C
:1025A0007047C0461CED00E000E400E070B50D4649
:1025B0000646FDF7FFFE0446FDF7EEFE02460B461B
:1025C00030462946FDF76AFE0022074BFDF774FEF0
:1025D000FDF7F0FEC3B2054D05A12846224600F0E6
:1025E00075F9284670BDC04600002440C80100208F
:1025F00025642E2564000000010407D00021642911
:1026000002D200BF491CFAE7401EF5E77047000000
:1026100088B0FEF751FAFFF705FEFFF761FBFFF701
:10262000DFFBFFF759FCFFF71FFCFFF739FCFFF753
:1026300005FC7E480421FFF771F87D48FEF782FE15
:102640007C48FEF77FFE012671027B4C7B4D2046C5
:102650003246A847310220463246A847102120467C
:102660003246A847082120463246A847FFF77AFAA3
:10267000FDF7E8FFFFF7F2F90D20092100242246BB
:10268000FFF790FA0C2005212246FFF78BFA6C48E1
:102690006C49FFF78BFF024604AF6B4D3846294665
:1026A00000F014F9384621463246FFF7FCFA7D2047
:1026B0000090C000FEF716F864486549FFF776FF02
:1026C00002463846294600F001F93846214632468E
:1026D000FFF7E9FAFFF78EFD6420FDF7C5FF0194CF
:1026E0002046FFF712FA5B48FEF7A2F95A4F624CF8
:1026F0005848FEF7CDF959480078002831D000201D
:102700005649087003A802A9FFF7F0FC00280BD077
:10271000009841016420FDF7B3FF04A850A10CC943
:102720000CC00988018017E0FDF7C4FF0398FDF78E
:1027300065FEFFF73BFF024604AE30464BA100F0BA
:10274000C5F80298FDF75AFEFFF730FF0346304602
:1027500047A1324600F0BAF804A800210A46FFF764
:10276000A2FA207A002816D000262672019839464F
:10277000424A434BFDF7EEFC0F460190FFF716FF70
:10278000024604AD2846304900F0A0F80122284650
:102790003146FFF788FAA07A002816D00026A672E4
:1027A000019839463246374BFDF7D4FC0F4601906D
:1027B000FFF7FCFE024604AD2846234900F086F8E8
:1027C000012228463146FFF76EFA4520215C002998
:1027D0001DD0002121542C48007B002809D0002066
:1027E000FDF73EFF04A829A10CC90CC009780170AF
:1027F00008E00120FDF734FF04A827A10CC90CC094
:102800000988018004A800210A46FFF74CFAA06A53
:102810002168014300D06BE704A800210171214A1F
:1028200004920A46FFF73FFA62E7C0463C020020E6
:10283000A40200200C030020000400489F080008A8
:102840003333333333333E40682B0008CDCCCCCC0C
:10285000CC4C45402C020020000049406001002083
:102860002D2D2D2D2C2D2D2D2D00000025732C0010
:102870002573257300000000780100209A9999992A
:102880009999B93F0000F03F68010020416C6172E6
:102890006D206F6E00000000416C61726D206F66EC
:1028A00066000000426F7468B0B50920C4060425B4
:1028B000012220462946FDF7F2FFC820FFF79CFEC3
:1028C000002220462946FDF7EAFFB0BD0FB410B53F
:1028D00004A9074B02AA039800F032F8044602A9A3
:1028E000002000F013F9204610BC08BC04B01847C3
:1028F0000D2B00082021020C01D010211046020AE5
:1029000001D010460839020901D01046091F82087B
:1029100001D01046891E420801D0881E7047081A4F
:10292000704702E008C8121F08C1002AFAD1704798
:102930007047002001E001C1121F002AFBD170473F
:10294000FFB58DB00F460546002606E025280AD0C3
:10295000109A0F9990476D1C761C28780028F5D1A5
:10296000304611B0F0BD00240121674A009400E018
:1029700004436D1C2B780846203B98401042F7D149
:1029800028782E2815D10420044368786D1C2A2845
:102990000AD101CF6D1C00900BE000990A2251432F
:1029A000303940186D1C00902878014630390929CB
:1029B000F3D92878692843D006DC0028D0D06328D2
:1029C0000BD0642804D13BE073280FD075284CD07D
:1029D000109A0F999047761C94E0387869460872EF
:1029E0000020487202A80190012003E0386801909D
:1029F0000020C0433F1D61070CD5002400E0641C8B
:102A000000998C420FDA8442F9DB0199095D0029B3
:102A1000F5D108E0002400E0641C8442FCDB01994D
:102A2000095D0029F8D1361907E00198019900786D
:102A3000491C0191109A0F999047641EF5D261E0EC
:102A40000A20019001CF002802DA40422D2102E045
:102A5000210504D52B216A461172012103E0E1070B
:102A600001D02021F7E70C9104E00A20019001CF6A
:102A700000210C910BA90B9108E00199FDF730FBA7
:102A80000A460B993032491E0B910A700028F4D186
:102A90000B9803A9081A20300190600701D500980F
:102AA00001E0012000900199884203DD0146019870
:102AB000081A00E000200024009006E002A8109A06
:102AC000005D0F999047641C761C0C988442F5DBDE
:102AD00004E0109A30200F999047761C0099481E08
:102AE00000900029F5DC08E00B980B990078491C50
:102AF0000B91109A0F999047761C0199481E0190EE
:102B00000029F1DC6D1C28E7092801000A68531C24
:102B10000B60107070470000080000000700000004
:102B20000700000006000000030000000400000091
:102B30000300000006000000040000000300000085
:102B40000400000004000000030000000500000075
:102B5000040000000300000000000000000000006E
:102B600001020304060708094D656864693A257384
:102B700000000000982B0008000000206001000009
:102B800008060008B82C00086001002018060000A4
:102B90003229000800000000420442014043070AB5
:102BA0000D010E0F0C0708090A0B080C0E101C1D56
:102BB0000D0B040D18171909100904081115041636
:102BC00012131400010203040506010001020601AC
:102BD0000D14012016011E08071F03171000010223
:102BE0004C127A001A1B0B10160B040C641F0507FD
:102BF000270202020418024D03040B080807040A06
:102C00000015151F360404040407380400061109D2
:102C10000F106604040404044602021E00044C0E55
:102C20000A0F041800050007051F86020202021F92
:102C30005B1F05070004001111110E460C02010272
:102C40000C460E011F000E6602021F000C2B03042F
:102C5000180001010111110E6701020402011F3C5D
:102C600002021F000401020402111F4702000304B4
:102C7000041F3802000202020418651802021F84B1
:102C800015151F5B13120C1010161010110F4C02AB
:102C9000021E000C04000609011F5E020500151744
:102CA000141C04040407051F550A00111E170E0A00
:082CB0000E02041800000000F0
:04000005080000B13E
:00000001FF
