:020000040800F2
:10000000D8080020C5000008312B0008E31F0008B5
:1000100000000000000000000000000000000000E0
:10002000000000000000000000000000452D000856
:100030000000000000000000332B0008F12D000834
:10004000D700000800000000D7000008D700000813
:10005000D7000008D7000008D7000008D700000824
:1000600000000000D7000008D7000008D7000008F3
:10007000D7000008D7000008D700000800000000E3
:10008000D70000080000000000000000D7000008B2
:1000900000000000852E0008952E0008D7000008FB
:1000A00000000000D700000800000000D700000892
:1000B0000348854600F0F2FA00480047FD31000889
:1000C000D80800200448804704480047FEE7FEE7C0
:1000D000FEE7FEE7FEE7FEE7812E0008B10000081C
:1000E00030B50B46014600202022012409E00D46D0
:1000F000D5409D4205D31D469540491B2546954058
:1001000040191546521E002DF1DC30BD70B500249B
:100110002546002801DA01244042002901DA0125A0
:100120004942FFF7DDFFAC4200D04042002C00D036
:10013000494270BD10B5202A04DB0846203AD04061
:10014000002110BD0B46D340D0402024A21A91407C
:100150000843194610BD03460B439B0703D009E033
:1001600008C9121F08C0042AFAD203E00B780370F2
:10017000401C491C521EF9D27047D2B201E00270F5
:10018000401C491EFBD270470022F6E710B513460B
:100190000A4604461946FFF7F0FF204610BD421CF0
:1001A0000178401C0029FBD1801A704730B5044605
:1001B0000020034600E05B1C934203D2E05CCD5C70
:1001C000401BF8D030BD0000F0B507460846584047
:1001D00087B0C00F049048000E46590040084908F7
:1001E000BC1A884105D2384631461E4617460B4692
:1001F00002465800400810434CD0300D0390400593
:100200005900400D490D0590401A0290402872DABD
:1002100018030121000B090508430190049800927E
:10022000002805D001995242002088410092019097
:10023000029840210A1A0199009800F06BF90546CE
:100240000C466B4607CB00F075F9C0197141039A53
:100250000E0D0023D71756401A467A40164344D055
:10026000049A002A2DD0029A012A039A15DC12055D
:10027000C01A914101263605001C7141D20F059E1E
:10028000D2070093019202962A46234600F0B3F962
:1002900007B0F0BD38463146FAE71605224A0F4648
:1002A000B218C01AB74101210905001C4F410018BE
:1002B0007F41114618187941E20F10436D196441CE
:1002C00013E0E2076D0815436408C2071443039A5C
:1002D00001261205C01A91413605001C7141CE0756
:1002E000400830434908C01851412A46234600F0CF
:1002F00075F9CDE7FFE7049801224000C117121AF3
:1003000000238B4104983146C417381AA141EEE707
:1003100030B40124E407634030BC55E730B4012415
:10032000E407614030BC4FE70000E0FFF0B51FB4C8
:1003300088B00B990998002448400999C00F4900DA
:1003400049080991C0070B990090490049080B9191
:1003500009990898A64608431CD00B990A980843A7
:1003600018D0099801244000420D4800410D099819
:1003700024050003000B204309900B980003000B99
:1003800020430B9050181C4940180022019014463D
:10039000104605E0002001460DB0F0BD032801DA4B
:1003A000034600E003239C46C11A0AAE0AE05F0040
:1003B00008ADED5B4F00F75B7D430027AA187C4139
:1003C000491C5B1E6145F2DD410004AB5A52210419
:1003D000120C0A43240C401C0828DFDB0198029011
:1003E0000099704601910090059B049A0799069820
:1003F00000F001F9D0E700000DFCFFFF10B500226E
:100400009623114600F0B1F810BD000070B5CD0F75
:100410004A0009030123090B1B0519430B4BED0788
:100420000024520D9A4201DA002070BD074B34338C
:100430009A4203DC9A1AFFF77DFE02E00449511844
:1004400088402C43F1D0404270BD0000FF03000003
:10045000CDFBFFFFC20FD207400040080BD0C10DFB
:100460000723DB01C91840020905400A1143C208ED
:10047000400711437047002001467047CB0FDB0750
:10048000490010B5490802460A4307D00A0D07245F
:100490000903E401090B121B002A01DC002010BD36
:1004A000C900440F0C43C100E018D205801800F0C9
:1004B00054F810BDF0B51FB40646002082B00546C2
:1004C0004024019100901BE0019922460F463046DE
:1004D000FFF730FE049A059B801A994110D310460D
:1004E0001946224600F016F8361A8F410197224627
:1004F00001200021009F00F00DF838184D410090B8
:100500002046641E0028DFDC019B00982946324605
:1005100007B0F0BD10B5202A04DB0146203A914017
:10052000002010BD914020239C1A0346E34019434C
:10053000904010BD10B5202A06DBCB170846203AA4
:100540001041C1170B4306E00B461341D040202455
:10055000A21A91400843194610BD002904DA401C34
:10056000490001D140084000704770B40024050CD8
:1005700005D11024000402D1002921D01124050E38
:1005800001D100020834050F01D10001241D850F9F
:1005900001D18000A41C002801DB4000641C00295C
:1005A00008D020252E1B0D46F540A14000D001218A
:1005B0002943084301061B1B000ADB1D02D500204E
:1005C00070BC7047DB05181880180029F8DA401C49
:1005D0004900F5D170BC40084000704710B5002BB1
:1005E00008DA0024401C614192185B411A4301D192
:1005F0004008400010BDF0B51FB482B005460C00A5
:1006000003D0084604F0D2FA02E004F0CFFA20301A
:100610000246009021462846FFF77CFF049B059A7E
:1006200004460F4618431143084314D0184610439C
:100630001BD0009840210A1A18460599FFF77AFD49
:1006400005460E46009A05990498FFF763FF084394
:1006500005D0012004E02046394607B0F0BD002057
:10066000C11705430E432C43374300990E98630589
:10067000401A7905E40A00220C43FD0A0A3002D52B
:1006800000200146E9E70105101969410C9C0D9D08
:1006900000196941FFF7A2FFDFE70000064C0125C2
:1006A000064E05E0E36807CC2B430C3C984710341A
:1006B000B442F7D3FFF700FD485200086852000823
:1006C00070B58C180578401C6B075B0F01D103785F
:1006D000401C2A1106D10278401C03E006780E70F7
:1006E000401C491C5B1EF9D12B0705D40023521E68
:1006F0000DD40B70491CFAE70378401CCB1A921CEE
:1007000003E01D780D70491C5B1C521EF9D5A142F7
:10071000D8D3002070BD000010B504460121062288
:1007200000F0B8F82068002803D1064800F00CF863
:100730002078C0B200010349091810222046FFF7B3
:100740000AFD10BDF801002070B5054602240481A1
:1007500000202860281D0722124E2146B047A81D00
:1007600009222146B047E8680B222146B047E868D5
:10077000801C0D222146B047E868001D0F2221464B
:10078000B047E868801D11222146B047E86808306C
:1007900013222146B047E8680A3015222146B047A7
:1007A00070BDC046950800087FB500AC0FC46E460A
:1007B000301D02240722124D2146A847B01D0922F0
:1007C0002146A84703980B222146A8470398801C7E
:1007D0000D222146A8470398001D0F222146A84755
:1007E0000398801D11222146A84703980830132240
:1007F0002146A84703980A3015222146A8477FBD05
:10080000D10800081B4800210181817101704181DC
:1008100001730A2141801921090181807047C04676
:1008200010B5144C00212181012121700A21FFF70C
:1008300057FC608010BDC04670B504460D4EB079BF
:10084000002800D070BD0020708130810120B0717F
:1008500030700A2508462946FFF742FCB080204642
:100860002946FFF73DFC708070BDC046014800215D
:1008700081717047DA02002080B52B2148430A219C
:10088000FFF72EFC0021814202D200BF491CFAE78B
:1008900080BD0000F0B585B004920D4607460020EB
:1008A000C643264CA02101222046334600F060FAC0
:1008B0000028F7D10097019502962048A021012336
:1008C000049A00F0E3FA0A2000F0CEF805B0F0BD7B
:1008D000F0B589B00792089106900920C006012161
:1008E000C902002605900491324600F0A8F9F443AD
:1008F000124F089886421AD0A021012538462A4670
:10090000234600F035FA0028F6D1069880190090A9
:10091000019502940798301882B2A02138462B46E0
:1009200000F064FB0A2000F09FF8761CE1E701224A
:100930000598049900F083F909B0F0BD4803002040
:10094000EFF3108072B6FEE71CB51C4601910090D3
:100950000023A2420DDD121B00140121824209DA9C
:100960000748008800B2201A002803DC194604D585
:1009700000E01946684600F043F8014804801CBDB9
:10098000E80200201CB51C46019100900023A24201
:100990000DDD121B00B20121824209DA07480088EE
:1009A00000B2201A002803DC194604D500E01946DD
:1009B000684600F025F8014804801CBDEA020020CA
:1009C000B0B50446022525222946FFF763FFA01C87
:1009D00027222946FFF75EFF01206060B0BDBCB54D
:1009E000019100906C460225252220462946FFF7FA
:1009F0006FFFA01C27222946FFF76AFFBCBD00003D
:100A0000B0B541604D1E681E2A4682410120410357
:100A1000824C204600F013F96A426A4110212046B8
:100A200000F00DF9B0BDC046F0B5002817D006980B
:100A300084B289B200200646C5B2B6B2B14209D925
:100A400006276F43DF19BF88F619B7B2A74201D84E
:100A5000401CF1E791B2A94204D8501E02E09988E7
:100A600048424841C0B2F0BDB0B5044600F0EEF8CF
:100A70000546601C02D004484068041900F0E6F8FE
:100A8000401BA042FAD3B0BD00000020F0B588B0F2
:100A900007465E48874201D0052000E00320009011
:100AA00000220692144605970E683046E04000D1B9
:100AB000AAE001250295A5402E4000D19EE00494B5
:100AC00003924A68032314461C40601E01281AD86A
:100AD00003230192069A9340B8689843CF689740E1
:100AE0000743059887600198C006C00F049A90409C
:100AF000059F7F68AF43074305984760059FD8432C
:100B00005500019A08E01846069DA840C043032CF2
:100B100002D1069D1C461CE0FB6803408F68AF4075
:100B20001F43059BDF60059F022C12D11C22039BF3
:100B30001A400F239340049CE408A4003C19276A40
:100B40009F430B6993403B43059F23624A680324FC
:100B50001440AC403B68034023433B609003800F4C
:100B6000039A049C4AD02B4B1868029D28431860B6
:100B700018682840079023460C2414400F20A040FA
:100B800003229343079A244D5A5982435B19092043
:100B9000C006874208D02148874207D020488742B4
:100BA000009804D1022002E0002000E00298A0405A
:100BB00010431860164800684B68DA0301D53043CB
:100BC00000E0B043049C124A106050689A0301D5BB
:100BD000304300E0B0430E4A50609068DA0201D51D
:100BE000304300E0B0430A4A9060D0689A0201D5D1
:100BF000304300E0B043039A054BD860121D0698BD
:100C0000801C0690641C4FE708B0F0BD000C004843
:100C10000004014018100240080001400004004890
:100C20000008004800690840411E88417047426939
:100C30000B4693430A401104C91881617047002A8A
:100C400001D0182200E02822815070470148006836
:100C50007047C046D4040020B0B5436C0222202B5C
:100C600017D1036C012B14D024224264026813684C
:100C70000124A3431360230315689D431560136883
:100C80000B4313601168214311600022026420218C
:100C900041641046B0BDB0B5436C0222202B17D181
:100CA000036C012B14D024224264026813680124CF
:100CB000A34313600F231B0215689D4309022943B8
:100CC00011601168214311600022026420214164F7
:100CD0001046B0BD70B5002820D00446406C0028F6
:100CE00004D100202064204600F030FA2420606403
:100CF0002068026801218A4302600F22120663689D
:100D0000934303618368184A13408360A368E568CE
:100D1000012D05D1CD032B43836009E0012070BD77
:100D20002126B60233438360022D01D1CB024360FA
:100D300043680E4D1D434560C3681340C36022697C
:100D400063691343A26912021A43C260E269236A0B
:100D50001343036002680A4302600020E06420211C
:100D600061642063A06470BDFF7FFFFF008000020C
:100D7000F0B589B01D46044600230893406C022656
:100D8000202872D1206887693F046ED40F46216CF9
:100D900001296AD024216164012104912164E36462
:100DA00038493E460E40384F039307920596E16856
:100DB0000129394601D00521C90289194160FFF78F
:100DC00045FF0746206881694909826912090A437B
:100DD000D10709D1681CF5D0FFF738FF002D3CD0B2
:100DE000C01BA842EED938E0866900972021002276
:100DF0002046069102922B4601F024FAF10637D5DF
:100E0000002831D120681021C1610699C16108997B
:100E1000079A914211D10126B10342680A43426008
:100E2000009720270022204639462B4601F00AFA77
:100E3000079A002819D12068C7610899491C0891B0
:100E400008999142059E104FB1D3069961640298AA
:100E50002064E06C0843E06406E0202060640399AD
:100E60002164E16C0143E164049E304609B0F0BDA9
:100E70000028049EF9D120680699C161029E26646B
:100E80006164F2E7FF03000000200002F0B587B0C4
:100E90000546406C0224202838D10C9F002F32D008
:100EA00016460D9A002A2ED0286C01282ED00392C7
:100EB0000693059101242C64FFF7C8FE049000906E
:100EC000E10319232846224601F0BCF900281DD170
:100ED0000E99222068644020A8640020E8646F62B4
:100EE0000F4602906863039868850091049801900A
:100EF000284605993246069B01F020F9002808D0C3
:100F00000298286402E001246002E864204607B0E9
:100F1000F0BD0697012426066306688D000A324854
:100F20000396029306D0FF222A8500902846059951
:100F3000334605E0698D29850090CAB22846059997
:100F400001F06AF9049E069B0096042100272846BA
:100F50003A4601F077F90028D8D1686A2968496AC9
:100F60000170688D401E6885686A401C6862288D23
:100F7000411E2985688D0904069B1FD100281DD0BC
:100F80000096802100262846324601F05BF90028B1
:100F9000BCD1688D000A06D0FF222A85009628461B
:100FA0000599039B06E0688D28850096C2B2284605
:100FB0000599029B01F030F9049E069B688D00287C
:100FC000C2D128461946324601F061F900289DD168
:100FD00028682021C16142685B4B1340436069640B
:100FE0002F64AF643C4691E700240080F0B589B0DF
:100FF0000546406C0224202838D10E9F002F32D0A5
:1010000016460F9A002A2ED0286C01282ED008925E
:101010000593079101242C64FFF718FE04900090BB
:10102000E10319232846224601F00CF900281DD1BE
:101030001099212068644020A8640020E8646F6251
:10104000069068630898688508910091049F01974D
:10105000284607993246059B01F0A6F8002808D0DB
:101060000698286402E001246002E864204609B082
:10107000F0BD012426066306688D000A05960393D9
:101080000AD0FF222A85002000902846079933467F
:1010900001F0C2F8069E08E0688D2885069E00963D
:1010A000C2B22846079901F0B7F8089B28461946AE
:1010B0003A4601F00FF90028D8D12868696A0A7801
:1010C0008262688D401E6885481C6862288D411EBA
:1010D0002985688D0904089B1FD100281DD0009721
:1010E000802100262846324601F0ACF80028BDD108
:1010F000688D000A06D0FF222A85009628460799A7
:10110000059B06E0688D28850096C2B2284607999F
:10111000039B01F081F8069E089B688D0028C5D1CD
:10112000284619463A4601F0B2F800289ED12868B0
:101130002021C1614268044B1340436069642E64FE
:10114000AE64344692E7C04600E800FEB0B586B013
:10115000044601A81421FFF717F8206811498842B6
:101160001DD10125A804104C21680143216021688C
:1011700001400091059503951220029003200490F0
:10118000800201900098094801A9FFF77FFC6805DB
:10119000A1680143A160A16801400091009806B0D8
:1011A000B0BDC04600540040141002400004004886
:1011B0001A48406802490A68101808607047C0461B
:1011C000D404002010B5A748016810220A43026029
:1011D0000024204600F004F800F022F8204610BD5C
:1011E00070B504467D20C0000C4E7168FEF778FF94
:1011F00001469F480068FEF773FF00F061FB012580
:10120000032C08D8002806D10025E84321462A46A9
:1012100000F028F83460284670BDC0460000002069
:1012200082B0094801680122114301600168114040
:1012300001910199110742680A43426040680840E1
:101240000090009802B0704718100240002805D4A2
:101250001F21084001218140014801607047C046BC
:1012600000E100E080B501F07BFF80BDF0B585B006
:1012700004468078C007394B3BD00122110718681B
:10128000C0000191029202D50020039007E0186887
:101290000843186018680840049004980392304E80
:1012A0003068C00538D5032528022C4B5968014009
:1012B00012D06268024091420ED002980004596830
:1012C0005A6802435A605A6882435A600846254A5F
:1012D00010405860C80731D15868224908406168F9
:1012E000014359600398002803D018680199884386
:1012F00018602068C10705D0596903229143A2688C
:101300000A435A610025800625D558691021884373
:10131000E168014359611EE00298070230683843D2
:101320003060FFF793FC054630683842BBD1FFF7C9
:101330008DFC401B6428F7D903250CE0FFF786FCE1
:101340000646494F054B58688007C5D4FFF77EFC19
:10135000801BB842F6D9284605B0F0BD1C100240EB
:1013600000700040FFFCFFFFF8B500284ED0044697
:101370003C4B1A68012002408A4208D21A680126B2
:10138000B2430A431A601A6832408A4267D1009118
:1013900021688A070ED54A0705D507221202434D58
:1013A0002B6813432B60414D2A68F0239A43A368AE
:1013B00013432B60C9072BD12A4A106801263040FD
:1013C0000099884207D91068B0430843106010683C
:1013D0003040884243D12078400707D507200002DB
:1013E000324A11688143E0680843106000F042F817
:1013F0002E4909680906090F1C4A515CC8401C495E
:10140000086000263046FFF7EBFE28E0012626E0C4
:101410006168264A121F012902D11268920305E071
:101420001268022901D1920100E09207064616D502
:101430001E4A10680326B04308431060FFF706FCFD
:101440000746094D194800680C210140606880007A
:101450008142B1D0FFF7FAFBC01BA842F2D9304657
:10146000F8BDC04600200240881300005C5100080F
:10147000D400002010B50D490A680C2313400C4815
:10148000082B08D193021B0F0AA4E45C896AD203DB
:1014900003D4104807E0044606E00F22114009A2D9
:1014A000515CFEF71DFE4443204610BD041002406F
:1014B00000127A0002030405060708090A0B0C0D46
:1014C0000E0F10100102030405060708090A0B0C91
:1014D0000D0E0F1000093D00F0B587B00746012042
:1014E000002F00D1C2E104903878C007F14E059773
:1014F00011D071680C200140042906D071680140A8
:10150000082937D17068C00334D53068800302D50C
:101510007868002838D0387880074ED57068000782
:10152000800F1BD070680C210140082902D170681F
:10153000C00313D53068059CE168002926D001213D
:1015400008433060FFF782FB0546306880072DD4E2
:10155000FFF77CFB401B0228F7D986E13068800743
:10156000059A02D5D06801280ED13068F821884349
:1015700011691FE07968002900D1C1E0012900D07C
:10158000D7E001200104DDE004986FE101218843E8
:101590003060FFF75BFB0546306880070DD5FFF72D
:1015A00055FB411B03200229F6D95FE13068F82181
:1015B00088432169C90001433160059C20780007F8
:1015C00020D42078400730D42078C00600D4C4E06E
:1015D000059A5169012971D1706B0421014371632E
:1015E000706B012101437163FFF730FB0546706B9F
:1015F000800700D5A9E0FFF729FB411B0320022942
:10160000F5D933E1706AE169002918D00121084356
:101610007062FFF71BFB0546706A8007D1D4FFF7A5
:1016200015FB401B0228F7D91FE101221107F069C1
:10163000C0000191039211D50020029016E0012113
:1016400088437062FFF702FB0546706A8007B8D5D1
:10165000FFF7FCFA401B0228F7D906E1F0690843BE
:10166000F061F0690840069006980292924F38683F
:10167000C00511D505988168904F00292AD001290D
:10168000039A06D0306A052900D0BCE00421084343
:101690003062306A1043BBE003980402386820438C
:1016A0003860FFF7D3FA054638682042E2D1FFF7E9
:1016B000CDFA411B03206429F6D9D7E0706B491D90
:1016C00000D08CE0042188437063706BF82188435C
:1016D00091693FE0306A039988433062306A04219F
:1016E00088433062FFF7B2FA0546306A800700D4BB
:1016F0009BE0FFF7ABFA411B0320B942F5D9B5E0F7
:101700000120010432688A433260810432688A43CE
:1017100032604404FFF79AFA0546059F306820427C
:1017200000D1F8E6FFF792FA411B03206429F5D9AE
:101730009CE03068052900D081E001218A04104333
:10174000306009043068084380E0706BF8218843FA
:1017500005998969C900014371630598046A002CE1
:101760001AD070680C210140082917D1012C049867
:101770007CD00120030471680B40F26A059D6C6AFD
:10178000A34273D10F231A40EC6AA2426ED19A048D
:101790001140AA6A914269D1002067E00120020647
:1017A00031680492914331604706FFF74FFA0546CE
:1017B000022C0AD1049C3068384259D0FFF746FA0F
:1017C000411B03200229F6D950E030683842E3D0AB
:1017D000FFF73CFA411B03200229F6D946E0042119
:1017E00008437063706B012188437063FFF72EFA22
:1017F0000546706B8007B0D5FFF728FA411B032020
:101800000229F6D932E090433062306A04218843DD
:101810003062FFF71BFA0546306A800705D4FFF7F0
:1018200015FA401BB842F7D91FE002980028059C22
:1018300000D1C9E6F06901998843F061C4E601214D
:101840000A04904330608904306888433060012086
:101850004404FFF7FBF905463068204200D05AE601
:10186000FFF7F4F9401B6428F6D9032007B0F0BD58
:10187000F06A0F218843059AD16A0143F1623D2045
:10188000000471688143906A0843516A01437160A2
:10189000306820433060FFF7D9F904463068384299
:1018A00000D079E7FFF7D2F9011B03200229F5D90F
:1018B000DCE7C046001002400070004088130000C2
:1018C000401E010E01D0012070470749074A5060B1
:1018D000074803680B40032189075918016000205D
:1018E0009060072111607047FFFFFF0010E000E0EB
:1018F00020ED00E07047704770B50246C06B0128CC
:1019000001D1022070BD0020D0633F231B02CC68B0
:101910009C430F239D028E68AE432643DB024C6836
:101920009C43344307231B030D689D432543032336
:101930005B030C699C432C434B6923430124A403A0
:10194000A343C96919431268516470BDB0B5C26B35
:10195000012A01D1022119E0022202640122C2639C
:1019600003685C687025AC430D6825439C685D6026
:10197000EA4DAB4202D0474DAB4204D18025AC4387
:101980004968214399600021C16302640846B0BDE3
:1019900010B500281BD00446006C002804D100209C
:1019A000E063204600F016F8022020642068211D24
:1019B00001F078FA012060666064A064E06420654C
:1019C0006065A065E06520662064002010BD0120F0
:1019D00010BD00001FB500681A49884210D01A498E
:1019E00088421BD0CD4988422BD10120C002174923
:1019F0000A6802430A6009680140039103981FBD09
:101A000001218804114A13680343136012680240DD
:101A1000019201981624002220460DE00120400486
:101A20000A490A6802430A60096801400291029863
:101A30001524002120460A46FFF714FC2046FFF734
:101A400005FC1FBD00480140004401401810024041
:101A5000016C012916D1022101640168C8680122C4
:101A60001043C860AD48814202D00A4881420BD180
:101A70008868072303400020062B09D00B68134316
:101A80000B60704701207047086810430860002011
:101A90007047C04600040040F8B50446C06B0128FA
:101AA00001D1022269E0022020640125E56320685B
:101AB0008268344B1A4082600F680026002F22D0C3
:101AC000102F20D0202F1ED0302F1CD0402F22D0FE
:101AD000502F2AD0602F32D06A0397423AD02A037F
:101AE0009742324647D0702F49D1773382681A40E7
:101AF0004B688F68C9681F430902394311438160ED
:101B00008168772234E08168702291430F43072176
:101B1000394381602EE0CA68496801F0EDFA206817
:101B2000816847220A43302112E0CA68496801F0FF
:101B3000E3FA2068816857220A43202108E0CA6836
:101B4000496801F0EAFA2068816867220A43102197
:101B50008A430EE0773382681A404B688F68C96801
:101B60001F430902394311438160012189038268BF
:101B70000A4382603246E66325641046F8BD2A4671
:101B8000F9E7C0468800FFFF7047B0B504468020E3
:101B9000C54320680169890717D5C168890714D52D
:101BA00029467E3101610121E1618069800703D00E
:101BB0002046FFF7E9FF05E0204600F0B3F8204695
:101BC00000F030F90020E06120680169490718D56C
:101BD000C168490715D529467C3101610221E161BF
:101BE00080698005800F03D02046FFF7CDFF05E018
:101BF000204600F097F8204600F014F90020E0613C
:101C000020680169090717D5C168090714D5294655
:101C1000783101610421E161C069800703D0204669
:101C2000FFF7B2FF05E0204600F07CF8204600F008
:101C3000F9F80020E06120680169C90618D5C1687B
:101C4000C90615D52946703101610821E161C069D5
:101C50008005800F03D02046FFF796FF05E0204661
:101C600000F060F8204600F0DDF80020E061206818
:101C70000169C90709D0C168C90706D029467F3163
:101C80000161204600F020F920680169090607D5A6
:101C9000C168090604D505612046FFF72BFE2068C0
:101CA0000169490609D5C168490606D5294640316A
:101CB0000161204600F094F920680169890607D582
:101CC000C168890604D5603505612046FFF713FE1B
:101CD000B0BD000010B586B0044601A81421FEF77F
:101CE00053FA20687749884216D1012041040C4AF2
:101CF00013680B43136012680A4000920221059199
:101D00000022049203920291400201900920C00631
:101D1000009901A9FEF7BAFE06B010BD002C0140E3
:101D20001410024070470000B0B50446C06B012893
:101D300001D10220B0BD0D460120E0630221CA415D
:101D4000032A4AD87A44127952009744011022316A
:101D50002068294601F0F2F82068816908220A43C8
:101D60008261816904229143816129690FE02068C1
:101D7000294601F01DF90121CA0220688369134335
:101D80008361890282698A43826129690902183064
:101D90001FE02068294601F043F92068C169082244
:101DA0000A43C261C16904229143C16129690FE0FC
:101DB0002068294601F070F90121CA022068C36930
:101DC0001343C3618902C2698A43C2612969090256
:101DD0001C3002680A43026000200021E163B0BDAC
:101DE00010B500281BD00446006C002804D1002048
:101DF000E063204600F015F8022020642068211DD1
:101E000001F050F8012060666064A064E064206521
:101E10006065A065E06520662064002010BD01209B
:101E200010BD704770470000B0B50446002905D0CA
:101E3000082905D0042905D1483004E0443002E0E7
:101E40004C3000E050300068012808D120460029BD
:101E500007D0082907D0042907D1483006E001201F
:101E6000B0BD443002E04C3000E05030022202604D
:101E7000206801252A4601F053F821681048814264
:101E800013D01048814205D0534A914202D04E4AA5
:101E9000914205D1EA034B6C13434B64814204D059
:101EA000086828430860002005E08868072202408F
:101EB0000020062A00D1B0BD0A682A430A60B0BDDE
:101EC00000040040002C0140F8B5044600683E497B
:101ED00088426AD13D4E3078002818D0307B0028E7
:101EE00004D1012251033A48FEF7A9FE3089401C73
:101EF0003081718880B2884217D900253581012050
:101F0000410333482A46FEF79AFE35700DE0B0795A
:101F100000280AD07089401C7081B18880B2884244
:101F200003D901203070002070810025294E502DEA
:101F30003AD07719398AF868FEF774FE70517968DB
:101F4000002804D1012902D10021B96001E0002953
:101F500002D078601435EAE7002810D00128F8D1C3
:101F6000F97A091F232907D8797A002904D1B97A87
:101F7000002901D1012139720021F972E9E7F97ACA
:101F8000491CF972C9B2C92904D30021F97201218F
:101F90007972DEE71529DCD3797A0029D9D00021BE
:101FA000F9720121B972D4E720680B49884200D048
:101FB000F8BD0A480121017041780029F8D0417824
:101FC000491E4170F8BDC04600440140DA020020BD
:101FD00000080048EC02002000480140C802002030
:101FE0007047FEE7F8B50C46074601B20D48994226
:101FF00004DA80210022FEF722FEF8BD1D461646B7
:1020000080210122FEF71BFEAE4201DA002006E02D
:10201000701B3914884201DAA0B200E0200C00F0F5
:1020200037F8F8BD0014004870B505460224312287
:10203000094E2146B047A81C29222146B047281D39
:102040002B222146B047A81D23222146B04716481F
:102050000421FFF7E9FE70BD950800087CB50191E9
:1020600000906D4602243122084E28462146B04792
:10207000A81C29222146B047281D2B222146B04703
:10208000A81D23222146B0477CBDC046D1080008C8
:1020900080B50549096888634242424101204102F6
:1020A000C948FEF7CCFD80BD9C0300200068816913
:1020B000890701D5002181628169C90703D181693E
:1020C00001220A438261704770B50E4604460068DB
:1020D0008169C90601D4002070BD15464168890197
:1020E00010D40121890342680A4342600AE0711C4E
:1020F00008D0FEF7ABFD2021002E13D0401BB042CC
:1021000010D8206881698906F1D51021C16120218C
:10211000C1612046FFF7CAFF20684168064A0A40AD
:1021200042600421E06C0843E064202060640020E9
:102130002064A064012070BD00E800FEF0B585B009
:1021400003920446334800900493DAB200232046F9
:1021500000F062F80A9F0B9E20463946324600F096
:10216000B9F8012500281BD1029704980128039F84
:1021700009D02068390A816220460299324600F06F
:10218000A9F800280CD12068F9B28162009640219C
:1021900000222046029B00F055F80546401E85416E
:1021A000284605B0F0BDC046F0B585B003920446A0
:1021B000184800900493DAB201252B06204600F05F
:1021C0002BF80A9E0B9F204631463A4600F082F8D3
:1021D00000281BD1029604980128039E09D020688C
:1021E000310A8162204602993A4600F073F80028CD
:1021F0000CD12068F1B28162009780210022204634
:10220000029B00F01FF80546401E8541284605B098
:10221000F0BDC0460020008070B5049C650D0068CC
:102220004668AE43054D3540054E0E401E43110431
:10223000314321432943416070BDC046009C00FCEE
:10224000FF030000F8B51D4616460F4604460698E3
:102250000090206880693840C01B41424141B14232
:1022600013D1681CF5D0FEF7F1FC002D03D00099C6
:10227000401AA842EDD9E06C20210843E064616473
:1022800000202064A0640120F8BD0020F8BDF8B54E
:1022900016460F46044620688069800617D42046FB
:1022A00039463246FFF710FF0125002810D1FEF70E
:1022B000CDFC002F02D0801BB842ECD9E06C20216D
:1022C0000843E064616400202064A06400E000250D
:1022D0002846F8BDF8B516460F46044620688069C2
:1022E000800719D4204639463246FFF7EDFE012516
:1022F000002812D1781CF1D0FEF7A8FC002F02D0E4
:10230000801BB842EAD9E06C20210843E064616494
:1023100000202064A06400E000252846F8BD0000ED
:10232000F0B585B0019000F02BFC012000F010FC0E
:1023300000268020C4B2002C26D004964026012519
:102340000390894831462A46FEF779FC2846584DC5
:10235000A8470A273846A84780218348FEF762FC31
:1023600002900025804831462A46FEF768FC384630
:102370004F4988470298C0B20128039800D02846E8
:10238000049E06436008D5E7019800F007FC01248D
:102390002046474FB8474025734F384629462246C6
:1023A000FEF74DFC05242046414988470022384667
:1023B0002946FEF744FC00F0E3FB20463C498847F1
:1023C000F0B205B0F0BDC04600040048B0B500F062
:1023D000D7FB00F0AFFB0024204600F0DFFB0A250E
:1023E0002846FEF749FA204600F0B2FB2846FEF7E1
:1023F00043FAB0BD10B50024204600F0CFFB2046C4
:1024000000F0A6FB00F096FB0A242046FEF734FA03
:1024100000F0B6FB2046FEF72FFA10BDF8B500908D
:102420000024204600F0BAFB204600F091FB8022F9
:102430001F4DD4B2002C1CD000980240501E824187
:10244000802149485D4B984701263046A8474027E0
:10245000454839463246594B984707263046A847E3
:10246000002241483946554B98473046A8476208F4
:10247000DFE700F085FB402701223B4D2846394627
:10248000FEF7DDFB02200A4CA04780212846FEF71C
:10249000C9FB06460520A047002228463946FEF71C
:1024A000CEFB0A20A047F0B2411E48424841F8BD89
:1024B00079080008B0B50B0EC478E318C370DBB21E
:1024C0003C2B13D30023C37084780D0C2C19641C8F
:1024D0008470E4B23C2C09D3837004880919491C28
:1024E000018089B2182901D382800380B0BD80B5F4
:1024F000012109060022FFF7DDFF80BD080C89B22B
:10250000081A01A90988814209DB90B206214143DA
:10251000C818801E0088002801D0012070470020C4
:10252000704700004C210F480422425201214160B3
:102530000022826080230382016002230387DC4B38
:102540008162C16202634363818441618161C261CE
:102550000362C1630164426483640921C906C160E6
:102560007047C046EC02002000040048FEB502900F
:102570004508782635400920C40601220192CA4B3D
:1025800020462946984775400027204629463A4666
:10259000C54B984702F0E4FA02980007450E204622
:1025A0002946019AC04B9847BF4B754020462946A3
:1025B0003A46984702F0D4FAFEBDC0463F0C0008E8
:1025C00010B501200024214600F0E8F80220214641
:1025D00000F0E4F810BDB0B5144600F037F800255F
:1025E000A54205D22020012100F0D8F86D1CF7E7A4
:1025F000B0BD10B501460024204600F027F8102C8D
:1026000005D22020012100F0C9F8641CF7E710BDB5
:10261000B0B50C464007800E40300025294600F03A
:10262000BDF8082D05D0605D012100F0B7F86D1CE4
:10263000F7E7B0BD80B50C20002100F0AFF880BDF9
:1026400080B50E20002100F0A9F880BD80B50029DA
:1026500000D0403080210143C8B2002100F09EF834
:1026600080BD0000B0B50920C0060221002422462A
:10267000FEF7E5FA0A20FEF7F7F93320084D214668
:10268000A84732202146A84728202146A8470C20E9
:102690002146A847FFF794FF06202146A847B0BD72
:1026A0009D270008FEB50193029200910027122891
:1026B0003D463C4611D840B280001A490C581A4990
:1026C0000E581A490D5808E0305CC0001849091826
:1026D0003819C0B2FFF79CFF7F1CF8B28542F3D8CF
:1026E0000198002807D0012807D00228009807D1B8
:1026F0001020401B04E0002002E01020401B400896
:10270000C0B20299FFF7A2FF64190026F0B2854219
:1027100007D9C0432018C0B2012100F03FF8761C51
:10272000F4E7FEBD10510008C450000878500008BE
:10273000E000002010B5441C0078C0B2012100F078
:102740002DF8611C207800280C46F6D110BDB0B5DC
:1027500014460546022B05D0012B09D0002B0DD1C4
:1027600000210BE02846FDF71AFD1021091A05E0AB
:102770002846FDF714FD1021081A4108C9B2284661
:10278000224600F001F8B0BD10B5044608461146D7
:10279000FFF75CFF2046FFF7CDFF10BD10B50446E4
:1027A000012903D0002907D1002200E001220920DD
:1027B000C0060121FEF743FA2046FFF7D7FE10BD01
:1027C000F0B589B0002408940127F9043448026860
:1027D0000A43026002680A4003920399790402687E
:1027E0000A43026002680A4003920399B90402682E
:1027F0000A43026002680A4003920399B90502681D
:102800000A43026000680840039003987E0325484D
:10281000254D31462246A8470920C006019023498C
:102820002246A847E94823492246A8472248802152
:1028300002912246A847079406940597049604AE91
:102840001E4A184831469047079406940597174842
:102850000490019D28463146184A904706970594F2
:102860000298049028463146144DA84706970594CF
:1028700007200490D5483146A84707940694059749
:102880000C480490D1483146A84707940694059710
:102890000298049008483146A84709B0F0BDC046E8
:1028A00014100240000800483F0C00087F09000097
:1028B00000040048D8F30000001400488D0A000806
:1028C00010B5134C01200021124A134B23606260A3
:1028D000A160E060204610301421FDF755FC204631
:1028E000FEF7F8F9002801D0FEF72AF80848002181
:1028F000FEF7B2F9002801D0FEF722F804480021C3
:10290000FEF7C9F9002801D0FEF71AF810BDC0463D
:10291000480300207C1D10000054004010B50A48F8
:1029200000210A4A0A4BFF24E03418C001604260CB
:102930008160C16001610838FFF72AF8002801D0E2
:10294000FDF7FEFF10BDC04604040020E7030000B1
:102950000044014010B509480021094A094B0A4CBE
:10296000046043608160C260016141618161FFF781
:102970000FF8002801D0FDF7E3FF10BD6C04002024
:10298000CF070000BF5D00000048014070B596B061
:10299000002515951495139512951195109509A874
:1029A0001C21FDF7F1FB01A82021FDF7EDFB2B48D1
:1029B0002B492C4A0260416028318560C160056165
:1029C00045618561FEF7E4FF002801D0FDF7B8FFFF
:1029D000012630031290214812A9FFF75DF8002864
:1029E00001D0FDF7ADFF1D48FFF7FAF9002801D02F
:1029F000FDF7A6FF11951095184810A9FEF7A6FF40
:102A0000002801D0FDF79CFF60200990FF20F430E2
:102A10000A9009AC204608301421FDF7B5FB0F4899
:102A200004222146FFF780F9002801D0FDF788FF36
:102A300001AC14212046FDF7A7FB08957003069012
:102A400006482146FEF758FF002801D0FDF778FF21
:102A50000248FFF73FF916B070BDC0469C03002046
:102A6000BF030000002C014070B5044680690028B7
:102A700000D070BD6069012814D00028F9D1A38866
:102A80002268218AE06800F08BFB02460126F103F0
:102A9000AA48002A1CD400252A46FEF7D0F8E56093
:102AA000666170BDE088218909040A186389218A5A
:102AB000E06800F075FB02460120C1039F48002A30
:102AC00008D40122FEF7BBF80020E060606170BD11
:102AD000012200E00022FEF7B2F870BDB0B5044656
:102AE00000202082E0606061A06106251722204658
:102AF0002946FDF7CFFEA01D1D222946FDF7CAFE7F
:102B0000B0BD000080B58269002A00D080BD41615F
:102B1000002906D00129F9D101208103874800222C
:102B200002E0012291038548FEF789F880BDC04686
:102B3000FEE77047FEB500200590049003900290D8
:102B4000402001907D4801A9FDF7A0FF06B080BD9F
:102B5000B0B586B00246401E8241784C40252046E2
:102B60002946FEF76CF800200490039001210291A1
:102B70000195059001A92046FDF788FF06B0B0BD7C
:102B8000FEB50020059004900390029080200190F3
:102B90006A4801A9FDF77AFF06B080BDB0B586B0DE
:102BA0000246401E8241654C802520462946FEF79C
:102BB00046F80020049003900121029101950590B0
:102BC00001A92046FDF762FF06B0B0BD0004004831
:102BD00010B503218843FDF711FCFDF73BFC0024F1
:102BE000054B2246FDF7A2FB044B2246FDF7ECFA0B
:102BF000FDF744FC10BDC04600405F3F000018C018
:102C000080B503218843FDF7F9FBFDF723FC054A56
:102C1000054BFDF78BFB054A054BFDF7D5FAFDF794
:102C20002DFC80BDD7A3703D0AF7653FCDCCCCCC41
:102C3000CC6C47C070B500231C468B420FD0C55CDE
:102C400065400824260607D06E002D0601D53125E3
:102C50006E40F5B2641EF5E75B1C2C46EDE7A01A4A
:102C6000411E8841800070BDF0B585B000910446DA
:102C7000FFF7ACFB8020FFF7D1FB0746002C03D009
:102C8000012C05D1E32000E0E520FFF7C7FB074357
:102C90000294FFF79BFB8120FFF7C0FB0446052051
:102CA000FDF7EAFD3C430194FFF744FF0024234F66
:102CB000E0087C280AD80120FDF7D6FE40213846DE
:102CC000FDF7B0FFC0B2641C0128F1D140213846A5
:102CD000FDF7A8FF03900025194C2846A04707469A
:102CE00004AE30702846A04770700399090602D0E0
:102CF000029D019E03E00221019E0E43029D104AA7
:102D000039020C18012090470746012D05D0002DEF
:102D100008D12046FFF75CFF02E02046FFF770FF76
:102D20000099086004A802213A46FFF783FF044691
:102D30003443FFF75FFB204605B0F0BD00040048B8
:102D4000212300087047B0B50446002020702046BB
:102D5000083002252D222946FDF79CFDA01D2F22BB
:102D60002946FDF797FDB0BDF8B5044601206F4632
:102D70003946FFF779FF20700098FDF76BFB0025BF
:102D8000114E2A463346FDF7D1FAFDF73FFB218964
:102D90000818A0804620FDF767FE28463946FFF751
:102DA00063FF2178014321700098FDF753FB2A4609
:102DB0003346FDF7BBFAFDF729FB2189081860802F
:102DC0001920FDF751FEF8BD00002440BFB501AD4C
:102DD0002A81029101902846083002242D222146A2
:102DE000FDF776FDA81D2F222146FDF771FDBFBD21
:102DF00080B5FEF7DDF980BD70B594B008AC201D3C
:102E00001821FDF7C1F9002507950695059504954C
:102E100013950520C00412901195022610960120EA
:102E20000F9010210C910B900A20089003950295A9
:102E3000019500952046FEF74FFB002803D0EFF3E5
:102E4000108072B6FEE70795069505960720049058
:102E500004A80121FEF788FA002803D0EFF31080C0
:102E600072B6FEE70395202000906846FEF7FEF953
:102E7000002803D0EFF3108072B6FEE714B070BDE7
:102E80007047000080B50248FEF77FFE80BDC04657
:102E90000404002080B50248FEF777FE80BDC046DE
:102EA0006C04002010B50468904A904202D01A4B7E
:102EB000984204D170239C434B68234300E023468F
:102EC000154CA0420AD0154CA04207D0904205D024
:102ED000874CA04202D0874CA0421AD1032424027E
:102EE000A343CC681C4380239C434B69234303606A
:102EF0008B68C3620B688362904205D07C4A904223
:102F000002D07C4A904201D10969016301214161EB
:102F100010BD1C46E7E7C04600040040002000400A
:102F200010B51F230B4001219940046A8C430462B1
:102F30009A40016A1143016210BD0000F0B5026AB7
:102F400001239A430262026A02239A438D68154361
:102F5000436882697324A2430E68644FB84205D067
:102F6000634CA04202D0634CA04207D10C24A5437D
:102F7000CC680427BC435D4F2C4300E02C46324311
:102F8000B84205D05A4DA84202D05A4DA84207D1A6
:102F900003252D02AB434D698E691D43354300E087
:102FA0001D4645608261496841630462F0BDC046C8
:102FB000F0B5026A10239A430262026A20239A4300
:102FC0008B681E011643426873231B0285699D436B
:102FD0000B681B02454FB84201D0344607E0C024BD
:102FE000A643CC6824014027BC43404F34432B43C5
:102FF000B84205D03E4DA84202D03E4DA84208D16D
:103000000325AD02AA434D698E69AD001543B20098
:103010002A4342608361496881630462F0BDC0460F
:10302000F8B501221302046A9C4304625202036A47
:1030300093438A6815021D434368C2697324A243FF
:103040000E682A4FB84201D02C460AE00324A4029D
:10305000A543CC68240200940E4C009F3C40234FB3
:103060002C433243B84205D0214DA84202D0214D15
:10307000A84208D103252D03AB434D698E692D016C
:103080001D4333012B434360C2614968C16304623D
:10309000F8BDC04600FBFFFF70B501231A03046AA8
:1030A000944304625A03046A94438A6812032243D5
:1030B000446873252D02C669AE430D682D02354361
:1030C0000A4EB04205D00A4EB04202D0094EB0427C
:1030D00005D19B039C434B699B01234300E023469E
:1030E0004360C56149680164026270BD002C014003
:1030F0000048014000440140B0B5036A046A01255C
:10310000AC4304628469F025AC431201224382611E
:103110000A2293430B430362B0BD10B5036A102427
:10312000A34303620F231B0384699C4312032243BE
:10313000036A8261A022934309011943016210BD11
:1031400080B506210022FDF7A5FB80BDE0B56B46EA
:103150009980009006211846FDF7BAFB8CBD00004F
:10316000002805D40322034693430C4A9A1806E02C
:103170000F220240083A03239A43074BD2188007D4
:10318000C00E8901C9B28140FF2383401068984373
:10319000084310607047C0461CED00E000E400E00A
:1031A000F0B59CB28DB20123A5420FD8FF21A542F4
:1031B0000DD3140E160C050E070C92B280B290427D
:1031C00004D804D3F0B2FAB2824202D9194648B206
:1031D000F0BDFCD3A5421946F9D80021A542F6D28C
:1031E000C943F4E7010407D00021642902D200BFDB
:1031F000491CFAE7401EF5E77047000000B5CBB068
:10320000FDF7E0FFFFF7F8FDFFF7DAFAFFF758FBED
:10321000FFF7BCFBFFF782FBFFF79CFB6C48FEF758
:1032200017FC6C48FEF714FC4B20C1001A9158396A
:10323000694C0126694D20463246A8473102204696
:1032400018913246A8471021204603913246A847DC
:10325000082120461D913246A847FFF703FAFDF7E3
:10326000D1FAFFF75FF964200890FDF7D9FA40A87A
:103270000025858040955AA029462A463346FFF707
:1032800066FA5A4F3868B96A014321953FD158A070
:1032900000250124294622462346FFF758FA584BB9
:1032A000284629462A461D46984742A80470062209
:1032B0002146FDF70DFB534B0FCBFDF775FA524C32
:1032C000A18820681722A847E088218909040818E6
:1032D00061891D22A847219D4C4903C9FDF77FFB49
:1032E0004B4908884A88120410188A88C98809043A
:1032F0008918FEF7B3FE474A108851880904081858
:103300009188D3881B0459181289FFF75FFD304656
:10331000FFF76FF940A02946324626963346FFF75D
:1033200016FA40A8FFF70CFF3CA8FDF7F5F935ACFD
:103330002046FFF7D3FB32A8FFF705FD30A8FDF7C5
:103340003FFB2EA8FEF770FE3648FDF78DFBFFF71A
:1033500037F9A01D06900C340B9443A910317D2041
:10336000059040010D9063200490C0431E900920F9
:103370000290C00610902C462B4E17942991102CC9
:10338000FDD8A00001A108588746C046F1340008C6
:10339000A135000813360008AD370008573900087A
:1033A0000D3B0008253C0008473C0008173D00087D
:1033B0008D3400088D3400082D3400082D340008A9
:1033C0002D3400082D3400082D3400082D34000859
:1033D000040400206C040020000400483F0C000896
:1033E00047686F67686E6F6F73000000EC02002023
:1033F000536176652044656661756C742E2E2E00CF
:103400004D310008F8010020A80200209802002099
:10341000A00200203C0300204C6F6164696E672E9F
:103420002E2E0000B80B0000C8020020387AB97AAE
:1034300001432B9501D100F0B6FC0020B872387220
:10344000142070702A98401C00B22A90102C01D9C8
:1034500000F0EEFC0120A0401521C902084238D13D
:1034600011210903084201D100F078FC2A98642850
:1034700000DB08982A9001F035FB3746B21C299EE4
:103480003046C04901F07EFB00F080FC387AB97A02
:1034900001432B9501D100F09EFD0020B8723872D7
:1034A00014207070E8B2022801D100F066FD0128F6
:1034B000289901D100F06AFD002801D000F06EFDCE
:1034C000491C88B2632801D200F068FD049900F01D
:1034D00065FD2A98642800DB64202A9001F002FB35
:1034E0003746B21CDF23299E3046A74900F04CFC2A
:1034F000307800282B9501D100F032FD0020199082
:10350000307040AC2046FEF7F2FF1798411CC8B25D
:10351000032800D81991032801D901202690E078CA
:103520009A4C002809D10799214040A8808801437E
:10353000409800220791FFF709FE169E264040ACF6
:10354000A08806433CAD2FCD009516960196FDF759
:103550006BFA06460B98FEF7CAFF159D8B4805408F
:10356000A08805433CAC1FCC00940195FEF7C6FF34
:1035700000281595179601D100F027FE082100229A
:103580008348FDF75CFB3B980028824E2B9C01D0C2
:1035900000F025FE35A80121FFF7B4FA00F01FFE68
:1035A0002B95387AB97A0143209E17D00024BC723B
:1035B0003C721420774948700420012508222946CE
:1035C000FFF709F8701CC1B20929264600D8064643
:1035D000F0B221462A462B46FFF764F830203A5CC9
:1035E00032217B5C134301D100F018FD00247C5490
:1035F0003C541420674948700420012508222946BC
:10360000FEF7E9FF300601D100F001FD761E00F063
:10361000FFFC34462B95387AB97A0143209E3BD083
:103620000023BB723B7214206070F0B201015A4A51
:10363000505855182C1D16CC1994AD88289CA6B24C
:10364000259CE7B23F04BE19279C2706F619009671
:103650004E4E139F37401F9C641CA6B2AE421E46BE
:1036600000D334461F94A5B22F4313970197199B9B
:10367000FEF744FF00284949299C00D048492046CC
:103680002A4601F07FFA0122022320463146FFF745
:103690005EF8444F3F4C209E30203A5C32217B5CE8
:1036A00013433BD000227A543A5414206070F0B295
:1036B0001F9A110403D10101374A51188A88010168
:1036C000354815460246405853181B1D0ECB2F4C4B
:1036D000129F27406D1E1F95ACB22743289DADB2A7
:1036E000259EF6B236047519279E3606AD1900954B
:1036F00012970197FEF702FF0028284900D02849B9
:10370000299D2846224601F03DFA0021012202238C
:103710002846FFF71CF81F4C209E224F387F0028B8
:1037200001D100F01FFC002565703D77FEF748FFD2
:1037300001241D4829462A462346FFF708F8374644
:1037400040AE1F9AB280409510481199014090B246
:103750000143284611912A46FFF7F8FC30460D4EEA
:10376000FFF7EEFCF8B20F4F3C903CAD0622284626
:103770002146FDF7ADF82846FCF7CEFF2B9D00F063
:10378000F3FBC0469F510008D65100080000FFFF20
:1037900000040048C8020020F80100207A51000807
:1037A0002C520008EC020020AB510008387A0028A7
:1037B0002B9524D01420707000243C72229A521C45
:1037C00010B21A998842104600DB1A98229005B26E
:1037D0000A2628463146FCF799FC0246DF20009075
:1037E0005643AB1B299D2846C14901F0CBF9012264
:1037F000284621461346FEF7AAFFBE4E2B9DB87AF7
:10380000002824D0142070700024BC72229A0A323E
:1038100010B21A998842104600DB1A98229005B21D
:103820000A2628463146FCF771FC0246DF2000904C
:103830005643AB1B299D2846AD4901F0A3F901224F
:10384000284621461346FEF782FFAA4E2B9D3020C4
:10385000395C002922D000243C5414207070229935
:1038600008B2652800DC6521491E22910DB20A26A6
:1038700028463146FCF74AFC0246DF2000905643BA
:10388000AB1B299D28469A4901F07CF90122284664
:1038900021461346FEF75BFF964E2B9D3220395C86
:1038A000002922D000243C5414207070229908B2C0
:1038B0006E2800DC6E210A3922910DB20A262846B4
:1038C0003146FCF723FC0246DF2000905643AB1B39
:1038D000299D2846864901F055F9012228462146AE
:1038E0001346FEF734FF834E2B9D387F002800D10E
:1038F0003EE31420707000243C771B98C0B2062170
:1039000041437D48C068455EFEF75AFE0D20012701
:10391000214622463B46FEF7C5FE784839463A46E0
:10392000FEF732FF0A2628463146FCF7EFFB024637
:103930004643AB1B299E3046714901F023F93046BE
:103940006C4E21463A463B466E4FFEF700FFA8B24A
:103950002B9D2390FFE1387A00282B9522D014204C
:10396000707000243C726848401C239A521C11B2AB
:103970008142114600DB014623910DB20A262846FA
:103980003146FCF7C3FB02464643AB1B299D284644
:103990005B4901F0F7F80122284621461346FEF75D
:1039A000D6FE544EB87A002822D01420707000241D
:1039B000BC725548401C239A0A3211B2814211460A
:1039C00000DB014623910DB20A2628463146FCF75A
:1039D0009DFB02464643AB1B299D2846484901F002
:1039E000D1F80122284621461346FEF7B0FE414E8B
:1039F0003020395C002921D000243C541420707000
:103A0000239908B20125012800DC2946491E23918B
:103A10000EB20A2730463946FCF778FB0246474388
:103A2000F31B299E3046364901F0ACF8304621465A
:103A30002A462B46FEF78BFE324F2E4E2B9D322010
:103A4000395C002920D000243C5414207070239944
:103A500008B20A250A2800DC29460A3923910EB249
:103A600030462946FCF752FB02464543731B299D0D
:103A70002846234901F086F80122284621461346AC
:103A8000FEF765FE1B4E2B9D387F002800D162E1BA
:103A90001420707000243C771B98C0B2062141436B
:103AA0001548C06840180421455EFEF789FD0F20C7
:103AB0000127214622463B46FEF7F4FD0F483946D2
:103AC0003A46FEF761FE299E3046EF492A4601F04C
:103AD00059F830462B9E21463A463B46094FFEF7A1
:103AE00036FEA8B23546034E2490052400F0A9FF07
:103AF000BD510008C8020020F8010020BA5100089A
:103B000088510008EC020020E7030000387A002802
:103B10002B9518D01420707000243C72249A521CEB
:103B200010B2F9498842104600DBF748249002B2EF
:103B3000299D2846D44901F025F80122284621462E
:103B40001346FEF704FEB87A002818D014207070CF
:103B50000024BC72249A0A3210B2F24988421046FC
:103B600000DBF048249002B2299D2846C64901F0A6
:103B700009F80122284621461346FEF7E8FD3020C9
:103B8000395C002916D000243C541420707024990C
:103B900008B2022800DC0221491E24910AB2299DA4
:103BA0002846B94900F0EEFF012228462146134677
:103BB000FEF7CDFD3220395C002916D000243C549C
:103BC00014207070249908B20B2800DC0B210A39EC
:103BD00024910AB2299D2846AB4900F0D3FF012267
:103BE000284621461346FEF7B2FD387F002800D153
:103BF000C1E11420707000243C77FEF7E1FC102036
:103C00000125214622462B46FEF74CFDC748294692
:103C10002A46FEF7B9FD1B98C6B2002E00D13AE243
:103C2000122039E2387AB97A014300D163E20021E7
:103C3000B9723972142070701C98C4B2482C00D12B
:103C400033E2122032E2387AB97A014317D0E9B26E
:103C50002CA8425C521CD3B2392B00D930224254DA
:103C60000021B9723972142272700124224623464F
:103C7000FEF76DFDA81DC0B22146FEF7E7FC30201F
:103C80003A5C32217B5C13431AD000227A543A54B6
:103C900014207070E9B22CA8405C302802D12CAA04
:103CA0003A205054421E2CA842540021012422469E
:103CB0002346FEF74CFDA81DC0B22146FEF7C6FC08
:103CC000387F0724002801D100F0BBFE142070705B
:103CD000294600253D774E1CF0B2042800D2EDE1C4
:103CE000FEF7A8FC2CA805229149FCF75FFA0028F2
:103CF00001D100F020FC01228EA029461346FEF7D8
:103D000026FD05980001FCF7AFFE8C48457035464E
:103D1000064600F096FE30203A5C397A0A431206D5
:103D200001D100F0FDFD14227270002900D167E27C
:103D30003446002038726D1CE8B2072800D866E2CD
:103D4000FEF73EFC299E77E2009030467C4900F069
:103D500019FF00F0DEFD042400F073FE0E2C2A99FA
:103D600066D137466F48401C814200DB01460A2578
:103D700008460E462946FCF7C9F9024645432A96ED
:103D8000731B299E30466F4900F0FCFE002101257F
:103D900030462A462B46FEF7DAFC08202946FEF775
:103DA00055FC3E46684F30203A5C32217B5C134321
:103DB00050D000227A543A54142070702A98401E31
:103DC00000B22A90102C36D80120A0401521C9023B
:103DD00008420BD111210903084219D01E982A99D3
:103DE000814200DC1E992A91084617E01E982A9904
:103DF000814200DC1E992A91084600F073FE374686
:103E0000B21CDF23299E3046504900F0BBFE14E06F
:103E10000E2C2A980FD1C11788432A9000F062FE19
:103E20003746B21C299E3046494900F0ABFE04E0FB
:103E30003746299EAAE73746299E002101253046AC
:103E40002A462B46FEF783FC08202946FEF7FEFB98
:103E50003E463D4F2B9D387F002846D00020707095
:103E60003877FEF7E7FB20460B3805283DD8C046DB
:103E70007844007940008744020911171F2B30A8AD
:103E80002A99018005E0C0461F52000830A82A99EF
:103E9000418031993098FCF7A2FD26E02EA82A999E
:103EA00041802F992E9804E02EA82A9981802E987F
:103EB0002F99FEF7D3F818E032A82A990181EA4831
:103EC0000F9A024088B20243329833990F920AE067
:103ED00032A82A99C180E4490E9A0A400089024317
:103EE000329833990E92FEF771FF7078002801D056
:103EF000FFF745FAFEF79EFB0B3C052C2BD803A1E0
:103F00000C5D6400A744C046E70300000507090BE9
:103F1000102602251FE003251DE004251BE00525D2
:103F200019E0C046E7030000062514E0BA51000876
:103F3000B551000857726F6E67000000C80200207C
:103F40001052000894510008EC020020D6510008DD
:103F50009F5100080725142070701D9CFFF70FFA71
:103F6000269813E22B9D26467078022400F06AFD05
:103F7000032400F066FD0524AAE12799491CC8B274
:103F80003B28084628990AD33B2008E02598401C86
:103F90002590C0B23B2801D33B202590279827903D
:103FA000C0B2009028918AB22598C3B2299E3046AB
:103FB000C84900F0E7FD0021012530462A462B467E
:103FC000FEF7C5FB03202B994843401DC0B229468C
:103FD000FEF73CFBC04E30203A5C32217B5C134341
:103FE00000D116E200227A543A54142070702B98B3
:103FF000C0B2022869D0012828996ED0002800D0CC
:10400000EAE188B2002800D0E2E10146E4E10926B5
:10401000F0B221462A462B46FEF744FB387F0028A3
:10402000209635D01424AC4D6C70384600270777A5
:10403000FEF7C6FA300600D118E10124A7A02146F8
:104040003A46FEF7A1FB0F20032321462246FEF746
:1040500029FBF0B20101A44A505853181B1D0ECB86
:10406000814C0C9D254000970C950195FEF746FA72
:1040700000289E4900D09E49299E30463A4600F0CD
:1040800081FD02251F97259727972C46289717E132
:1040900001242B9D69E2112021462A462B46FEF77A
:1040A00001FB002E20D048201FE0112001221346E2
:1040B000FEF7F8FA482C1CD048201BE0C81DC0B2FF
:1040C0000121FEF7C3FA35464FE2279AD0B2002805
:1040D000289900D181E1501E7FE1259AD0B20028B5
:1040E00000D077E1259077E153201C907A4E06248A
:1040F000EEE053201C903020395C3222BB5C0B4335
:104100002B9516D00021B95439541420707070705A
:104110001C98C4B2482C01D0122000E011200122CA
:104120001346FEF7BFFA482C01D0482000E0532088
:104130001C90387F00282AD0002474703C77FEF74A
:104140003FFA01236B4821462246FEF700FB40ADB3
:10415000AC80409444481499014020461491224672
:10416000FEF7F4FF2846FEF7EBFF3CA82499818078
:104170003C941C98C0B253280BD13CA8C4803F98F3
:10418000818022994180239901800A300AE02B9D89
:1041900017E03CA8C1803F98418122990181239971
:1041A000C180001D2B9D04803CAC012106222046CD
:1041B000FCF78EFB3CAB0FCBFCF7F6FA2046FCF786
:1041C000ABFA7078062400F03DFC082101224A4831
:1041D000FCF735FD35A8FEF747FC3F4E2B9C32AD72
:1041E0002846FEF7C1FD2878002800D194E032204F
:1041F0000D99FCF721FB1998179026982546C5E0E4
:10420000002139543446280600D1B0E16D1EFEF776
:10421000D7F9E8B20728299E00D97AE302A1400025
:10422000085A40008744C0460800140013032603C0
:1042300038034B036303A601002501232F482946B9
:104240002A46FEF784FA35A883780288C0787BE591
:10425000002101252AA00A462B46FEF778FA35A848
:10426000037AC288407A6FE50000FFFF6C701E4839
:10427000C06881884A424A4106211B925143401836
:104280000221445E0C20002101250A462B46FEF740
:1042900009FA1E4829462A46FEF776FA0A262046DB
:1042A0003146FBF733FF0246DF2000905643A31B45
:1042B000299E3046164900F065FCA0B222900324E6
:1042C000144F0021012230462B46FEF740FA024EE1
:1042D0002B9DB6E310520008C802002044617920EB
:1042E00053656C6563740000F80100207A51000882
:1042F0002C520008AB51000800040048235200086B
:104300004D6F746F72204F6666000000BA5100084E
:10431000BD510008EC020020022532AF7B5F06246D
:10432000179844433F98025F31993098FCF70CFB93
:104330000426BB5F3F980019425F31993098FCF723
:1043400021FBBB5F3F980019425F2F992E98FDF724
:1043500049FE7D5F3F98065F01240027B542224653
:1043600000DB3A4610981899FCF769FCB54200DA70
:104370003C46C94818992246FCF761FCFCF776FADE
:1043800019981790C54FC64E26982B9D000600D150
:1043900041E12198C0B2022800D18AE0012800D171
:1043A000B8E0002800D036E1FEF70AF90024012524
:1043B000BCA0214622462B46FEF7C9F93CA800784E
:1043C00021462A4621952B462B9DFEF76BF922E1CB
:1043D000491E01E0521E259227982790C0B20090F6
:1043E00028918AB22598C3B2299E3046AF4900F081
:1043F000C9FB0021012530462A462B46FEF7A7F9C6
:1044000003202B994843401DC0B22946FEF71EF9F0
:10441000A34E387F002820D01420707000203877F9
:104420002B9D6D1CE9B2032919D37070289880B2B6
:104430002599C9B209040818279909064018092CBA
:1044400015D135A91F9B8B80359099490A9A0A404E
:1044500099B2114317220A9117E02B9D19E003200E
:104460006843401DC0B20121FEF7F0F811E0069A42
:10447000108035A91F9B4B81010C51808C49099AF2
:104480000A4099B211431D220991FEF75FFEFEF723
:10449000D1F87078002801D0FEF771FFFEF7CAF856
:1044A00014207070093C601E844125461D9CFEF757
:1044B00066FFFEF785F80E200221269100260324D0
:1044C00032462346FEF7EEF840ADAB782A8843AF7C
:1044D0003846784900F056FB072119913846219655
:1044E00032462346FEF733F90F200126269932463D
:1044F0002346FEF7D7F8AA8838466FA100F042FBA2
:104500003846664F19993246654E2B9D2346FEF775
:104510001EF980E0FEF754F832A8007800283BD05E
:1045200043A82D2181806648439006222998654939
:10453000FBF711FE4FE0FEF743F8012462482946DD
:104540002A462346FEF703F935A883780288C07807
:104550000090299E3046554900F014FB304629460C
:1045600022462346FEF7F3F808244D4E69E2FEF793
:1045700027F8299E00210123F3A00A46FEF7E7F859
:10458000062032A9085E00F0ADFAA21C3046F249BE
:1045900000F0F8FA0725BCE1042032AE355E0A24AB
:1045A00028462146FBF7B2FD0246DF200090204658
:1045B00050432B1A43A8E94900F0E4FA0220355E83
:1045C00028462146FBF7A2FD024644432B1B2998AF
:1045D000E34900F0D7FA0C20002603242146324696
:1045E0002346FEF75FF843A80725294632462346AF
:1045F000FEF7ADF80D200126314632462346FEF780
:1046000051F82998294632462346FEF7A0F80220A1
:104610002190234E2B9D386800212691012855D0EA
:10462000002861D13B98002810D101243B9435A883
:1046300000252946FEF766FAFDF7C2FF0B20294642
:104640002A462346FEF72EF803202190022032AF9F
:104650003D5E0A2428462146FBF758FD0646042005
:104660003F5E38462146FBF751FD02462046704327
:10467000281A0096019054433B1B299C2046B949B7
:1046800000F080FA012120460A46FEF77DF8F64F39
:10469000F64E2B9D28E0C04600040048EC020020A6
:1046A000C802002042697264000000001052000835
:1046B0000000FFFF6C5100083D202533640000001E
:1046C0003D202D2DA5510008235200083B980128BC
:1046D0000AD100243B9435A801212691FEF712FA55
:1046E00021943894FDF76CFF4420395C002906D0F2
:1046F000002139540D996031D948FCF798FA4520CA
:10470000395C002912D000243C542046FDF771FF8B
:10471000EE4A107B4142414111730028EC4800D021
:10472000EC48012321462246FEF711F83121785C3E
:10473000002400284AD0787A002847D032202B90D5
:1047400000253D547D547D72BD7214207070284642
:104750001991FDF79DFC30A801242146FCF750F982
:104760003B9435A82146FEF7CDF91098189E3146A6
:104770002A46BC4B9847BA4F38463146BB4E224674
:10478000B84B984708213846B74F2246B54B984753
:10479000FDF716FFD04829462A462346FDF7D7FFE6
:1047A0002CA80571CD492C91294622462346FDF7B8
:1047B000CEFFFDF745FF06202146FDF747FF2B986A
:1047C0003D5419983D547D77BD770724387F0028E4
:1047D00001D1FEF7D4FD142070702E4600253D77E0
:1047E000FDF7EEFE0124BE4821462A46FDF7CCFF28
:1047F0009F4821462246FDF7C7FF3C982090C0B253
:10480000294622462346FDF74DFF2846FDF740FC8A
:1048100030A82146FCF7F4F83B9435A82146FEF772
:1048200071F91098189F39462A468E4B2B961E46D2
:1048300098478B4D284639468B4F2246B047082172
:1048400028462246B047894E2B9DFEF798FD002151
:1048500001239AA00A46FDF77AFF30A8008800B22B
:1048600000F040F9A21CDF233046844900F08AF9A9
:1048700002254EE0002101238DA00A46FDF767FFC7
:10488000022030A9085E00F02DF9A21C30467A49BA
:1048900000F078F903253CE00021012380A00A46BE
:1048A000FDF755FF02202EA9085E00F01BF9A21C9F
:1048B000DF233046714900F065F9042529E0002125
:1048C000012373A00A46FDF742FF04202EA9085ECB
:1048D0002B900A252946FBF719FC024645432B98E5
:1048E000431B3046634900F04DF9052511E00021D6
:1048F000012363A00A46FDF72AFF082032A9085EBB
:1049000000F0F0F8A21CDF2330465C4900F03AF9D1
:1049100006250021012230461346FDF718FF2646E2
:10492000387F0824002800D18BE000202B903877B6
:10493000E8B2072800D984E001A1085C4000874460
:1049400013243945515D697543616C696220534890
:10495000542048554D0000009F510008C9510008DF
:1049600093510008FB51000835A880881F90359CA2
:10497000FDF766FE05200121FDF768FE200E279059
:104980002894200C2590029CA2E435A840891F9011
:10499000069804884588FDF753FE05200121FDF7A0
:1049A00055FE28040019010E27912890000C25902F
:1049B0000A248DE430A800882A90FDF741FE0820E3
:1049C0000121FDF743FE0B2402253AE030A8408880
:1049D0002A90FDF735FE08200121FDF737FE0C2453
:1049E00003252EE02EA840882A90FDF729FE0820F6
:1049F0000121FDF72BFE0D24042522E02EA880883E
:104A00002A90FDF71DFE08200121FDF71FFE0E2450
:104A1000052516E032A800892A90FDF711FE08202E
:104A20000121FDF713FE0F2406250AE032A8C088F5
:104A30002A90FDF705FE08200121FDF707FE072556
:104A4000039C7078002801D0FEF799FCFDF7B8FDB3
:104A500001202690307000243B942194FEF78FFCB7
:104A6000000400483F0C0008EC020020C8020020AF
:104A7000BA510008945100089F510008D65100080F
:104A800043616C6962205348542054656D70000086
:104A900041646A20486561742050574D0000000051
:104AA00041646A20486561742054656D700000009F
:104AB00041646A2046616E2048554D0041646A2079
:104AC00046616E2054656D7000000000DA0200201F
:104AD000E6510008F1510008DD5100083030303057
:104AE0003A520008B0B50446012809DB0A212046E5
:104AF000FBF70CFB02460B460F48801C15A116E085
:104B0000002C0FD00A212046FBF700FB0D460920A0
:104B1000C1432046FBF7FAFA02466B420648801C66
:104B200006A104E00448801C07A10022134600F0FF
:104B300029F80148801CB0BDC80200202D25326430
:104B40002E25316400000000202532642E253164BA
:104B5000000000002B2532642E2531640000000087
:104B6000B0B50920C4060425012220462946FCF7D9
:104B700066F8C820FEF736FB002220462946FCF7DF
:104B80005EF8B0BD0FB410B504A9074B02AA039894
:104B900000F032F8044602A9002000F067FA20462F
:104BA00010BC08BC04B018476D5000082021020C4E
:104BB00001D010211046020A01D01046083902091E
:104BC00001D01046091F820801D01046891E4208F4
:104BD00001D0881E7047081A704702E008C8121FEB
:104BE00008C1002AFAD170477047002001E001C1D6
:104BF000121F002AFBD17047FFB591B00F46054642
:104C0000002606E025280AD0149A139990476D1CB7
:104C1000761C28780028F5D1304615B0F0BD002468
:104C200000940121F34A029400E004436D1C2B78A8
:104C30000846203B98401042F7D128782A280ED009
:104C4000022128780246303A092A15D8009A0A2308
:104C50005A43303A80180C436D1C0090F1E701CFA5
:104C60000090002805DA01204003044300984042E8
:104C70000090022004436D1C28782E2815D10420B2
:104C8000044368786D1C2A280AD101CF6D1C02905C
:104C90000BE002990A225143303940186D1C0290F2
:104CA0002878014630390929F3D928786C2810D0A2
:104CB00006DC4C281AD068280ED06A2817D104E0E8
:104CC000742813D07A2812D110E001204005044343
:104CD0000CE00121090501E0032109050C43697875
:104CE000814203D10120000524186D1C6D1C287819
:104CF00003906E281ED00CDC632831D004DC002821
:104D00008AD0582811D1B2E064287BD069280CD110
:104D100078E073282DD004DC6F2870D0702804D17F
:104D2000A7E075286CD078286BD0149A1399904717
:104D3000761C62E06002400F022807D003280AD0E8
:104D4000042838680AD006603F1D56E03868F1171D
:104D500006604160F8E738680680F5E70670F3E71B
:104D60003878694608740020487404A8039001202C
:104D700003E0386803900020C0433F1D61070FD552
:104D8000002101E00199491C029A0191914213DA34
:104D90008142F7DB019A0399895C0029F2D10BE08B
:104DA000002101E00199491C01918142FADB019A3D
:104DB0000399895C0029F5D101990098139A401A4A
:104DC00000902146149B00F03BF901998019461888
:104DD00007E0039803990078491C0391149A1399EA
:104DE00090470198401E0190401CF2D12146149B2F
:104DF000139A009800F014F986196D1C09E741E038
:104E000033E034E00A200021049005916002410F54
:104E1000022905D001CFC2179446032905D007E027
:104E2000FF1DFF08FF0003CF06E000B2C217944643
:104E3000042902D140B2C1178C4600226146944534
:104E400006DA0A460021404291418C462D2102E0BB
:104E5000210504D52B216A461176012103E0E107E3
:104E600001D02021F7E7019154E00A200BE0102047
:104E700009E010200490002104200443082005913B
:104E8000029003E008200021059104906002410F88
:104E9000022905D001CF00229446032906D006E05E
:104EA000FF1DFF08FF0003CF8C4603E080B20429FA
:104EB00000D1C0B20021019121072BD5039970299F
:104EC00006D0049A1021059B4A401A4305D00EE0F3
:104ED00040216A461176012108E06146014306D06F
:104EE00030216A4611760399517602210191049A84
:104EF0000821059B4A401A430CD16146014301D168
:104F0000610707D530216A46117601210191029986
:104F1000491E02910399582904D037A103910FA982
:104F20000F910DE039A1F9E76146059B049AFBF763
:104F3000C1FA039B8C469B5C0F9A521E0F92137012
:104F400061460143F0D10F9807A9081A2030039059
:104F5000600704D5012000048443029801E0012089
:104F600002900399884201DD401A00E000204118B8
:104F70000290019809180098401A0090E00306D4A6
:104F80002146149B139A009800F05AF886190020C5
:104F9000049008E006A9085C149A139990470498B5
:104FA000401C761C049001998842F3DBE0030CD589
:104FB0002146149B139A009800F042F8861904E0E9
:104FC000149A302013999047761C0299481E02903B
:104FD0000029F5DC08E00F980F990078491C0F9123
:104FE000149A13999047761C0399481E0390002940
:104FF000F1DCFBE609280100303132333435363735
:105000003839616263646566000000003031323314
:1050100034353637383941424344454600000000B4
:10502000F8B5044600251E461746880404D405E05A
:1050300039462020B0476D1C641EF9D52846F8BDBE
:10504000FFB50446002581B01E46C80301D53027B0
:1050500000E02027880404D505E038460399B047CE
:105060006D1C641EF9D5284605B0F0BD0A68531CB6
:105070000B60107070470000040000000300000087
:105080000800000007000000070000000600000004
:105090000300000004000000030000000600000000
:1050A00004000000040000000300000005000000F0
:1050B00004000000030000000400000003000000E2
:1050C0000300000037000020940000208000002032
:1050D0001C000020080000203F0000206500002088
:1050E000A400002052000020CC000020D8000020A6
:1050F0003000002034000020B7000020DC00002039
:10510000B40000203B000020BC0000206200002012
:10511000000000000000000000000000000000008F
:10512000000000000000000000000000000000007F
:10513000000000000000000000000000000000006F
:105140000000000003000000000000000400000058
:105150000000000004000000040000000000000047
:105160000000000001020304060708093D20253065
:1051700032643A253032642020003D2530336420EB
:1051800053657474657220002532642E25316420C5
:105190002525003D2533642E253164202525002555
:1051A00073202525003D202D2D2D00536176696E3D
:1051B000672E2E2E0030303030003D3E0025326408
:1051C0002E25316420256343003D2533642E25318F
:1051D0006420256343002573202563430050415319
:1051E00053574F52440042555A5A4552204F464653
:1051F0000042555A5A4552204F4E00543D253264C4
:105200002E2531642020483D2532642E253164004E
:10521000253032643A253032643A25303264002534
:105220003364004D6F746F72204F6E003D25303334
:105230006420486174636865720042697264205337
:10524000656C65637400000068520008000000206F
:10525000C8020000C006000830540008C802002040
:1052600010060000EA4B0008320432011008070A59
:105270000D010E0F0C168A02790112160203740139
:105280000310080708090A0B080C1C580277141AA7
:10529000BC06120318160E101C1D0D0B040D18175A
:1052A000190D200121091009040811361A6E223A3D
:1052B0002036141504163AEE322B520332380822E7
:1052C0000E101213143A121CEE0272121A58643A9B
:1052D0001506297D6F02030405060164294219148D
:1052E000391E69102D06010D147E29622952100CF9
:1052F000012016011E08071F18171012DC1A6B1860
:105300001C0E016E181A0310193B2113127A300972
:105310001A1B0B10160B040C541F05071702020270
:10532000041802100903040B080807040A341515B1
:105330001F1A0401192012044E0611090F10105AE9
:1053400004301A1E1721160E0A0F041812052B0717
:10535000053019462A020841295A12044511111133
:105360000E2D0C02010270140E011F29112928298B
:1053700010211A03402C010101281D010204022002
:105380004960121F2A04101A111029983A04604922
:10539000A8216A186849A841680B13120C1010164E
:1053A0001010110FA01A0CB83A09501302052D1550
:1053B00017141CCE39A811120A43111E3C0E0A0EF6
:1053C00050111C040609383D040A0D0918195939F1
:1053D0006F2122743B2001103A03101A98102908FB
:1053E0005A1C101A88109A03101A241032045A11E9
:1053F000101A101032055A1A101A461032065A188E
:10540000101A68109A07401AA81032085A23101A66
:10541000561032095A2A101AC0102DF6FFCEFF94EA
:105420003F9001F6FF2C017F4A14AE0116000000E8
:04000005080000B13E
:00000001FF
