:020000040800F2
:1000000010090020C5000008792B00082F200008E7
:1000100000000000000000000000000000000000E0
:10002000000000000000000000000000852D000816
:1000300000000000000000007B2B0008312E0008AB
:10004000D700000800000000D7000008D700000813
:10005000D7000008D7000008D7000008D700000824
:1000600000000000D7000008D7000008D7000008F3
:10007000D7000008D7000008D700000800000000E3
:10008000D70000080000000000000000D7000008B2
:1000900000000000C52E0008D52E0008D70000087B
:1000A00000000000D700000800000000D700000892
:1000B0000348854600F016FB00480047313200082F
:1000C000100900200448804704480047FEE7FEE787
:1000D000FEE7FEE7FEE7FEE7C12E0008B1000008DC
:1000E00010B5202A04DB0846203AD040002110BD7C
:1000F0000B46D340D0402024A21A91400843194611
:1001000010BD03460B439B0703D009E008C9121F2B
:1001100008C0042AFAD203E00B780370401C491C83
:10012000521EF9D27047D2B201E00270401C491E43
:10013000FBD270470022F6E710B513460A46044684
:100140001946FFF7F0FF204610BD421C0178401C05
:100150000029FBD1801A704730B5044600200346C1
:1001600000E05B1C934203D2E05CCD5C401BF8D006
:1001700030BD0000F0B507460846584087B0C00FB4
:10018000049048000E46590040084908BC1A8841AE
:1001900005D2384631461E4617460B4602465800E1
:1001A000400810434CD0300D039040055900400DDD
:1001B000490D0590401A0290402872DA1803012177
:1001C000000B09050843019004980092002805D00F
:1001D00001995242002088410092019002984021EA
:1001E0000A1A0199009800F0B9F905460C466B46C9
:1001F00007CB00F0C3F9C0197141039A0E0D00231B
:10020000D71756401A467A40164344D0049A002A1B
:100210002DD0029A012A039A15DC1205C01A9141C9
:1002200001263605001C7141D20F059ED2070093AE
:10023000019202962A46234600F001FA07B0F0BD6B
:1002400038463146FAE71605224A0F46B218C01A58
:10025000B74101210905001C4F4100187F4111469B
:1002600018187941E20F10436D19644113E0E20759
:100270006D0815436408C2071443039A012612054A
:10028000C01A91413605001C7141CE074008304329
:100290004908C01851412A46234600F0C3F9CDE76A
:1002A000FFE7049801224000C117121A00238B4176
:1002B00004983146C417381AA141EEE730B401243E
:1002C000E407634030BC55E730B40124E4076140E3
:1002D00030BC4FE70000E0FFF0B51FB488B00B99C9
:1002E0000998002448400999C00F4900490809911C
:1002F000C0070B990090490049080B91099908988B
:10030000A64608431CD00B990A98084318D00998B0
:1003100001244000420D4800410D099824050003C6
:10032000000B204309900B980003000B20430B9017
:1003300050181C494018002201901446104605E050
:10034000002001460DB0F0BD032801DA034600E0AD
:1003500003239C46C11A0AAE0AE05F0008ADED5BBC
:100360004F00F75B7D430027AA187C41491C5B1EA8
:100370006145F2DD410004AB5A522104120C0A43DC
:10038000240C401C0828DFDB01980290009970467D
:1003900001910090059B049A0799069800F04FF987
:1003A000D0E700000DFCFFFF0EB5054902910021CA
:1003B00000910A460B46019100F041F903B000BDDF
:1003C0003304000070B5CD0F4A0009030123090B67
:1003D0001B0519430B4BED070024520D9A4201DA1D
:1003E000002070BD074B34339A4203DC9A1AFFF7A2
:1003F00077FE02E00449511888402C43F1D0404276
:1004000070BD0000FF030000CDFBFFFFC20FD2074D
:10041000400040080BD0C10D0723DB01C918400282
:100420000905400A1143C2084007114370470020E4
:1004300001467047CB0FDB07490010B5490802465B
:100440000A4307D00A0D07240903E401090B121B14
:10045000002A01DC002010BDC900440F0C43C1007C
:10046000E018D205801800F09CF810BD70B5044665
:10047000002903D000202022012310E0002801D011
:100480000020C043C046C0460DE02546D5408D4201
:1004900005D30D469540641B1D46954040191546F1
:1004A000521E002DF1DC214670BD000070B5002504
:1004B00004462E46002911D0002C01DA01254442C1
:1004C000002901DA012649422046FFF7CFFFB54255
:1004D00000D04042002D00D0494270BD002C02DA0D
:1004E0000121C90702E0002C00DD03490846C0468F
:1004F000C046214670BD0000FFFFFF7FF0B51FB46E
:100500000646002082B005464024019100901BE081
:10051000019922460F463046FFF7E2FD049A059BFB
:10052000801A994110D310461946224600F016F859
:10053000361A8F410197224601200021009F00F0CA
:100540000DF838184D4100902046641E0028DFDC6D
:10055000019B00982946324607B0F0BD10B5202A0D
:1005600004DB0146203A9140002010BD9140202339
:100570009C1A0346E3401943904010BD10B5202A51
:1005800006DBCB170846203A1041C1170B4306E0A3
:100590000B461341D0402024A21A9140084319462B
:1005A00010BD002904DA401C490001D14008400078
:1005B000704770B40024050C05D11024000402D14A
:1005C000002921D01124050E01D100020834050FA5
:1005D00001D10001241D850F01D18000A41C002839
:1005E00001DB4000641C002908D020252E1B0D468D
:1005F000F540A14000D001212943084301061B1BFF
:10060000000ADB1D02D5002070BC7047DB051818FE
:1006100080180029F8DA401C4900F5D170BC400868
:100620004000704710B5002B08DA0024401C6141DF
:1006300092185B411A4301D14008400010BDF0B54B
:100640001FB482B005460C0003D0084604F0F2FB4C
:1006500002E004F0EFFB20300246009021462846DD
:10066000FFF77CFF049B059A04460F46184311438D
:10067000084314D0184610431BD0009840210A1A92
:1006800018460599FFF72CFD05460E46009A059978
:100690000498FFF763FF084305D0012004E02046DB
:1006A000394607B0F0BD0020C11705430E432C4367
:1006B000374300990E986305401A7905E40A002231
:1006C0000C43FD0A0A3002D500200146E9E7010586
:1006D000101969410C9C0D9D00196941FFF7A2FF9B
:1006E000DFE70000064C0125064E05E0E36807CC75
:1006F0002B430C3C98471034B442F7D3FFF7DCFC93
:10070000F45400081455000870B58C180578401C86
:100710006B075B0F01D10378401C2A1106D10278C8
:10072000401C03E006780E70401C491C5B1EF9D18A
:100730002B0705D40023521E0DD40B70491CFAE779
:100740000378401CCB1A921C03E01D780D70491CE5
:100750005B1C521EF9D5A142D8D3002070BD000009
:1007600010B504460121062200F0B4F820680028E4
:1007700003D1064800F00CF82078C0B2000103490C
:10078000091810222046FFF7BCFC10BD28020020EB
:1007900070B505460224048100202860281D072228
:1007A000124E2146B047A81D09222146B047E868ED
:1007B0000B222146B047E868801C0D222146B04735
:1007C000E868001D0F222146B047E868801D11220D
:1007D0002146B047E868083013222146B047E86850
:1007E0000A3015222146B04770BDC046D508000822
:1007F0007FB500AC0FC46E46301D02240722124D97
:100800002146A847B01D09222146A84703980B227C
:100810002146A8470398801C0D222146A84703982B
:10082000001D0F222146A8470398801D1122214652
:10083000A8470398083013222146A84703980A3096
:1008400015222146A8477FBD11090008194800213B
:10085000418101220272184B03604160FF21023185
:1008600001821104C160704710B5124A11745060C2
:10087000012151749173918100235381032818D869
:100880000D4B800001A420588746C046AF080008E1
:100890009D080008A3080008AB0800080648031DCF
:1008A00005E0054B0C33032101E0034B08331172C3
:1008B000136010BD0C0300200000002080B52B2128
:1008C00048430A21FFF7D2FD002802D000BF401E96
:1008D000FAE780BDF0B585B004920D4607460020CA
:1008E000C643264CA02101222046334600F068FA78
:1008F0000028F7D10097019502962048A0210123F6
:10090000049A00F0EDFA0A2000F0D6F805B0F0BD28
:10091000F0B589B00792089106900920C006012120
:10092000C902002605900491324600F0B0F9F44364
:10093000124F089886421AD0A021012538462A462F
:10094000234600F03DFA0028F6D106988019009061
:10095000019502940798301882B2A02138462B46A0
:1009600000F06EFB0A2000F0A7F8761CE1E70122F8
:100970000598049900F08BF909B0F0BD80030020C0
:10098000EFF3108072B6FEE7FEB51C4615460E4624
:10099000074602910190089A099B00F041F800284F
:1009A00001D0002107E0384631462A46234600F0B0
:1009B0004DF84142414101A800F020F8FEBDB0B51C
:1009C0000446022525222946FFF784FFA01C272282
:1009D0002946FFF77FFF01206060B0BDBCB50191E3
:1009E00000906C460225252220462946FFF790FFFD
:1009F000A01C27222946FFF78BFFBCBDB0B5416084
:100A0000481E4442444101204103984D2846224655
:100A100000F03DF910212846224600F038F9B0BD1B
:100A200010B50014841801219C42084605DD93424C
:100A300002DD0548007810BD00209C4200DD002149
:100A4000014A117010BDC0462003002010B500B24D
:100A5000841801219C42084605DD934202DD0548C9
:100A6000007810BD00209C4200DD0021014A117079
:100A700010BDC04621030020F0B5002818D006980C
:100A800084B289B200200646C5B2B6B2B14209D9D5
:100A900006276F43DF19BF88F619B7B2A74201D8FE
:100AA000401CF1E791B2A94200D8501EC0B2F0BD7F
:100AB000998848424841F0BDB0B5044600F0EEF8D0
:100AC0000546601C02D004484068041900F0E6F8AE
:100AD000401BA042FAD3B0BD18000020F0B588B08A
:100AE00007465E48874201D0052000E003200090C1
:100AF00000220692144605970E683046E04000D169
:100B0000AAE001250295A5402E4000D19EE0049464
:100B100003924A68032314461C40601E01281AD819
:100B200003230192069A9340B8689843CF68974090
:100B30000743059887600198C006C00F049A90404B
:100B4000059F7F68AF43074305984760059FD843DB
:100B50005500019A08E01846069DA840C043032CA2
:100B600002D1069D1C461CE0FB6803408F68AF4025
:100B70001F43059BDF60059F022C12D11C22039BA3
:100B80001A400F239340049CE408A4003C19276AF0
:100B90009F430B6993403B43059F23624A680324AC
:100BA0001440AC403B68034023433B609003800FFC
:100BB000039A049C4AD02B4B1868029D2843186066
:100BC00018682840079023460C2414400F20A040AA
:100BD00003229343079A244D5A5982435B190920F3
:100BE000C006874208D02148874207D02048874264
:100BF000009804D1022002E0002000E00298A0400A
:100C000010431860164800684B68DA0301D530437A
:100C100000E0B043049C124A106050689A0301D56A
:100C2000304300E0B0430E4A50609068DA0201D5CC
:100C3000304300E0B0430A4A9060D0689A0201D580
:100C4000304300E0B043039A054BD860121D06986C
:100C5000801C0690641C4FE708B0F0BD000C0048F3
:100C60000004014018100240080001400004004840
:100C70000008004800690840411E884170474269E9
:100C80000B4693430A401104C91881617047002A3A
:100C900001D0182200E028228150704701480068E6
:100CA0007047C0460C050020B0B5436C0222202BD3
:100CB00017D1036C012B14D02422426402681368FC
:100CC0000124A3431360230315689D431560136833
:100CD0000B4313601168214311600022026420213C
:100CE00041641046B0BDB0B5436C0222202B17D131
:100CF000036C012B14D0242242640268136801247F
:100D0000A34313600F231B0215689D430902294367
:100D100011601168214311600022026420214164A6
:100D20001046B0BD70B5002820D00446406C0028A5
:100D300004D100202064204600F032FA24206064B0
:100D40002068026801218A4302600F22120663684C
:100D5000934303618368184A13408360A368E5687E
:100D6000012D05D1CD032B43836009E0012070BD27
:100D70002126B60233438360022D01D1CB024360AA
:100D800043680E4D1D434560C3681340C36022692C
:100D900063691343A26912021A43C260E269236ABB
:100DA0001343036002680A4302600020E0642021CC
:100DB00061642063A06470BDFF7FFFFF00800002BC
:100DC000F0B589B01D461346044600220892406CD7
:100DD0000227202873D107922068826912046ED4FA
:100DE000226C012A6BD024226264012202922264C6
:100DF000079AE264384A1140384A8F180522D20215
:100E00008918039106930497E1680129394600D0B7
:100E100003994160FFF742FF06462068816949094E
:100E2000826912090A43D10709D1681CF5D0FFF77E
:100E300035FF801BA8423AD8002DEED137E08769F4
:100E40000096202100222046059101922B4601F0B8
:100E50001BFAF90636D5002830D120681021C1616F
:100E60000599C1610899069B994211D10127B903DF
:100E700042680A43426000962026002220463146FE
:100E80002B4601F001FA069B002818D12068C661A4
:100E90000899491C089108999942049FB4D305996F
:100EA000616401982064E06C0843E06406E020205F
:100EB000606407992164E16C0143E164029F384654
:100EC00009B0F0BD0028029FF9D120680599C161E1
:100ED000019F27646164F2E7FF0300000020000225
:100EE000F0B587B00546406C0224202838D10C9F0D
:100EF000002F32D016460D9A002A2ED0286C0128D9
:100F00002ED003920693059101242C64FFF7C6FEB0
:100F100004900090E10319232846224601F0B4F919
:100F200000281DD10E99222068644020A86400206A
:100F3000E8646F620F4602906863039868850091C9
:100F400004980190284605993246069B01F020F945
:100F5000002808D00298286402E001246002E864B6
:100F6000204607B0F0BD0697012426066306688D6B
:100F7000000A32480396029306D0FF222A85009089
:100F800028460599334605E0698D29850090CAB247
:100F90002846059901F062F9049E069B00960421FB
:100FA000002728463A4601F06FF90028D8D1686A30
:100FB0002968496A0170688D401E6885686A401C0E
:100FC0006862288D411E2985688D0904069B1FD102
:100FD00000281DD00096802100262846324601F0C8
:100FE00053F90028BCD1688D000A06D0FF222A855B
:100FF000009628460599039B06E0688D2885009693
:10100000C2B228460599029B01F028F9049E069B6E
:10101000688D0028C2D128461946324601F059F998
:1010200000289DD128682021C16142685B4B134094
:10103000436069642F64AF643C4691E700240080FC
:10104000F0B589B00546406C0224202838D10E9FA7
:10105000002F32D016460F9A002A2ED0286C012875
:101060002ED008920593079101242C64FFF716FEF9
:1010700004900090E10319232846224601F004F968
:1010800000281DD11099212068644020A864002008
:10109000E8646F620690686308986885089100911B
:1010A000049F0197284607993246059B01F0A2F854
:1010B000002808D00698286402E001246002E86451
:1010C000204609B0F0BD012426066306688D000A9B
:1010D000059603930AD0FF222A8500200090284617
:1010E0000799334601F0BAF8069E08E0688D288516
:1010F000069E0096C2B22846079901F0AFF8089BF9
:10110000284619463A4601F007F90028D8D1286840
:10111000696A0A788262688D401E6885481C686228
:10112000288D411E2985688D0904089B1FD1002840
:101130001DD00097802100262846324601F0A4F8F1
:101140000028BDD1688D000A06D0FF222A850096AE
:1011500028460799059B06E0688D28850096C2B24F
:1011600028460799039B01F079F8069E089B688D35
:101170000028C5D1284619463A4601F0AAF80028A9
:101180009ED128682021C1614268044B134043600E
:1011900069642E64AE64344692E7C04600E800FEFF
:1011A000B0B586B0044601A81421FEF7C3FF20683D
:1011B000114988421DD10125A804104C2168014322
:1011C000216021680140009105950395122002904D
:1011D00003200490800201900098094801A9FFF7BC
:1011E0007DFC6805A1680143A160A16801400091F0
:1011F000009806B0B0BDC046005400401410024034
:10120000000400481A48406802490A68101808603B
:101210007047C0460C05002010B5A5480168102293
:101220000A4302600024204600F004F800F022F88F
:10123000204610BD70B504467D20C0000C4E71687C
:10124000FFF714F901469D480068FFF70FF900F019
:101250004FFB0125032C08D8002806D10025E843C0
:1012600021462A4600F028F83460284670BDC04662
:101270001800002082B00948016801221143016072
:101280000168114001910199110742680A434260C7
:10129000406808400090009802B070471810024063
:1012A000002805D41F210840012181400148016028
:1012B0007047C04600E100E080B501F067FF80BDE7
:1012C000F0B585B004468078C007384B38D001208F
:1012D0000290010718680840039006D11868084377
:1012E000186018680840049004980191304E3068E6
:1012F000C00538D5032528022C4B5968014012D06F
:101300006268024091420ED00298000459685A68FF
:1013100002435A605A6882435A600846254A104080
:101320005860C80731D158682249084061680143B4
:1013300059600398002803D1186801998843186000
:101340002068C10705D0596903229143A2680A4366
:101350005A610025800625D5586910218843E16827
:10136000014359611EE0029807023068384330603B
:10137000FFF794FC054630683842BBD1FFF78EFC7E
:10138000401B6428F7D903250CE0FFF787FC0646CD
:10139000484F064B58688007C5D4FFF77FFC801B79
:1013A000B842F6D9284605B0F0BDC0461C10024030
:1013B00000700040FFFCFFFFF8B500284CD0044649
:1013C0003B4A1368012003408B4208D21368012670
:1013D000B3430B431360126832408A4266D10091D6
:1013E00021688A070ED54A0705D507221202424D09
:1013F0002B6813432B60404D2A68F0239A43A3685F
:1014000013432B60C90729D12949086801263040B8
:10141000009A904205D90868B04308600868C00780
:1014200044D12078400707D507200002324A1168CE
:101430008143E0680843106000F042F82E490968D3
:101440000906090F1C4A515CC8401C490860002667
:101450003046FFF7EFFE29E0012627E06168264AC3
:10146000121F022904D0012905D11268920304E059
:101470001268920101E012689207064616D51E4ACC
:1014800010680326B04308431060FFF707FC0746C7
:10149000084D194800680C210140606880008142B5
:1014A000B2D0FFF7FBFBC01BA842F2D93046F8BD13
:1014B0000020024088130000E453000804010020CB
:1014C00010B50D490A680C2313400C48082B08D1AD
:1014D00093021B0F0AA4E45C896AD20303D4104868
:1014E00007E0044606E00F22114009A2515CFEF716
:1014F000BDFF4443204610BD0410024000127A0094
:1015000002030405060708090A0B0C0D0E0F101044
:101510000102030405060708090A0B0C0D0E0F1043
:1015200000093D00F0B587B004460120002C00D131
:1015300095E104902078C007EA4E059411D07168B7
:101540000C200140042906D071680140082937D1D8
:101550007068C00334D53068800302D56068002805
:1015600042D02078800758D570680007800F1BD0C4
:1015700070680C210140082902D17068C00313D59E
:101580003068059CE168002930D0012108433060B3
:10159000FFF784FB05463068800737D4FFF77EFBF2
:1015A000401B0228F7D930E130688007059A02D540
:1015B000D068012818D13068F8218843116929E0E2
:1015C000616801204704002900D1F3E0052900D11A
:1015D00007E1012900D108E1010432688A43326041
:1015E00081043068884303E1049838E1012188438D
:1015F0003060FFF753FB0546306880070DD5FFF7D5
:101600004DFB411B03200229F6D928E13068F8215F
:1016100088432169C90001433160059C2078000797
:1016200027D42078400700D488E0012003900107E8
:10163000F0690840029006D1F0690843F061F06952
:101640000840069006980191A74F3868C00532D52A
:1016500005988068A54F00283FD0052852D0012862
:1016600054D0306A039988433062306A0421884339
:101670004FE0706AE16900290ED0012108437062D1
:10168000FFF70CFB0546706A8007CAD4FFF706FB1C
:10169000401B0228F7D9B8E0012188437062FFF7A8
:1016A000FDFA0546706A8007BBD5FFF7F7FA401BC5
:1016B0000228F7D9A9E0039804023868204338606B
:1016C000FFF7ECFA054638682042C1D1FFF7E6FA89
:1016D000411B03206429F6D9C1E0306A039988438D
:1016E0003062306A042188433062FFF7D7FA05463A
:1016F000306A80071AD5FFF7D1FA411B0320B9429F
:10170000F6D9ACE0306A042101433162306A0399B2
:1017100008433062FFF7C2FA0546306A800705D4F5
:10172000FFF7BCFA401BB842F7D96EE002980028D8
:10173000059C03D1F06901998843F0612078C006C7
:101740006DD5059A5069411D16D001281DD1706BC9
:10175000042101437163706B012101437163FFF741
:101760009DFA0546706B800751D4FFF797FA411B2D
:1017700003200229F6D972E0706B0421884370635C
:10178000706BF8218843916946E0706B0421014336
:101790007163706B012188437063FFF77FFA054620
:1017A000706B80073BD5FFF779FA411B03200229B4
:1017B000F6D954E0010432688A433260800431680B
:1017C00081433160FFF76AFA0546059C306838426C
:1017D00000D1C6E6FFF762FA411B03206429F5D960
:1017E0003DE0810432680A433260010430680843F6
:1017F0003060FFF753FA05463068384200D0B0E653
:10180000FFF74CFA401B6428F6D9032027E0706BE1
:10181000F821884305998969C900014371630598D6
:10182000046A002C1AD070680C210140082918D1D4
:10183000012C049813D00120030471680B40F26A54
:10184000059D6C6AA3420AD10F231A40EC6AA2429A
:1018500005D19A041140AA6A914200D1002007B034
:10186000F0BD0120020631680492914331604706C1
:10187000FFF714FA0546022C0AD1049C306838425E
:1018800010D0FFF70BFA411B03200229F6D9E6E737
:1018900030683842E2D0FFF701FA411B03200229E9
:1018A000F6D9DCE7F06A0F218843059AD16A014333
:1018B000F1623D20000471688143906A0843516AD7
:1018C00001437160306820433060FFF7E7F9044658
:1018D00030683842C2D1FFF7E1F9011B0320022929
:1018E000F6D9BCE7001002400070004088130000E9
:1018F000401E010E01D0012070470749074A506081
:10190000074803680B40032189075918016000202C
:101910009060072111607047FFFFFF0010E000E0BA
:1019200020ED00E07047704770B50246C06B01289B
:1019300001D1022070BD0020D0633F231B02CC6880
:101940009C430F239D028E68AE432643DB024C6806
:101950009C43344307231B030D689D432543032306
:101960005B030C699C432C434B6923430124A40370
:10197000A343C96919431268516470BDB0B5C26B05
:10198000012A01D1022119E0022202640122C2636C
:1019900003685C687025AC430D6825439C685D60F6
:1019A000EA4DAB4202D0474DAB4204D18025AC4357
:1019B0004968214399600021C16302640846B0BDB3
:1019C00010B500281BD00446006C002804D100206C
:1019D000E063204600F016F8022020642068211DF4
:1019E00001F080FA012060666064A064E064206514
:1019F0006065A065E06520662064002010BD0120C0
:101A000010BD00001FB500681A49884210D01A495D
:101A100088421BD0CD4988422BD10120C0021749F2
:101A20000A6802430A6009680140039103981FBDD8
:101A300001218804114A13680343136012680240AD
:101A4000019201981624002220460DE00120400456
:101A50000A490A6802430A60096801400291029833
:101A60001524002120460A46FFF726FC2046FFF7F2
:101A700017FC1FBD004801400044014018100240FF
:101A8000016C012916D1022101640168C868012294
:101A90001043C860AD48814202D00A4881420BD150
:101AA0008868072303400020062B09D00B681343E6
:101AB0000B607047012070470868104308600020E1
:101AC0007047C04600040040F8B50446C06B0128CA
:101AD00001D1022269E0022020640125E56320682B
:101AE0008268344B1A4082600F680026002F22D093
:101AF000102F20D0202F1ED0302F1CD0402F22D0CE
:101B0000502F2AD0602F32D06A0397423AD02A034E
:101B10009742324647D0702F49D1773382681A40B6
:101B20004B688F68C9681F430902394311438160BC
:101B30008168772234E08168702291430F43072146
:101B4000394381602EE0CA68496801F0EBFA2068E9
:101B5000816847220A43302112E0CA68496801F0CF
:101B6000E1FA2068816857220A43202108E0CA6808
:101B7000496801F0E8FA2068816867220A43102169
:101B80008A430EE0773382681A404B688F68C968D1
:101B90001F4309023943114381600121890382688F
:101BA0000A4382603246E66325641046F8BD2A4641
:101BB000F9E7C0468800FFFF7047B0B504468020B3
:101BC000C54320680169890717D5C168890714D5FD
:101BD00029467E3101610121E1618069800703D0DE
:101BE0002046FFF7E9FF05E0204600F0B3F8204665
:101BF00000F030F90020E06120680169490718D53C
:101C0000C168490715D529467C3101610221E1618E
:101C100080698005800F03D02046FFF7CDFF05E0E7
:101C2000204600F097F8204600F014F90020E0610B
:101C300020680169090717D5C168090714D5294625
:101C4000783101610421E161C069800703D0204639
:101C5000FFF7B2FF05E0204600F07CF8204600F0D8
:101C6000F9F80020E06120680169C90618D5C1684B
:101C7000C90615D52946703101610821E161C069A5
:101C80008005800F03D02046FFF796FF05E0204631
:101C900000F060F8204600F0DDF80020E0612068E8
:101CA0000169C90709D0C168C90706D029467F3133
:101CB0000161204600F022F920680169090607D574
:101CC000C168090604D505612046FFF72BFE206890
:101CD0000169490609D5C168490606D5294640313A
:101CE0000161204600F0A2F920680169890607D544
:101CF000C168890604D5603505612046FFF713FEEB
:101D0000B0BD000010B586B0044601A81421FEF74E
:101D100011FA20687849884216D1012041040C4A02
:101D200013680B43136012680A4000920221059168
:101D30000022049203920291400201900920C00601
:101D4000009901A9FEF7CAFE06B010BD002C0140A3
:101D50001410024070470000B0B50446C06B012863
:101D600001D10220B0BD0D460120E0630221CA412D
:101D7000032A4AD87A44127952009744011022313A
:101D80002068294601F0F8F82068816908220A4392
:101D90008261816904229143816129690FE0206891
:101DA000294601F023F90121CA02206883691343FF
:101DB0008361890282698A43826129690902183034
:101DC0001FE02068294601F045F92068C169082212
:101DD0000A43C261C16904229143C16129690FE0CC
:101DE0002068294601F06CF90121CA022068C36904
:101DF0001343C3618902C2698A43C2612969090226
:101E00001C3002680A43026000200021E163B0BD7B
:101E100010B500281BD00446006C002804D1002017
:101E2000E063204600F015F8022020642068211DA0
:101E300001F058F8012060666064A064E0642065E9
:101E40006065A065E06520662064002010BD01206B
:101E500010BD704770470000B0B50446002906D099
:101E60002046082909D0042909D1483008E0606CCF
:101E700001280FD12046443011E04C3000E05030B2
:101E80000068012806D12046082905D0042905D17B
:101E9000483004E00120B0BD4C3000E05030022258
:101EA0000260206801252A4601F058F8216811488F
:101EB000814213D01048814205D05A4A914202D043
:101EC000544A914205D1EA034B6C13434B6481425F
:101ED00004D0086828430860002005E088680722CD
:101EE00002400020062A00D1B0BD0A682A430A60D9
:101EF000B0BDC04600040040002C0140F8B50446C7
:101F000000684449884277D14348417C002933D056
:101F100081894A1C828141890368857B002D07D015
:101F20008900595A92B28A4219D90021818114E05C
:101F30008D005B195B8892B29A4217D9491C418186
:101F4000027A89B2914205D300214181027C002AA4
:101F500000D1417400218181012181730CE0C07B9B
:101F6000002809D1012251032C4803E0012041033C
:101F70002A480022FEF78BFE0025294E502D3AD02C
:101F80007719398AF868FEF775FE7051796800286C
:101F900004D1012902D10021B96001E0002902D059
:101FA00078601435EAE7002810D00128F8D1F97AD2
:101FB000091F232907D8797A002904D1B97A002981
:101FC00001D1012139720021F972E9E7F97A491C3E
:101FD000F972C9B2C92904D30021F97201217972B9
:101FE000DEE71529DCD3797A0029D9D00021F972EE
:101FF0000121B972D4E720680A49884200D0F8BDAF
:1020000009480121017041780029F8D04178491E22
:102010004170F8BD004401400C0300200008004856
:102020002403002000480140F80200207047FEE72A
:10203000F8B50C46074601B20D48994204DA8021F2
:102040000122FEF724FEF8BD1D461646802100221F
:10205000FEF71DFEB54201DD002006E03814301AFF
:10206000A84201DAA0B200E0200C00F037F8F8BD79
:102070000014004870B5054602243122094E21465D
:10208000B047A81C29222146B047281D2B222146F3
:10209000B047A81D23222146B04718480421FFF766
:1020A000DBFE70BDD50800087CB5019100906D463F
:1020B00002243122084E28462146B047A81C292276
:1020C0002146B047281D2B222146B047A81D2322B8
:1020D0002146B0477CBDC0461109000880B57D216E
:1020E000C900091A054A126891634242424101201F
:1020F0004102C648FEF7CBFD80BDC046D403002098
:1021000000688169890701D5002181628169C90759
:1021100003D1816901220A438261704770B50E467E
:10212000044600688169C90601D4002070BD1546C7
:102130004168890110D40121890342680A43426041
:102140000AE0711C08D0FEF7A9FD411B2020B14216
:1021500012D8002E10D0206881698906F1D510218F
:10216000C1612021C1612046FFF7CAFF2068416894
:10217000064A0A4042600420E16C0143E1642020E9
:10218000606400202064A064012070BD00E800FEAF
:10219000FEB51D46029204462F480090DAB2002395
:1021A000204600F05BF8089E099F204631463A46DB
:1021B00000F0B2F8002801D00120FEBD012D0AD0A8
:1021C00020680299090A8162204631463A4600F0A9
:1021D000A3F80028F0D120680299C9B28162009763
:1021E000402100222046334600F04EF8411E88412F
:1021F000FEBDC046FEB51D4602920446164800903C
:10220000DAB201200306204600F028F8089E099F54
:10221000204631463A4600F07FF8002801D00120E0
:10222000FEBD012D0AD020680299090A816220466C
:1022300031463A4600F070F80028F0D12068029943
:10224000C9B281620097802100222046334600F007
:102250001BF8411E8841FEBD0020008070B5049C23
:10226000650D00684668AE43054D3540054E0E408D
:102270001E431104314321432943416070BDC046D0
:10228000009C00FCFF030000F8B51D4616460F46F3
:10229000044606980090206880693840C01B41427F
:1022A0004141B14213D1681CF5D0FEF7F7FC00990B
:1022B000401AA84201D8002DEDD1E06C202108433E
:1022C000E064616400202064A0640120F8BD002067
:1022D000F8BDF8B516460F460446206880698006AA
:1022E00017D4204639463246FFF718FF012500284B
:1022F00010D1FEF7D3FC801BB84201D8002FECD1DF
:10230000E06C20210843E064616400202064A06444
:1023100000E000252846F8BDF8B516460F460446ED
:1023200020688069800719D4204639463246FFF775
:10233000F5FE0125002812D1781CF1D0FEF7AEFC85
:10234000801BB84201D8002FEAD1E06C202108435D
:10235000E064616400202064A06400E00025284659
:10236000F8BD0000F0B585B0019000F02DFC012013
:1023700000F012FC00268020C4B2002C26D0049667
:102380004026012503908C4831462A46FEF77FFC03
:102390002846584DA8470A273846A847802186482E
:1023A000FEF768FC02900025834831462A46FEF776
:1023B0006EFC38464F4988470298C0B201280398FE
:1023C00000D02846049E06436008D5E7019800F037
:1023D00009FC01242046474FB8474025764F384630
:1023E00029462246FEF753FC0524204641498847EA
:1023F000002238462946FEF74AFC00F0E5FB20465D
:102400003C498847F0B205B0F0BDC0460004004822
:10241000B0B500F0D9FB00F0B1FB0024204600F07D
:10242000E1FB0A252846FEF749FA204600F0B4FBF6
:102430002846FEF743FAB0BD10B50024204600F050
:10244000D1FB204600F0A8FB00F098FB0A242046B0
:10245000FEF734FA00F0B8FB2046FEF72FFA10BD65
:10246000F8B500900024204600F0BCFB204600F0A8
:1024700093FB80221F4DD4B2002C1CD00098024048
:10248000501E824180214C48604B984701263046BF
:10249000A84740274848394632465C4B98470726AC
:1024A0003046A847002244483946584B98473046A2
:1024B000A8476208DFE700F087FB402701223E4D76
:1024C00028463946FEF7E3FB02200A4CA04780214C
:1024D0002846FEF7CFFB06460520A04700222846E7
:1024E0003946FEF7D4FB0A20A047F0B2411E48420D
:1024F0004841F8BDBD080008B0B50B0EC478E5181A
:10250000C5700B0C8478E418847003885B18038012
:10251000818889188180EAB23C2A0FD30022C270D8
:10252000641C8470E4B23C2C08D382705B1C038072
:102530009BB2182B02D30280491C8180B0BD80B5AC
:10254000012109060022FFF7D7FF80BD080C89B2E0
:10255000081A01A90988814209DB90B2062141438A
:10256000C818801E0088002801D001207047002074
:10257000704700004C210F48042242520121416063
:102580000022826080230382016002230387DC4BE8
:102590008162C16202634363818441618161C2617E
:1025A0000362C1630164426483640921C906C16096
:1025B0007047C0462403002000040048FEB5029086
:1025C0004508782635400920C40601220192CA4BED
:1025D00020462946984775400027204629463A4616
:1025E000C54B984702F000FC02980007450E2046B4
:1025F0002946019AC04B9847BF4B75402046294653
:102600003A46984702F0F0FBFEBDC0468F0C00082A
:1026100010B501200024214600F0E8F802202146F0
:1026200000F0E4F810BDB0B5144600F037F800250E
:10263000A54205D22020012100F0D8F86D1CF7E753
:10264000B0BD10B501460024204600F027F8102C3C
:1026500005D22020012100F0C9F8641CF7E710BD65
:10266000B0B50C464007800E40300025294600F0EA
:10267000BDF8082D05D0605D012100F0B7F86D1C94
:10268000F7E7B0BD80B50C20002100F0AFF880BDA9
:1026900080B50E20002100F0A9F880BD80B500298A
:1026A00000D0403080210143C8B2002100F09EF8E4
:1026B00080BD0000B0B50920C006022100242246DA
:1026C000FEF7E5FA0A20FEF7F7F93320084D214618
:1026D000A84732202146A84728202146A8470C2099
:1026E0002146A847FFF794FF06202146A847B0BD22
:1026F000ED270008FEB501930292009100271228F1
:102700003D463C4611D840B280001A490C581A493F
:102710000E581A490D5808E0305CC00018490918D5
:102720003819C0B2FFF79CFF7F1CF8B28542F3D87E
:102730000198002807D0012807D00228009807D167
:102740001020401B04E0002002E01020401B400845
:10275000C0B20299FFF7A2FF64190026F0B28542C9
:1027600007D9C0432018C0B2012100F03FF8761C01
:10277000F4E7FEBD985300084C53000800530008CE
:102780001001002010B5441C0078C0B2012100F0F7
:102790002DF8611C207800280C46F6D110BDB0B58C
:1027A00014460546022B05D0012B09D0002B0DD174
:1027B00000210BE02846FDF7C8FC1021091A05E0AE
:1027C0002846FDF7C2FC1021081A4108C9B2284664
:1027D000224600F001F8B0BD10B504460846114687
:1027E000FFF75CFF2046FFF7CDFF10BD10B5044694
:1027F000012903D0002907D1002200E0012209208D
:10280000C0060121FEF743FA2046FFF7D7FE10BDB0
:10281000F0B589B0002408940127F904344802680F
:102820000A43026002680A4003920399790402682D
:102830000A43026002680A4003920399B9040268DD
:102840000A43026002680A4003920399B9050268CC
:102850000A43026000680840039003987E032548FD
:10286000254D31462246A8470920C006019023493C
:102870002246A847E74823492246A8472248802104
:1028800002912246A847079406940597049604AE41
:102890001E4A1848314690470794069405971748F2
:1028A0000490019D28463146184A904706970594A2
:1028B0000298049028463146144DA847069705947F
:1028C00007200490D3483146A847079406940597FB
:1028D0000C480490CF483146A847079406940597C2
:1028E0000298049008483146A84709B0F0BDC04698
:1028F00014100240000800488F0C00087F090000F7
:1029000000040048D8F3000000140048DD0A000865
:1029100010B5134C01200021124A134B2360626052
:10292000A160E060204610301421FDF703FC204632
:10293000FEF7F8F9002801D0FEF722F80848002138
:10294000FEF7B2F9002801D0FEF71AF8044800217A
:10295000FEF7C9F9002801D0FEF712F810BDC046F5
:10296000800300207C1D10000054004010B50A4870
:1029700000214E4A094BFF24E03418C00160426038
:102980008160C16001610838FFF71AF8002801D0A2
:10299000FDF7F6FF10BDC0463C0400200044014096
:1029A00010B509480021094A094B0A4C04604360EC
:1029B0008160C260016141618161FFF701F8002817
:1029C00001D0FDF7DDFF10BDA4040020CF070000FB
:1029D000BF5D00000048014070B596B00025159518
:1029E0001495139512951195109509A81C21FDF7C2
:1029F000A1FB01A82021FDF79DFB2B482B492C4A68
:102A00002C4B036042608560C16005614561856152
:102A1000FEF7D6FF002801D0FDF7B2FF01263003F4
:102A20001290214812A9FFF74FF8002801D0FDF7B6
:102A3000A7FF1D48FFF7ECF9002801D0FDF7A0FF24
:102A400011951095184810A9FEF798FF002801D09D
:102A5000FDF796FF60200990FF20F4300A9009AC42
:102A6000204608301421FDF765FB0F48042221465B
:102A7000FFF772F9002801D0FDF782FF01AC1421A5
:102A80002046FDF757FB089570030690064821463F
:102A9000FEF74AFF002801D0FDF772FF0248FFF75A
:102AA00031F916B070BDC046D4030020E703000022
:102AB0007FBB0000002C01407CB5044680690028E3
:102AC00000D07CBD6069012815D00028F9D1A38809
:102AD0002268218AE06801AD009500F077FB287834
:102AE000012820D80125E903A4482A46FEF7CFF89B
:102AF0000020E06015E06389218AE068E28825898A
:102B000001AE00962D04AA1800F060FB0120C1035D
:102B100032789A48012A0BD800252A46FEF7B7F8E2
:102B2000E56065617CBD0120C1039448002200E09E
:102B30000122FEF7ACF87CBDB0B50446002020822F
:102B4000E0606061A0610625172220462946FDF756
:102B5000C1FEA01D1D222946FDF7BCFEB0BD000030
:102B600080B54161012905D80A460120C103834887
:102B7000FEF78DF880BDC046FEE77047FEB5002029
:102B80000590049003900290402001907B4801A999
:102B9000FDF7A4FF06B080BDB0B586B00246401E6A
:102BA0008241764C402520462946FEF770F80020E9
:102BB00004900390012102910195059001A92046FE
:102BC000FDF78CFF06B0B0BDFEB500200590049067
:102BD0000390029080200190684801A9FDF77EFFD4
:102BE00006B080BDB0B586B00246401E8241634C3F
:102BF000802520462946FEF74AF8002004900390DD
:102C0000012102910195059001A92046FDF766FF7B
:102C100006B0B0BD0004004810B503218843FDF79D
:102C2000C3FB0024054B2246FDF756FB044B22460E
:102C3000FDF7A0FAFDF7FEFB10BDC04600405F3F68
:102C4000000018C080B503218843FDF7ADFB054A9D
:102C5000054BFDF741FB054A054BFDF78BFAFDF7E8
:102C6000E9FB80BDD7A3703D0AF7653FCDCCCCCC46
:102C7000CC6C47C070B500231C468B4210D0C55C9D
:102C800065400824260608D06E006DB2002D01DADA
:102C900031256E403546641EF4E75B1C2C46ECE79C
:102CA000E0B2801A411E8841800070BDF0B585B049
:102CB00000910446FFF7ACFB8020FFF7D1FB0746ED
:102CC000002C03D0012C05D1E32000E0E520FFF724
:102CD000C7FB07430394FFF79BFB8120FFF7C0FB73
:102CE00004460520FDF7EAFD3C430194FFF746FF4B
:102CF0000027224CF8087C280AD80120FDF7DCFECA
:102D000040212046FDF7B6FFC0B27F1C0128F1D15B
:102D100040212046FDF7AEFF02900024184E2046C9
:102D2000B047074604AD28702046B04768703902A6
:102D30000F180120B04704460398012805D0002849
:102D400008D13846FFF768FF02E03846FFF77AFF00
:102D50000099086004A8022631462246FFF78AFF40
:102D600004460298000601D0019801E00198304322
:102D70000443FFF761FB204605B0F0BD00040048A6
:102D8000652300087047B0B5044600202070204637
:102D9000083002252D222946FDF79CFDA01D2F227B
:102DA0002946FDF797FDB0BDF8B5044601206F46F2
:102DB0003946FFF77BFF20700098FDF727FB0025C1
:102DC000114E2A463346FDF787FAFDF7FBFA2189B3
:102DD0000818A0804620FDF76FFE28463946FFF709
:102DE00065FF2178014321700098FDF70FFB2A460B
:102DF0003346FDF771FAFDF7E5FA2189081860807E
:102E00001920FDF759FEF8BD00002440BFB501AD03
:102E10002A81029101902846083002242D22214661
:102E2000FDF776FDA81D2F222146FDF771FDBFBDE0
:102E300080B5FEF7E7F980BD70B594B008AC201DF1
:102E40001821FDF777F90025079506950595049556
:102E500013950520C00412901195022610960120AA
:102E60000F9010210C910B900A2008900395029569
:102E7000019500952046FEF755FB002803D0EFF39F
:102E8000108072B6FEE70795069505960720049018
:102E900004A80121FEF790FA002803D0EFF3108078
:102EA00072B6FEE70395202000906846FEF708FA08
:102EB000002803D0EFF3108072B6FEE714B070BDA7
:102EC0007047000080B50248FEF777FE80BDC0461F
:102ED0003C04002080B50248FEF76FFE80BDC0466E
:102EE000A404002010B504688B4A904204D0194B0A
:102EF000984201D0234605E070239C434B6823434E
:102F000090420CD0134CA04209D0134CA04206D0E2
:102F1000824CA04203D0824CA0421C4604D1032420
:102F20002402A343CC681C4380239C434B69234366
:102F300003608B68C3620B688362904205D0774A56
:102F4000904202D0764A904201D109690163012181
:102F5000416110BD000400400020004010B51F2357
:102F60000B4001219940046A8C4304629A40016A33
:102F70001143016210BD0000F8B5026A01239A43B3
:102F80000262026A02239A438E68164344680A6802
:102F900000928369604FB84205D0604DA84202D0CC
:102FA0005F4DA84208D10C25AE43CD68042295435D
:102FB0003543B84201D106E03546584A904202D026
:102FC000574A904207D10322120294434E698A69FC
:102FD0002643164300E02646009C46607322934336
:102FE00023438361496841630562F8BDF0B5026A15
:102FF00010239A430262036A202293438A681201D3
:103000001A4345680C688369434EB04206D0434E6C
:10301000B0420AD0424EB04207D00FE0C026B243C1
:10302000CE6836014027BE4332430326B602B5437D
:103030004E698F69B6002E43BD0035434560732548
:103040002D02AB4324021C43846149688163026200
:10305000F0BDC046F0B501221302046A9C4304622D
:103060005202036A93438A6812021A4345680B6846
:10307000C469294EB04206D0284EB0420BD0284E2B
:10308000B04208D010E00326B602B243CE68360242
:103090000A4F37403A4303263603B5434E698F69DA
:1030A00036012E433D01354345607325AC431C4337
:1030B000C4614968C1630262F0BDC04600FBFFFF06
:1030C000F8B501221303046A9C430462036A44684E
:1030D0008D6800950E68C5690F4FB84205D00F4F37
:1030E000B84202D00E4FB84205D19703BC434F6996
:1030F000BF01274300E02746476073242402A5430D
:1031000034022C43C4614968016451038B43009924
:10311000090319430162F8BD002C01400048014039
:1031200000440140B0B5036A046A0125AC4304625F
:103130008469F025AC431201224382610A22934341
:103140000B430362B0BD10B5036A1024A3430362AE
:103150000F231B0384699C4312032243036A826189
:10316000A022934309011943016210BD80B50621D5
:103170000022FDF7AFFB80BDE0B56B469980009063
:1031800006211846FDF7C4FB8CBD0000002805D4BD
:103190000322034693430C4A9A1806E00F2202408A
:1031A000083A03239A43074BD2188007C00E8901BF
:1031B000C9B28140FF2383401068984308431060E0
:1031C0007047C0461CED00E000E400E0F8B59DB299
:1031D0008EB201240699AE4210D8FF23AE420ED320
:1031E000150E0095170C060E050C92B280B2904297
:1031F00004D804D3F8B2EAB2824202D923460B7053
:10320000F8BDFCD3009886422346F8D800230098E6
:103210008642F4D2DB43F2E7010407D0002164299F
:1032200002D200BF491CFAE7401EF5E770470000D4
:1032300000B5D3B0FDF7F0FFFFF7FEFDFFF7E8FAAA
:10324000FFF766FBFFF7C8FBFFF790FBFFF7A8FB54
:103250007A48FEF715FC7A48FEF712FC4B20C100B5
:1032600021915839774C0126774D20463246A847A0
:10327000310220461F913246A84710212046049172
:103280003246A8470821204627913246A8473103F5
:10329000204612913246A847B10320463246A8473D
:1032A000F10320463246A847684880213246A847A5
:1032B000FFF700FAFDF7CAFAFFF75CF9002730467E
:1032C0003946FDF7D1FA48A88780489760A039466B
:1032D0003A463346FFF763FA604C2068A16A01431F
:1032E0003FD15FA000250124294622462346FFF74F
:1032F00056FA5F4B284629462A461D4698474AA853
:10330000047006222146FDF703FB5A4B0FCBFDF755
:103310006FFA594CA18820681722A847E0882189B4
:103320000904081861894D4C1D22A847534903C957
:10333000FDF754FB524908884A88120410188A88FD
:10334000C98809048918FEF7AFFE4E4A10885188D3
:10335000090408189188D3881B0459181289FFF7AB
:1033600055FDFFF707F93046FFF76BF946A03946E0
:1033700032463346FFF713FA48A8FFF7F7FE44A892
:10338000FDF7EEF93DAD2846FFF7D6FB3AA8FFF76B
:10339000FAFC38A8FDF713FB36A8FEF76BFE3D4894
:1033A000FDF78AFBFFF734F938462C963146FDF7D6
:1033B0005BFA28460C301190E81C0D90A81C0C906C
:1033C000284609300B90A81D079008350E954BAE86
:1033D000103663200590C0432A9009200390C00650
:1033E00017902D4D28971E9720973296102FFDD8B5
:1033F000B80001A1085887466F3500080F3600084D
:103400008736000809370008A7380008F538000893
:10341000313900087D3900084B3A0008C1340008F2
:10342000C13400089D3400089D3400089D34000814
:103430009D3400089D3400089D3400083C040020A1
:10344000A4040020000400488F0C00080014004869
:1034500047686F67686E6F6F730000002403002079
:10346000536176652044656661756C742E2E2E005E
:103470007931000828020020D8020020C80200206C
:10348000D0020020740300204C6F6164696E672EC7
:103490002E2E0000B80B0000F8020020207AA17A3E
:1034A0000143090600D10FE300282ED0002020722E
:1034B0000E2F2ED11420687033980A303390E7E233
:1034C000207AA17A014301D100F004FE0020A0720D
:1034D0002072142068703198C0B2022801D100F027
:1034E000B5FD012830992E9B2F9A01D100F0D2FD15
:1034F000002801D000F0D3FD491C88B2632801D216
:1035000000F0CDFD059900F0CAFD0020A0720A2050
:1035100000E00120142169703399081800B233903B
:10352000102F00D9C5E20120B8401521C902084278
:103530000FD111210903084200D1A7E23398642872
:1035400000DB6420339001F011FCAA1C3046F749DF
:10355000ADE23398642800DB6420339001F006FC70
:10356000AA1CDF233046FC4901F050FCA1E2287878
:10357000002800D1D4E300242C7048AD2846FEF783
:10358000DEFFE87800281894F44F09D108993940F3
:1035900048A880880143489800220891FFF7ECFD75
:1035A0001D9E3E4048ACA0880643479B469A4599DD
:1035B0004498489D00951D960196FDF75DFA14907C
:1035C0001198FEF7BCFF1C9D3D40A0880543479B1A
:1035D000469A45994498489C00940195FEF7B6FF99
:1035E00000281C9501D100F07DFE08210022DC4856
:1035F000FDF74DFB43980028DA4C189E01D000F0EF
:103600007BFE3DA80121FFF7ABFA00F075FE207AA2
:10361000A17A01431BD029460025A57225721420EA
:1036200048700420012608223146FEF7FCFF2B9843
:10363000401CC1B20929294600D801462B91C8B2C5
:10364000294632463346FFF755F8329EC64D3020A4
:10365000225C3221635C134301D100F063FD2A46F2
:10366000002565542554142050700420012608229A
:103670003146FEF7D8FF2B99080601D100F048FD2E
:10368000491E00F046FD207AA17A014300D14BE3A8
:1036900029460025A5722572142048702B98C0B2C7
:1036A0000101B24A50585418231D0ECBA488309EF5
:1036B000B6B22E9FFFB23F04BE192F9F3F06F619E8
:1036C0000096A64F239E3E402396269F7F1CBEB2A7
:1036D000A64200D32F46BEB2239C344323940194C8
:1036E000FEF734FF0028A24900D0A24932983246A2
:1036F000064601F08BFB0122022330462946FFF7E4
:103700004EF8984C984D10E3207A002822D01420CF
:103710006870002525722D9A521C10B2219988429A
:1037200000DB219A2D9216B20A2730463946FCF763
:10373000BDFE0246DF2000905743F31B329E304609
:103740008D4901F063FB0122304629461346FFF7FD
:1037500026F8854DA07A002822D014206870002514
:10376000A5722D9A0A3210B22199884200DB219A63
:103770002D9216B20A2730463946FCF797FE0246CC
:10378000DF2000905743F31B329E30467A4901F008
:103790003DFB0122304629461346FFF700F8724DE3
:1037A0003020215C002922D02946002525541420F0
:1037B00048702D9908B2652800DC6521491E2D91BD
:1037C0000EB20A2730463946FCF770FE0246DF206B
:1037D00000905743F31B329E3046674901F016FBB9
:1037E0000122304629461346FEF7D9FF5E4D3220AE
:1037F000215C002922D02946002525541420487038
:103800002D9908B26E2800DC6E210A392D910EB276
:103810000A2730463946FCF749FE0246DF20009071
:103820005743F31B329E3046534901F0EFFA012211
:10383000304629461346FEF7B2FF4B4D207F002845
:1038400000D1E6E214206870002525772298C0B2E6
:10385000062141434548C068465EFEF7D9FE0D206B
:10386000012729462A463B46FEF744FFF6483946DB
:103870003A46FEF7B1FF0A2430462146FCF716FE11
:1038800002464443331B374C3298F24901F0BEFAEA
:1038900032982946344D3A463B46FEF780FFB0B297
:1038A0002990329ECFE3207A002800D1B4E2142080
:1038B000687000252572E848401C299F7F1C39B29A
:1038C000814200DB07463CB20A2620463146FCF71F
:1038D000EDFD02464643A31B329C2046DD4901F024
:1038E00095FA0122204629461346FEF758FF1D4C43
:1038F0001D4D92E2207A002800D1DAE2142068708F
:1039000000252572249F7F1C38B2D349884200DBF2
:10391000D14F3AB23046D14901F078FA012230460F
:1039200029461346FEF73BFF0F4DC3E23054000813
:10393000207AA17A014300D126E30021A1722172ED
:10394000142068702598C4B2482C01D100F028FCDE
:10395000122000F026FCC046615400080000FFFF62
:103960000004004824030020F80200202802002060
:1039700002540008C954000848540008207AA17A6B
:103980000143319E18D0F1B234A8425C521C53B2AC
:10399000392B00DD302242540021A1722172142201
:1039A0006A7001252A462B46FEF7F9FEB01DC0B20B
:1039B0002946AB4DFEF772FE3020225C3221635C5B
:1039C00013431BD000226254225414206870F1B2B9
:1039D00034A8405C302802D134AA3A205054421E08
:1039E00034A84254002101252A462B46FEF7D7FE73
:1039F000B01DC0B22946FEF751FE994D207F072722
:103A0000002801D101F0BAF8142068703146002670
:103A100026774C1CE0B2042800D2CBE3FEF732FE3E
:103A200034A805228F49FCF797FB002801D100F04C
:103A3000EDFD01228CA031461346FEF7B0FE7D203D
:103A40000001FDF739F86E70B9E33020225C217A6D
:103A50000A43120600D199E214226A70002901D1AA
:103A600000F070FC002020723198461CF0B208284B
:103A700001D800F06EFCFEF7CBFD00F083FC009057
:103A800032987B4901F0C2F900F0E4FF0E2F10D10B
:103A9000339A11B27048401C814200DB02463392D7
:103AA00010B20A21FCF702FD02B23046714901F062
:103AB000ADF90021012530462A462B46FEF76FFE60
:103AC00008202946FEF7EAFD3020225C3221635CA3
:103AD00013431B060CD0002A614D0BD0002121544A
:103AE0000E2F0CD11420687033980A38339039E0C7
:103AF0005B4D53E0002060542A985A3001E02A9828
:103B00006330142169703399081800B23390102F74
:103B100038D80120B8401521C902084210D111211E
:103B2000090308421CD02A9833998142084600DCD8
:103B30002A98339001F01AF9AA1C30464E491FE02A
:103B40002A9833998142084600DC2A98339001F084
:103B50000DF9AA1CDF233046484901F057F911E05E
:103B60000E2F0FD1339908B20028084600DC002040
:103B7000339080B20A21FCF779FC024630463D4979
:103B800001F044F90021012530462A462B46FEF774
:103B900006FE08202946324DFEF780FD207F0028D2
:103BA00042D0002068702077FEF76CFD38460B3855
:103BB000052839D8784400794000874402060E145D
:103BC0001C2838A83399018002E038A83399418035
:103BD00039993898FCF702FF26E036A833994180DE
:103BE0003799369804E036A833998180369837990A
:103BF000FEF75AFA18E03AA8339901812048169A3C
:103C0000024088B202433A983B9916920AE03AA8D9
:103C10003399C1801A49159A0A40008902433A989B
:103C20003B991592FFF7F2F86878002801D0FFF76A
:103C3000DDFBFEF727FD0B3F052F01D900F0DBFC74
:103C400002A1CF5D7F00BF44455400081D2A3643C2
:103C5000505DC04619540008E7030000B75400083F
:103C6000F80200204054000857726F6E6700000091
:103C7000A85400081054000830540008615400088B
:103C80000000FFFF38A8008800B201F06FF8AA1CFE
:103C9000DF233046F24901F0B9F802203DE002206E
:103CA00038A9085E01F062F8AA1C3046ED4901F01F
:103CB000ADF8032031E0022036A9085E01F056F885
:103CC000AA1CDF233046E64901F0A0F8042024E0D6
:103CD000042036A9085E0A21FCF7E8FB02B2304650
:103CE000E14901F093F8052017E03AA82799405ED2
:103CF00001F03CF8AA1CDF233046D94901F086F8D0
:103D000006200AE006203AA9085E01F02FF8AA1C56
:103D10003046D44901F07AF80720319000F06BFC6E
:103D20002C9D209F00F001FD269F3020225C322137
:103D3000635C13433AD0002262542254142068700A
:103D40002B98C0B2390403D10101C84A51188F8899
:103D50000101C64A505853181B1D0ECB3C461A9FF2
:103D6000C34D2F40641E2694A5B22F43309CA4B2AD
:103D70002E9EF6B2360434192F9E3606A4190094EE
:103D80001A970197FEF7E2FB0028BA4900D0BA491A
:103D9000329E30462A4601F039F8002101220223E2
:103DA0003046FEF7FCFCB54CB54D269F207F002821
:103DB00026972AD000266E702677FEF729FC01256B
:103DC000B048314632462B46FEF7E9FC48ACA780A6
:103DD00048961999A6480140B8B201433046199156
:103DE0003246329EFFF7C8F92046FFF7BFF92B98FD
:103DF000C0B2449044AC062220462946A04DFCF7B0
:103E000087FD20469D4CFCF7ABFC6878022700F04C
:103E1000B7FE032700F0B3FE299FA07A002820D028
:103E2000142068700025A5729748401C0A3739B2E3
:103E3000814200DB07463CB20A2620463146FCF7A9
:103E400035FB02464643A31B329C20468F4900F0B7
:103E5000DDFF0122204629461346FEF7A0FC874CD1
:103E6000874D3020215C002900D192E029460025B1
:103E700025541420487038B20126012800DC37464A
:103E80007F1E29973CB20A2720463946FCF70EFBD5
:103E900002464743E31B329C20467C4900F0B6FFB4
:103EA0002046294632463346FEF779FC734C744D62
:103EB00070E0249FA07A002815D014206870002597
:103EC000A5720A3738B27049884200DB6E4F3AB2A9
:103ED00030466F4900F09AFF0122304629461346CA
:103EE000FEF75DFC664D3020215C002915D0294687
:103EF000002525541420487038B2022800DC02271F
:103F00007F1E3AB23046624900F080FF01223046FF
:103F100029461346FEF743FC594D3220215C002907
:103F200015D02946002525541420487038B20B2896
:103F300000DC0B270A3F3AB23046554900F066FFD5
:103F40000122304629461346FEF729FC4C4D207FBE
:103F50000028249774D01420687000252577FEF778
:103F600057FB1020012629462A463346FEF7C2FB9E
:103F7000FD4831463246FEF72FFC2298C4B2002C91
:103F800000D120E112201FE1394F38E1319E00F0CD
:103F900067FD29973220215C002921D02946002580
:103FA000255414204870299F38B20A260A2800DCBC
:103FB00037460A3F3CB220463146FCF777FA0246C4
:103FC0004643A31B329E3046304900F01FFF0122BA
:103FD000304629461346FEF7E2FB284C284D01E007
:103FE000329E299F207F002829972CD014206870AA
:103FF000002525772298C0B2062141431B48C0689E
:1040000040180421465EFEF703FB0F2001272946D6
:104010002A463B46FEF76EFBD94839463A46FEF73C
:10402000DBFB32981A49324600F0F0FE32982946FE
:10403000134D3A463B46FEF7B2FBB0B22490329E97
:10404000052700F09CFD042700F099FD2F9A521CD3
:10405000D0B23B2830992E9B21D33B221FE0C04693
:104060006154000830540008105400082802002051
:104070000000FFFF02540008C95400082403002078
:10408000F802002036540008E70300001954000825
:10409000B75400085B1CD8B23B2800D33B232F92B7
:1040A000D0B2009030918AB22E93DBB23046DB4919
:1040B00000F0ACFE0021012530462A462B46FEF7D3
:1040C0006EFB032031994843401DC0B22946FEF7DC
:1040D000E5FAD34D3020225C3221635C134300D1DA
:1040E0002DE2002262542254142068703198C0B22C
:1040F000022872D0012830992F9A76D000282E9B62
:1041000000D001E288B2002800D0F7E10146FBE1CF
:1041100009212B91C8B2294632463346FEF7EAFA06
:10412000329EBF4D207F002837D0204614246C706B
:104130002F4600250577FEF76BFA2B99080600D16C
:104140003AE10126B7A00C4631462A46FEF744FB69
:104150000F20032331463246FEF7CCFAE0B20101CC
:10416000B34A505853181B1D0ECB139CB14E34400C
:10417000009513940194FEF7E9F90028AE4900D0A8
:10418000AE49329806462A4600F040FE02232695A4
:104190002E952F951F46309538E1012700F0EFFC52
:1041A000112001221346FEF7A5FA482CA14F23D077
:1041B000482022E0C81DC0B20121FEF76FFA3194F9
:1041C0009F4C00F0DBFC1120294632463346FEF7B7
:1041D00091FA002C25D0482024E02F9AD0B2002854
:1041E000309900D08CE102468BE12E9BD8B200289A
:1041F00000D088E1034687E153202590904C302081
:10420000215C3222A35C0B431FD00021A154215416
:104210001420687068702598C4B2482C09D0122008
:1042200008E053202590864C329E7D4D062700F0F5
:10423000A6FC112001221346FEF75CFA482C01D09F
:10424000482000E0532025907D4C207F002845D059
:104250002846002545702577FEF7DAF901237948CD
:1042600029462A46FEF79BFA48ACA58048951B993B
:10427000394028461B912A46FEF77EFF2046FEF76E
:1042800075FF44A82499818044952598C0B253288D
:1042900009D144A8C580479881802D9941802999EA
:1042A00001800A3008E044A8C180479841812D99D7
:1042B00001812999C180001D058044AD012106229C
:1042C0002846FCF725FB479B469A45994498FCF7FE
:1042D0008FFA2846FCF744FA594C514D6878062766
:1042E00000F04EFC082101225748FCF7D0FC3DA805
:1042F000FEF7E2FB524C189E3AAD2846FEF754FDFD
:104300002878002800D1B1E0FEF782F901274F4854
:10431000314632463B46FEF742FA02203946FCF768
:10432000A3FA1E98421CD0B24949C978884200D8E5
:10433000164688423D4600D82C9D032028901E96A4
:10434000329EF2E1002121543199080600D184E126
:104350004E1EFEF75DF9F0B2082800D97AE303A1FA
:104360004000085A40008744455400080D001A00D8
:10437000060319032B033E03510364037A01C0466D
:104380004554000800260123324831463246FEF7E4
:1043900006FA3DA883780288C078FFF770FB0021F9
:1043A00001262DA00A463346FEF7F9F93DA8037A07
:1043B000C288407AFFF763FB7C701D48C068818823
:1043C0004A424A4106212292514340180221455E49
:1043D0000C20002101240A462346FEF78BF92148D0
:1043E00021462246FEF7F8F90A2728463946FCF707
:1043F0005DF80246DF2000905743EB1B30461A4918
:1044000000F004FD2346A8B22D9003270C4C044D68
:10441000002101223046FEF7C2F9B0E3A85400089B
:10442000F80200204461792053656C6563740000D4
:10443000280200200000FFFF02540008C9540008B1
:104440002403002036540008000400488654000865
:1044500058000020C05400084D6F746F72204F66E2
:1044600066000000455400084854000804263AAD90
:10447000A85F189006270697149847434798C119D4
:104480000224095F0A91C15F2A5F399B3898009125
:10449000019219460A9A189BFCF776FA0996AB5FC7
:1044A0004798C019025F37993698FDF7C1FD0A9405
:1044B000285F2C464799C95F01258842189500DA84
:1044C000002517981F9E31462A46FCF7E0FBB448AA
:1044D00031462A46FCF7DBFB0998215E4798C21952
:1044E0000A9FD25F38AB1B881BB2D41A8C4200DC07
:1044F000ABE0FA4C209D329E1898D2E0491E03E0B2
:10450000521E2E9B00E05B1E2F92D0B20090309185
:104510008AB22E93DBB23046F14900F077FC0021DD
:10452000012530462A462B46FEF739F903203199FA
:104530004843401DC0B22946FEF7B0F8E94D207F40
:1045400000283BD01420687000202077319A521C3C
:10455000D1B20329319217D36870309880B22E9966
:10456000C9B2090408182F9909064018092F13D158
:104570003DA9269B8B803D90DB49109A0A4099B259
:1045800011431722109115E003205043401DC0B283
:104590000121FEF783F811E0079A10803DA9269BC0
:1045A0004B81010C5180D0490F9A0A4099B21143B6
:1045B0001D220F91FEF7E0FDFEF764F868780028F1
:1045C00001D0FEF713FFFEF75DF8092F06D13DA8D5
:1045D0000288002031900C980D9905E03DA8C28812
:1045E000012031900E980B9903780878009030469E
:1045F000BB4900F00BFC0021012230461346FEF7B8
:10460000CEF814206870279FFEF7F0FEFEF700F842
:104610000125B648314632462B46FEF7C0F83DA884
:1046200083780288C0780090329C2046AC4900F024
:10463000EDFB204631462A462B46AA4DFEF7AFF841
:10464000082731962646A54C99E29A188A42A34C2F
:10465000209D329E13DA032023E0FDF7D9FF0021CD
:104660000125A3A00A462B46FEF799F828469D4D42
:10467000FDF7E7FF4BA8202101820826EAE138A9CF
:10468000C95F149A069B5343C35E1491581A3AAA01
:10469000D25F9042189804DC1498C0189042DADB7C
:1046A000002001211891FCF7DFF81E98411C002D15
:1046B00006D0F5480078CAB282420FD81E911BE09E
:1046C0002898C0B2F04A125CCBB2002793421E97E2
:1046D00000D81E91934204D82C9D03E000201E9028
:1046E0000AE00125022800D16AE2012800D19CE2FB
:1046F0001895002800D09FE200270125E34839469D
:104700003A462B46FEF74BF844A8007839462A462D
:1047100028952B46FDF7EEFF1898000603D0FDF70D
:1047200077FF002700E028973D4620972068012862
:1047300026D000285BD14398002813D12F460125AD
:1047400043953DA800263146FEF70AFAFDF760FFC3
:104750000B2031463246329E2B463D46FDF7CAFFBE
:10476000032028903AA8007800281BD03046C8497A
:104770001CC91CC0594C0A8802808978817031E0BC
:10478000439801282F4633D1002543953DA80127A2
:104790003946FEF7E5F928954095FDF739FF27E002
:1047A0000004004804203AA9085E2C9002201895C5
:1047B0000D5E0A2628463146FBF778FE07462C9800
:1047C0003146FBF773FE024630467843281A189D9F
:1047D0000097019056432C98831B329E3046AD497A
:1047E00000F014FB012130460A46FDF7F5FF2F4685
:1047F0004420215C002905D000212154364812991B
:10480000FCF73DFA4520215C002912D000252554F3
:104810002846FDF716FFA04AD07B41424141D173A3
:1048200000289E4800D09E48012329462A46FDF7CD
:10483000B6FF2C973121605C002700285CD0607A9D
:104840000028284D59D03220319000262654665435
:104850006672A6721420687030461891FDF73EFC0F
:1048600038A801252946FCF7C9F843953DA82946F3
:10487000FEF776F917981F992A468A4B9847164FE4
:1048800038461F992A46874B9847082138462A46BA
:10489000844B9847FDF7BCFE8348314632462B4691
:1048A000FDF77DFF34A806718049349131462A46D0
:1048B0002B46FDF774FFFDF7EBFE06202946094D58
:1048C000FDF7ECFE319826541898265466773196F9
:1048D000A677329E072710E000040048240300203A
:1048E000A8540008F80200200000FFFFC054000890
:1048F0004558495400000000F74D207F002801D1A1
:10490000FEF774FD1420687000252577FDF780FE02
:104910000127F04839462A46FDF75EFFF34839463D
:104920003A46FDF759FF44982B90C0B229463A46C3
:104930003B46FDF7DFFE2846FDF7D0FB38A8394699
:10494000FCF75CF843973DA83946FEF709F917983C
:104950001F9E31463A46E24DA847E04C204631467C
:10496000329E3A46A84708212046DE4C3A46A847E0
:10497000DD4DFEF73BFD00210123F3A00A46FDF7C4
:104980000EFF38A8008800B200F0F0F9AA1CDF235F
:104990003298D94900F03AFA02265BE0002101235F
:1049A000E6A00A46FDF7FBFE022038A9085E00F0EB
:1049B000DDF9AA1C3298CF4900F028FA032649E015
:1049C00000210123D9A00A46FDF7E9FE022036A9FD
:1049D000085E00F0CBF9AA1CDF233298C64900F02C
:1049E00015FA042636E000210123CCA00A46FDF783
:1049F000D6FE042036A9085E0A21FBF757FD02B255
:104A00003298BB4900F002FA052623E00021012379
:104A1000BEA00A46FDF7C3FE08203AA9085E00F0D2
:104A2000A5F9AA1CDF233298B34900F0EFF9062656
:104A300010E000210123B1A00A46FDF7B0FE0620D8
:104A40003AA9085E00F092F9AA1C3298A94900F030
:104A5000DDF907260021012232981346FDF79FFE5B
:104A6000207F0827002834D0002031902077F0B232
:104A700008282ED87844007940008744192C434FE9
:104A80005B67738F9C00C04658000020BB54000831
:104A9000E4540008935400080C03002071540008EB
:104AA0007C5400088F0C0008685400083030303007
:104AB0003DA8808826903D9EFDF7EAFD0520012156
:104AC000FDF7ECFD300E2F903096300C2E90039FAA
:104AD00054E0319652E03DA840892690079804881A
:104AE0004588FDF7D5FD05200121FDF7D7FD2804F8
:104AF0007D4D00197B4C010E2F913090000C2E90B3
:104B00000A273BE038A800883390FDF7C1FD082054
:104B10000121FDF7C3FD0B2702202EE038A84088B5
:104B20003390FDF7B5FD08200121FDF7B7FD0C27F7
:104B3000032022E036A840883390FDF7A9FD082025
:104B40000121FDF7ABFD0D27042016E036A8808873
:104B50003390FDF79DFD08200121FDF79FFD0E27F5
:104B600005200AE03AA800893390FDF791FD08205E
:104B70000121FDF793FD0F2706203190329E6878C2
:104B8000002801D0FEF732FCFDF742FD01202C90F9
:104B90002870002743972897FEF728FC3AA8C0887A
:104BA0003390FDF775FD08200121FDF777FD072003
:104BB0003190049FE2E73198687008273197DDE76C
:104BC0000E2002212891002703243A462346FDF7B0
:104BD00091FD48A82C90837802884BAE30465E4900
:104BE00000F014F90721209130463A462346FDF79C
:104BF000D6FD0F201895012528992A462346FDF752
:104C000079FD2C988288304654A100F0FFF8304698
:104C100020992A462346FDF7C2FD1898000655D074
:104C2000FDF7F6FC0027289750E03AA80078002806
:104C300004D00120289078E5189D76E53AAC1895C7
:104C40000998255E37460A2628463146FBF72EFC92
:104C50000246DF200090304650432B1A4BA82C9080
:104C6000404900F0D3F80A98255E28463146FBF704
:104C70001DFC02464643AB1B38463B4900F0C6F8D4
:104C80000C200027032631463A463346FDF732FD15
:104C900007252C9829463A463346FDF780FD0D201E
:104CA0000124214622463346FDF724FD3298294649
:104CB00022463346FDF773FD1898000605D0FDF730
:104CC000A7FC00270A98289000E028943D46054C50
:104CD000FFF736FBD7540008F80200200004004814
:104CE0008F0C000824030020F8020020455400081F
:104CF00010540008305400086154000843616C6986
:104D000062205348542048554D00000043616C69AF
:104D100062205348542054656D70000041646A203D
:104D2000486561742050574D0000000041646A20BE
:104D3000486561742054656D7000000041646A200C
:104D400046616E2048554D0041646A2046616E20E0
:104D500054656D7000000000F45300083D202533B9
:104D6000640000005454000824540008B0B5044600
:104D7000012809DB0A212046FBF798FB02460B4677
:104D80000F48801C15A116E0002C0FD00A212046E8
:104D9000FBF78CFB0D460920C1432046FBF786FB41
:104DA00002466B420648801C06A104E00448801CB1
:104DB00007A10022134600F029F80148801CB0BD6D
:104DC000F80200202D2532642E25316400000000F9
:104DD000202532642E253164000000002B2532642A
:104DE0002E25316400000000B0B50920C40604255A
:104DF000012220462946FBF74AFFC820FEF70CFA9D
:104E0000002220462946FBF742FFB0BD0FB410B583
:104E100004A9074B02AA039800F032F8044602A93D
:104E2000002000F067FA204610BC08BC04B0184708
:104E3000F55200082021020C01D010211046020A70
:104E400001D010460839020901D01046091F820816
:104E500001D01046891E420801D0881E7047081AEA
:104E6000704702E008C8121F08C1002AFAD1704733
:104E70007047002001E001C1121F002AFBD17047DA
:104E8000FFB591B00F460546002606E025280AD05A
:104E9000149A139990476D1C761C28780028F5D138
:104EA000304615B0F0BD002400940121F34A02946D
:104EB00000E004436D1C2B780846203B98401042CC
:104EC000F7D128782A280ED0022128780246303AD5
:104ED000092A15D8009A0A235A43303A80180C43FD
:104EE0006D1C0090F1E701CF0090002805DA012049
:104EF00040030443009840420090022004436D1C8C
:104F000028782E2815D10420044368786D1C2A289F
:104F10000AD101CF6D1C02900BE002990A22514385
:104F2000303940186D1C0290287801463039092923
:104F3000F3D928786C2810D006DC4C281AD06828C1
:104F40000ED06A2817D104E0742813D07A2812D121
:104F500010E00120400504430CE00121090501E0B7
:104F6000032109050C436978814203D10120000522
:104F700024186D1C6D1C287803906E281ED00CDC44
:104F8000632831D004DC00288AD0582811D1B2E03F
:104F900064287BD069280CD178E073282DD004DCFC
:104FA0006F2870D0702804D1A7E075286CD07828BD
:104FB0006BD0149A13999047761C62E06002400F00
:104FC000022807D003280AD0042838680AD00660CF
:104FD0003F1D56E03868F11706604160F8E7386811
:104FE0000680F5E70670F3E7387869460874002014
:104FF000487404A80390012003E03868039000205F
:10500000C0433F1D61070FD5002101E00199491CF4
:10501000029A0191914213DA8142F7DB019A0399D6
:10502000895C0029F2D10BE0002101E00199491CC3
:1050300001918142FADB019A0399895C0029F5D13B
:1050400001990098139A401A00902146149B00F091
:105050003BF901998019461807E0039803990078F5
:10506000491C0391149A139990470198401E01908E
:10507000401CF2D12146149B139A009800F014F9B9
:1050800086196D1C09E741E033E034E00A20002175
:10509000049005916002410F022905D001CFC2178B
:1050A0009446032905D007E0FF1DFF08FF0003CF4A
:1050B00006E000B2C2179446042902D140B2C117DB
:1050C0008C4600226146944506DA0A460021404299
:1050D00091418C462D2102E0210504D52B216A4601
:1050E0001176012103E0E10701D02021F7E70191CA
:1050F00054E00A200BE0102009E010200490002169
:105100000420044308200591029003E008200021B8
:10511000059104906002410F022905D001CF0022C1
:105120009446032906D006E0FF1DFF08FF0003CFC9
:105130008C4603E080B2042900D1C0B20021019165
:1051400021072BD50399702906D0049A1021059BBD
:105150004A401A4305D00EE040216A4611760121EB
:1051600008E06146014306D030216A461176039972
:10517000517602210191049A0821059B4A401A4365
:105180000CD16146014301D1610707D530216A4640
:105190001176012101910299491E02910399582922
:1051A00004D037A103910FA90F910DE039A1F9E7C0
:1051B0006146059B049AFBF7A1F9039B8C469B5C17
:1051C0000F9A521E0F92137061460143F0D10F984F
:1051D00007A9081A20300390600704D501200004B5
:1051E0008443029801E0012002900399884201DD86
:1051F000401A00E000204118029001980918009818
:10520000401A0090E00306D42146149B139A00989C
:1052100000F05AF886190020049008E006A9085CFE
:10522000149A139990470498401C761C0490019995
:105230008842F3DBE0030CD52146149B139A0098B7
:1052400000F042F8861904E0149A30201399904730
:10525000761C0299481E02900029F5DC08E00F98A0
:105260000F990078491C0F91149A13999047761C56
:105270000399481E03900029F1DCFBE60928010090
:1052800030313233343536373839616263646566BC
:10529000000000003031323334353637383941427E
:1052A0004344454600000000F8B5044600251E466C
:1052B0001746880404D405E039462020B0476D1C09
:1052C000641EF9D52846F8BDFFB50446002581B017
:1052D0001E46C80301D5302700E02027880404D5E6
:1052E00005E038460399B0476D1C641EF9D5284681
:1052F00005B0F0BD0A68531C0B60107070470000C9
:105300000400000003000000080000000700000087
:105310000700000006000000030000000400000079
:10532000030000000600000004000000040000006C
:10533000030000000500000004000000030000005E
:105340000400000003000000030000005E000020D5
:10535000C6000020B2000020340000202000002001
:105360006600002097000020D60000207800002072
:10537000FE00002008010020540000205B000020F7
:10538000E90000200C010020E6000020620000205F
:10539000EE0000209400002000000000000000004B
:1053A00000000000000000000000000000000000FD
:1053B00000000000000000000000000000000000ED
:1053C00000000000000000000000000003000000DA
:1053D00000000000040000000000000004000000C5
:1053E00004000000000000000000000001020304AF
:1053F000060708093D20253032643A253032642002
:1054000020003D253033642053657474657220009C
:105410002533642E30202525002532642E25316465
:10542000202525003D2533642E25316420252500C7
:10543000257320252500536176696E672E2E2E0078
:1054400030303030003D3E002532642E253164205E
:10545000256343003D2533642E25316420256343B5
:10546000002573202563430050415353574F524446
:105470000042555A5A4552204F46460042555A5A04
:105480004552204F4E0053454E534F5220455252E5
:105490004F5200543D2532642E2531642020483D72
:1054A0002532642E25316400253032643A253032AD
:1054B000643A253032640025336400426972640026
:1054C0004D6F746F72204F6E003D2530336420485D
:1054D00061746368657200426972642053656C652B
:1054E00063740000543D2D2D2D2D2020483D2D2D81
:1054F0002D2D00001855000800000020F8020000C3
:105500000807000800570008F802002018060000ED
:10551000724E000800000000211264120A1AC8042A
:10552000123212051A0304120A1A140C3204320140
:105530001008070A0D010E0F0C16260279010E162F
:10554000BC027401032F0708090A0B0814147C011C
:10555000071A081A12075E580277010B2028190E45
:10556000101C1D0309060D0B040D1817190D200141
:1055700021091009040811445A16241C1504163474
:1055800029401C44027A063A6C403AEE1C2F220E47
:10559000101213142E5A152E3A580C290629972F3B
:1055A000020304050601205A1720191439A25A12C1
:1055B000102D06010D142E5A1910100C0120160181
:1055C0001E08071F18171012FA146B01271C2C0154
:1055D0006E181A0310193B13127A30091A1B0B109C
:1055E000160B040C541F05071702020204180210C0
:1055F0000903040B080807040A3415151F1A0401CF
:10560000192012044E0611090F10105A04301A1EE8
:105610001721160E0A0F041812052B07053019461C
:105620002A020841295A1204451111110E2D0C02AB
:10563000010270140E011F291129282910211A03B3
:10564000402C010101281D01020402204960121FA3
:105650002A04101A111029983A046049A8216A18DE
:105660006849A841680B13120C1010161010110F86
:10567000A01A0CB83A09501302052D1517141CCEA8
:1056800039A811120A43111E3C0E0A0E50111C04B7
:105690000609383D040A0D09181959396F2122A647
:1056A0003B2001103A03101ACA1029085A1C101A7C
:1056B000BA105A031032041A3C1029085A11201A41
:1056C000281032055A1A101A6C1032065A18101A7D
:1056D0009A109A07501ADA109A08501A7C10320958
:1056E0005A2A203AF25012322994148101052CBC16
:1056F00002E87F5214196D01140000000000000040
:04000005080000B13E
:00000001FF
