:020000040800F2
:10000000F0080020C5000008492B0008EF1F000879
:1000100000000000000000000000000000000000E0
:100020000000000000000000000000005D2D00083E
:1000300000000000000000004B2B0008092E000803
:10004000D700000800000000D7000008D700000813
:10005000D7000008D7000008D7000008D700000824
:1000600000000000D7000008D7000008D7000008F3
:10007000D7000008D7000008D700000800000000E3
:10008000D70000080000000000000000D7000008B2
:10009000000000009D2E0008AD2E0008D7000008CB
:1000A00000000000D700000800000000D700000892
:1000B0000348854600F0F2FA004800471532000870
:1000C000F00800200448804704480047FEE7FEE7A8
:1000D000FEE7FEE7FEE7FEE7992E0008B100000804
:1000E00030B50B46014600202022012409E00D46D0
:1000F000D5409D4205D31D469540491B2546954058
:1001000040191546521E002DF1DC30BD70B500249B
:100110002546002801DA01244042002901DA0125A0
:100120004942FFF7DDFFAC4200D04042002C00D036
:10013000494270BD10B5202A04DB0846203AD04061
:10014000002110BD0B46D340D0402024A21A91407C
:100150000843194610BD03460B439B0703D009E033
:1001600008C9121F08C0042AFAD203E00B780370F2
:10017000401C491C521EF9D27047D2B201E00270F5
:10018000401C491EFBD270470022F6E710B513460B
:100190000A4604461946FFF7F0FF204610BD421CF0
:1001A0000178401C0029FBD1801A704730B5044605
:1001B0000020034600E05B1C934203D2E05CCD5C70
:1001C000401BF8D030BD0000F0B507460846584047
:1001D00087B0C00F049048000E46590040084908F7
:1001E000BC1A884105D2384631461E4617460B4692
:1001F00002465800400810434CD0300D0390400593
:100200005900400D490D0590401A0290402872DABD
:1002100018030121000B090508430190049800927E
:10022000002805D001995242002088410092019097
:10023000029840210A1A0199009800F06BF90546CE
:100240000C466B4607CB00F075F9C0197141039A53
:100250000E0D0023D71756401A467A40164344D055
:10026000049A002A2DD0029A012A039A15DC12055D
:10027000C01A914101263605001C7141D20F059E1E
:10028000D2070093019202962A46234600F0B3F962
:1002900007B0F0BD38463146FAE71605224A0F4648
:1002A000B218C01AB74101210905001C4F410018BE
:1002B0007F41114618187941E20F10436D196441CE
:1002C00013E0E2076D0815436408C2071443039A5C
:1002D00001261205C01A91413605001C7141CE0756
:1002E000400830434908C01851412A46234600F0CF
:1002F00075F9CDE7FFE7049801224000C117121AF3
:1003000000238B4104983146C417381AA141EEE707
:1003100030B40124E407634030BC55E730B4012415
:10032000E407614030BC4FE70000E0FFF0B51FB4C8
:1003300088B00B990998002448400999C00F4900DA
:1003400049080991C0070B990090490049080B9191
:1003500009990898A64608431CD00B990A980843A7
:1003600018D0099801244000420D4800410D099819
:1003700024050003000B204309900B980003000B99
:1003800020430B9050181C4940180022019014463D
:10039000104605E0002001460DB0F0BD032801DA4B
:1003A000034600E003239C46C11A0AAE0AE05F0040
:1003B00008ADED5B4F00F75B7D430027AA187C4139
:1003C000491C5B1E6145F2DD410004AB5A52210419
:1003D000120C0A43240C401C0828DFDB0198029011
:1003E0000099704601910090059B049A0799069820
:1003F00000F001F9D0E700000DFCFFFF10B500226E
:100400009623114600F0B1F810BD000070B5CD0F75
:100410004A0009030123090B1B0519430B4BED0788
:100420000024520D9A4201DA002070BD074B34338C
:100430009A4203DC9A1AFFF77DFE02E00449511844
:1004400088402C43F1D0404270BD0000FF03000003
:10045000CDFBFFFFC20FD207400040080BD0C10DFB
:100460000723DB01C91840020905400A1143C208ED
:10047000400711437047002001467047CB0FDB0750
:10048000490010B5490802460A4307D00A0D07245F
:100490000903E401090B121B002A01DC002010BD36
:1004A000C900440F0C43C100E018D205801800F0C9
:1004B00054F810BDF0B51FB40646002082B00546C2
:1004C0004024019100901BE0019922460F463046DE
:1004D000FFF730FE049A059B801A994110D310460D
:1004E0001946224600F016F8361A8F410197224627
:1004F00001200021009F00F00DF838184D410090B8
:100500002046641E0028DFDC019B00982946324605
:1005100007B0F0BD10B5202A04DB0146203A914017
:10052000002010BD914020239C1A0346E34019434C
:10053000904010BD10B5202A06DBCB170846203AA4
:100540001041C1170B4306E00B461341D040202455
:10055000A21A91400843194610BD002904DA401C34
:10056000490001D140084000704770B40024050CD8
:1005700005D11024000402D1002921D01124050E38
:1005800001D100020834050F01D10001241D850F9F
:1005900001D18000A41C002801DB4000641C00295C
:1005A00008D020252E1B0D46F540A14000D001218A
:1005B0002943084301061B1B000ADB1D02D500204E
:1005C00070BC7047DB05181880180029F8DA401C49
:1005D0004900F5D170BC40084000704710B5002BB1
:1005E00008DA0024401C614192185B411A4301D192
:1005F0004008400010BDF0B51FB482B005460C00A5
:1006000003D0084604F0E0FA02E004F0DDFA2030FE
:100610000246009021462846FFF77CFF049B059A7E
:1006200004460F4618431143084314D0184610439C
:100630001BD0009840210A1A18460599FFF77AFD49
:1006400005460E46009A05990498FFF763FF084394
:1006500005D0012004E02046394607B0F0BD002057
:10066000C11705430E432C43374300990E98630589
:10067000401A7905E40A00220C43FD0A0A3002D52B
:1006800000200146E9E70105101969410C9C0D9D08
:1006900000196941FFF7A2FFDFE70000064C0125C2
:1006A000064E05E0E36807CC2B430C3C984710341A
:1006B000B442F7D3FFF700FD6452000884520008EB
:1006C00070B58C180578401C6B075B0F01D103785F
:1006D000401C2A1106D10278401C03E006780E70F7
:1006E000401C491C5B1EF9D12B0705D40023521E68
:1006F0000DD40B70491CFAE70378401CCB1A921CEE
:1007000003E01D780D70491C5B1C521EF9D5A142F7
:10071000D8D3002070BD000010B504460121062288
:1007200000F0B8F82068002803D1064800F00CF863
:100730002078C0B200010349091810222046FFF7B3
:100740000AFD10BD1002002070B505460224048188
:1007500000202860281D0722124E2146B047A81D00
:1007600009222146B047E8680B222146B047E868D5
:10077000801C0D222146B047E868001D0F2221464B
:10078000B047E868801D11222146B047E86808306C
:1007900013222146B047E8680A3015222146B047A7
:1007A00070BDC046950800087FB500AC0FC46E460A
:1007B000301D02240722124D2146A847B01D0922F0
:1007C0002146A84703980B222146A8470398801C7E
:1007D0000D222146A8470398001D0F222146A84755
:1007E0000398801D11222146A84703980830132240
:1007F0002146A84703980A3015222146A8477FBD05
:10080000D10800081B4800210181817101704181DC
:1008100001730A2141801921090181807047C04676
:1008200010B5144C00212181012121700A21FFF70C
:1008300057FC608010BDC04670B504460D4EB079BF
:10084000002800D070BD0020708130810120B0717F
:1008500030700A2508462946FFF742FCB080204642
:100860002946FFF73DFC708070BDC046014800215D
:1008700081717047F202002080B52B2148430A2184
:10088000FFF72EFC0021814202D200BF491CFAE78B
:1008900080BD0000F0B585B004920D4607460020EB
:1008A000C643264CA02101222046334600F066FABA
:1008B0000028F7D10097019502962048A021012336
:1008C000049A00F0E9FA0A2000F0D4F805B0F0BD6F
:1008D000F0B589B00792089106900920C006012161
:1008E000C902002605900491324600F0AEF9F443A7
:1008F000124F089886421AD0A021012538462A4670
:10090000234600F03BFA0028F6D1069880190090A3
:10091000019502940798301882B2A02138462B46E0
:1009200000F06AFB0A2000F0A5F8761CE1E701223E
:100930000598049900F089F909B0F0BD6003002022
:10094000EFF3108072B6FEE7FEB51C4615460E4664
:10095000074602910190089A099B00F043F800288D
:1009600001D0002107E0384631462A46234600F0F0
:100970004DF84142414101A800F020F8FEBDB0B55C
:100980000446022525222946FFF784FFA01C2722C2
:100990002946FFF77FFF01206060B0BDBCB5019123
:1009A00000906C460225252220462946FFF790FF3D
:1009B000A01C27222946FFF78BFFBCBDB0B54160C4
:1009C0004D1E681E2A46824101204103964C204656
:1009D00000F03BF96A426A411021204600F035F9E7
:1009E000B0BDC0469A420ADDD11A0014814204DA31
:1009F0000548008800B2984201DC002000E0012098
:100A000001490B807047C046000300209A420ADD6E
:100A1000D11A00B2814204DA0548008800B2984237
:100A200001DC002000E0012001490B807047C04636
:100A300002030020F0B5002817D0069884B289B2CE
:100A400000200646C5B2B6B2B14209D906276F43A7
:100A5000DF19BF88F619B7B2A74201D8401CF1E7E9
:100A600091B2A94204D8501E02E0998848424841F8
:100A7000C0B2F0BDB0B5044600F0EEF80546601C0B
:100A800002D004484068041900F0E6F8401BA04278
:100A9000FAD3B0BD00000020F0B588B007465E482C
:100AA000874201D0052000E003200090002206923A
:100AB000144605970E683046E04000D1AAE00125B3
:100AC0000295A5402E4000D19EE0049403924A680E
:100AD000032314461C40601E01281AD803230192E8
:100AE000069A9340B8689843CF68974007430598A3
:100AF00087600198C006C00F049A9040059F7F68E8
:100B0000AF43074305984760059FD8435500019AB6
:100B100008E01846069DA840C043032C02D1069D5C
:100B20001C461CE0FB6803408F68AF401F43059BD9
:100B3000DF60059F022C12D11C22039B1A400F2359
:100B40009340049CE408A4003C19276A9F430B6966
:100B500093403B43059F23624A6803241440AC4002
:100B60003B68034023433B609003800F039A049C3F
:100B70004AD02B4B1868029D2843186018682840FB
:100B8000079023460C2414400F20A04003229343D7
:100B9000079A244D5A5982435B190920C00687429F
:100BA00008D02148874207D020488742009804D1C6
:100BB000022002E0002000E00298A04010431860EC
:100BC000164800684B68DA0301D5304300E0B043B3
:100BD000049C124A106050689A0301D5304300E02B
:100BE000B0430E4A50609068DA0201D5304300E00D
:100BF000B0430A4A9060D0689A0201D5304300E0C1
:100C0000B043039A054BD860121D0698801C0690CD
:100C1000641C4FE708B0F0BD000C00480004014020
:100C20001810024008000140000400480008004875
:100C300000690840411E8841704742690B46934352
:100C40000A401104C91881617047002A01D0182296
:100C500000E0282281507047014800687047C04674
:100C6000EC040020B0B5436C0222202B17D1036C9A
:100C7000012B14D024224264026813680124A34388
:100C80001360230315689D43156013680B431360BD
:100C90001168214311600022026420214164104642
:100CA000B0BDB0B5436C0222202B17D1036C012BD1
:100CB00014D024224264026813680124A343136001
:100CC0000F231B0215689D43090229431160116817
:100CD0002143116000220264202141641046B0BD0E
:100CE00070B5002820D00446406C002804D10020B4
:100CF0002064204600F030FA2420606420680268F6
:100D000001218A4302600F22120663689343036144
:100D10008368184A13408360A368E568012D05D1F4
:100D2000CD032B43836009E0012070BD2126B6026C
:100D300033438360022D01D1CB02436043680E4DE3
:100D40001D434560C3681340C36022696369134350
:100D5000A26912021A43C260E269236A1343036064
:100D600002680A4302600020E0642021616420637D
:100D7000A06470BDFF7FFFFF00800002F0B589B066
:100D80001D46044600230893406C0226202872D199
:100D9000206887693F046ED40F46216C01296AD010
:100DA00024216164012104912164E36438493E46B1
:100DB0000E40384F039307920596E16801293946A2
:100DC00001D00521C90289194160FFF745FF074697
:100DD000206881694909826912090A43D10709D14A
:100DE000681CF5D0FFF738FF002D3CD0C01BA8428F
:100DF000EED938E08669009720210022204606912E
:100E000002922B4601F024FAF10637D5002831D1A1
:100E100020681021C1610699C1610899079A914221
:100E200011D10126B10342680A434260009720278E
:100E30000022204639462B4601F00AFA079A00287C
:100E400019D12068C7610899491C089108999142F5
:100E5000059E104FB1D30699616402982064E06C3E
:100E60000843E06406E02020606403992164E16C9B
:100E70000143E164049E304609B0F0BD0028049EA1
:100E8000F9D120680699C161029E26646164F2E787
:100E9000FF03000000200002F0B587B00546406C5B
:100EA0000224202838D10C9F002F32D016460D9AEC
:100EB000002A2ED0286C01282ED00392069305918B
:100EC00001242C64FFF7C8FE04900090E10319236D
:100ED0002846224601F0BCF900281DD10E99222097
:100EE00068644020A8640020E8646F620F460290A6
:100EF00068630398688500910498019028460599D5
:100F00003246069B01F020F9002808D00298286498
:100F100002E001246002E864204607B0F0BD0697B5
:100F2000012426066306688D000A32480396029360
:100F300006D0FF222A85009028460599334605E011
:100F4000698D29850090CAB22846059901F06AF991
:100F5000049E069B00960421002728463A4601F08D
:100F600077F90028D8D1686A2968496A0170688DC4
:100F7000401E6885686A401C6862288D411E29856C
:100F8000688D0904069B1FD100281DD00096802182
:100F900000262846324601F05BF90028BCD1688D56
:100FA000000A06D0FF222A85009628460599039B51
:100FB00006E0688D28850096C2B228460599029BF6
:100FC00001F030F9049E069B688D0028C2D12846A6
:100FD0001946324601F061F900289DD12868202188
:100FE000C16142685B4B1340436069642F64AF6426
:100FF0003C4691E700240080F0B589B00546406C7E
:101000000224202838D10E9F002F32D016460F9A86
:10101000002A2ED0286C01282ED008920593079123
:1010200001242C64FFF718FE04900090E1031923BB
:101030002846224601F00CF900281DD110992120E4
:1010400068644020A8640020E8646F6206906863CA
:101050000898688508910091049F01972846079990
:101060003246059B01F0A6F8002808D006982864AF
:1010700002E001246002E864204609B0F0BD0124CA
:1010800026066306688D000A059603930AD0FF22A0
:101090002A850020009028460799334601F0C2F8BF
:1010A000069E08E0688D2885069E0096C2B22846F6
:1010B000079901F0B7F8089B284619463A4601F00F
:1010C0000FF90028D8D12868696A0A788262688D89
:1010D000401E6885481C6862288D411E2985688DE0
:1010E0000904089B1FD100281DD0009780210026ED
:1010F0002846324601F0ACF80028BDD1688D000AC0
:1011000006D0FF222A85009628460799059B06E00F
:10111000688D28850096C2B228460799039B01F086
:1011200081F8069E089B688D0028C5D1284619467F
:101130003A4601F0B2F800289ED128682021C1610A
:101140004268044B1340436069642E64AE643446C5
:1011500092E7C04600E800FEB0B586B0044601A89C
:101160001421FFF711F82068114988421DD101258B
:10117000A804104C216801432160216801400091BE
:10118000059503951220029003200490800201909F
:101190000098094801A9FFF77FFC6805A168014391
:1011A000A160A16801400091009806B0B0BDC046A2
:1011B0000054004014100240000400481A484068DF
:1011C00002490A68101808607047C046EC04002005
:1011D00010B5A748016810220A4302600024204687
:1011E00000F004F800F022F8204610BD70B5044667
:1011F0007D20C0000C4E7168FEF772FF01469F48CB
:101200000068FEF76DFF00F061FB0125032C08D894
:10121000002806D10025E84321462A4600F028F898
:101220003460284670BDC0460000002082B00948E6
:101230000168012211430160016811400191019987
:10124000110742680A4342604068084000900098D5
:1012500002B0704718100240002805D41F21084032
:1012600001218140014801607047C04600E100E073
:1012700080B501F081FF80BDF0B585B0044680786F
:10128000C007394B3BD0012211071868C0000191FB
:10129000029202D50020039007E018680843186006
:1012A00018680840049004980392304E3068C005D6
:1012B00038D5032528022C4B5968014012D06268AA
:1012C000024091420ED00298000459685A680243C5
:1012D0005A605A6882435A600846254A104058604E
:1012E000C80731D1586822490840616801435960F4
:1012F0000398002803D01868019988431860206873
:10130000C10705D0596903229143A2680A435A6173
:101310000025800625D5586910218843E1680143DE
:1013200059611EE002980702306838433060FFF7C9
:1013300093FC054630683842BBD1FFF78DFC401B5B
:101340006428F7D903250CE0FFF786FC0646494FD1
:10135000054B58688007C5D4FFF77EFC801BB84258
:10136000F6D9284605B0F0BD1C10024000700040C0
:10137000FFFCFFFFF8B500284ED004463C4B1A682E
:10138000012002408A4208D21A680126B2430A4369
:101390001A601A6832408A4267D1009121688A0730
:1013A0000ED54A0705D507221202434D2B68134379
:1013B0002B60414D2A68F0239A43A36813432B60A6
:1013C000C9072BD12A4A106801263040009988426B
:1013D00007D91068B0430843106010683040884255
:1013E00043D12078400707D507200002324A116810
:1013F0008143E0680843106000F042F82E49096814
:101400000906090F1C4A515CC8401C4908600026A7
:101410003046FFF7EBFE28E0012626E06168264A09
:10142000121F012902D11268920305E012680229F5
:1014300001D1920100E09207064616D51E4A1068B7
:101440000326B04308431060FFF706FC0746094D2A
:10145000194800680C210140606880008142B1D0C9
:10146000FFF7FAFBC01BA842F2D93046F8BDC046D0
:10147000002002408813000078510008EC00002092
:1014800010B50D490A680C2313400C48082B08D1ED
:1014900093021B0F0AA4E45C896AD20303D41048A8
:1014A00007E0044606E00F22114009A2515CFEF756
:1014B00017FE4443204610BD0410024000127A007B
:1014C00002030405060708090A0B0C0D0E0F101085
:1014D0000102030405060708090A0B0C0D0E0F1084
:1014E00000093D00F0B587B007460120002F00D16C
:1014F000C2E104903878C007F14E059711D07168A9
:101500000C200140042906D071680140082937D118
:101510007068C00334D53068800302D5786800282D
:1015200038D0387880074ED570680007800F1BD000
:1015300070680C210140082902D17068C00313D5DE
:101540003068059CE168002926D0012108433060FD
:10155000FFF782FB0546306880072DD4FFF77CFB40
:10156000401B0228F7D986E130688007059A02D52A
:10157000D06801280ED13068F821884311691FE036
:101580007968002900D1C1E0012900D0D7E001200D
:101590000104DDE004986FE1012188433060FFF72A
:1015A0005BFB0546306880070DD5FFF755FB411BF7
:1015B00003200229F6D95FE13068F82188432169C8
:1015C000C90001433160059C2078000720D42078B1
:1015D000400730D42078C00600D4C4E0059A516991
:1015E000012971D1706B042101437163706B01217A
:1015F00001437163FFF730FB0546706B800700D530
:10160000A9E0FFF729FB411B03200229F5D933E1AB
:10161000706AE169002918D0012108437062FFF760
:101620001BFB0546706A8007D1D4FFF715FB401BF2
:101630000228F7D91FE101221107F069C0000191CA
:10164000039211D50020029016E0012188437062B8
:10165000FFF702FB0546706A8007B8D5FFF7FCFA72
:10166000401B0228F7D906E1F0690843F061F069F0
:101670000840069006980292924F3868C00511D52E
:1016800005988168904F00292AD00129039A06D035
:10169000306A052900D0BCE0042108433062306A7A
:1016A0001043BBE003980402386820433860FFF71A
:1016B000D3FA054638682042E2D1FFF7CDFA411B44
:1016C00003206429F6D9D7E0706B491D00D08CE067
:1016D000042188437063706BF821884391693FE06F
:1016E000306A039988433062306A0421884330624B
:1016F000FFF7B2FA0546306A800700D49BE0FFF797
:10170000ABFA411B0320B942F5D9B5E00120010431
:1017100032688A433260810432688A43326044040A
:10172000FFF79AFA0546059F3068204200D1F8E697
:10173000FFF792FA411B03206429F5D99CE0306839
:10174000052900D081E001218A041043306009049A
:101750003068084380E0706BF821884305998969F7
:10176000C900014371630598046A002C1AD070689F
:101770000C210140082917D1012C04987CD00120AC
:10178000030471680B40F26A059D6C6AA34273D131
:101790000F231A40EC6AA2426ED19A041140AA6A41
:1017A000914269D1002067E001200206316804926D
:1017B000914331604706FFF74FFA0546022C0AD1E4
:1017C000049C3068384259D0FFF746FA411B032089
:1017D0000229F6D950E030683842E3D0FFF73CFAEE
:1017E000411B03200229F6D946E004210843706317
:1017F000706B012188437063FFF72EFA0546706B0A
:101800008007B0D5FFF728FA411B03200229F6D93B
:1018100032E090433062306A042188433062FFF73F
:101820001BFA0546306A800705D4FFF715FA401BFE
:10183000B842F7D91FE002980028059C00D1C9E6FC
:10184000F06901998843F061C4E601210A049043DC
:101850003060890430688843306001204404FFF719
:10186000FBF905463068204200D05AE6FFF7F4F94C
:10187000401B6428F6D9032007B0F0BDF06A0F21A1
:101880008843059AD16A0143F1623D2000047168E2
:101890008143906A0843516A014371603068204374
:1018A0003060FFF7D9F904463068384200D079E754
:1018B000FFF7D2F9011B03200229F5D9DCE7C04666
:1018C000001002400070004088130000401E010E0E
:1018D00001D0012070470749074A50600748036854
:1018E0000B400321890759180160002090600721EF
:1018F00011607047FFFFFF0010E000E020ED00E006
:101900007047704770B50246C06B012801D10220B4
:1019100070BD0020D0633F231B02CC689C430F2383
:101920009D028E68AE432643DB024C689C433443E1
:1019300007231B030D689D43254303235B030C69A9
:101940009C432C434B6923430124A403A343C9694B
:1019500019431268516470BDB0B5C26B012A01D140
:10196000022119E0022202640122C26303685C685A
:101970007025AC430D6825439C685D60EA4DAB4221
:1019800002D0474DAB4204D18025AC434968214386
:1019900099600021C16302640846B0BD10B50028FB
:1019A0001BD00446006C002804D10020E0632046D0
:1019B00000F016F8022020642068211D01F07EFA54
:1019C000012060666064A064E06420656065A065D5
:1019D000E06520662064002010BD012010BD0000DD
:1019E0001FB500681A49884210D01A4988421BD096
:1019F000CD4988422BD10120C00217490A68024311
:101A00000A6009680140039103981FBD0121880401
:101A1000114A13680343136012680240019201984F
:101A20001624002220460DE0012040040A490A68DD
:101A300002430A60096801400291029815240021BE
:101A400020460A46FFF714FC2046FFF705FC1FBDA1
:101A5000004801400044014018100240016C012977
:101A600016D1022101640168C86801221043C860D0
:101A7000AD48814202D00A4881420BD188680723D1
:101A800003400020062B09D00B6813430B607047FE
:101A90000120704708681043086000207047C04666
:101AA00000040040F8B50446C06B012801D10222B1
:101AB00069E0022020640125E56320688268344BD8
:101AC0001A4082600F680026002F22D0102F20D0ED
:101AD000202F1ED0302F1CD0402F22D0502F2AD0A4
:101AE000602F32D06A0397423AD02A039742324697
:101AF00047D0702F49D1773382681A404B688F687E
:101B0000C9681F4309023943114381608168772204
:101B100034E08168702291430F430721394381608B
:101B20002EE0CA68496801F0F3FA2068816847220C
:101B30000A43302112E0CA68496801F0E9FA2068D6
:101B4000816857220A43202108E0CA68496801F0E9
:101B5000F0FA2068816867220A4310218A430EE068
:101B6000773382681A404B688F68C9681F4309023F
:101B70003943114381600121890382680A438260ED
:101B80003246E66325641046F8BD2A46F9E7C046AA
:101B90008800FFFF7047B0B504468020C543206829
:101BA0000169890717D5C168890714D529467E318F
:101BB00001610121E1618069800703D02046FFF7C0
:101BC000E9FF05E0204600F0B3F8204600F030F9C8
:101BD0000020E06120680169490718D5C1684907FC
:101BE00015D529467C3101610221E16180698005BA
:101BF000800F03D02046FFF7CDFF05E0204600F020
:101C000097F8204600F014F90020E061206801698F
:101C1000090717D5C168090714D52946783101612C
:101C20000421E161C069800703D02046FFF7B2FFBD
:101C300005E0204600F07CF8204600F0F9F800208E
:101C4000E06120680169C90618D5C168C90615D5C3
:101C50002946703101610821E161C0698005800F6A
:101C600003D02046FFF796FF05E0204600F060F81D
:101C7000204600F0DDF80020E06120680169C90716
:101C800009D0C168C90706D029467F3101612046C5
:101C900000F020F920680169090607D5C168090626
:101CA00004D505612046FFF72BFE2068016949062F
:101CB00009D5C168490606D529464031016120464B
:101CC00000F094F920680169890607D5C168890682
:101CD00004D5603505612046FFF713FEB0BD000056
:101CE00010B586B0044601A81421FEF74DFA20680D
:101CF0007749884216D1012041040C4A13680B43EE
:101D0000136012680A400092022105910022049299
:101D100003920291400201900920C006009901A996
:101D2000FEF7BAFE06B010BD002C014014100240B0
:101D300070470000B0B50446C06B012801D10220F5
:101D4000B0BD0D460120E0630221CA41032A4AD8F2
:101D50007A441279520097440110223120682946B2
:101D600001F0F8F82068816908220A4382618169DC
:101D700004229143816129690FE02068294601F01E
:101D800023F90121CA022068836913438361890210
:101D900082698A4382612969090218301FE020683C
:101DA000294601F049F92068C16908220A43C26145
:101DB000C16904229143C16129690FE02068294665
:101DC00001F076F90121CA022068C3691343C36197
:101DD0008902C2698A43C261296909021C3002680A
:101DE0000A43026000200021E163B0BD10B5002865
:101DF0001BD00446006C002804D10020E06320467C
:101E000000F015F8022020642068211D01F056F82A
:101E1000012060666064A064E06420656065A06580
:101E2000E06520662064002010BD012010BD7047D1
:101E300070470000B0B50446002905D0082905D038
:101E4000042905D1483004E0443002E04C3000E081
:101E500050300068012808D12046002907D0082901
:101E600007D0042907D1483006E00120B0BD443036
:101E700002E04C3000E05030022202602068012570
:101E80002A4601F059F821681048814213D01048C1
:101E9000814205D0534A914202D04E4A914205D127
:101EA000EA034B6C13434B64814204D00868284317
:101EB0000860002005E08868072202400020062A0A
:101EC00000D1B0BD0A682A430A60B0BD00040040DA
:101ED000002C0140F8B5044600683E4988426AD1AA
:101EE0003D4E3078002818D0307B002804D10122E4
:101EF00051033A48FEF7A9FE3089401C30817188B1
:101F000080B2884217D9002535810120410333482A
:101F10002A46FEF79AFE35700DE0B07900280AD007
:101F20007089401C7081B18880B2884203D9012039
:101F30003070002070810025294E502D3AD077193D
:101F4000398AF868FEF774FE70517968002804D168
:101F5000012902D10021B96001E0002902D0786096
:101F60001435EAE7002810D00128F8D1F97A091FC2
:101F7000232907D8797A002904D1B97A002901D117
:101F8000012139720021F972E9E7F97A491CF972E5
:101F9000C9B2C92904D30021F97201217972DEE79F
:101FA0001529DCD3797A0029D9D00021F9720121D1
:101FB000B972D4E720680B49884200D0F8BD0A48BE
:101FC0000121017041780029F8D04178491E417003
:101FD000F8BDC04600440140F2020020000800485D
:101FE0000403002000480140E00200207047FEE7A3
:101FF000F8B50C46074601B20D48994204DA802133
:102000000022FEF722FEF8BD1D4616468021012261
:10201000FEF71BFEAE4201DA002006E0701B391409
:10202000884201DAA0B200E0200C00F037F8F8BDD9
:102030000014004870B5054602243122094E21469D
:10204000B047A81C29222146B047281D2B22214633
:10205000B047A81D23222146B04716480421FFF7A8
:10206000E9FE70BD950800087CB5019100906D46B1
:1020700002243122084E28462146B047A81C2922B6
:102080002146B047281D2B222146B047A81D2322F8
:102090002146B0477CBDC046D108000880B505493F
:1020A000096888634242424101204102C948FEF763
:1020B000CCFD80BDB403002000688169890701D58B
:1020C000002181628169C90703D1816901220A4324
:1020D0008261704770B50E46044600688169C90682
:1020E00001D4002070BD15464168890110D401213A
:1020F000890342680A4342600AE0711C08D0FEF777
:10210000ABFD2021002E13D0401BB04210D8206818
:1021100081698906F1D51021C1612021C161204664
:10212000FFF7CAFF20684168064A0A40426004215E
:10213000E06C0843E0642020606400202064A06418
:10214000012070BD00E800FEF0B585B003920446A2
:10215000334800900493DAB20023204600F062F87E
:102160000A9F0B9E20463946324600F0B9F80125F9
:1021700000281BD1029704980128039F09D02068EA
:10218000390A816220460299324600F0A9F80028F7
:102190000CD12068F9B281620096402100222046CD
:1021A000029B00F055F80546401E8541284605B0C3
:1021B000F0BDC046F0B585B00392044618480090C3
:1021C0000493DAB201252B06204600F02BF80A9E74
:1021D0000B9F204631463A4600F082F800281BD17A
:1021E000029604980128039E09D02068310A816272
:1021F000204602993A4600F073F800280CD1206876
:10220000F1B281620097802100222046029B00F0FB
:102210001FF80546401E8541284605B0F0BDC04662
:102220000020008070B5049C650D00684668AE43D0
:10223000054D3540054E0E401E43110431432143E8
:102240002943416070BDC046009C00FCFF030000B4
:10225000F8B51D4616460F460446069800902068BD
:1022600080693840C01B41424141B14213D1681CD2
:10227000F5D0FEF7F1FC002D03D00099401AA842DA
:10228000EDD9E06C20210843E06461640020206403
:10229000A0640120F8BD0020F8BDF8B516460F4631
:1022A000044620688069800617D4204639463246A5
:1022B000FFF710FF0125002810D1FEF7CDFC002FFD
:1022C00002D0801BB842ECD9E06C20210843E064C6
:1022D000616400202064A06400E000252846F8BD69
:1022E000F8B516460F46044620688069800719D461
:1022F000204639463246FFF7EDFE0125002812D16F
:10230000781CF1D0FEF7A8FC002F02D0801BB84249
:10231000EAD9E06C20210843E06461640020206475
:10232000A06400E000252846F8BD0000F0B585B0A7
:10233000019000F031FC012000F016FC0026802006
:10234000C4B2002C26D004964026012503908C4868
:1023500031462A46FEF779FC2846584DA8470A27F9
:102360003846A84780218648FEF762FC0290002587
:10237000834831462A46FEF768FC38464F4988476D
:102380000298C0B20128039800D02846049E064354
:102390006008D5E7019800F00DFC01242046474F66
:1023A000B8474025764F384629462246FEF74DFC71
:1023B0000524204641498847002238462946FEF731
:1023C00044FC00F0E9FB20463C498847F0B205B0E8
:1023D000F0BDC04600040048B0B500F0DDFB00F0E1
:1023E000B5FB0024204600F0E5FB0A252846FEF751
:1023F00043FA204600F0B8FB2846FEF73DFAB0BD90
:1024000010B50024204600F0D5FB204600F0ACFBC0
:1024100000F09CFB0A242046FEF72EFA00F0BCFBDD
:102420002046FEF729FA10BDF8B50090002420469A
:1024300000F0C0FB204600F097FB80221F4DD4B275
:10244000002C1CD000980240501E824180214C4834
:10245000604B984701263046A847402748483946F0
:1024600032465C4B984707263046A847002244482E
:102470003946584B98473046A8476208DFE700F0D6
:102480008BFB402701223E4D28463946FEF7DDFBF7
:1024900002200A4CA04780212846FEF7C9FB0646C9
:1024A0000520A047002228463946FEF7CEFB0A2029
:1024B000A047F0B2411E48424841F8BD79080008E3
:1024C000B0B50B0EC478E518C5700B0C8478E41811
:1024D000847003885B180380818889188180EAB240
:1024E0003C2A0FD30022C270641C8470E4B23C2CDE
:1024F00008D382705B1C03809BB2182B02D302802E
:10250000491C8180B0BD80B5012109060022FFF77A
:10251000D7FF80BD080C89B2081A01A90988814239
:1025200009DB90B206214143C818801E00880028AC
:1025300001D0012070470020704700004C210F4857
:1025400004224252012141600022826080230382E2
:10255000016002230387DC4B8162C1620263436333
:10256000818441618161C2610362C163016442642B
:1025700083640921C906C1607047C0460403002076
:1025800000040048FEB50290450878263540092031
:10259000C40601220192CA4B20462946984775403D
:1025A0000027204629463A46C54B984702F0E6FAEE
:1025B00002980007450E20462946019AC04B9847CD
:1025C000BF4B7540204629463A46984702F0D6FA56
:1025D000FEBDC0464B0C000810B50120002421466A
:1025E00000F0E8F80220214600F0E4F810BDB0B594
:1025F000144600F037F80025A54205D2202001211D
:1026000000F0D8F86D1CF7E7B0BD10B50146002406
:10261000204600F027F8102C05D22020012100F0E0
:10262000C9F8641CF7E710BDB0B50C464007800E32
:1026300040300025294600F0BDF8082D05D0605D2A
:10264000012100F0B7F86D1CF7E7B0BD80B50C2094
:10265000002100F0AFF880BD80B50E20002100F011
:10266000A9F880BD80B5002900D040308021014309
:10267000C8B2002100F09EF880BD0000B0B509206E
:10268000C006022100242246FEF7DFFA0A20FEF7E8
:10269000F1F93320084D2146A84732202146A847AA
:1026A00028202146A8470C202146A847FFF794FF81
:1026B00006202146A847B0BDB5270008FEB5019306
:1026C00002920091002712283D463C4611D840B2A4
:1026D00080001A490C581A490E581A490D5808E03A
:1026E000305CC000184909183819C0B2FFF79CFFC8
:1026F0007F1CF8B28542F3D80198002807D0012842
:1027000007D00228009807D11020401B04E00020C9
:1027100002E01020401B4008C0B20299FFF7A2FF60
:1027200064190026F0B2854207D9C0432018C0B210
:10273000012100F03FF8761CF4E7FEBD2C510008A3
:10274000E050000894500008F800002010B5441C28
:102750000078C0B2012100F02DF8611C207800281B
:102760000C46F6D110BDB0B514460546022B05D077
:10277000012B09D0002B0DD100210BE02846FDF7DD
:102780000EFD1021091A05E02846FDF708FD10216D
:10279000081A4108C9B22846224600F001F8B0BD27
:1027A00010B5044608461146FFF75CFF2046FFF7C8
:1027B000CDFF10BD10B50446012903D0002907D173
:1027C000002200E001220920C0060121FEF73DFAA7
:1027D0002046FFF7D7FE10BDF0B589B0002408945D
:1027E0000127F904344802680A43026002680A407B
:1027F00003920399790402680A43026002680A405E
:1028000003920399B90402680A43026002680A400D
:1028100003920399B90502680A4302600068084000
:10282000039003987E032548254D31462246A8474C
:102830000920C006019023492246A847E9482349B8
:102840002246A8472248802102912246A8470794A1
:1028500006940597049604AE1E4A184831469047E0
:1028600007940694059717480490019D2846314621
:10287000184A9047069705940298049028463146D6
:10288000144DA8470697059407200490D548314673
:10289000A8470794069405970C480490D148314600
:1028A000A847079406940597029804900848314673
:1028B000A84709B0F0BDC046141002400008004807
:1028C0004B0C00087F09000000040048D8F300000A
:1028D00000140048990A000810B5134C012000218B
:1028E000124A134B23606260A160E0602046103002
:1028F0001421FDF749FC2046FEF7F2F9002801D02B
:10290000FEF71EF808480021FEF7ACF9002801D0B8
:10291000FEF716F804480021FEF7C3F9002801D09D
:10292000FEF70EF810BDC046600300207C1D1000AD
:102930000054004010B50A4800210A4A0A4BFF24FF
:10294000E03418C0016042608160C16001610838F4
:10295000FFF724F8002801D0FDF7F2FF10BDC046B4
:102960001C040020E70300000044014010B50948A2
:102970000021094A094B0A4C046043608160C2602F
:10298000016141618161FFF709F8002801D0FDF77D
:10299000D7FF10BD84040020CF070000BF5D0000FA
:1029A0000048014070B596B0002515951495139513
:1029B00012951195109509A81C21FDF7E5FB01A8BA
:1029C0002021FDF7E1FB2B482B492C4A0260416096
:1029D00028318560C160056145618561FEF7DEFFD4
:1029E000002801D0FDF7ACFF0126300312902148EA
:1029F00012A9FFF757F8002801D0FDF7A1FF1D48E5
:102A0000FFF7F4F9002801D0FDF79AFF1195109512
:102A1000184810A9FEF7A0FF002801D0FDF790FF8D
:102A200060200990FF20F4300A9009AC204608305D
:102A30001421FDF7A9FB0F4804222146FFF77AF97C
:102A4000002801D0FDF77CFF01AC14212046FDF7E2
:102A50009BFB08957003069006482146FEF752FF3F
:102A6000002801D0FDF76CFF0248FFF739F916B0D6
:102A700070BDC046B4030020BF030000002C01401D
:102A800070B504468069002800D070BD60690128D7
:102A900014D00028F9D1A3882268218AE06800F0C8
:102AA0008BFB02460126F103AA48002A1CD400250C
:102AB0002A46FEF7CAF8E560666170BDE0882189A4
:102AC00009040A186389218AE06800F075FB024650
:102AD0000120C1039F48002A08D40122FEF7B5F85F
:102AE0000020E060606170BD012200E00022FEF77E
:102AF000ACF870BDB0B5044600202082E060606193
:102B0000A0610625172220462946FDF7C3FEA01D19
:102B10001D222946FDF7BEFEB0BD000080B58269CA
:102B2000002A00D080BD4161002906D00129F9D1D9
:102B3000012081038748002202E001229103854899
:102B4000FEF783F880BDC046FEE77047FEB5002063
:102B50000590049003900290402001907D4801A9C7
:102B6000FDF79AFF06B080BDB0B586B00246401EA4
:102B70008241784C402520462946FEF766F8002021
:102B800004900390012102910195059001A920462E
:102B9000FDF782FF06B0B0BDFEB5002005900490A1
:102BA00003900290802001906A4801A9FDF774FF0C
:102BB00006B080BDB0B586B00246401E8241654C6D
:102BC000802520462946FEF740F800200490039017
:102BD000012102910195059001A92046FDF75CFFB6
:102BE00006B0B0BD0004004810B503218843FDF7CE
:102BF00005FCFDF72FFC0024054B2246FDF796FB54
:102C0000044B2246FDF7E0FAFDF738FC10BDC04644
:102C100000405F3F000018C080B503218843FDF7E6
:102C2000EDFBFDF717FC054A054BFDF77FFB054A59
:102C3000054BFDF7C9FAFDF721FC80BDD7A3703D18
:102C40000AF7653FCDCCCCCCCC6C47C070B5002327
:102C50001C468B420FD0C55C65400824260607D071
:102C60006E002D0601D531256E40F5B2641EF5E7E4
:102C70005B1C2C46EDE7A01A411E8841800070BD08
:102C8000F0B585B000910446FFF7A6FB8020FFF762
:102C9000CBFB0746002C03D0012C05D1E32000E03C
:102CA000E520FFF7C1FB07430294FFF795FB812066
:102CB000FFF7BAFB04460520FDF7DEFD3C43019417
:102CC000FFF744FF0024234FE0087C280AD80120A6
:102CD000FDF7D0FE40213846FDF7AAFFC0B2641CC4
:102CE0000128F1D140213846FDF7A2FF03900025CD
:102CF000194C2846A047074604AE30702846A04726
:102D000070700399090602D0029D019E03E0022122
:102D1000019E0E43029D104A39020C180120904773
:102D20000746012D05D0002D08D12046FFF75CFF96
:102D300002E02046FFF770FF0099086004A8022116
:102D40003A46FFF783FF04463443FFF759FB20461A
:102D500005B0F0BD000400482D2300087047B0B551
:102D60000446002020702046083002252D222946E6
:102D7000FDF790FDA01D2F222946FDF78BFDB0BD6C
:102D8000F8B5044601206F463946FFF779FF2070F9
:102D90000098FDF75FFB0025114E2A463346FDF7EC
:102DA000C5FAFDF733FB21890818A0804620FDF7FE
:102DB00061FE28463946FFF763FF21780143217001
:102DC0000098FDF747FB2A463346FDF7AFFAFDF7BB
:102DD0001DFB2189081860801920FDF74BFEF8BD06
:102DE00000002440BFB501AD2A8102910190284620
:102DF000083002242D222146FDF76AFDA81D2F224E
:102E00002146FDF765FDBFBD80B5FEF7D7F980BD52
:102E100070B594B008AC201D1821FDF7B5F9002558
:102E2000079506950595049513950520C004129005
:102E300011950226109601200F9010210C910B90F5
:102E40000A20089003950295019500952046FEF70B
:102E500049FB002803D0EFF3108072B6FEE7079518
:102E6000069505960720049004A80121FEF782FA32
:102E7000002803D0EFF3108072B6FEE70395202000
:102E800000906846FEF7F8F9002803D0EFF31080B1
:102E900072B6FEE714B070BD7047000080B50248FE
:102EA000FEF779FE80BDC0461C04002080B50248B4
:102EB000FEF771FE80BDC0468404002010B5046892
:102EC000904A904202D01A4B984204D170239C43FE
:102ED0004B68234300E02346154CA0420AD0154C12
:102EE000A04207D0904205D0874CA04202D0874C28
:102EF000A0421AD103242402A343CC681C4380239C
:102F00009C434B69234303608B68C3620B688362F5
:102F1000904205D07C4A904202D07C4A904201D136
:102F2000096901630121416110BD1C46E7E7C04604
:102F3000000400400020004010B51F230B40012179
:102F40009940046A8C4304629A40016A1143016209
:102F500010BD0000F0B5026A01239A430262026AC2
:102F600002239A438D681543436882697324A24300
:102F70000E68644FB84205D0634CA04202D0634C47
:102F8000A04207D10C24A543CC680427BC435D4F65
:102F90002C4300E02C463243B84205D05A4DA8429B
:102FA00002D05A4DA84207D103252D02AB434D69EB
:102FB0008E691D43354300E01D46456082614968C6
:102FC00041630462F0BDC046F0B5026A10239A4323
:102FD0000262026A20239A438B681E0116434268EC
:102FE00073231B0285699D430B681B02454FB84242
:102FF00001D0344607E0C024A643CC682401402712
:10300000BC43404F34432B43B84205D03E4DA84209
:1030100002D03E4DA84208D10325AD02AA434D6916
:103020008E69AD001543B2002A434260836149684E
:1030300081630462F0BDC046F8B501221302046A40
:103040009C4304625202036A93438A6815021D433B
:103050004368C2697324A2430E682A4FB84201D064
:103060002C460AE00324A402A543CC682402009461
:103070000E4C009F3C40234F2C433243B84205D0B6
:10308000214DA84202D0214DA84208D103252D038D
:10309000AB434D698E692D011D4333012B434360C2
:1030A000C2614968C1630462F8BDC04600FBFFFF0E
:1030B00070B501231A03046A944304625A03046A34
:1030C00094438A6812032243446873252D02C6691B
:1030D000AE430D682D0235430A4EB04205D00A4E6C
:1030E000B04202D0094EB04205D19B039C434B69CC
:1030F0009B01234300E023464360C56149680164A6
:10310000026270BD002C01400048014000440140B3
:10311000B0B5036A046A0125AC4304628469F025F2
:10312000AC431201224382610A2293430B430362A0
:10313000B0BD10B5036A1024A34303620F231B0321
:1031400084699C4312032243036A8261A022934351
:1031500009011943016210BD80B506210022FDF767
:1031600099FB80BDE0B56B4699800090062118461A
:10317000FDF7AEFB8CBD0000002805D403220346FA
:1031800093430C4A9A1806E00F220240083A0323A0
:103190009A43074BD2188007C00E8901C9B28140FB
:1031A000FF23834010689843084310607047C0466F
:1031B0001CED00E000E400E0F0B59CB28DB201230C
:1031C000A5420FD8FF21A5420DD3140E160C050EF3
:1031D000070C92B280B2904204D804D3F0B2FAB293
:1031E000824202D9194648B2F0BDFCD3A542194625
:1031F000F9D80021A542F6D2C943F4E7010407D06B
:103200000021642902D200BF491CFAE7401EF5E7FD
:103210007047000000B5CDB0FDF7DAFFFFF7F8FD0D
:10322000FFF7DAFAFFF758FBFFF7BCFBFFF782FB6B
:10323000FFF79CFB6C48FEF711FC6C48FEF70EFC98
:103240004B20C1001C915839694C0126694D20461C
:103250003246A847310220461A913246A84710212B
:10326000204604913246A847082120461F91324645
:10327000A847FFF703FAFDF7C5FAFFF75FF96420E7
:103280000A90FDF7CDFA42A80025858042955AA004
:1032900029462A463346FFF766FA5A4F3868B96A14
:1032A000014323953FD158A00025012429462246F9
:1032B0002346FFF758FA584B284629462A461D460A
:1032C000984744A8047006222146FDF701FB534BA2
:1032D0000FCBFDF769FA524CA18820681722A84746
:1032E000E08821890904081861891D22A847239DC7
:1032F0004C4903C9FDF752FB4B4908884A88120420
:1033000010188A88C98809048918FEF7ADFE474A53
:1033100010885188090408189188D3881B0459180B
:103320001289FFF75FFD3046FFF76FF940A029468D
:10333000324628963346FFF716FA42A8FFF70CFFED
:103340003EA8FDF7E9F937AC2046FFF7D3FB34A8D8
:10335000FFF705FD32A8FDF712FB30A8FEF76AFE65
:103360003648FDF787FBFFF737F9A01D07900C34AF
:103370000D9445A910317D20069040010F906320E7
:103380000590C043209009200390C00612902C465F
:103390002B4E19942B91102CFDD8A00001A1085898
:1033A0008746C04609350008B93500082B360008A5
:1033B000C53700086F390008253B00083D3C000870
:1033C0005F3C00082F3D0008A5340008A534000824
:1033D00045340008453400084534000845340008E9
:1033E00045340008453400081C04002084040020F3
:1033F000000400484B0C000847686F67686E6F6FE9
:103400007300000004030020536176652044656664
:1034100061756C742E2E2E0065310008100200209C
:10342000C0020020B0020020B80200205403002097
:103430004C6F6164696E672E2E2E0000B80B000081
:10344000E0020020387AB97A01432D9501D100F0CD
:10345000B6FC0020B8723872142070702C98401C92
:1034600000B22C90102C01D900F0EEFC0120A040FD
:103470001521C902084238D111210903084201D19E
:1034800000F078FC2C98642800DB0A982C9001F05E
:1034900037FB3746B21C2B9E3046C04901F080FBFB
:1034A00000F080FC387AB97A01432D9501D100F003
:1034B0009EFD0020B872387214207070E8B20228A5
:1034C00001D100F066FD01282A9901D100F06AFDC2
:1034D000002801D000F06EFD491C88B2632801D29B
:1034E00000F068FD059900F065FD2C98642800DB6C
:1034F00064202C9001F004FB3746B21CDF232B9E86
:103500003046A74900F04CFC307800282D9501D1B9
:1035100000F032FD00201B90307042AC2046FEF7D8
:10352000F2FF1998411CC8B2032800D81B91032848
:1035300001D901202890E0789A4C002809D10999F6
:10354000214042A880880143429800220991FFF758
:1035500009FE189E264042ADA88806433EAC1FCC0B
:10356000009418960196FDF765FA04460D98FEF74B
:10357000CAFF179E8B480640A88806433EAD2FCD54
:1035800000950196FEF7C6FF00281796199401D101
:1035900000F027FE082100228348FDF756FB3D98E6
:1035A0000028824E2D9C01D000F025FE37A8012175
:1035B000FFF7B4FA00F01FFE2D95387AB97A01436F
:1035C000229E17D00024BC723C72142077494870A8
:1035D0000420012508222946FFF709F8701CC1B212
:1035E0000929264600D80646F0B221462A462B462F
:1035F000FFF764F830203A5C32217B5C134301D141
:1036000000F018FD00247C543C5414206749487095
:103610000420012508222946FEF7E9FF300601D1E2
:1036200000F001FD761E00F0FFFC34462D95387A3F
:10363000B97A0143229E3BD00023BB723B72142017
:103640006070F0B201015A4A505855182C1D16CC22
:103650001B94AD882A9CA6B2279CE7B23F04BE19F2
:10366000299C2706F61900964E4E159F3740219C3F
:10367000641CA6B2AE421E4600D334462194A5B2C5
:103680002F43159701971B9BFEF744FF00284949DC
:103690002B9C00D0484920462A4601F081FA01229D
:1036A000022320463146FFF75EF8444F3F4C229EEE
:1036B00030203A5C32217B5C13433BD000227A54A9
:1036C0003A5414206070F0B2219A110403D1010120
:1036D000374A51188A880101354815460246405834
:1036E00053181B1D0ECB2F4C149F27406D1E219588
:1036F000ACB227432A9DADB2279EF6B236047519A7
:10370000299E3606AD19009514970197FEF702FF22
:103710000028284900D028492B9D2846224601F040
:103720003FFA0021012202232846FFF71CF81F4C14
:10373000229E224F387F002801D100F01FFC002577
:1037400065703D77FEF748FF01241D4829462A464B
:103750002346FFF708F8374642AE219AB2804295D9
:1037600010481399014090B20143284613912A460C
:10377000FFF7F8FC30460D4EFFF7EEFCF8B20F4FA6
:103780003E903EAD062228462146FDF7A1F8284688
:10379000FCF7C2FF2D9D00F0F3FBC046BB510008B3
:1037A000F25100080000FFFF00040048E002002082
:1037B000100200209651000848520008040300201F
:1037C000C7510008387A00282D9524D01420707035
:1037D00000243C72249A521C10B21C998842104654
:1037E00000DB1C98249005B20A2628463146FCF7D7
:1037F0008DFC0246DF2000905643AB1B2B9D2846D4
:10380000C14901F0CDF90122284621461346FEF7B1
:10381000AAFFBE4E2D9DB87A002824D014207070C7
:103820000024BC72249A0A3210B21C9988421046B5
:1038300000DB1C98249005B20A2628463146FCF786
:1038400065FC0246DF2000905643AB1B2B9D2846AB
:10385000AD4901F0A5F90122284621461346FEF79D
:1038600082FFAA4E2D9D3020395C002922D00024F1
:103870003C5414207070249908B2652800DC65213E
:10388000491E24910DB20A2628463146FCF73EFC1B
:103890000246DF2000905643AB1B2B9D28469A49D9
:1038A00001F07EF90122284621461346FEF75BFF10
:1038B000964E2D9D3220395C002922D000243C54A4
:1038C00014207070249908B26E2800DC6E210A3929
:1038D00024910DB20A2628463146FCF717FC024611
:1038E000DF2000905643AB1B2B9D2846864901F0F4
:1038F00057F90122284621461346FEF734FF834E2E
:103900002D9D387F002800D13EE3142070700024E4
:103910003C771D98C0B2062141437D48C068455E92
:10392000FEF75AFE0D200127214622463B46FEF7B0
:10393000C5FE784839463A46FEF732FF0A26284641
:103940003146FCF7E3FB02464643AB1B2B9E304659
:10395000714901F025F930466C4E21463A463B4606
:103960006E4FFEF700FFA8B22D9D2590FFE1387A3B
:1039700000282D9522D01420707000243C726848D5
:10398000401C259A521C11B28142114600DB0146AF
:1039900025910DB20A2628463146FCF7B7FB0246B0
:1039A0004643AB1B2B9D28465B4901F0F9F80122E9
:1039B000284621461346FEF7D6FE544EB87A002814
:1039C00022D0142070700024BC725548401C259AE7
:1039D0000A3211B28142114600DB014625910DB237
:1039E0000A2628463146FCF791FB02464643AB1BAC
:1039F0002B9D2846484901F0D3F80122284621464C
:103A00001346FEF7B0FE414E3020395C002921D02C
:103A100000243C5414207070259908B20125012817
:103A200000DC2946491E25910EB20A273046394648
:103A3000FCF76CFB02464743F31B2B9E304636498E
:103A400001F0AEF8304621462A462B46FEF78BFEA3
:103A5000324F2E4E2D9D3220395C002920D000247B
:103A60003C5414207070259908B20A250A2800DCFD
:103A700029460A3925910EB230462946FCF746FB05
:103A800002464543731B2B9D2846234901F088F8C5
:103A90000122284621461346FEF765FE1B4E2D9D4A
:103AA000387F002800D162E11420707000243C7738
:103AB0001D98C0B2062141431548C0684018042132
:103AC000455EFEF789FD0F200127214622463B4631
:103AD000FEF7F4FD0F4839463A46FEF761FE2B9E8D
:103AE0003046EF492A4601F05BF830462D9E2146CC
:103AF0003A463B46094FFEF736FEA8B23546034E1E
:103B00002690052400F0ABFFD9510008E002002008
:103B100010020020D6510008A45100080403002020
:103B2000E7030000387A00282D9518D01420707013
:103B300000243C72269A521C10B2F9498842104661
:103B400000DBF748269002B22B9D2846D44901F0AD
:103B500027F80122284621461346FEF704FEB87ACC
:103B6000002818D0142070700024BC72269A0A32E3
:103B700010B2F2498842104600DBF048269002B2AB
:103B80002B9D2846C64901F00BF801222846214604
:103B90001346FEF7E8FD3020395C002916D00024DA
:103BA0003C5414207070269908B2022800DC0221CF
:103BB000491E26910AB22B9D2846B94900F0F0FF14
:103BC0000122284621461346FEF7CDFD3220395CFE
:103BD000002916D000243C5414207070269908B295
:103BE0000B2800DC0B210A3926910AB22B9D2846AE
:103BF000AB4900F0D5FF0122284621461346FEF7C7
:103C0000B2FD387F002800D1C1E11420707000247B
:103C10003C77FEF7E1FC10200125214622462B4689
:103C2000FEF74CFDC74829462A46FEF7B9FD1D9808
:103C3000C6B2002E00D13AE2122039E2387AB97ABF
:103C4000014300D163E20021B9723972142070700F
:103C50001E98C4B2482C00D133E2122032E2387AE6
:103C6000B97A014317D0E9B22EA8425C521CD3B2F4
:103C7000392B00D9302242540021B97239721422F2
:103C80007270012422462346FEF76DFDA81DC0B2C6
:103C90002146FEF7E7FC30203A5C32217B5C13437F
:103CA0001AD000227A543A5414207070E9B22EA827
:103CB000405C302802D12EAA3A205054421E2EA831
:103CC00042540021012422462346FEF74CFDA81D44
:103CD000C0B22146FEF7C6FC387F0724002801D178
:103CE00000F0BDFE14207070294600253D774E1C63
:103CF000F0B2042800D2EDE1FEF7A8FC2EA80522C0
:103D00009149FCF753FA002801D100F022FC01226E
:103D10008EA029461346FEF726FD06980001FCF703
:103D2000A9FE8C4845703546064600F098FE3020C6
:103D30003A5C397A0A43120601D100F0FFFD1422E1
:103D40007270002900D167E23446002038726D1C81
:103D5000E8B2072800D866E2FEF73EFC2B9E77E229
:103D6000009030467C4900F01BFF00F0E0FD042489
:103D700000F075FE0E2C2C9966D137466F48401C1A
:103D8000814200DB01460A2508460E462946FCF71B
:103D9000BDF9024645432C96731B2B9E30466F4956
:103DA00000F0FEFE0021012530462A462B46FEF794
:103DB000DAFC08202946FEF755FC3E46684F3020C5
:103DC0003A5C32217B5C134350D000227A543A543F
:103DD000142070702C98401E00B22C90102C36D8F5
:103DE0000120A0401521C90208420BD1112109036D
:103DF000084219D020982C99814200DC20992C91FE
:103E0000084617E020982C99814200DC20992C91DB
:103E1000084600F075FE3746B21CDF232B9E304665
:103E2000504900F0BDFE14E00E2C2C980FD1C117A4
:103E300088432C9000F064FE3746B21C2B9E30461F
:103E4000494900F0ADFE04E037462B9EAAE737460D
:103E50002B9E0021012530462A462B46FEF783FC87
:103E600008202946FEF7FEFB3E463D4F2D9D387F3C
:103E7000002846D0002070703877FEF7E7FB204618
:103E80000B3805283DD8C046784400794000874467
:103E9000020911171F2B32A82C99018005E0C0469A
:103EA0003B52000832A82C99418033993298FCF794
:103EB00075FD26E030A82C9941803199309804E0B6
:103EC00030A82C99818030983199FEF7CDF818E010
:103ED00034A82C990181EA48119A024088B2024321
:103EE0003498359911920AE034A82C99C180E4499C
:103EF000109A0A4000890243349835991092FEF7CF
:103F000071FF7078002801D0FFF745FAFEF79EFB9D
:103F10000B3C052C2BD803A10C5D6400A744C046C4
:103F2000E70300000507090B102602251FE0032503
:103F30001DE004251BE0052519E0C046E70300004D
:103F4000062514E0D6510008D151000857726F6E53
:103F500067000000E00200202C520008B051000869
:103F600004030020F2510008BB510008072514206B
:103F700070701F9CFFF70FFA289815E22D9D2646BA
:103F80007078022400F06CFD032400F068FD052425
:103F9000AAE12999491CC8B23B2808462A990AD3A4
:103FA0003B2008E02798401C2790C0B23B2801D353
:103FB0003B20279029982990C0B200902A918AB27C
:103FC0002798C3B22B9E3046C84900F0E9FD002176
:103FD000012530462A462B46FEF7C5FB03202D99C6
:103FE0004843401DC0B22946FEF73CFBC04E30207E
:103FF0003A5C32217B5C134300D118E200227A54F0
:104000003A54142070702D98C0B2022869D001284B
:104010002A996ED0002800D0ECE188B2002800D0A8
:10402000E4E10146E6E10926F0B221462A462B46A4
:10403000FEF744FB387F0028229635D01424AC4D7F
:104040006C70384600270777FEF7C6FA300600D1B5
:1040500018E10124A7A021463A46FEF7A1FB0F2054
:10406000032321462246FEF729FBF0B20101A44AB0
:10407000505853181B1D0ECB814C0E9D25400097A8
:104080000E950195FEF746FA00289E4900D09E49FC
:104090002B9E30463A4600F083FD02252197279754
:1040A00029972C462A9717E101242D9D6BE21120B8
:1040B00021462A462B46FEF701FB002E20D0482041
:1040C0001FE0112001221346FEF7F8FA482C1CD0FD
:1040D00048201BE0C81DC0B20121FEF7C3FA3546D7
:1040E00051E2299AD0B200282A9900D183E1501ECA
:1040F00081E1279AD0B2002800D079E1279079E1B8
:1041000053201E907A4E0624EEE053201E9030205D
:10411000395C3222BB5C0B432D9516D00021B9547B
:1041200039541420707070701E98C4B2482C01D09D
:10413000122000E0112001221346FEF7BFFA482C9E
:1041400001D0482000E053201E90387F00282AD05C
:10415000002474703C77FEF73FFA01236B48214638
:104160002246FEF700FB42ADAC80429444481699CB
:104170000140204616912246FEF7F4FF2846FEF73E
:10418000EBFF3EA8269981803E941E98C0B253282A
:104190000BD13EA8C4804198818024994180259903
:1041A00001800A300AE02D9D17E03EA8C1804198A9
:1041B0004181249901812599C180001D2D9D048094
:1041C0003EAC012106222046FCF782FB3EAB0FCB22
:1041D000FCF7EAFA2046FCF79FFA7078062400F014
:1041E0003FFC082101224A48FCF72FFD37A8FEF7C3
:1041F00047FC3F4E2D9C34AD2846FEF7C1FD287884
:10420000002800D194E032200F99FCF715FB1B9891
:10421000199028982546C7E00021395434462806CD
:1042200000D1B2E16D1EFEF7D7F9E8B207282B9E48
:1042300000D97CE302A14000085A40008744C046F0
:1042400008001400150328033A034D036503A80171
:10425000002501232F4829462A46FEF784FA37A86D
:1042600083780288C0787BE5002101252AA00A46D0
:104270002B46FEF778FA37A8037AC288407A6FE5B2
:104280000000FFFF6C701E48C06881884A424A41A6
:1042900006211D92514340180221445E0C2000214A
:1042A00001250A462B46FEF709FA1E4829462A46EA
:1042B000FEF776FA0A2620463146FBF727FF02462C
:1042C000DF2000905643A31B2B9E3046164900F07A
:1042D00067FCA0B224900324144F00210122304631
:1042E0002B46FEF740FA024E2D9DB8E32C520008F3
:1042F000E00200204461792053656C65637400001E
:10430000100200209651000848520008C7510008CA
:10431000000400483F5200084D6F746F72204F66D2
:1043200066000000D6510008D9510008040300209F
:10433000042634ADA85F0890062719984743419892
:10434000C1190224095F1991C15F2A5F339B32981A
:10435000009101921946199A089BFCF7F5FAAB5F98
:104360004198C019025F31993098FDF741FE2D5FE9
:104370004198C75F01240026BD42224600DB324639
:1043800012981A99FCF761FCBD4200DA3446C9481C
:104390001A992246FCF759FCFCF768FA1B98199009
:1043A000C54FC64E28982D9D000600D141E12398A7
:1043B000C0B2022800D18AE0012800D1B8E000286C
:1043C00000D036E1FEF708F900240125BCA0214603
:1043D00022462B46FEF7C7F93EA8007821462A461A
:1043E00023952B462D9DFEF769F922E1491E01E038
:1043F000521E279229982990C0B200902A918AB221
:104400002798C3B22B9E3046AF4900F0C9FB00216C
:10441000012530462A462B46FEF7A5F903202D99A3
:104420004843401DC0B22946FEF71CF9A34E387F11
:10443000002820D014207070002038772D9D6D1C2E
:10444000E9B2032919D370702A9880B22799C9B2AA
:1044500009040818299909064018092C15D137A90B
:10446000219B8B80379099490C9A0A4099B211434D
:1044700017220C9117E02D9D19E003206843401D81
:10448000C0B20121FEF7EEF811E0079A108037A9BB
:10449000219B4B81010C51808C490B9A0A4099B2A7
:1044A00011431D220B91FEF75DFEFEF7CFF87078E9
:1044B000002801D0FEF76FFFFEF7C8F814207070D7
:1044C000093C601E844125461F9CFEF764FFFEF7F1
:1044D00083F80E2002212891002603243246234629
:1044E000FEF7ECF842ADAB782A8845AF38467849FC
:1044F00000F056FB07211B9138462396324623468F
:10450000FEF731F90F200126289932462346FEF79F
:10451000D5F8AA8838466FA100F042FB3846664FAE
:104520001B993246654E2D9D2346FEF71CF980E00F
:10453000FEF752F834A8007800283BD045A82D217A
:1045400081806648459006222B986549FBF703FE5B
:104550004FE0FEF741F80124624829462A462346E7
:10456000FEF701F937A883780288C07800902B9E67
:104570003046554900F014FB304629462246234672
:10458000FEF7F1F808244D4E69E2FEF725F82B9E60
:1045900000210123F3A00A46FEF7E5F8062034A91E
:1045A000085E00F0ADFAA21C3046F24900F0F8FABD
:1045B0000725BCE1042034AE355E0A242846214696
:1045C000FBF7A4FD0246DF200090204650432B1A43
:1045D00045A8E94900F0E4FA0220355E2846214664
:1045E000FBF794FD024644432B1B2B98E34900F054
:1045F000D7FA0C2000260324214632462346FEF734
:104600005DF845A80725294632462346FEF7ABF854
:104610000D200126314632462346FEF74FF82B98EF
:10462000294632462346FEF79EF802202390234E69
:104630002D9D386800212891012855D0002861D18E
:104640003D98002810D101243D9437A80025294623
:10465000FEF764FAFDF7C0FF0B2029462A462346E1
:10466000FEF72CF803202390022034AF3D5E0A248D
:1046700028462146FBF74AFD064604203F5E3846A1
:104680002146FBF743FD024620467043281A009658
:10469000019054433B1B2B9C2046B94900F080FA03
:1046A000012120460A46FEF77BF8F64FF64E2D9D77
:1046B00028E0C0460004004804030020E002002077
:1046C00042697264000000002C5200080000FFFFE5
:1046D000885100083D202533640000003D202D2D29
:1046E000C15100083F5200083D9801280AD100241A
:1046F0003D9437A801212891FEF710FA23943A94AB
:10470000FDF76AFF4420395C002906D000213954A6
:104710000F996031D948FCF790FA4520395C00299F
:1047200012D000243C542046FDF76FFFEE4A107B68
:104730004142414111730028EC4800D0EC4801236C
:1047400021462246FEF70FF83121785C002400282C
:104750004AD0787A002847D032202D9000253D5449
:104760007D547D72BD721420707028461B91FDF738
:1047700095FC32A801242146FCF720F93D9437A886
:104780002146FEF7CBF912981A9E31462A46BC4BB9
:104790009847BA4F38463146BB4E2246B84B9847E9
:1047A00008213846B74F2246B54B9847FDF714FF0E
:1047B000D04829462A462346FDF7D5FF2EA8057185
:1047C000CD492E91294622462346FDF7CCFFFDF721
:1047D00043FF06202146FDF745FF2D983D541B98C9
:1047E0003D547D77BD770724387F002801D1FEF73F
:1047F000D2FD142070702E4600253D77FDF7ECFEAB
:104800000124BE4821462A46FDF7CAFF9F4821469B
:104810002246FDF7C5FF3E982290C0B229462246A7
:104820002346FDF74BFF2846FDF738FC32A821460A
:10483000FCF7C4F83D9437A82146FEF76FF91298AB
:104840001A9F39462A468E4B2D961E4698478B4D09
:10485000284639468B4F2246B04708212846224633
:10486000B047894E2D9DFEF796FD002101239AA0A9
:104870000A46FDF778FF32A8008800B200F040F940
:10488000A21CDF233046844900F08AF902254EE05D
:10489000002101238DA00A46FDF765FF022032A901
:1048A000085E00F02DF9A21C30467A4900F078F934
:1048B00003253CE00021012380A00A46FDF753FFB9
:1048C000022030A9085E00F01BF9A21CDF2330464D
:1048D000714900F065F9042529E00021012373A046
:1048E0000A46FDF740FF042030A9085E2D900A25F6
:1048F0002946FBF70BFC024645432D98431B3046E7
:10490000634900F04DF9052511E00021012363A062
:104910000A46FDF728FF082034A9085E00F0F0F8E9
:10492000A21CDF2330465C4900F03AF9062500213D
:10493000012230461346FDF716FF2646387F08242D
:10494000002800D18BE000202D903877E8B20728AE
:1049500000D984E001A1085C400087441324394554
:10496000515D697543616C69622053485420485514
:104970004D000000BB510008E5510008AF51000890
:104980001752000837A880882190379CFDF764FEF5
:1049900005200121FDF766FE200E29902A94200CA7
:1049A0002790039CA0E437A84089219007980488A9
:1049B0004588FDF751FE05200121FDF753FE28042F
:1049C0000019010E29912A90000C27900A248BE4EB
:1049D00032A800882C90FDF73FFE08200121FDF74A
:1049E00041FE0B2402253AE032A840882C90FDF7C6
:1049F00033FE08200121FDF735FE0C2403252EE0AF
:104A000030A840882C90FDF727FE08200121FDF7F3
:104A100029FE0D24042522E030A880882C90FDF783
:104A20001BFE08200121FDF71DFE0E24052516E0C2
:104A300034A800892C90FDF70FFE08200121FDF716
:104A400011FE0F2406250AE034A8C0882C90FDF73B
:104A500003FE08200121FDF705FE0725049C707860
:104A6000002801D0FEF797FCFDF7B6FD0120289045
:104A7000307000243D942394FEF78DFC0004004820
:104A80004B0C000804030020E0020020D65100086F
:104A9000B0510008BB510008F251000843616C6935
:104AA00062205348542054656D70000041646A20B0
:104AB000486561742050574D0000000041646A2031
:104AC000486561742054656D7000000041646A207F
:104AD00046616E2048554D0041646A2046616E2053
:104AE00054656D7000000000F202002002520008C0
:104AF0000D520008F951000830303030565200088D
:104B0000B0B50446012809DB0A212046FBF7FEFA6E
:104B100002460B460F48801C15A116E0002C0FD052
:104B20000A212046FBF7F2FA0D460920C143204630
:104B3000FBF7ECFA02466B420648801C06A104E033
:104B40000448801C07A10022134600F029F8014800
:104B5000801CB0BDE00200202D2532642E2531647A
:104B600000000000202532642E2531640000000082
:104B70002B2532642E25316400000000B0B50920D9
:104B8000C4060425012220462946FCF75EF8C82009
:104B9000FEF734FB002220462946FCF756F8B0BD4C
:104BA0000FB410B504A9074B02AA039800F032F81D
:104BB000044602A9002000F067FA204610BC08BC99
:104BC00004B01847895000082021020C01D01021A0
:104BD0001046020A01D010460839020901D01046D9
:104BE000091F820801D01046891E420801D0881E84
:104BF0007047081A704702E008C8121F08C1002A4F
:104C0000FAD170477047002001E001C1121F002A4D
:104C1000FBD17047FFB591B00F460546002606E070
:104C200025280AD0149A139990476D1C761C287871
:104C30000028F5D1304615B0F0BD002400940121C4
:104C4000F34A029400E004436D1C2B780846203B95
:104C500098401042F7D128782A280ED002212878CF
:104C60000246303A092A15D8009A0A235A43303AA4
:104C700080180C436D1C0090F1E701CF00900028D4
:104C800005DA0120400304430098404200900220CE
:104C900004436D1C28782E2815D10420044368781D
:104CA0006D1C2A280AD101CF6D1C02900BE00299DD
:104CB0000A225143303940186D1C02902878014671
:104CC00030390929F3D928786C2810D006DC4C2813
:104CD0001AD068280ED06A2817D104E0742813D09F
:104CE0007A2812D110E00120400504430CE0012194
:104CF000090501E0032109050C436978814203D1CC
:104D00000120000524186D1C6D1C287803906E2866
:104D10001ED00CDC632831D004DC00288AD058284F
:104D200011D1B2E064287BD069280CD178E07328D7
:104D30002DD004DC6F2870D0702804D1A7E075282E
:104D40006CD078286BD0149A13999047761C62E047
:104D50006002400F022807D003280AD004283868D0
:104D60000AD006603F1D56E03868F11706604160C2
:104D7000F8E738680680F5E70670F3E738786946A3
:104D800008740020487404A80390012003E03868E8
:104D900003900020C0433F1D61070FD5002101E0B3
:104DA0000199491C029A0191914213DA8142F7DB81
:104DB000019A0399895C0029F2D10BE0002101E0FE
:104DC0000199491C01918142FADB019A0399895C9E
:104DD0000029F5D101990098139A401A00902146B4
:104DE000149B00F03BF901998019461807E00398DD
:104DF00003990078491C0391149A139990470198DC
:104E0000401E0190401CF2D12146149B139A009839
:104E100000F014F986196D1C09E741E033E034E035
:104E20000A200021049005916002410F022905D05B
:104E300001CFC2179446032905D007E0FF1DFF08E4
:104E4000FF0003CF06E000B2C2179446042902D146
:104E500040B2C1178C4600226146944506DA0A46E4
:104E60000021404291418C462D2102E0210504D5CC
:104E70002B216A461176012103E0E10701D02021B0
:104E8000F7E7019154E00A200BE0102009E0102020
:104E9000049000210420044308200591029003E0BF
:104EA00008200021059104906002410F022905D0DD
:104EB00001CF00229446032906D006E0FF1DFF081B
:104EC000FF0003CF8C4603E080B2042900D1C0B2BA
:104ED0000021019121072BD50399702906D0049A4E
:104EE0001021059B4A401A4305D00EE040216A4636
:104EF0001176012108E06146014306D030216A465F
:104F000011760399517602210191049A0821059B9B
:104F10004A401A430CD16146014301D1610707D5CC
:104F200030216A461176012101910299491E0291B0
:104F30000399582904D037A103910FA90F910DE0CF
:104F400039A1F9E76146059B049AFBF7B3FA039B85
:104F50008C469B5C0F9A521E0F9213706146014360
:104F6000F0D10F9807A9081A20300390600704D5E4
:104F7000012000048443029801E00120029003997B
:104F8000884201DD401A00E000204118029001989B
:104F900009180098401A0090E00306D42146149B9B
:104FA000139A009800F05AF886190020049008E03F
:104FB00006A9085C149A139990470498401C761C23
:104FC000049001998842F3DBE0030CD52146149B41
:104FD000139A009800F042F8861904E0149A3020E1
:104FE00013999047761C0299481E02900029F5DC1F
:104FF00008E00F980F990078491C0F91149A1399A3
:105000009047761C0399481E03900029F1DCFBE6CB
:10501000092801003031323334353637383961628E
:105020006364656600000000303132333435363752
:10503000383941424344454600000000F8B5044673
:1050400000251E461746880404D405E03946202072
:10505000B0476D1C641EF9D52846F8BDFFB504465F
:10506000002581B01E46C80301D5302700E0202767
:10507000880404D505E038460399B0476D1C641ECA
:10508000F9D5284605B0F0BD0A68531C0B601070B6
:10509000704700000400000003000000080000004A
:1050A00007000000070000000600000003000000E9
:1050B00004000000030000000600000004000000DF
:1050C00004000000030000000500000004000000D0
:1050D00003000000040000000300000003000000C3
:1050E00043000020AC000020980000201C0000209D
:1050F000080000204B0000207D000020BC000020A4
:105100005E000020E4000020F00000203C000020B1
:1051100040000020CF000020F4000020CC00002040
:1051200047000020D40000207A000020000000008A
:10513000000000000000000000000000000000006F
:10514000000000000000000000000000000000005F
:10515000000000000000000000000000000000004F
:105160000300000000000000040000000000000038
:105170000400000004000000000000000000000027
:1051800001020304060708093D20253032643A2550
:105190003032642020003D25303364205365747420
:1051A000657220002532642E253164202525003DBE
:1051B0002533642E253164202525002573202525DF
:1051C000003D202D2D2D00536176696E672E2E2E09
:1051D0000030303030003D3E002532642E253164F1
:1051E00020256343003D2533642E2531642025634B
:1051F00043002573202563430050415353574F52BA
:10520000440042555A5A4552204F46460042555A8C
:105210005A4552204F4E00543D2532642E253164AC
:105220002020483D2532642E25316400253032642B
:105230003A253032643A2530326400253364004D1B
:105240006F746F72204F6E003D25303364204861CB
:10525000746368657200426972642053656C6563AB
:10526000740000008852000800000020E0020000E6
:10527000C006000860540008E0020020100600008C
:10528000064C000800000000320432011008070A32
:105290000D010E0F0C16260279010E16BC027401C8
:1052A000032F0708090A0B0814147C01071A081AAF
:1052B00012071C58027706492038160E101C1D0DC7
:1052C0000B040D1817190D200121091009040811EC
:1052D000425A16221C15041632293E1C44027A0634
:1052E0003A6C3E1AEE1C12072F220E101213142EC7
:1052F0005A152E3A580C290629952F020304050643
:1053000001205A17201914395E5A12102D06010D6A
:10531000142E5A1910100C012016011E08071F1810
:10532000171012FA146B01271C2C016E181A0310A7
:10533000193B2113127A30091A1B0B10160B040C9F
:10534000541F050717020202041802100903040B78
:10535000080807040A3415151F1A0401192012043D
:105360004E0611090F10105A04301A1E1721160E7E
:105370000A0F041812052B07053019462A020841A6
:10538000295A1204451111110E2D0C02010270143C
:105390000E011F291129282910211A03402C01016F
:1053A00001281D01020402204960121F2A04101A5C
:1053B000111029983A046049A8216A186849A8413F
:1053C000680B13120C1010161010110FA01A0CB845
:1053D0003A09501302052D1517141CCE39A81112C5
:1053E0000A43111E3C0E0A0E50111C040609383DDA
:1053F000040A0D09181959396F21228C3B2001101C
:105400003A03101AB01029085A1C101AA0103203BF
:105410001A181032041A241029085A11201A1010D0
:1054200032055A1A101A52105A063029101A8010D2
:105430009A07501AC0103A08103A07501A621032F0
:10544000095A2A201AD8102DF6FFCEFF943F90015A
:10545000F6FF2C017F4A14AE011600000000000088
:04000005080000B13E
:00000001FF
