:020000040800F2
:1000000030060020C5000008B11700086913000879
:1000100000000000000000000000000000000000E0
:10002000000000000000000000000000B5170008FC
:100030000000000000000000B3170008B717000818
:10004000D700000800000000D7000008D700000813
:10005000D7000008D7000008D7000008D700000824
:1000600000000000D7000008D7000008D7000008F3
:10007000D7000008D7000008D700000800000000E3
:10008000D70000080000000000000000D7000008B2
:1000900000000000D7000008D7000008D7000008C3
:1000A00000000000D700000800000000D700000892
:1000B0000348854600F04AFA00480047711B0008D3
:1000C000300600200448804704480047FEE7FEE76A
:1000D000FEE7FEE7FEE7FEE743180008B100000870
:1000E00030B50B46014600202022012409E00D46D0
:1000F000D5409D4205D31D469540491B2546954058
:1001000040191546521E002DF1DC30BD10B5202AD5
:1001100004DB0846203AD040002110BD0B46D340F6
:10012000D0402024A21A91400843194610BDD2B2F3
:1001300001E00270401C491EFBD270470022F6E726
:1001400010B513460A4604461946FFF7F0FF20464D
:1001500010BD0000F0B507460846584087B0C00FF4
:10016000049048000E46590040084908BC1A8841CE
:1001700005D2384631461E4617460B460246580001
:10018000400810434CD0300D039040055900400DFD
:10019000490D0590401A0290402872DA1803012197
:1001A000000B09050843019004980092002805D02F
:1001B000019952420020884100920190029840210A
:1001C0000A1A0199009800F03FF905460C466B4663
:1001D00007CB00F049F9C0197141039A0E0D0023B5
:1001E000D71756401A467A40164344D0049A002A3C
:1001F0002DD0029A012A039A15DC1205C01A9141EA
:1002000001263605001C7141D20F059ED2070093CE
:10021000019202962A46234600F046F907B0F0BD47
:1002200038463146FAE71605224A0F46B218C01A78
:10023000B74101210905001C4F4100187F411146BB
:1002400018187941E20F10436D19644113E0E20779
:100250006D0815436408C2071443039A012612056A
:10026000C01A91413605001C7141CE074008304349
:100270004908C01851412A46234600F008F9CDE745
:10028000FFE7049801224000C117121A00238B4196
:1002900004983146C417381AA141EEE730B401245E
:1002A000E407634030BC55E730B40124E407614003
:1002B00030BC4FE70000E0FFF0B51FB488B00B99E9
:1002C0000998002448400999C00F4900490809913C
:1002D000C0070B990090490049080B9109990898AB
:1002E000A64608431CD00B990A98084318D00998D1
:1002F00001244000420D4800410D099824050003E7
:10030000000B204309900B980003000B20430B9037
:1003100050181C494018002201901446104605E070
:10032000002001460DB0F0BD032801DA034600E0CD
:1003300003239C46C11A0AAE0AE05F0008ADED5BDC
:100340004F00F75B7D430027AA187C41491C5B1EC8
:100350006145F2DD410004AB5A522104120C0A43FC
:10036000240C401C0828DFDB01980290009970469D
:1003700001910090059B049A0799069800F094F863
:10038000D0E700000DFCFFFF0EB5054902910021EA
:1003900000910A460B46019100F086F803B000BDBB
:1003A00033040000C20F410040020123400ADB0574
:1003B000D207090EC0187F2901DA0020704796295C
:1003C00003DC9623591AC84001E096398840002A78
:1003D000F4D040427047000070B5CD0F4A000903C9
:1003E0000123090B1B0519430B4BED070024520D8C
:1003F0009A4201DA002070BD074B34339A4203DC85
:100400009A1AFFF783FE02E00449511888402C43F2
:10041000F1D0404270BD0000FF030000CDFBFFFFA4
:10042000C20FD207400040080BD0C10D0723DB01EB
:10043000C91840020905400A1143C2084007114388
:10044000704700200146704710B5202A04DB0146A2
:10045000203A9140002010BD914020239C1A034671
:10046000E3401943904010BD10B5202A06DBCB179E
:100470000846203A1041C1170B4306E00B461341D2
:10048000D0402024A21A91400843194610BD10B54F
:10049000002B08DA0024401C614192185B411A438A
:1004A00001D14008400010BDF0B51FB482B0054630
:1004B0000C0003D0084601F0D9FB02E001F0D6FBA6
:1004C00020300246009021462846FFF7BDFF049BDE
:1004D000059A04460F4618431143084314D01846A2
:1004E00010431BD0009840210A1A18460599FFF7BF
:1004F0000DFE05460E46009A05990498FFF7A4FFE5
:10050000084305D0012004E02046394607B0F0BD7D
:100510000020C11705430E432C43374300990E9822
:100520006305401A7905E40A00220C43FD0A0A30EB
:1005300002D500200146E9E70105101969410C9C2C
:100540000D9D00196941FFF7A2FFDFE7064C012569
:10055000064E05E0E36807CC2B430C3C984710346B
:10056000B442F7D3FFF7A8FDEC1E00080C1F0008EB
:1005700030B58C180278401C13071B0F01D103788B
:10058000401C120906D10278401C03E005780D706A
:10059000401C491C5B1EF9D101E00B70491C521E26
:1005A000FBD1A142E6D3002030BDEFF3108072B63C
:1005B000FEE70000B0B5044600F0DCF80546601C1C
:1005C00002D0E8484068041900F0D4F8401BA0426B
:1005D000FAD3B0BDF0B588B007465E48874201D077
:1005E000052000E0032000900022069214460597A3
:1005F0000E683046E04000D1AAE001250295A540F2
:100600002E4000D19EE0049403924A6803231446CE
:100610001C40601E01281AD803230192069A9340B9
:10062000B8689843CF68974007430598876001985A
:10063000C006C00F049A9040059F7F68AF430743F0
:1006400005984760059FD8435500019A08E0184671
:10065000069DA840C043032C02D1069D1C461CE009
:10066000FB6803408F68AF401F43059BDF60059F19
:10067000022C12D11C22039B1A400F239340049C8E
:10068000E408A4003C19276A9F430B6993403B434D
:10069000059F23624A6803241440AC403B68034032
:1006A00023433B609003800F039A049C4AD0B84BCD
:1006B0001868029D28431860186828400790234650
:1006C0000C2414400F20A04003229343079A234D8B
:1006D0005A5982435B190920C006874208D08548D1
:1006E000874207D01E488742009804D1022002E0CA
:1006F000002000E00298A0401043186016480068EF
:100700004B68DA0301D5304300E0B043049C124A41
:10071000106050689A0301D5304300E0B0430E4AA0
:1007200050609068DA0201D5304300E0B0430A4AD5
:100730009060D0689A0201D5304300E0B043039A3C
:10074000054BD860121D0698801C0690641C4FE76C
:1007500008B0F0BD000C0048000401400800014052
:1007600000080048002A01D0182200E02822815009
:1007700070470000644800687047C046B0B5436CDD
:100780000222202B17D1036C012B14D024224264A7
:10079000026813680124A3431360230315689D4373
:1007A000156013680B431360116821431160002228
:1007B0000264202141641046B0BDB0B5436C0222F2
:1007C000202B17D1036C012B14D024224264026821
:1007D00013680124A34313600F231B0215689D4374
:1007E000090229431160116821431160002202644B
:1007F000202141641046B0BD70B5002820D00446C9
:10080000406C002804D100202064204600F042F80B
:10081000242060642068026801218A4302600F225C
:1008200012066368934303618368184A1340836028
:10083000A368E568012D05D1CD032B43836009E052
:10084000012070BD2126B60233438360022D01D101
:10085000CB02436043680E4D1D434560C36813409F
:10086000C360226963691343A26912021A43C2601A
:10087000E269236A1343036002680A4302600020AE
:10088000E064202161642063A06470BDFF7FFFFFEE
:1008900000800002B0B586B0044601A81421FFF71D
:1008A0004DFC2068114988421DD10125A804104C37
:1008B000216801432160216801400091059503955D
:1008C00012200290032004908002019000980948B1
:1008D00001A9FFF77FFE6805A1680143A160A16837
:1008E00001400091009806B0B0BDC04600540040E1
:1008F00014100240000400481A48406802490A687F
:10090000101808607047C0462C02002010B5A1489E
:10091000016810220A4302600024204600F004F817
:1009200000F022F8204610BD70B504467D20C000BE
:100930000C4E7168FFF7D4FB014699480068FFF739
:10094000CFFB00F055FB0125032C08D8002806D169
:100950000025E84321462A4600F01CF8346028466A
:1009600070BDC0460000002082B009480168012225
:10097000114301600168114001910199110742681A
:100980000A434260406808400090009802B07047F7
:100990001810024080B501F095F880BDF0B585B023
:1009A00004468078C007394B3BD0012211071868F4
:1009B000C0000191029202D50020039007E0186860
:1009C0000843186018680840049004980392304E59
:1009D0003068C00538D5032528022C4B59680140E2
:1009E00012D06268024091420ED002980004596809
:1009F0005A6802435A605A6882435A600846254A38
:100A000010405860C80731D15868224908406168D1
:100A1000014359600398002803D01868019988435E
:100A200018602068C10705D0596903229143A26864
:100A30000A435A610025800625D55869102188434C
:100A4000E168014359611EE00298070230683843AB
:100A50003060FFF78FFE054630683842BBD1FFF7A4
:100A600089FE401B6428F7D903250CE0FFF782FEBE
:100A70000646494F054B58688007C5D4FFF77AFEF4
:100A8000801BB842F6D9284605B0F0BD1C100240C4
:100A900000700040FFFCFFFFF8B500284ED0044670
:100AA0003C4B1A68012002408A4208D21A6801268B
:100AB000B2430A431A601A6832408A4267D10091F1
:100AC00021688A070ED54A0705D507221202434D31
:100AD0002B6813432B60414D2A68F0239A43A36887
:100AE00013432B60C9072BD12A4A106801263040D6
:100AF0000099884207D91068B04308431060106815
:100B00003040884243D12078400707D507200002B3
:100B1000324A11688143E0680843106000F042F8EF
:100B20002E4909680906090F1C4A515CC8401C4936
:100B3000086000263046FFF7F7FE28E0012626E091
:100B40006168264A121F012902D11268920305E04A
:100B50001268022901D1920100E09207064616D5DB
:100B60001E4A10680326B04308431060FFF702FED8
:100B70000746094D194800680C2101406068800053
:100B80008142B1D0FFF7F6FDC01BA842F2D9304632
:100B9000F8BDC0460020024088130000D01E0008A7
:100BA0004C00002010B50D490A680C2313400C4876
:100BB000082B08D193021B0F0AA4E45C896AD203B4
:100BC00003D4104807E0044606E00F22114009A2B2
:100BD000515CFFF785FA4443204610BD04100240E3
:100BE00000127A0002030405060708090A0B0C0D1F
:100BF0000E0F10100102030405060708090A0B0C6A
:100C00000D0E0F1000093D00F0B587B0074601201A
:100C1000002F00D1C2E104903878C007F14E05974B
:100C200011D071680C200140042906D07168014080
:100C3000082937D17068C00334D53068800302D5E5
:100C40007868002838D0387880074ED5706800075B
:100C5000800F1BD070680C210140082902D17068F8
:100C6000C00313D53068059CE168002926D0012116
:100C700008433060FFF77EFD0546306880072DD4BD
:100C8000FFF778FD401B0228F7D986E1306880071E
:100C9000059A02D5D06801280ED13068F821884322
:100CA00011691FE07968002900D1C1E0012900D055
:100CB000D7E001200104DDE004986FE101218843C1
:100CC0003060FFF757FD0546306880070DD5FFF708
:100CD00051FD411B03200229F6D95FE13068F8215C
:100CE00088432169C90001433160059C20780007D1
:100CF00020D42078400730D42078C00600D4C4E047
:100D0000059A5169012971D1706B04210143716306
:100D1000706B012101437163FFF72CFD0546706B79
:100D2000800700D5A9E0FFF725FD411B032002291C
:100D3000F5D933E1706AE169002918D0012108432F
:100D40007062FFF717FD0546706A8007D1D4FFF780
:100D500011FD401B0228F7D91FE101221107F0699C
:100D6000C0000191039211D50020029016E00121EC
:100D700088437062FFF7FEFC0546706A8007B8D5AD
:100D8000FFF7F8FC401B0228F7D906E1F069084399
:100D9000F061F0690840069006980292924F386818
:100DA000C00511D505988168904F00292AD00129E6
:100DB000039A06D0306A052900D0BCE0042108431C
:100DC0003062306A1043BBE0039804023868204365
:100DD0003860FFF7CFFC054638682042E2D1FFF7C4
:100DE000C9FC411B03206429F6D9D7E0706B491D6B
:100DF00000D08CE0042188437063706BF821884335
:100E000091693FE0306A039988433062306A042177
:100E100088433062FFF7AEFC0546306A800700D495
:100E20009BE0FFF7A7FC411B0320B942F5D9B5E0D1
:100E30000120010432688A433260810432688A43A7
:100E400032604404FFF796FC0546059F3068204257
:100E500000D1F8E6FFF78EFC411B03206429F5D989
:100E60009CE03068052900D081E001218A0410430C
:100E7000306009043068084380E0706BF8218843D3
:100E800005998969C900014371630598046A002CBA
:100E90001AD070680C210140082917D1012C049840
:100EA0007CD00120030471680B40F26A059D6C6AD6
:100EB000A34273D10F231A40EC6AA2426ED19A0466
:100EC0001140AA6A914269D1002067E00120020620
:100ED00031680492914331604706FFF74BFC0546A9
:100EE000022C0AD1049C3068384259D0FFF742FCEA
:100EF000411B03200229F6D950E030683842E3D084
:100F0000FFF738FC411B03200229F6D946E00421F3
:100F100008437063706B012188437063FFF72AFCFC
:100F20000546706B8007B0D5FFF724FC411B0320FA
:100F30000229F6D932E090433062306A04218843B6
:100F40003062FFF717FC0546306A800705D4FFF7CB
:100F500011FC401BB842F7D91FE002980028059CFD
:100F600000D1C9E6F06901998843F061C4E6012126
:100F70000A0490433060890430688843306001205F
:100F80004404FFF7F7FB05463068204200D05AE6DC
:100F9000FFF7F0FB401B6428F6D9032007B0F0BD33
:100FA000F06A0F218843059AD16A0143F1623D201E
:100FB000000471688143906A0843516A014371607B
:100FC000306820433060FFF7D5FB04463068384274
:100FD00000D079E7FFF7CEFB011B03200229F5D9EA
:100FE000DCE7C0460010024000700040881300009B
:100FF000401E010E01D0012070470749074A50608A
:10100000074803680B400321890759180160002035
:101010009060072111607047FFFFFF0010E000E0C3
:1010200020ED00E070B50246C06B012801D102201E
:1010300070BD0020D0633F231B02CC689C430F236C
:101040009D028E68AE432643DB024C689C433443CA
:1010500007231B030D689D43254303235B030C6992
:101060009C432C434B6923430124A403A343C96934
:1010700019431268516470BDB0B5C26B012A01D129
:10108000022119E0022202640122C26303685C6843
:101090007025AC430D6825439C685D60714DAB4283
:1010A00002D0064DAB4204D18025AC4349682143B0
:1010B00099600021C16302640846B0BD000400408D
:1010C00010B500281BD00446006C002804D1002075
:1010D000E063204600F016F8022020642068211DFD
:1010E00000F0B0FB012060666064A064E0642065ED
:1010F0006065A065E06520662064002010BD0120C9
:1011000010BD000081B000685649884209D1012015
:10111000C00205490A6802430A600968014000915B
:10112000009801B07047C04618100240F8B5044658
:10113000C06B012801D1022269E002202064012550
:10114000E56320688268344B1A4082600F6800268D
:10115000002F22D0102F20D0202F1ED0302F1CD0B7
:10116000402F22D0502F2AD0602F32D06A039742CE
:101170003AD02A039742324647D0702F49D177336D
:1011800082681A404B688F68C9681F430902394357
:10119000114381608168772234E081687022914335
:1011A0000F430721394381602EE0CA68496800F087
:1011B00065FC2068816847220A43302112E0CA6832
:1011C000496800F05BFC2068816857220A432021AF
:1011D00008E0CA68496800F062FC206881686722FC
:1011E0000A4310218A430EE0773382681A404B6825
:1011F0008F68C9681F430902394311438160012187
:10120000890382680A4382603246E6632564104699
:10121000F8BD2A46F9E7C0468800FFFF10B586B042
:10122000044601A81421FEF789FF20680D49884271
:1012300016D1012041040C4A13680B431360126855
:101240000A40009202210591002204920392029129
:10125000400201900920C006009901A9FFF7BAF9E0
:1012600006B010BD002C014014100240B0B5044679
:10127000C06B012801D10220B0BD0D460120E06302
:101280000221CA41032A4AD87A441279520097446B
:10129000011022312068294600F012FB2068816984
:1012A00008220A438261816904229143816129698C
:1012B0000FE02068294600F03DFB0121CA022068AA
:1012C000836913438361890282698A438261296940
:1012D000090218301FE02068294600F063FB2068EF
:1012E000C16908220A43C261C16904229143C161F4
:1012F00029690FE02068294600F090FB0121CA020D
:101300002068C3691343C3618902C2698A43C26109
:10131000296909021C3002680A430260002000218A
:10132000E163B0BD10B500281BD00446006C002856
:1013300004D10020E063204600F015F8022020646C
:101340002068211D00F07EFA012060666064A064C0
:10135000E06420656065A065E0652066206400208B
:1013600010BD012010BD7047FEE70000FEB50290E1
:101370004508782635400920C40601220192BC4B5D
:1013800020462946984775400027204629463A4678
:10139000B74B984700F044FC02980007450E2046E2
:1013A0002946019AB24B9847B14B754020462946D1
:1013B0003A46984700F034FCFEBDC04610B5012007
:1013C0000024214600F0CDF80220214600F0C9F8A3
:1013D00010BDB0B50C464007800E403000252946B0
:1013E00000F0BFF8082D05D0605D012100F0B9F8CC
:1013F0006D1CF7E7B0BD80B5002900D040308021DA
:101400000143C8B2002100F0ACF880BDB0B509209E
:10141000C006022100242246FFF7A4F90A20FFF7A4
:10142000C9F83320084D2146A84732202146A84755
:1014300028202146A8470C202146A847FFF7BEFFD9
:1014400006202146A847B0BD63150008FEB50292EC
:10145000019100270F283E463C4611D840B280003B
:1014600012A10C5821A10D5830490E5808E0285CF3
:10147000C0002F4909183819C0B2FFF7AAFF7F1C16
:10148000F8B28642F3D801980299FFF7B4FFA41985
:101490000025E8B2864207D9C0432018C0B2012116
:1014A00000F05FF86D1CF4E7FEBDC04600000000D0
:1014B000000000000000000000000000000000002C
:1014C000000000000000000000000000000000001C
:1014D000000000000000000000000000000000000C
:1014E0000300000000000000040000002D000020A8
:1014F0000F00002008000020210000202A0000200A
:101500003800002027000020440000201D0000209B
:101510003500002050000020160000201A00002096
:101520003F000020540000203C000020901E0008D6
:101530005800002010B5441C0078C0B2012100F012
:1015400010F8611C207800280C46F6D110BD10B5AB
:10155000044608461146FFF74EFF2046FFF7EAFF14
:1015600010BD10B50446012903D0002907D100227F
:1015700000E001220920C0060121FFF7F3F8204610
:10158000FFF7F4FE10BD0000F0B589B00024089408
:101590000127F904344802680A43026002680A40DD
:1015A00003920399790402680A43026002680A40C0
:1015B00003920399B90402680A43026002680A4070
:1015C00003920399B90502680A4302600068084063
:1015D000039003987E032548254D31462246A847AF
:1015E0000920C006019023492246A84722482349E2
:1015F0002246A8472248802102912246A847079404
:1016000006940597049604AE1E4A18483146904742
:1016100007940694059717480490019D2846314683
:10162000184A90470694059402980490284631463B
:10163000144DA84706940594072004900E4831469F
:10164000A8470794069405970C4804900A48314629
:10165000A8470794069405970298049008483146D5
:10166000A84709B0F0BDC046141002400008004869
:10167000650700087F09000000040048D8F3000057
:1016800000140048D505000810B5134C01200021B6
:10169000124A134B23606260A160E0602046103064
:1016A0001421FEF74BFD2046FFF7A6F8002801D0D5
:1016B000FEF77BFF08480021FFF760F8002801D003
:1016C000FEF773FF04480021FFF777F8002801D0E8
:1016D000FEF76BFF10BDC046700100200E09002010
:1016E0000054004070B596B00025159514951395DB
:1016F00012951195109509A81C21FEF71FFD01A850
:101700002021FEF71BFD28482849D94A24C005603E
:1017100041608560C56005610838FFF7D1FC00288D
:1017200001D0FEF742FF0126300312901E4812A995
:10173000FFF7FCFC002801D0FEF737FF1A48FFF73F
:10174000F1FD002801D0FEF730FF119510951648E5
:1017500010A9FFF791FC002801D0FEF726FF6020BA
:10176000099009AC201D1821FEF7E8FC0E48042260
:101770002146FFF77BFD002801D0FEF716FF01ACE4
:1017800014212046FEF7DAFC0895700306900648FF
:101790002146FFF747FC002801D0FEF706FF02486C
:1017A000FFF73CFD16B070BDC4010020FFFF000034
:1017B000FEE77047704780B5FFF79EF880BD70B5B3
:1017C00094B008AC201D1C21FEF7B8FC002507953D
:1017D00006950595049513950520C0041290119562
:1017E0000226109610200C9001200B90089603956D
:1017F0000295019500952046FFF706FA002803D0D0
:10180000EFF3108072B6FEE7079506950596072060
:10181000049004A80121FFF73FF9002803D0EFF35B
:10182000108072B6FEE70395202000906846FFF70F
:10183000B5F8002803D0EFF3108072B6FEE714B0BD
:1018400070BD704710B50468894A904202D01A4BA7
:10185000984204D170239C434B68234300E0234605
:10186000154CA0420AD0154CA04207D0904205D09A
:10187000804CA04202D0804CA0421AD10324240202
:10188000A343CC681C4380239C434B6923430360E0
:101890008B68C3620B688362904205D0754A9042A0
:1018A00002D0754A904201D1096901630121416169
:1018B00010BD1C46E7E7C046000400400020004081
:1018C000F0B5026A01239A430262026A02239A4334
:1018D0008D681543436882697324A2430E68644F80
:1018E000B84205D0634CA04202D0634CA04207D15D
:1018F0000C24A543CC680427BC435D4F2C4300E077
:101900002C463243B84205D05A4DA84202D05A4D17
:10191000A84207D103252D02AB434D698E691D43B3
:10192000354300E01D4645608261496841630462B9
:10193000F0BDC046F0B5026A10239A430262026A03
:1019400020239A438B681E011643426873231B02AF
:1019500085699D430B681B02454FB84201D0344650
:1019600007E0C024A643CC6824014027BC43404F75
:1019700034432B43B84205D03E4DA84202D03E4DE1
:10198000A84208D10325AD02AA434D698E69AD0076
:101990001543B2002A43426083614968816304624F
:1019A000F0BDC046F8B501221302046A9C430462EC
:1019B0005202036A93438A6815021D434368C26951
:1019C0007324A2430E682A4FB84201D02C460AE085
:1019D0000324A402A543CC68240200940E4C009F6B
:1019E0003C40234F2C433243B84205D0214DA842FE
:1019F00002D0214DA84208D103252D03AB434D69E8
:101A00008E692D011D4333012B434360C261496838
:101A1000C1630462F8BDC04600FBFFFF70B501233F
:101A20001A03046A944304625A03046A94438A685A
:101A300012032243446873252D02C669AE430D6824
:101A40002D0235430A4EB04205D00A4EB04202D0B4
:101A5000094EB04205D19B039C434B699B01234334
:101A600000E023464360C56149680164026270BDBD
:101A7000002C01400048014000440140B0B5036A19
:101A8000046A0125AC4304628469F025AC43120169
:101A9000224382610A2293430B430362B0BD10B517
:101AA000036A1024A34303620F231B0384699C432E
:101AB00012032243036A8261A0229343090119435E
:101AC000016210BD002805D40322034693430C4A4B
:101AD0009A1806E00F220240083A03239A43074B64
:101AE000D2188007C00E8901C9B28140FF2383400C
:101AF00010689843084310607047C0461CED00E032
:101B000000E400E070B50546FEF74CFC04462846AC
:101B1000FEF786FC05460E462046FEF735FC0246DB
:101B20000B4628463146FEF7B9FB0022064BFEF76E
:101B3000C3FBFEF751FCC3B2044D05A12846224663
:101B400000F080F8284670BD0000244060010020AD
:101B500025642E2564000000010407D000216429BB
:101B600002D200BF491CFAE7401EF5E770470000AB
:101B700084B0FEF7CBFEFFF722FEFFF705FDFFF76F
:101B800083FDFFF7AFFD012461021F4D1F4E284664
:101B90002246B047210228462246B0471021284657
:101BA0002246B047082128462246B047FFF72EFCC0
:101BB0000D20092100252A46FFF748FC0C200521AD
:101BC0002A46FFF743FC1248FFF79CFF02466E4689
:101BD000104F3046394600F035F830462946224647
:101BE000FFF7B5FC0C48FEF7E5FC0C48FFF78AFF51
:101BF00002463046394600F025F83046294622464E
:101C0000FFF7A5FCFEE7C046000400486507000892
:101C10009A99F141E01E00088813000066662A4286
:101C2000B0B50920C4060425012220462946FEF746
:101C300099FDC820FFF790FF002220462946FEF7B5
:101C400091FDB0BD0FB410B504A9074B02AA0398CB
:101C500000F032F8044602A9002000F013F92046F3
:101C600010BC08BC04B01847851E00082021020CD7
:101C700001D010211046020A01D01046083902098D
:101C800001D01046091F820801D01046891E420863
:101C900001D0881E7047081A704702E008C8121F5A
:101CA00008C1002AFAD170477047002001E001C145
:101CB000121F002AFBD17047FFB58DB00F460546B5
:101CC000002606E025280AD0109A0F9990476D1C2F
:101CD000761C28780028F5D1304611B0F0BD0024DC
:101CE0000121674A009400E004436D1C2B780846EC
:101CF000203B98401042F7D128782E2815D1042097
:101D0000044368786D1C2A280AD101CF6D1C00900D
:101D10000BE000990A225143303940186D1C0090A5
:101D20002878014630390929F3D92878692843D021
:101D300006DC0028D0D063280BD0642804D13BE017
:101D400073280FD075284CD0109A0F999047761CA5
:101D500094E03878694608720020487202A8019021
:101D6000012003E0386801900020C0433F1D610757
:101D70000CD5002400E0641C00998C420FDA8442E8
:101D8000F9DB0199095D0029F5D108E0002400E0A4
:101D9000641C8442FCDB0199095D0029F8D13619E5
:101DA00007E0019801990078491C0191109A0F9958
:101DB0009047641EF5D261E00A20019001CF00280F
:101DC00002DA40422D2102E0210504D52B216A468A
:101DD0001172012103E0E10701D02021F7E70C9106
:101DE00004E00A20019001CF00210C910BA90B9176
:101DF00008E00199FEF774F90A460B993032491E42
:101E00000B910A700028F4D10B9803A9081A20300E
:101E10000190600701D5009801E001200090019930
:101E2000884203DD01460198081A00E000200024E2
:101E3000009006E002A8109A005D0F999047641C7C
:101E4000761C0C988442F5DB04E0109A30200F9940
:101E50009047761C0099481E00900029F5DC08E0A8
:101E60000B980B990078491C0B91109A0F99904789
:101E7000761C0199481E01900029F1DC6D1C28E7B1
:101E8000092801000A68531C0B601070704700009D
:101E90000800000007000000070000000600000026
:101EA0000300000004000000030000000600000022
:101EB0000400000003000000040000000400000013
:101EC0000300000005000000040000000300000003
:101ED00000000000000000000102030406070809DA
:101EE0004D656864693A257300000000101F000802
:101EF000000000206001000070050008302000088C
:101F000060010020D0040000AA1C000800000000AE
:101F1000420442014043070A0D010E0F0C07080955
:101F20000A0B080C0E101C1D0D0B040D18171909B7
:101F300010090408111504161213140001020304F9
:101F400005060100010206010D14012016011E08FC
:101F5000071F0317100001024C127A001A1B0B1006
:101F6000160B040C641F0507270202020418024D19
:101F700003040B080807040A0015151F360404049F
:101F800004073804000611090F1066040404040451
:101F90004602021E00044C0E0A0F0418000500073A
:101FA000051F86020202021F5B1F050700040011C5
:101FB00011110E460C0201020C460E011F000E66A6
:101FC00002021F000C2B0304180001010111110E65
:101FD0006701020402011F3C02021F000401020407
:101FE00002111F4702000304041F3802000202020C
:101FF0000418651802021F8415151F5B13120C10BC
:1020000010161010110F4C02021E000C04000609DD
:10201000011F5E0205001517141C04040407051FA8
:10202000550A00111E170E0A0E02041800000000C7
:04000005080000B13E
:00000001FF
