:020000040800F2
:10000000A8060020C5000008DD1E00089F18000893
:1000100000000000000000000000000000000000E0
:100020000000000000000000000000005721000850
:100030000000000000000000DF1E00085921000839
:10004000D700000800000000D7000008D700000813
:10005000D7000008D7000008D7000008D700000824
:1000600000000000D7000008D7000008D7000008F3
:10007000D7000008D7000008D700000800000000E3
:10008000D70000080000000000000000D7000008B2
:1000900000000000E9210008D7000008D700000890
:1000A00000000000D700000800000000D700000892
:1000B0000348854600F03CFB004800474125000806
:1000C000A80600200448804704480047FEE7FEE7F2
:1000D000FEE7FEE7FEE7FEE7E5210008B1000008C5
:1000E00030B50B46014600202022012409E00D46D0
:1000F000D5409D4205D31D469540491B2546954058
:1001000040191546521E002DF1DC30BD10B5202AD5
:1001100004DB0846203AD040002110BD0B46D340F6
:10012000D0402024A21A91400843194610BDD2B2F3
:1001300001E00270401C491EFBD270470022F6E726
:1001400010B513460A4604461946FFF7F0FF20464D
:1001500010BD0000F0B507460846584087B0C00FF4
:10016000049048000E46590040084908BC1A8841CE
:1001700005D2384631461E4617460B460246580001
:10018000400810434CD0300D039040055900400DFD
:10019000490D0590401A0290402872DA1803012197
:1001A000000B09050843019004980092002805D02F
:1001B000019952420020884100920190029840210A
:1001C0000A1A0199009800F0EFF905460C466B46B3
:1001D00007CB00F0F9F9C0197141039A0E0D002305
:1001E000D71756401A467A40164344D0049A002A3C
:1001F0002DD0029A012A039A15DC1205C01A9141EA
:1002000001263605001C7141D20F059ED2070093CE
:10021000019202962A46234600F037FA07B0F0BD55
:1002200038463146FAE71605224A0F46B218C01A78
:10023000B74101210905001C4F4100187F411146BB
:1002400018187941E20F10436D19644113E0E20779
:100250006D0815436408C2071443039A012612056A
:10026000C01A91413605001C7141CE074008304349
:100270004908C01851412A46234600F0F9F9CDE754
:10028000FFE7049801224000C117121A00238B4196
:1002900004983146C417381AA141EEE730B401245E
:1002A000E407634030BC55E730B40124E407614003
:1002B00030BC4FE70000E0FFF0B51FB488B00B99E9
:1002C0000998002448400999C00F4900490809913C
:1002D000C0070B990090490049080B9109990898AB
:1002E000A64608431CD00B990A98084318D00998D1
:1002F00001244000420D4800410D099824050003E7
:10030000000B204309900B980003000B20430B9037
:1003100050181C494018002201901446104605E070
:10032000002001460DB0F0BD032801DA034600E0CD
:1003300003239C46C11A0AAE0AE05F0008ADED5BDC
:100340004F00F75B7D430027AA187C41491C5B1EC8
:100350006145F2DD410004AB5A522104120C0A43FC
:10036000240C401C0828DFDB01980290009970469D
:1003700001910090059B049A0799069800F085F971
:10038000D0E700000DFCFFFFF0B50C465C4085B0E7
:10039000E40FE40703944C000026640859009446D7
:1003A000490802460296224321D062460A431ED0E3
:1003B0006200570D4A000E032303550D0124024627
:1003C0002C492405781B1B0B360B4018234326436E
:1003D000614600901C46501AB44103D30098401C5B
:1003E000009002E0921800985B41002803DA002098
:1003F000014605B0F0BD00200121090507468646EB
:1004000011E064461D46141BB54106D36546521BD8
:10041000B341744607430C43A646CD07400849083C
:10042000284392185B4105460D43EAD11046184314
:1004300013D06046194650407140084306D06046CC
:10044000101AB34106D20122002306E00022012344
:10045000DB0702E00122D2435310009874460105E5
:10046000381C6141029C039D0019694100F000F9AC
:10047000BFE70000FD03000010B5002296231146DF
:1004800000F0BDF810BD00000EB5C217C10F5040FE
:10049000CA0740180021054B0293019200910A46B9
:1004A0000B4600F0F2F803B000BD0000330400007A
:1004B0000EB505490291002100910A460B460191B3
:1004C00000F0E3F803B000BD33040000C20F4100A8
:1004D00040020123400ADB05D207090EC0187F291C
:1004E00001DA00207047962903DC9623591AC84088
:1004F00001E096398840002AF4D04042704700005D
:1005000070B5CD0F4A0009030123090B1B051943E0
:100510000B4BED070024520D9A4201DA002070BD0A
:10052000074B34339A4203DC9A1AFFF7EFFD02E0DF
:100530000449511888402C43F1D0404270BD00005E
:10054000FF030000CDFBFFFFC20FD20740004008B1
:100550000BD0C10D0723DB01C91840020905400A71
:100560001143C208400711437047002001467047FD
:10057000CB0FDB07490010B5490802460A4307D0F4
:100580000A0D07240903E401090B121B002A01DCF0
:10059000002010BDC900440F0C43C100E018D20573
:1005A000801800F024F810BD10B5202A04DB0146A5
:1005B000203A9140002010BD914020239C1A034610
:1005C000E3401943904010BD10B5202A06DBCB173D
:1005D0000846203A1041C1170B4306E00B46134171
:1005E000D0402024A21A91400843194610BD00298A
:1005F00004DA401C490001D140084000704770B443
:100600000024050C05D11024000402D1002921D0BA
:100610001124050E01D100020834050F01D100019B
:10062000241D850F01D18000A41C002801DB40009F
:10063000641C002908D020252E1B0D46F540A14042
:1006400000D001212943084301061B1B000ADB1DC2
:1006500002D5002070BC7047DB05181880180029EF
:10066000F8DA401C4900F5D170BC400840007047E2
:1006700010B5002B08DA0024401C614192185B4140
:100680001A4301D14008400010BDF0B51FB482B03C
:1006900005460C0003D0084602F03AF802E002F0EA
:1006A00037F820300246009021462846FFF77CFFAD
:1006B000049B059A04460F4618431143084314D07F
:1006C000184610431BD0009840210A1A1846059975
:1006D000FFF71CFD05460E46009A05990498FFF7A2
:1006E00063FF084305D0012004E02046394607B0E7
:1006F000F0BD0020C11705430E432C43374300993A
:100700000E986305401A7905E40A00220C43FD0A9D
:100710000A3002D500200146E9E7010510196941B8
:100720000C9C0D9D00196941FFF7A2FFDFE7000057
:10073000064C0125064E05E0E36807CC2B430C3C34
:1007400098471034B442F7D3FFF7B6FC902900085D
:10075000B029000830B58C180278401C13071B0F15
:1007600001D10378401C120906D10278401C03E035
:1007700005780D70401C491C5B1EF9D101E00B701F
:10078000491C521EFBD1A142E6D3002030BD00001F
:100790000C4900220A814880012008707047C04639
:1007A000084A9379002B00D0704700235381918031
:1007B0005080138101209071107070470148002112
:1007C000817170476001002080B52B2148430A21C8
:1007D000FFF786FC0021814202D200BF491CFAE7E4
:1007E00080BDEFF3108072B6FEE70000B0B504469E
:1007F00000F0E0F80546601C02D0EA4840680419A1
:1008000000F0D8F8401BA042FAD3B0BDF0B588B0D4
:1008100007465E48874201D0052000E00320009093
:1008200000220692144605970E683046E04000D13B
:10083000AAE001250295A5402E4000D19EE0049437
:1008400003924A68032314461C40601E01281AD8EC
:1008500003230192069A9340B8689843CF68974063
:100860000743059887600198C006C00F049A90401E
:10087000059F7F68AF43074305984760059FD843AE
:100880005500019A08E01846069DA840C043032C75
:1008900002D1069D1C461CE0FB6803408F68AF40F8
:1008A0001F43059BDF60059F022C12D11C22039B76
:1008B0001A400F239340049CE408A4003C19276AC3
:1008C0009F430B6993403B43059F23624A6803247F
:1008D0001440AC403B68034023433B609003800FCF
:1008E000039A049C4AD0BA4B1868029D28431860AA
:1008F00018682840079023460C2414400F20A0407D
:1009000003229343079A234D5A5982435B190920C6
:10091000C006874208D08748874207D01E488742D2
:10092000009804D1022002E0002000E00298A040DC
:1009300010431860164800684B68DA0301D530434D
:1009400000E0B043049C124A106050689A0301D53D
:10095000304300E0B0430E4A50609068DA0201D59F
:10096000304300E0B0430A4A9060D0689A0201D553
:10097000304300E0B043039A054BD860121D06983F
:10098000801C0690641C4FE708B0F0BD000C0048C6
:1009900000040140080001400008004800690840C8
:1009A000411E88417047002A01D0182200E0282209
:1009B00081507047644800687047C046B0B5436CCA
:1009C0000222202B17D1036C012B14D02422426465
:1009D000026813680124A3431360230315689D4331
:1009E000156013680B4313601168214311600022E6
:1009F0000264202141641046B0BDB0B5436C0222B0
:100A0000202B17D1036C012B14D0242242640268DE
:100A100013680124A34313600F231B0215689D4331
:100A20000902294311601168214311600022026408
:100A3000202141641046B0BD70B5002820D0044686
:100A4000406C002804D100202064204600F042F8C9
:100A5000242060642068026801218A4302600F221A
:100A600012066368934303618368184A13408360E6
:100A7000A368E568012D05D1CD032B43836009E010
:100A8000012070BD2126B60233438360022D01D1BF
:100A9000CB02436043680E4D1D434560C36813405D
:100AA000C360226963691343A26912021A43C260D8
:100AB000E269236A1343036002680A43026000206C
:100AC000E064202161642063A06470BDFF7FFFFFAC
:100AD00000800002B0B586B0044601A81421FFF7DB
:100AE0002DFB2068114988421DD10125A804104C16
:100AF000216801432160216801400091059503951B
:100B0000122002900320049080020190009809486E
:100B100001A9FFF77BFE6805A1680143A160A168F8
:100B200001400091009806B0B0BDC046005400409E
:100B300014100240000400481A48406802490A683C
:100B4000101808607047C046A002002010B5A748E2
:100B5000016810220A4302600024204600F004F8D5
:100B600000F022F8204610BD70B504467D20C0007C
:100B70000C4E7168FFF7B4FA01469F480068FFF712
:100B8000AFFA00F061FB0125032C08D8002806D13C
:100B90000025E84321462A4600F028F8346028461C
:100BA00070BDC0460000002082B0094801680122E3
:100BB00011430160016811400191019911074268D8
:100BC0000A434260406808400090009802B07047B5
:100BD00018100240002805D41F210840012181403F
:100BE000014801607047C04600E100E080B501F0B7
:100BF00051FC80BDF0B585B004468078C007394B04
:100C00003BD0012211071868C0000191029202D561
:100C10000020039007E0186808431860186808402F
:100C2000049004980392304E3068C00538D50325EF
:100C300028022C4B5968014012D062680240914250
:100C40000ED00298000459685A6802435A605A68E4
:100C500082435A600846254A10405860C80731D17F
:100C60005868224908406168014359600398002888
:100C700003D018680199884318602068C10705D01F
:100C8000596903229143A2680A435A6100258006EC
:100C900025D5586910218843E168014359611EE058
:100CA00002980702306838433060FFF783FE05463C
:100CB00030683842BBD1FFF77DFE401B6428F7D96E
:100CC00003250CE0FFF776FE0646494F054B5868B2
:100CD0008007C5D4FFF76EFE801BB842F6D92846C0
:100CE00005B0F0BD1C10024000700040FFFCFFFF8B
:100CF000F8B500284ED004463C4B1A68012002404B
:100D00008A4208D21A680126B2430A431A601A6856
:100D100032408A4267D1009121688A070ED54A077E
:100D200005D507221202434D2B6813432B60414D1A
:100D30002A68F0239A43A36813432B60C9072BD179
:100D40002A4A1068012630400099884207D9106865
:100D5000B0430843106010683040884243D1207887
:100D6000400707D507200002324A11688143E06836
:100D70000843106000F042F82E4909680906090F7F
:100D80001C4A515CC8401C49086000263046FFF7E9
:100D9000EBFE28E0012626E06168264A121F0129A1
:100DA00002D11268920305E01268022901D1920172
:100DB00000E09207064616D51E4A10680326B04387
:100DC00008431060FFF7F6FD0746094D1948006813
:100DD0000C210140606880008142B1D0FFF7EAFD3C
:100DE000C01BA842F2D93046F8BDC04600200240E0
:100DF00088130000742900084C00002010B50D492C
:100E00000A680C2313400C48082B08D193021B0FCF
:100E10000AA4E45C896AD20303D4104807E00446BC
:100E200006E00F22114009A2515CFFF759F9444333
:100E3000204610BD0410024000127A00020304058F
:100E4000060708090A0B0C0D0E0F1010010203040F
:100E500005060708090A0B0C0D0E0F1000093D00CE
:100E6000F0B587B007460120002F00D1C2E1049001
:100E70003878C007F14E059711D071680C200140F9
:100E8000042906D071680140082937D17068C00371
:100E900034D53068800302D57868002838D0387897
:100EA00080074ED570680007800F1BD070680C213A
:100EB0000140082902D17068C00313D53068059C31
:100EC000E168002926D0012108433060FFF772FD58
:100ED0000546306880072DD4FFF76CFD401B0228C3
:100EE000F7D986E130688007059A02D5D0680128D5
:100EF0000ED13068F821884311691FE07968002914
:100F000000D1C1E0012900D0D7E001200104DDE0DB
:100F100004986FE1012188433060FFF74BFD0546DF
:100F2000306880070DD5FFF745FD411B03200229DE
:100F3000F6D95FE13068F82188432169C90001438F
:100F40003160059C2078000720D42078400730D4F9
:100F50002078C00600D4C4E0059A5169012971D1F6
:100F6000706B042101437163706B01210143716354
:100F7000FFF720FD0546706B800700D5A9E0FFF75D
:100F800019FD411B03200229F5D933E1706AE1699B
:100F9000002918D0012108437062FFF70BFD0546B8
:100FA000706A8007D1D4FFF705FD401B0228F7D9EE
:100FB0001FE101221107F069C0000191039211D5D0
:100FC0000020029016E0012188437062FFF7F2FCD6
:100FD0000546706A8007B8D5FFF7ECFC401B022875
:100FE000F7D906E1F0690843F061F069084006901E
:100FF00006980292924F3868C00511D5059881680D
:10100000904F00292AD00129039A06D0306A052979
:1010100000D0BCE0042108433062306A1043BBE0DA
:1010200003980402386820433860FFF7C3FC054684
:1010300038682042E2D1FFF7BDFC411B0320642940
:10104000F6D9D7E0706B491D00D08CE004218843AD
:101050007063706BF821884391693FE0306A0399AF
:1010600088433062306A042188433062FFF7A2FC73
:101070000546306A800700D49BE0FFF79BFC411BCC
:101080000320B942F5D9B5E00120010432688A4352
:101090003260810432688A4332604404FFF78AFC7C
:1010A0000546059F3068204200D1F8E6FFF782FC34
:1010B000411B03206429F5D99CE03068052900D044
:1010C00081E001218A04104330600904306808433C
:1010D00080E0706BF821884305998969C900014354
:1010E00071630598046A002C1AD070680C210140C5
:1010F000082917D1012C04987CD0012003047168C1
:101100000B40F26A059D6C6AA34273D10F231A400B
:10111000EC6AA2426ED19A041140AA6A914269D146
:10112000002067E00120020631680492914331609B
:101130004706FFF73FFC0546022C0AD1049C3068A5
:10114000384259D0FFF736FC411B03200229F6D95B
:1011500050E030683842E3D0FFF72CFC411B0320FD
:101160000229F6D946E0042108437063706B01211F
:1011700088437063FFF71EFC0546706B8007B0D58F
:10118000FFF718FC411B03200229F6D932E09043F7
:101190003062306A042188433062FFF70BFC054659
:1011A000306A800705D4FFF705FC401BB842F7D929
:1011B0001FE002980028059C00D1C9E6F06901995A
:1011C0008843F061C4E601210A0490433060890439
:1011D00030688843306001204404FFF7EBFB05468C
:1011E0003068204200D05AE6FFF7E4FB401B642839
:1011F000F6D9032007B0F0BDF06A0F218843059AA5
:10120000D16A0143F1623D20000471688143906A14
:101210000843516A01437160306820433060FFF732
:10122000C9FB04463068384200D079E7FFF7C2FBBB
:10123000011B03200229F5D9DCE7C046001002405B
:101240000070004088130000401E010E01D00120F4
:1012500070470749074A5060074803680B4003215D
:1012600089075918016000209060072111607047BC
:10127000FFFFFF0010E000E020ED00E07047704746
:1012800070B50246C06B012801D1022070BD00205C
:10129000D0633F231B02CC689C430F239D028E68C2
:1012A000AE432643DB024C689C43344307231B03B5
:1012B0000D689D43254303235B030C699C432C432A
:1012C0004B6923430124A403A343C969194312684A
:1012D000516470BDB0B5C26B012A01D1022119E081
:1012E000022202640122C26303685C687025AC4379
:1012F0000D6825439C685D60E14DAB4202D03E4DD8
:10130000AB4204D18025AC43496821439960002158
:10131000C16302640846B0BD10B500281BD0044666
:10132000006C002804D10020E063204600F016F88D
:10133000022020642068211D00F05EFF012060660D
:101340006064A064E06420656065A065E065206677
:101350002064002010BD012010BD00001CB50068F5
:10136000124988420DD0C64988421DD10120C002D1
:101370000F490A6802430A60096801400191019817
:101380001CBD012040040A490A6802430A6009683A
:101390000140009100981524002120460A46FFF7DD
:1013A00025FC2046FFF716FC1CBDC046004401404A
:1013B00018100240016C012916D102210164016854
:1013C000C86801221043C860AD48814202D00A4873
:1013D00081420BD18868072303400020062B09D0E7
:1013E0000B6813430B607047012070470868104377
:1013F000086000207047C04600040040F8B504466D
:10140000C06B012801D1022269E00220206401257D
:10141000E56320688268344B1A4082600F680026BA
:10142000002F22D0102F20D0202F1ED0302F1CD0E4
:10143000402F22D0502F2AD0602F32D06A039742FB
:101440003AD02A039742324647D0702F49D177339A
:1014500082681A404B688F68C9681F430902394384
:10146000114381608168772234E081687022914362
:101470000F430721394381602EE0CA68496800F0B4
:10148000E5FF2068816847220A43302112E0CA68DC
:10149000496800F0DBFF2068816857220A43202159
:1014A00008E0CA68496800F0E2FF206881686722A6
:1014B0000A4310218A430EE0773382681A404B6852
:1014C0008F68C9681F4309023943114381600121B4
:1014D000890382680A4382603246E66325641046C7
:1014E000F8BD2A46F9E7C0468800FFFF7047B0B54F
:1014F00004468020C54320680169890717D5C16863
:10150000890714D529467E3101610121E161806995
:10151000800703D02046FFF7E9FF05E0204600F0F2
:10152000B3F8204600F030F90020E061206801693E
:10153000490718D5C168490715D529467C3101618D
:101540000221E16180698005800F03D02046FFF70A
:10155000CDFF05E0204600F097F8204600F014F992
:101560000020E06120680169090717D5C1680907F3
:1015700014D52946783101610421E161C0698007F1
:1015800003D02046FFF7B2FF05E0204600F07CF8CC
:10159000204600F0F9F80020E06120680169C906E2
:1015A00018D5C168C90615D52946703101610821D1
:1015B000E161C0698005800F03D02046FFF796FFE8
:1015C00005E0204600F060F8204600F0DDF800203D
:1015D000E06120680169C90709D0C168C90706D060
:1015E00029467F310161204600F022F92068016917
:1015F000090607D5C168090604D505612046FFF72D
:101600003DFE20680169490609D5C168490606D52D
:10161000294640310161204600F040F92068016907
:10162000890607D5C168890604D56035056120465D
:10163000FFF725FEB0BD000010B586B0044601A836
:101640001421FEF77BFD20687749884216D10120DE
:1016500041040C4A13680B43136012680A4000925D
:10166000022105910022049203920291400201900E
:101670000920C006009901A9FFF7C8F806B010BDFF
:10168000002C01401410024070470000B0B5044621
:10169000C06B012801D10220B0BD0D460120E063DE
:1016A0000221CA41032A4AD87A4412795200974447
:1016B000011022312068294600F0EAFD2068816986
:1016C00008220A4382618169042291438161296968
:1016D0000FE02068294600F015FE0121CA022068AB
:1016E000836913438361890282698A43826129691C
:1016F000090218301FE02068294600F03BFE2068F0
:10170000C16908220A43C261C16904229143C161CF
:1017100029690FE02068294600F068FE0121CA020D
:101720002068C3691343C3618902C2698A43C261E5
:10173000296909021C3002680A4302600020002166
:10174000E163B0BD10B500281BD00446006C002832
:1017500004D10020E063204600F015F80220206448
:101760002068211D00F048FD012060666064A064CF
:10177000E06420656065A065E06520662064002067
:1017800010BD012010BD704770470000B0B5044681
:10179000002905D0082905D0042905D1483004E0E6
:1017A000443002E04C3000E050300068012808D19D
:1017B0002046002907D0082907D0042907D148303E
:1017C00006E00120B0BD443002E04C3000E0503073
:1017D00002220260206801252A4600F04BFD2168A4
:1017E0001048814213D01048814205D00F4A9142DF
:1017F00002D0274A914205D1EA034B6C13434B6454
:10180000814204D0086828430860002005E0886809
:10181000072202400020062A00D1B0BD0A682A43F0
:101820000A60B0BD00040040002C014000480140A7
:10183000F8B500681649884200D0F8BD154F3878D1
:10184000002816D001225403134D28462146FFF7E5
:10185000AAF83889401C3881798880B28842ECD94E
:1018600000263E81284621463246FFF79CF83E700E
:10187000F8BDB8790028E0D07889401C7881B98813
:1018800080B28842D9D90120387000207881F8BD13
:101890000044014060010020000800487047FEE756
:1018A000F0B585B0019000F041FB012000F026FB6F
:1018B00000268020C4B2002C26D0049640260125A4
:1018C00003905A4831462A46FFF76DF82846584D8E
:1018D000A8470A273846A84780215448FFF75EF8F2
:1018E00002900025514831462A46FFF75CF83846F9
:1018F0004F4988470298C0B20128039800D0284673
:10190000049E06436008D5E7019800F01DFB012402
:101910002046474FB8474025444F3846294622467F
:10192000FFF741F805242046414988470022384600
:101930002946FFF738F800F0F9FA20463C49884775
:10194000F0B205B0F0BDC046B0B500F0EFFA00F05F
:10195000C7FA0024204600F0F7FA0A252846FEF7C9
:1019600033FF204600F0CAFA2846FEF72DFFB0BD2F
:1019700010B50024204600F0E7FA204600F0BEFA39
:1019800000F0AEFA0A242046FEF71EFF00F0CEFA61
:101990002046FEF719FF10BDF8B500900024204640
:1019A00000F0D2FA204600F0A9FA8022204DD4B2ED
:1019B000002C1CD000980240501E82418021E84833
:1019C000E54B984701263046A8474027E44839466A
:1019D0003246E14B984707263046A8470022E048A8
:1019E0003946DD4B98473046A8476208DFE700F0EC
:1019F0009DFA40270122DA4D28463946FEF7D3FFEB
:101A000002200B4CA04780212846FEF7C7FF064660
:101A10000520A047002228463946FEF7C4FF0A20C9
:101A2000A047F0B2411E48424841F8BD00040048BA
:101A3000C9070008FEB50290450878263540092000
:101A4000C40601220192C44B20462946984775409E
:101A50000027204629463A46BF4B984700F032FE01
:101A600002980007450E20462946019ABA4B98472E
:101A7000B94B7540204629463A46984700F022FE69
:101A8000FEBDC04610B501200024214600F0DDF85F
:101A90000220214600F0D9F810BD10B501460024FF
:101AA000204600F01BF8102C05D22020012100F068
:101AB000CCF8641CF7E710BDB0B50C464007800EAB
:101AC00040300025294600F0C0F8082D05D0605DA3
:101AD000012100F0BAF86D1CF7E7B0BD80B5002910
:101AE00000D0403080210143C8B2002100F0ADF8A1
:101AF00080BD0000B0B50920C006022100242246A6
:101B0000FEF751FF0A20FEF771FE3320084D2146F3
:101B1000A84732202146A84728202146A8470C2064
:101B20002146A847FFF7AEFF06202146A847B0BDD3
:101B30004B1C0008FEB50292019100270F283E467B
:101B40003C4611D840B2800012A10C5821A10D587A
:101B500030490E5808E0285CC0002F490918381990
:101B6000C0B2FFF7A9FF7F1CF8B28642F3D80198F4
:101B70000299FFF7B3FFA4190025E8B2864207D9FE
:101B8000C0432018C0B2012100F05FF86D1CF4E7DB
:101B9000FEBDC04600000000000000000000000084
:101BA0000000000000000000000000000000000035
:101BB0000000000000000000000000000000000025
:101BC0000000000000000000030000000000000012
:101BD000040000002D0000200F000020080000205D
:101BE000210000202A0000203800002027000020CB
:101BF000440000201D00002035000020500000207F
:101C0000160000201A0000203F0000205400002091
:101C10003C000020342900085800002010B5441C66
:101C20000078C0B2012100F010F8611C2078002873
:101C30000C46F6D110BD10B5044608461146FFF714
:101C40004DFF2046FFF7EAFF10BD10B504460129FD
:101C500003D0002907D1002200E001220920C0069C
:101C60000121FEF7A0FE2046FFF7E4FE10BD0000B4
:101C7000F0B589B0002408940127F90434480268BB
:101C80000A43026002680A400392039979040268D9
:101C90000A43026002680A4003920399B904026889
:101CA0000A43026002680A4003920399B905026878
:101CB0000A43026000680840039003987E032548A9
:101CC000254D31462246A8470920C00601902349E8
:101CD0002246A847A84823492246A84722488021EF
:101CE00002912246A847079406940597049604AEED
:101CF0001E4A18483146904707940694059717489E
:101D00000490019D28463146184A90470694059450
:101D10000298049028463146144DA847069405942D
:101D20000720049094483146A847079406940597E5
:101D30000C480490FB483146A84707940694059741
:101D40000298049008483146A84709B0F0BDC04643
:101D50001410024000080048A70900087F0900008D
:101D600000040048D8F30000001400480D080008E3
:101D700010B5134C01200021124A134B23606260FE
:101D8000A160E060204610301421FEF7D7F920460C
:101D9000FEF752FE002801D0FEF723FD084800217F
:101DA000FEF70CFE002801D0FEF71BFD04480021C1
:101DB000FEF723FE002801D0FEF713FD10BDC0463C
:101DC0007C0100200E0900200054004010B5094895
:101DD0000021094A2F23094C046043608160C260DE
:101DE000016141618161FFF797FA002801D0FEF798
:101DF000F8FC10BD38020020E70300000044014059
:101E000070B596B0002515951495139512951195FA
:101E1000109509A81C21FEF791F901A82021FEF7D1
:101E20008DF92B482B492C4A02604160283185608E
:101E3000C160056145618561FFF76EFA002801D038
:101E4000FEF7CFFC012630031290214812A9FFF7BC
:101E5000D5FA002801D0FEF7C4FC1D48FFF772FC3C
:101E6000002801D0FEF7BDFC11951095184810A967
:101E7000FFF730FA002801D0FEF7B3FC602009908C
:101E8000FF20F4300A9009AC204608301421FEF7F8
:101E900055F90F4804222146FFF7F8FB002801D02E
:101EA000FEF79FFC01AC14212046FEF747F9089588
:101EB0007003069006482146FFF7E2F9002801D09A
:101EC000FEF78FFC0248FFF7B7FB16B070BDC046A7
:101ED000D0010020BF030000002C0140FEE7704746
:101EE000FEB50020059004900390029040200190E0
:101EF0008C4801A9FEF78AFC06B080BDB0B586B05B
:101F00000246401E8241874C402520462946FEF766
:101F10004AFD002004900390012102910195059053
:101F200001A92046FEF772FC06B0B0BDFEB5002048
:101F3000059004900390029080200190794801A9B7
:101F4000FEF764FC06B080BDB0B586B00246401E08
:101F50008241744C802520462946FEF724FD00204E
:101F600004900390012102910195059001A920465A
:101F7000FEF74CFC06B0B0BD0004004810B50321CC
:101F80008843FEF779FAFEF7DFFA0024054B224674
:101F9000FEF792F9044B2246FEF7DCF8FEF7E8FA6A
:101FA00010BDC04600405F3F000018C080B503214F
:101FB0008843FEF761FAFEF7C7FA054A054BFEF7BC
:101FC0007BF9054A054BFEF7C5F8FEF7D1FA80BD4F
:101FD000D7A3703D0AF7653FCDCCCCCCCC6C47C0C5
:101FE00070B500231C468B420FD0C55C65400824A9
:101FF000260607D06E002D0601D531256E40F5B2BC
:10200000641EF5E75B1C2C46EDE7A01A411E8841D3
:10201000800070BDB0B50D460146012000F010F8FB
:1020200004464620FEF7E2FB0020294600F008F8AF
:1020300005461920FEF7DAFB25432846B0BD00000F
:10204000F0B585B000910446FFF77EFC8020FFF7D5
:10205000A3FC0746002C03D0012C05D1E32000E0AF
:10206000E520FFF799FC07430194FFF76DFC812001
:10207000FFF792FC04460520FEF7A6FB3C430294C2
:10208000FFF72EFF0024274FE0087C280AD8012004
:10209000FEF7ACFB40213846FEF780FCC0B2641C62
:1020A0000128F1D140213846FEF778FC0390002644
:1020B0001D4C3046A047074604AD28703046A04767
:1020C00068700399090601D0029D02E00221029D79
:1020D0000D43019E144A39020C180120904707460F
:1020E000012E05D0002E10D12046FFF747FF02E059
:1020F0002046FFF75BFFFEF727FA00220B4BFEF7A7
:10210000DBF8FEF7FDF90099088004A802213A46A1
:10211000FFF766FF04462C43FFF72AFC204605B074
:10212000F0BDC04600040048A1180008000024408B
:10213000B0B5FFF709FC8020FFF72EFC0446FE2017
:10214000FFF72AFC0546FFF713FC1420FEF74EFBB1
:1021500025432846B0BD704780B5FEF7EDFC80BD35
:1021600070B594B008AC201D1C21FDF7E7FF0025D9
:10217000079506950595049513950520C0041290C2
:1021800011950226109610200C9001200B900896B5
:1021900003950295019500952046FEF761FE002803
:1021A00003D0EFF3108072B6FEE70795069505960B
:1021B0000720049004A80121FEF79AFD002803D00F
:1021C000EFF3108072B6FEE703952020009068467A
:1021D000FEF710FD002803D0EFF3108072B6FEE783
:1021E00014B070BD7047000080B50248FFF77FF95A
:1021F00080BDC0463802002010B50468904A904265
:1022000002D01A4B984204D170239C434B6823435D
:1022100000E02346154CA0420AD0154CA04207D03E
:10222000904205D0874CA04202D0874CA0421AD1E0
:1022300003242402A343CC681C4380239C434B69A2
:10224000234303608B68C3620B688362904205D0AE
:102250007C4A904202D07C4A904201D109690163D4
:102260000121416110BD1C46E7E7C0460004004063
:102270000020004010B51F230B4001219940046A43
:102280008C4304629A40016A1143016210BD000050
:10229000F0B5026A01239A430262026A02239A435A
:1022A0008D681543436882697324A2430E68644FA6
:1022B000B84205D0634CA04202D0634CA04207D183
:1022C0000C24A543CC680427BC435D4F2C4300E09D
:1022D0002C463243B84205D05A4DA84202D05A4D3E
:1022E000A84207D103252D02AB434D698E691D43DA
:1022F000354300E01D4645608261496841630462E0
:10230000F0BDC046F0B5026A10239A430262026A29
:1023100020239A438B681E011643426873231B02D5
:1023200085699D430B681B02454FB84201D0344676
:1023300007E0C024A643CC6824014027BC43404F9B
:1023400034432B43B84205D03E4DA84202D03E4D07
:10235000A84208D10325AD02AA434D698E69AD009C
:102360001543B2002A434260836149688163046275
:10237000F0BDC046F8B501221302046A9C43046212
:102380005202036A93438A6815021D434368C26977
:102390007324A2430E682A4FB84201D02C460AE0AB
:1023A0000324A402A543CC68240200940E4C009F91
:1023B0003C40234F2C433243B84205D0214DA84224
:1023C00002D0214DA84208D103252D03AB434D690E
:1023D0008E692D011D4333012B434360C26149685F
:1023E000C1630462F8BDC04600FBFFFF70B5012366
:1023F0001A03046A944304625A03046A94438A6881
:1024000012032243446873252D02C669AE430D684A
:102410002D0235430A4EB04205D00A4EB04202D0DA
:10242000094EB04205D19B039C434B699B0123435A
:1024300000E023464360C56149680164026270BDE3
:10244000002C01400048014000440140B0B5036A3F
:10245000046A0125AC4304628469F025AC4312018F
:10246000224382610A2293430B430362B0BD10B53D
:10247000036A1024A34303620F231B0384699C4354
:1024800012032243036A8261A02293430901194384
:10249000016210BD002805D40322034693430C4A71
:1024A0009A1806E00F220240083A03239A43074B8A
:1024B000D2188007C00E8901C9B28140FF23834032
:1024C00010689843084310607047C0461CED00E058
:1024D00000E400E070B50546FDF7F8FF0446284625
:1024E000FEF732F805460E462046FDF7E1FF0246AC
:1024F0000B4628463146FDF7D1FE0022064BFDF77C
:10250000DBFEFDF7FDFFC3B2044D05A128462246C0
:1025100000F0EAF8284670BD000024406C0100205D
:1025200025642E2564000000010407D000216429E1
:1025300002D200BF491CFAE7401EF5E770470000D1
:1025400088B0FEF703FBFFF70BFEFFF791FBFFF7E9
:102550000FFCFFF755FCFFF739FC4B480421FFF750
:1025600015F94A48FEF726FF01277902484D494CE4
:1025700028463A46A047390228463A46A047102145
:1025800028463A46A047082128463A46A047FFF782
:10259000B1FA0D20092100252A46FFF7CBFA0C20BD
:1025A00005212A46FFF7C6FA3B48FFF793FF02468C
:1025B00004AE3A4C3046214600F096F830462946A3
:1025C0003A46FFF738FB7D200190C000FEF70EF978
:1025D0003348FFF77FFF02463046214600F084F87B
:1025E000304629463A46FFF726FBFFF7A1FD642057
:1025F000FEF7CEF8324C2E4F0020FFF74EFA03A81C
:1026000002A9FFF707FD00280BD0019841016420C3
:10261000FEF7C6F804A823A10CC90CC009880180E4
:1026200028E0FEF7CBF803A8008800B2FDF72CFFE6
:1026300000252A463B46FDF7A7FEFDF799FFFFF769
:1026400049FF024604AE30461AA100F04DF802A838
:10265000008800B2FDF718FF2A463B46FDF794FEBE
:10266000FDF786FFFFF736FF0346304612A13246DC
:1026700000F03AF804A800210A46FFF7DCFA2046E9
:10268000FEF7B4F8B8E7C046D001002038020020B9
:1026900000040048A70900089A99F141842900081C
:1026A00066662A422D2D2D2D2C2D2D2D2D0000005E
:1026B0000000244025732C002573257300000000C2
:1026C000B80B0000B0B50920C4060425012220463D
:1026D0002946FEF768F9C820FFF726FF00222046AA
:1026E0002946FEF760F9B0BD0FB410B504A9074B39
:1026F00002AA039800F032F8044602A9002000F074
:1027000013F9204610BC08BC04B01847292900085A
:102710002021020C01D010211046020A01D01046DF
:102720000839020901D01046091F820801D010465D
:10273000891E420801D0881E7047081A704702E0BF
:1027400008C8121F08C1002AFAD17047704700203C
:1027500001E001C1121F002AFBD17047FFB58DB007
:102760000F460546002606E025280AD0109A0F9944
:1027700090476D1C761C28780028F5D1304611B0A2
:10278000F0BD00240121674A009400E004436D1C61
:102790002B780846203B98401042F7D128782E2805
:1027A00015D10420044368786D1C2A280AD101CF72
:1027B0006D1C00900BE000990A22514330394018FB
:1027C0006D1C00902878014630390929F3D9287802
:1027D000692843D006DC0028D0D063280BD06428B9
:1027E00004D13BE073280FD075284CD0109A0F9974
:1027F0009047761C94E03878694608720020487249
:1028000002A80190012003E0386801900020C04335
:102810003F1D61070CD5002400E0641C00998C4228
:102820000FDA8442F9DB0199095D0029F5D108E04E
:10283000002400E0641C8442FCDB0199095D00294E
:10284000F8D1361907E0019801990078491C0191E7
:10285000109A0F999047641EF5D261E00A2001900A
:1028600001CF002802DA40422D2102E0210504D5E3
:102870002B216A461172012103E0E10701D02021DA
:10288000F7E70C9104E00A20019001CF00210C91A0
:102890000BA90B9108E00199FDF722FC0A460B9960
:1028A0003032491E0B910A700028F4D10B9803A90D
:1028B000081A20300190600701D5009801E001203E
:1028C00000900199884203DD01460198081A00E052
:1028D00000200024009006E002A8109A005D0F99E5
:1028E0009047641C761C0C988442F5DB04E0109A37
:1028F00030200F999047761C0099481E00900029BF
:10290000F5DC08E00B980B990078491C0B91109AA4
:102910000F999047761C0199481E01900029F1DC1F
:102920006D1C28E7092801000A68531C0B60107011
:1029300070470000080000000700000007000000CA
:102940000600000003000000040000000300000077
:102950000600000004000000030000000400000066
:102960000400000003000000050000000400000057
:10297000030000000000000000000000010203044A
:10298000060708094D656864693A25730000000070
:10299000B029000800000020600100005407000872
:1029A000D02A000860010020480500004E270008DA
:1029B000420442014043070A0D010E0F0C070809AB
:1029C0000A0B080C0E101C1D0D0B040D181719090D
:1029D000100904081115041612131400010203044F
:1029E00005060100010206010D14012016011E0852
:1029F000071F0317100001024C127A001A1B0B105C
:102A0000160B040C641F0507270202020418024D6E
:102A100003040B080807040A0015151F36040404F4
:102A200004073804000611090F10660404040404A6
:102A30004602021E00044C0E0A0F0418000500078F
:102A4000051F86020202021F5B1F0507000400111A
:102A500011110E460C0201020C460E011F000E66FB
:102A600002021F000C2B0304180001010111110EBA
:102A70006701020402011F3C02021F00040102045C
:102A800002111F4702000304041F38020002020261
:102A90000418651802021F8415151F5B13120C1011
:102AA00010161010110F4C02021E000C0400060933
:102AB000011F5E0205001517141C04040407051FFE
:102AC000550A00111E170E0A0E020418000000001D
:04000005080000B13E
:00000001FF
