:020000040800F2
:1000000020090020C5000008252C000897200008C2
:1000100000000000000000000000000000000000E0
:10002000000000000000000000000000392E000861
:100030000000000000000000272C0008E52E00084A
:10004000D700000800000000D7000008D700000813
:10005000D7000008D7000008D7000008D700000824
:1000600000000000D7000008D7000008D7000008F3
:10007000D7000008D7000008D700000800000000E3
:10008000D70000080000000000000000D7000008B2
:1000900000000000792F0008892F0008D700000811
:1000A00000000000D700000800000000D700000892
:1000B0000348854600F0F2FA00480047F93200088C
:1000C000200900200448804704480047FEE7FEE777
:1000D000FEE7FEE7FEE7FEE7752F0008B100000827
:1000E00030B50B46014600202022012409E00D46D0
:1000F000D5409D4205D31D469540491B2546954058
:1001000040191546521E002DF1DC30BD70B500249B
:100110002546002801DA01244042002901DA0125A0
:100120004942FFF7DDFFAC4200D04042002C00D036
:10013000494270BD10B5202A04DB0846203AD04061
:10014000002110BD0B46D340D0402024A21A91407C
:100150000843194610BD03460B439B0703D009E033
:1001600008C9121F08C0042AFAD203E00B780370F2
:10017000401C491C521EF9D27047D2B201E00270F5
:10018000401C491EFBD270470022F6E710B513460B
:100190000A4604461946FFF7F0FF204610BD421CF0
:1001A0000178401C0029FBD1801A704730B5044605
:1001B0000020034600E05B1C934203D2E05CCD5C70
:1001C000401BF8D030BD0000F0B507460846584047
:1001D00087B0C00F049048000E46590040084908F7
:1001E000BC1A884105D2384631461E4617460B4692
:1001F00002465800400810434CD0300D0390400593
:100200005900400D490D0590401A0290402872DABD
:1002100018030121000B090508430190049800927E
:10022000002805D001995242002088410092019097
:10023000029840210A1A0199009800F06BF90546CE
:100240000C466B4607CB00F075F9C0197141039A53
:100250000E0D0023D71756401A467A40164344D055
:10026000049A002A2DD0029A012A039A15DC12055D
:10027000C01A914101263605001C7141D20F059E1E
:10028000D2070093019202962A46234600F0B3F962
:1002900007B0F0BD38463146FAE71605224A0F4648
:1002A000B218C01AB74101210905001C4F410018BE
:1002B0007F41114618187941E20F10436D196441CE
:1002C00013E0E2076D0815436408C2071443039A5C
:1002D00001261205C01A91413605001C7141CE0756
:1002E000400830434908C01851412A46234600F0CF
:1002F00075F9CDE7FFE7049801224000C117121AF3
:1003000000238B4104983146C417381AA141EEE707
:1003100030B40124E407634030BC55E730B4012415
:10032000E407614030BC4FE70000E0FFF0B51FB4C8
:1003300088B00B990998002448400999C00F4900DA
:1003400049080991C0070B990090490049080B9191
:1003500009990898A64608431CD00B990A980843A7
:1003600018D0099801244000420D4800410D099819
:1003700024050003000B204309900B980003000B99
:1003800020430B9050181C4940180022019014463D
:10039000104605E0002001460DB0F0BD032801DA4B
:1003A000034600E003239C46C11A0AAE0AE05F0040
:1003B00008ADED5B4F00F75B7D430027AA187C4139
:1003C000491C5B1E6145F2DD410004AB5A52210419
:1003D000120C0A43240C401C0828DFDB0198029011
:1003E0000099704601910090059B049A0799069820
:1003F00000F001F9D0E700000DFCFFFF10B500226E
:100400009623114600F0B1F810BD000070B5CD0F75
:100410004A0009030123090B1B0519430B4BED0788
:100420000024520D9A4201DA002070BD074B34338C
:100430009A4203DC9A1AFFF77DFE02E00449511844
:1004400088402C43F1D0404270BD0000FF03000003
:10045000CDFBFFFFC20FD207400040080BD0C10DFB
:100460000723DB01C91840020905400A1143C208ED
:10047000400711437047002001467047CB0FDB0750
:10048000490010B5490802460A4307D00A0D07245F
:100490000903E401090B121B002A01DC002010BD36
:1004A000C900440F0C43C100E018D205801800F0C9
:1004B00054F810BDF0B51FB40646002082B00546C2
:1004C0004024019100901BE0019922460F463046DE
:1004D000FFF730FE049A059B801A994110D310460D
:1004E0001946224600F016F8361A8F410197224627
:1004F00001200021009F00F00DF838184D410090B8
:100500002046641E0028DFDC019B00982946324605
:1005100007B0F0BD10B5202A04DB0146203A914017
:10052000002010BD914020239C1A0346E34019434C
:10053000904010BD10B5202A06DBCB170846203AA4
:100540001041C1170B4306E00B461341D040202455
:10055000A21A91400843194610BD002904DA401C34
:10056000490001D140084000704770B40024050CD8
:1005700005D11024000402D1002921D01124050E38
:1005800001D100020834050F01D10001241D850F9F
:1005900001D18000A41C002801DB4000641C00295C
:1005A00008D020252E1B0D46F540A14000D001218A
:1005B0002943084301061B1B000ADB1D02D500204E
:1005C00070BC7047DB05181880180029F8DA401C49
:1005D0004900F5D170BC40084000704710B5002BB1
:1005E00008DA0024401C614192185B411A4301D192
:1005F0004008400010BDF0B51FB482B005460C00A5
:1006000003D0084604F01AFC02E004F017FC203086
:100610000246009021462846FFF77CFF049B059A7E
:1006200004460F4618431143084314D0184610439C
:100630001BD0009840210A1A18460599FFF77AFD49
:1006400005460E46009A05990498FFF763FF084394
:1006500005D0012004E02046394607B0F0BD002057
:10066000C11705430E432C43374300990E98630589
:10067000401A7905E40A00220C43FD0A0A3002D52B
:1006800000200146E9E70105101969410C9C0D9D08
:1006900000196941FFF7A2FFDFE70000064C0125C2
:1006A000064E05E0E36807CC2B430C3C984710341A
:1006B000B442F7D3FFF700FDF854000818550008BE
:1006C00070B58C180578401C6B075B0F01D103785F
:1006D000401C2A1106D10278401C03E006780E70F7
:1006E000401C491C5B1EF9D12B0705D40023521E68
:1006F0000DD40B70491CFAE70378401CCB1A921CEE
:1007000003E01D780D70491C5B1C521EF9D5A142F7
:10071000D8D3002070BD000010B504460121062288
:1007200000F0B6F82068002803D1064800F00CF865
:100730002078C0B200010349091810222046FFF7B3
:100740000AFD10BD2802002070B505460224048170
:1007500000202860281D0722124E2146B047A81D00
:1007600009222146B047E8680B222146B047E868D5
:10077000801C0D222146B047E868001D0F2221464B
:10078000B047E868801D11222146B047E86808306C
:1007900013222146B047E8680A3015222146B047A7
:1007A00070BDC046910800087FB500AC0FC46E460E
:1007B000301D02240722124D2146A847B01D0922F0
:1007C0002146A84703980B222146A8470398801C7E
:1007D0000D222146A8470398001D0F222146A84755
:1007E0000398801D11222146A84703980830132240
:1007F0002146A84703980A3015222146A8477FBD05
:10080000CD08000819480021418101220272184BCD
:1008100003604160FF21023101821104C160704711
:10082000124A536883421FD01174506001215174E1
:100830009173918100235381032815D8784400795E
:10084000400087440104080D117209480BE0117241
:100850000748001D07E00320107205480C3002E035
:1008600011720348083010607047C0460C03002026
:100870000000002080B52B2148430A21FFF730FCFF
:100880000021814202D200BF491CFAE780BD00006E
:10089000F0B585B004920D4607460020C643264CAD
:1008A000A02101222046334600F078FA0028F7D133
:1008B0000097019502962048A0210123049A00F098
:1008C000FBFA0A2000F0E6F805B0F0BDF0B589B0FB
:1008D0000792089106900920C0060121C90200264E
:1008E00005900491324600F0C0F9F443124F089885
:1008F00086421AD0A021012538462A46234600F018
:100900004DFA0028F6D106988019009001950294BE
:100910000798301882B2A02138462B4600F07CFBA5
:100920000A2000F0B7F8761CE1E701220598049947
:1009300000F09BF909B0F0BD80030020EFF31080B8
:1009400072B6FEE7FEB51C4615460E4607460291F6
:100950000190089A099B00F041F8002801D000217D
:1009600007E0384631462A46234600F055F8414212
:10097000414101A800F020F8FEBDB0B504460225B3
:1009800025222946FFF784FFA01C27222946FFF7CE
:100990007FFF01206060B0BDBCB5019100906C4646
:1009A0000225252220462946FFF790FFA01C27227A
:1009B0002946FFF78BFFBCBDB0B54160481E4442DD
:1009C000444101204103A04D2846224600F04DF944
:1009D00010212846224600F048F9B0BD10B50104A8
:1009E0000B4CA14201DB801803E0000C811810467B
:1009F0000A4601B20120994206DD11B20020994257
:100A000002DA0448007810BD0249087010BDC046E3
:100A10000100FFFF2003002070B5811804040B4D76
:100A2000AC42084600DC104606B201209E4209DDB9
:100A3000AC4200DC0A4611B20020994202DA0448B6
:100A4000007870BD0249087070BDC0460000FFFF0D
:100A500021030020F0B5002817D0069884B289B28F
:100A600000200646C5B2B6B2B14209D906276F4387
:100A7000DF19BF88F619B7B2A74201D8401CF1E7C9
:100A800091B2A94204D8501E02E0998848424841D8
:100A9000C0B2F0BDB0B5044600F0EEF80546601CEB
:100AA00002D004484068041900F0E6F8401BA04258
:100AB000FAD3B0BD18000020F0B588B007465E48F4
:100AC000874201D0052000E003200090002206921A
:100AD000144605970E683046E04000D1AAE0012593
:100AE0000295A5402E4000D19EE0049403924A68EE
:100AF000032314461C40601E01281AD803230192C8
:100B0000069A9340B8689843CF6897400743059882
:100B100087600198C006C00F049A9040059F7F68C7
:100B2000AF43074305984760059FD8435500019A96
:100B300008E01846069DA840C043032C02D1069D3C
:100B40001C461CE0FB6803408F68AF401F43059BB9
:100B5000DF60059F022C12D11C22039B1A400F2339
:100B60009340049CE408A4003C19276A9F430B6946
:100B700093403B43059F23624A6803241440AC40E2
:100B80003B68034023433B609003800F039A049C1F
:100B90004AD02B4B1868029D2843186018682840DB
:100BA000079023460C2414400F20A04003229343B7
:100BB000079A244D5A5982435B190920C00687427F
:100BC00008D02148874207D020488742009804D1A6
:100BD000022002E0002000E00298A04010431860CC
:100BE000164800684B68DA0301D5304300E0B04393
:100BF000049C124A106050689A0301D5304300E00B
:100C0000B0430E4A50609068DA0201D5304300E0EC
:100C1000B0430A4A9060D0689A0201D5304300E0A0
:100C2000B043039A054BD860121D0698801C0690AD
:100C3000641C4FE708B0F0BD000C00480004014000
:100C40001810024008000140000400480008004855
:100C500000690840411E8841704742690B46934332
:100C60000A401104C91881617047002A01D0182276
:100C700000E0282281507047014800687047C04654
:100C80001C050020B0B5436C0222202B17D1036C49
:100C9000012B14D024224264026813680124A34368
:100CA0001360230315689D43156013680B4313609D
:100CB0001168214311600022026420214164104622
:100CC000B0BDB0B5436C0222202B17D1036C012BB1
:100CD00014D024224264026813680124A3431360E1
:100CE0000F231B0215689D430902294311601168F7
:100CF0002143116000220264202141641046B0BDEE
:100D000070B5002820D00446406C002804D1002093
:100D10002064204600F030FA2420606420680268D5
:100D200001218A4302600F22120663689343036124
:100D30008368184A13408360A368E568012D05D1D4
:100D4000CD032B43836009E0012070BD2126B6024C
:100D500033438360022D01D1CB02436043680E4DC3
:100D60001D434560C3681340C36022696369134330
:100D7000A26912021A43C260E269236A1343036044
:100D800002680A4302600020E0642021616420635D
:100D9000A06470BDFF7FFFFF00800002F0B589B046
:100DA0001D46044600230893406C0226202872D179
:100DB000206887693F046ED40F46216C01296AD0F0
:100DC00024216164012104912164E36438493E4691
:100DD0000E40384F039307920596E1680129394682
:100DE00001D00521C90289194160FFF745FF074677
:100DF000206881694909826912090A43D10709D12A
:100E0000681CF5D0FFF738FF002D3CD0C01BA8426E
:100E1000EED938E08669009720210022204606910D
:100E200002922B4601F070FAF10637D5002831D135
:100E300020681021C1610699C1610899079A914201
:100E400011D10126B10342680A434260009720276E
:100E50000022204639462B4601F056FA079A002810
:100E600019D12068C7610899491C089108999142D5
:100E7000059E104FB1D30699616402982064E06C1E
:100E80000843E06406E02020606403992164E16C7B
:100E90000143E164049E304609B0F0BD0028049E81
:100EA000F9D120680699C161029E26646164F2E767
:100EB000FF03000000200002F0B587B00546406C3B
:100EC0000224202838D10C9F002F32D016460D9ACC
:100ED000002A2ED0286C01282ED00392069305916B
:100EE00001242C64FFF7C8FE04900090E10319234D
:100EF0002846224601F008FA00281DD10E9922202A
:100F000068644020A8640020E8646F620F46029085
:100F100068630398688500910498019028460599B4
:100F20003246069B01F06CF9002808D0029828642C
:100F300002E001246002E864204607B0F0BD069795
:100F4000012426066306688D000A32480396029340
:100F500006D0FF222A85009028460599334605E0F1
:100F6000698D29850090CAB22846059901F0B6F925
:100F7000049E069B00960421002728463A4601F06D
:100F8000C3F90028D8D1686A2968496A0170688D58
:100F9000401E6885686A401C6862288D411E29854C
:100FA000688D0904069B1FD100281DD00096802162
:100FB00000262846324601F0A7F90028BCD1688DEA
:100FC000000A06D0FF222A85009628460599039B31
:100FD00006E0688D28850096C2B228460599029BD6
:100FE00001F07CF9049E069B688D0028C2D128463A
:100FF0001946324601F0ADF900289DD1286820211C
:10100000C16142685B4B1340436069642F64AF6405
:101010003C4691E700240080F0B589B00546406C5D
:101020000224202838D10E9F002F32D016460F9A66
:10103000002A2ED0286C01282ED008920593079103
:1010400001242C64FFF718FE04900090E10319239B
:101050002846224601F058F900281DD11099212078
:1010600068644020A8640020E8646F6206906863AA
:101070000898688508910091049F01972846079970
:101080003246059B01F0F2F8002808D00698286443
:1010900002E001246002E864204609B0F0BD0124AA
:1010A00026066306688D000A059603930AD0FF2280
:1010B0002A850020009028460799334601F00EF952
:1010C000069E08E0688D2885069E0096C2B22846D6
:1010D000079901F003F9089B284619463A4601F0A2
:1010E0005BF90028D8D12868696A0A788262688D1D
:1010F000401E6885481C6862288D411E2985688DC0
:101100000904089B1FD100281DD0009780210026CC
:101110002846324601F0F8F80028BDD1688D000A53
:1011200006D0FF222A85009628460799059B06E0EF
:10113000688D28850096C2B228460799039B01F066
:10114000CDF8069E089B688D0028C5D12846194613
:101150003A4601F0FEF800289ED128682021C1619E
:101160004268044B1340436069642E64AE643446A5
:1011700092E7C04600E800FEB0B586B0044601A87C
:101180001421FFF701F82068114988421DD101257B
:10119000A804104C2168014321602168014000919E
:1011A000059503951220029003200490800201907F
:1011B0000098094801A9FFF77FFC6805A168014371
:1011C000A160A16801400091009806B0B0BDC04682
:1011D000005400401410024000040048B0B500283C
:1011E00022D0044600681349016013490160616818
:1011F0004160A1688160FFF73FFD05462068C16836
:1012000049070AD0FFF738FD401B2828F6D320688D
:10121000C0684007F2D00320B0BDE16802698A428D
:1012200004D10949016002E00120B0BD0161002044
:10123000B0BDC046CCCC0000555500000068024946
:10124000016000207047C046AAAA00001A48406802
:1012500002490A68101808607047C0461C05002043
:1012600010B5A748016810220A43026000242046F6
:1012700000F004F800F022F8204610BD70B50446D6
:101280007D20C0000C4E7168FEF72AFF01469F4882
:101290000068FEF725FF00F061FB0125032C08D84C
:1012A000002806D10025E84321462A4600F028F808
:1012B0003460284670BDC0461800002082B009483E
:1012C00001680122114301600168114001910199F7
:1012D000110742680A434260406808400090009845
:1012E00002B0704718100240002805D41F210840A2
:1012F00001218140014801607047C04600E100E0E3
:1013000080B501F0A7FF80BDF0B585B004468078B8
:10131000C007394B3BD0012211071868C00001916A
:10132000029202D50020039007E018680843186075
:1013300018680840049004980392304E3068C00545
:1013400038D5032528022C4B5968014012D0626819
:10135000024091420ED00298000459685A68024334
:101360005A605A6882435A600846254A10405860BD
:10137000C80731D158682249084061680143596063
:101380000398002803D018680199884318602068E2
:10139000C10705D0596903229143A2680A435A61E3
:1013A0000025800625D5586910218843E16801434E
:1013B00059611EE002980702306838433060FFF739
:1013C0005BFC054630683842BBD1FFF755FC401B3B
:1013D0006428F7D903250CE0FFF74EFC0646494F79
:1013E000054B58688007C5D4FFF746FC801BB84200
:1013F000F6D9284605B0F0BD1C1002400070004030
:10140000FFFCFFFFF8B500284ED004463C4B1A689D
:10141000012002408A4208D21A680126B2430A43D8
:101420001A601A6832408A4267D1009121688A079F
:101430000ED54A0705D507221202434D2B681343E8
:101440002B60414D2A68F0239A43A36813432B6015
:10145000C9072BD12A4A10680126304000998842DA
:1014600007D91068B04308431060106830408842C4
:1014700043D12078400707D507200002324A11687F
:101480008143E0680843106000F042F82E49096883
:101490000906090F1C4A515CC8401C490860002617
:1014A0003046FFF7EBFE28E0012626E06168264A79
:1014B000121F012902D11268920305E01268022965
:1014C00001D1920100E09207064616D51E4A106827
:1014D0000326B04308431060FFF7CEFB0746094DD3
:1014E000194800680C210140606880008142B1D039
:1014F000FFF7C2FBC01BA842F2D93046F8BDC04678
:101500000020024088130000EC5300080401002072
:1015100010B50D490A680C2313400C48082B08D15C
:1015200093021B0F0AA4E45C896AD20303D4104817
:1015300007E0044606E00F22114009A2515CFEF7C5
:10154000CFFD4443204610BD0410024000127A0033
:1015500002030405060708090A0B0C0D0E0F1010F4
:101560000102030405060708090A0B0C0D0E0F10F3
:1015700000093D00F0B587B007460120002F00D1DB
:10158000C2E104903878C007F14E059711D0716818
:101590000C200140042906D071680140082937D188
:1015A0007068C00334D53068800302D5786800289D
:1015B00038D0387880074ED570680007800F1BD070
:1015C00070680C210140082902D17068C00313D54E
:1015D0003068059CE168002926D00121084330606D
:1015E000FFF74AFB0546306880072DD4FFF744FB20
:1015F000401B0228F7D986E130688007059A02D59A
:10160000D06801280ED13068F821884311691FE0A5
:101610007968002900D1C1E0012900D0D7E001207C
:101620000104DDE004986FE1012188433060FFF799
:1016300023FB0546306880070DD5FFF71DFB411BD6
:1016400003200229F6D95FE13068F8218843216937
:10165000C90001433160059C2078000720D4207820
:10166000400730D42078C00600D4C4E0059A516900
:10167000012971D1706B042101437163706B0121E9
:1016800001437163FFF7F8FA0546706B800700D5D8
:10169000A9E0FFF7F1FA411B03200229F5D933E154
:1016A000706AE169002918D0012108437062FFF7D0
:1016B000E3FA0546706A8007D1D4FFF7DDFA401BD4
:1016C0000228F7D91FE101221107F069C00001913A
:1016D000039211D50020029016E001218843706228
:1016E000FFF7CAFA0546706A8007B8D5FFF7C4FA53
:1016F000401B0228F7D906E1F0690843F061F06960
:101700000840069006980292924F3868C00511D59D
:1017100005988168904F00292AD00129039A06D0A4
:10172000306A052900D0BCE0042108433062306AE9
:101730001043BBE003980402386820433860FFF789
:101740009BFA054638682042E2D1FFF795FA411B23
:1017500003206429F6D9D7E0706B491D00D08CE0D6
:10176000042188437063706BF821884391693FE0DE
:10177000306A039988433062306A042188433062BA
:10178000FFF77AFA0546306A800700D49BE0FFF73E
:1017900073FA411B0320B942F5D9B5E001200104D9
:1017A00032688A433260810432688A43326044047A
:1017B000FFF762FA0546059F3068204200D1F8E63F
:1017C000FFF75AFA411B03206429F5D99CE03068E1
:1017D000052900D081E001218A041043306009040A
:1017E0003068084380E0706BF82188430599896967
:1017F000C900014371630598046A002C1AD070680F
:101800000C210140082917D1012C04987CD001201B
:10181000030471680B40F26A059D6C6AA34273D1A0
:101820000F231A40EC6AA2426ED19A041140AA6AB0
:10183000914269D1002067E00120020631680492DC
:10184000914331604706FFF717FA0546022C0AD18B
:10185000049C3068384259D0FFF70EFA411B032030
:101860000229F6D950E030683842E3D0FFF704FA95
:10187000411B03200229F6D946E004210843706386
:10188000706B012188437063FFF7F6F90546706BB2
:101890008007B0D5FFF7F0F9411B03200229F6D9E4
:1018A00032E090433062306A042188433062FFF7AF
:1018B000E3F90546306A800705D4FFF7DDF9401BE0
:1018C000B842F7D91FE002980028059C00D1C9E66C
:1018D000F06901998843F061C4E601210A0490434C
:1018E0003060890430688843306001204404FFF789
:1018F000C3F905463068204200D05AE6FFF7BCF92C
:10190000401B6428F6D9032007B0F0BDF06A0F2110
:101910008843059AD16A0143F1623D200004716851
:101920008143906A0843516A0143716030682043E3
:101930003060FFF7A1F904463068384200D079E7FB
:10194000FFF79AF9011B03200229F5D9DCE7C0460D
:10195000001002400070004088130000401E010E7D
:1019600001D0012070470749074A506007480368C3
:101970000B4003218907591801600020906007215E
:1019800011607047FFFFFF0010E000E020ED00E075
:101990007047704770B50246C06B012801D1022024
:1019A00070BD0020D0633F231B02CC689C430F23F3
:1019B0009D028E68AE432643DB024C689C43344351
:1019C00007231B030D689D43254303235B030C6919
:1019D0009C432C434B6923430124A403A343C969BB
:1019E00019431268516470BDB0B5C26B012A01D1B0
:1019F000022119E0022202640122C26303685C68CA
:101A00007025AC430D6825439C685D60EA4DAB4290
:101A100002D0474DAB4204D18025AC4349682143F5
:101A200099600021C16302640846B0BD10B500286A
:101A30001BD00446006C002804D10020E06320463F
:101A400000F016F8022020642068211D01F0A4FA9D
:101A5000012060666064A064E06420656065A06544
:101A6000E06520662064002010BD012010BD00004C
:101A70001FB500681A49884210D01A4988421BD005
:101A8000CD4988422BD10120C00217490A68024380
:101A90000A6009680140039103981FBD0121880471
:101AA000114A1368034313601268024001920198BF
:101AB0001624002220460DE0012040040A490A684D
:101AC00002430A600968014002910298152400212E
:101AD00020460A46FFF714FC2046FFF705FC1FBD11
:101AE000004801400044014018100240016C0129E7
:101AF00016D1022101640168C86801221043C86040
:101B0000AD48814202D00A4881420BD18868072340
:101B100003400020062B09D00B6813430B6070476D
:101B20000120704708681043086000207047C046D5
:101B300000040040F8B50446C06B012801D1022220
:101B400069E0022020640125E56320688268344B47
:101B50001A4082600F680026002F22D0102F20D05C
:101B6000202F1ED0302F1CD0402F22D0502F2AD013
:101B7000602F32D06A0397423AD02A039742324606
:101B800047D0702F49D1773382681A404B688F68ED
:101B9000C9681F4309023943114381608168772274
:101BA00034E08168702291430F43072139438160FB
:101BB0002EE0CA68496801F019FB20688168472255
:101BC0000A43302112E0CA68496801F00FFB20681F
:101BD000816857220A43202108E0CA68496801F059
:101BE00016FB2068816867220A4310218A430EE0B1
:101BF000773382681A404B688F68C9681F430902AF
:101C00003943114381600121890382680A4382605C
:101C10003246E66325641046F8BD2A46F9E7C04619
:101C20008800FFFF7047B0B504468020C543206898
:101C30000169890717D5C168890714D529467E31FE
:101C400001610121E1618069800703D02046FFF72F
:101C5000E9FF05E0204600F0B3F8204600F030F937
:101C60000020E06120680169490718D5C16849076B
:101C700015D529467C3101610221E1618069800529
:101C8000800F03D02046FFF7CDFF05E0204600F08F
:101C900097F8204600F014F90020E06120680169FF
:101CA000090717D5C168090714D52946783101619C
:101CB0000421E161C069800703D02046FFF7B2FF2D
:101CC00005E0204600F07CF8204600F0F9F80020FE
:101CD000E06120680169C90618D5C168C90615D533
:101CE0002946703101610821E161C0698005800FDA
:101CF00003D02046FFF796FF05E0204600F060F88D
:101D0000204600F0DDF80020E06120680169C90785
:101D100009D0C168C90706D029467F310161204634
:101D200000F020F920680169090607D5C168090695
:101D300004D505612046FFF72BFE2068016949069E
:101D400009D5C168490606D52946403101612046BA
:101D500000F0A0F920680169890607D5C1688906E5
:101D600004D5603505612046FFF713FEB0BD0000C5
:101D700010B586B0044601A81421FEF705FA2068C4
:101D80007749884216D1012041040C4A13680B435D
:101D9000136012680A400092022105910022049209
:101DA00003920291400201900920C006009901A906
:101DB000FEF782FE06B010BD002C01401410024058
:101DC00070470000B0B50446C06B012801D1022065
:101DD000B0BD0D460120E0630221CA41032A4AD862
:101DE0007A44127952009744011022312068294622
:101DF00001F01EF92068816908220A438261816925
:101E000004229143816129690FE02068294601F08D
:101E100049F90121CA022068836913438361890259
:101E200082698A4382612969090218301FE02068AB
:101E3000294601F06FF92068C16908220A43C2618E
:101E4000C16904229143C16129690FE020682946D4
:101E500001F09CF90121CA022068C3691343C361E0
:101E60008902C2698A43C261296909021C30026879
:101E70000A43026000200021E163B0BD10B50028D4
:101E80001BD00446006C002804D10020E0632046EB
:101E900000F015F8022020642068211D01F07CF874
:101EA000012060666064A064E06420656065A065F0
:101EB000E06520662064002010BD012010BD704741
:101EC00070470000B0B50446002905D0082905D0A8
:101ED000042905D1483004E0443002E04C3000E0F1
:101EE00050300068012808D12046002907D0082971
:101EF00007D0042907D1483006E00120B0BD4430A6
:101F000002E04C3000E050300222026020680125DF
:101F10002A4601F07FF821681048814213D010480A
:101F2000814205D0594A914202D0544A914205D18A
:101F3000EA034B6C13434B64814204D00868284386
:101F40000860002005E08868072202400020062A79
:101F500000D1B0BD0A682A430A60B0BD0004004049
:101F6000002C0140F8B5044600684449884277D106
:101F70004348417C002933D081894A1C82814189B0
:101F80000368857B002D07D08900595A92B28A4296
:101F900019D90021818114E08D005B195B8892B210
:101FA0009A4217D9491C4181027A89B2914205D3DC
:101FB00000214181027C002A00D1417400218181ED
:101FC000012181730CE0C07B002809D1012251035B
:101FD0002C4803E0012041032A480022FEF745FE79
:101FE0000025294E502D3AD07719398AF868FEF726
:101FF0002FFE70517968002804D1012902D10021F7
:10200000B96001E0002902D078601435EAE70028C1
:1020100010D00128F8D1F97A091F232907D8797A35
:10202000002904D1B97A002901D101213972002196
:10203000F972E9E7F97A491CF972C9B2C92904D3DE
:102040000021F97201217972DEE71529DCD3797A52
:102050000029D9D00021F9720121B972D4E7206892
:102060000A49884200D0F8BD094801210170417831
:102070000029F8D04178491E4170F8BD0044014064
:102080000C03002000080048240300200048014001
:10209000F80200207047FEE7F8B50C46074601B28B
:1020A0000D48994204DA80210122FEF7DEFDF8BDD9
:1020B0001D46164680210022FEF7D7FDB54201DD00
:1020C000002006E03814301AA84201DAA0B200E07D
:1020D000200C00F037F8F8BD0014004870B5054634
:1020E00002243122094E2146B047A81C292221464C
:1020F000B047281D2B222146B047A81D2322214688
:10210000B0471A480421FFF7DDFE70BD91080008B2
:102110007CB5019100906D4602243122084E28467C
:102120002146B047A81C29222146B047281D2B2252
:102130002146B047A81D23222146B0477CBDC0469A
:10214000CD08000880B57D21C900084A1268936B4C
:10215000CB1A9BB2834201D0091A91634242424199
:1021600001204102C948FEF780FD80BDE403002044
:1021700000688169890701D5002181628169C907E9
:1021800003D1816901220A438261704770B50E460E
:10219000044600688169C90601D4002070BD154657
:1021A0004168890110D40121890342680A434260D1
:1021B0000AE0711C08D0FEF75FFD2021002E13D02D
:1021C000401BB04210D8206881698906F1D51021E2
:1021D000C1612021C1612046FFF7CAFF2068416824
:1021E000064A0A4042600421E06C0843E064202073
:1021F000606400202064A064012070BD00E800FE3F
:10220000F0B585B003920446334800900493DAB2E7
:102210000023204600F062F80A9F0B9E20463946B4
:10222000324600F0B9F8012500281BD10297049826
:102230000128039F09D02068390A8162204602994B
:10224000324600F0A9F800280CD12068F9B281626A
:102250000096402100222046029B00F055F80546DA
:10226000401E8541284605B0F0BDC046F0B585B09A
:1022700003920446184800900493DAB201252B0615
:10228000204600F02BF80A9E0B9F204631463A4626
:1022900000F082F800281BD1029604980128039EC2
:1022A00009D02068310A8162204602993A4600F03E
:1022B00073F800280CD12068F1B281620097802168
:1022C00000222046029B00F01FF80546401E854173
:1022D000284605B0F0BDC0460020008070B5049CC3
:1022E000650D00684668AE43054D3540054E0E400D
:1022F0001E431104314321432943416070BDC04650
:10230000009C00FCFF030000F8B51D4616460F4672
:10231000044606980090206880693840C01B4142FE
:102320004141B14213D1681CF5D0FEF7A5FC002D48
:1023300003D00099401AA842EDD9E06C202108434F
:10234000E064616400202064A0640120F8BD0020E6
:10235000F8BDF8B516460F46044620688069800629
:1023600017D4204639463246FFF710FF01250028D2
:1023700010D1FEF781FC002F02D0801BB842ECD9AF
:10238000E06C20210843E064616400202064A064C4
:1023900000E000252846F8BDF8B516460F4604466D
:1023A00020688069800719D4204639463246FFF7F5
:1023B000EDFE0125002812D1781CF1D0FEF75CFC5F
:1023C000002F02D0801BB842EAD9E06C20210843DC
:1023D000E064616400202064A06400E000252846D9
:1023E000F8BD0000F0B585B0019000F043FC01207D
:1023F00000F028FC00268020C4B2002C26D00496D1
:102400004026012503908C4831462A46FEF72DFCD4
:102410002846584DA8470A273846A84780218648AD
:10242000FEF716FC02900025834831462A46FEF747
:102430001CFC38464F4988470298C0B201280398CF
:1024400000D02846049E06436008D5E7019800F0B6
:102450001FFC01242046474FB8474025764F384699
:1024600029462246FEF701FC0524204641498847BB
:10247000002238462946FEF7F8FB00F0FBFB204619
:102480003C498847F0B205B0F0BDC04600040048A2
:10249000B0B500F0EFFB00F0C7FB0024204600F0D1
:1024A000F7FB0A252846FEF7E5F9204600F0CAFBAF
:1024B0002846FEF7DFF9B0BD10B50024204600F035
:1024C000E7FB204600F0BEFB00F0AEFB0A242046EE
:1024D000FEF7D0F900F0CEFB2046FEF7CBF910BD99
:1024E000F8B500900024204600F0D2FB204600F012
:1024F000A9FB80221F4DD4B2002C1CD000980240B2
:10250000501E824180214C48604B9847012630463E
:10251000A84740274848394632465C4B984707262B
:102520003046A847002244483946584B9847304621
:10253000A8476208DFE700F09DFB402701223E4DDF
:1025400028463946FEF791FB02200A4CA04780211D
:102550002846FEF77DFB06460520A04700222846B8
:102560003946FEF782FB0A20A047F0B2411E4842DE
:102570004841F8BD75080008B0B50B0EC478E518E1
:10258000C5700B0C8478E418847003885B18038092
:10259000818889188180EAB23C2A0FD30022C27058
:1025A000641C8470E4B23C2C08D382705B1C0380F2
:1025B0009BB2182B02D30280491C8180B0BD80B52C
:1025C000012109060022FFF7D7FF80BD080C89B260
:1025D000081A01A90988814209DB90B2062141430A
:1025E000C818801E0088002801D0012070470020F4
:1025F000704700004C210F480422425201214160E3
:102600000022826080230382016002230387DC4B67
:102610008162C16202634363818441618161C261FD
:102620000362C1630164426483640921C906C16015
:102630007047C0462403002000040048FEB5029005
:102640004508782635400920C40601220192CA4B6C
:1026500020462946984775400027204629463A4695
:10266000C54B984702F0C4FB02980007450E204670
:102670002946019AC04B9847BF4B754020462946D2
:102680003A46984702F0B4FBFEBDC0466B0C00080A
:1026900010B501200024214600F0E8F80220214670
:1026A00000F0E4F810BDB0B5144600F037F800258E
:1026B000A54205D22020012100F0D8F86D1CF7E7D3
:1026C000B0BD10B501460024204600F027F8102CBC
:1026D00005D22020012100F0C9F8641CF7E710BDE5
:1026E000B0B50C464007800E40300025294600F06A
:1026F000BDF8082D05D0605D012100F0B7F86D1C14
:10270000F7E7B0BD80B50C20002100F0AFF880BD28
:1027100080B50E20002100F0A9F880BD80B5002909
:1027200000D0403080210143C8B2002100F09EF863
:1027300080BD0000B0B50920C00602210024224659
:10274000FEF793FA0A20FEF7A5F93320084D21463B
:10275000A84732202146A84728202146A8470C2018
:102760002146A847FFF794FF06202146A847B0BDA1
:102770006D280008FEB501930292009100271228EF
:102780003D463C4611D840B280001A490C581A49BF
:102790000E581A490D5808E0305CC0001849091855
:1027A0003819C0B2FFF79CFF7F1CF8B28542F3D8FE
:1027B0000198002807D0012807D00228009807D1E7
:1027C0001020401B04E0002002E01020401B4008C5
:1027D000C0B20299FFF7A2FF64190026F0B2854249
:1027E00007D9C0432018C0B2012100F03FF8761C81
:1027F000F4E7FEBDA0530008545300080853000836
:102800001001002010B5441C0078C0B2012100F076
:102810002DF8611C207800280C46F6D110BDB0B50B
:1028200014460546022B05D0012B09D0002B0DD1F3
:1028300000210BE02846FDF7B2FC1021091A05E043
:102840002846FDF7ACFC1021081A4108C9B22846F9
:10285000224600F001F8B0BD10B504460846114606
:10286000FFF75CFF2046FFF7CDFF10BD10B5044613
:10287000012903D0002907D1002200E0012209200C
:10288000C0060121FEF7F1F92046FFF7D7FE10BD83
:10289000F0B589B0002408940127F904344802688F
:1028A0000A43026002680A400392039979040268AD
:1028B0000A43026002680A4003920399B90402685D
:1028C0000A43026002680A4003920399B90502684C
:1028D0000A43026000680840039003987E0325487D
:1028E000254D31462246A8470920C00601902349BC
:1028F0002246A847F24823492246A8472248802179
:1029000002912246A847079406940597049604AEC0
:102910001E4A184831469047079406940597174871
:102920000490019D28463146184A90470697059421
:102930000298049028463146144DA84706970594FE
:1029400007200490DE483146A8470794069405976F
:102950000C480490DA483146A84707940694059736
:102960000298049008483146A84709B0F0BDC04617
:1029700014100240000800486B0C00087F0900009A
:1029800000040048D8F3000000140048B90A000809
:1029900010B5134C01200021124A134B23606260D2
:1029A000A160E060204610301421FDF7EDFB2046C9
:1029B000FEF7A6F9002801D0FDF7C0FF0848002166
:1029C000FEF760F9002801D0FDF7B8FF04480021A8
:1029D000FEF777F9002801D0FDF7B0FF10BDC04623
:1029E000800300207C1D10000054004080B5074883
:1029F00007490622074B036042608160C160FEF711
:102A0000EDFB002801D0FDF799FF80BDD403002025
:102A1000FF0F00000030004010B50A4800214E4A68
:102A2000094BFF24E03418C0016042608160C1603E
:102A300001610838FEF7FAFF002801D0FDF77EFF9C
:102A400010BDC0464C0400200044014010B50948A8
:102A50000021094A094B0A4C046043608160C2604E
:102A6000016141618161FEF7E1FF002801D0FDF7BE
:102A700065FF10BDB4040020CF070000BF5D00005B
:102A80000048014070B596B0002515951495139532
:102A900012951195109509A81C21FDF775FB01A849
:102AA0002021FDF771FB2B482B492C4A2C4B03604E
:102AB00042608560C160056145618561FEF7B6FFD2
:102AC000002801D0FDF73AFF01263003129021487B
:102AD00012A9FFF72FF8002801D0FDF72FFF1D489E
:102AE000FFF7CCF9002801D0FDF728FF11951095CC
:102AF000184810A9FEF778FF002801D0FDF71EFF47
:102B000060200990FF20F4300A9009AC204608307C
:102B10001421FDF739FB0F4804222146FFF752F933
:102B2000002801D0FDF70AFF01AC14212046FDF773
:102B30002BFB08957003069006482146FEF72AFFF6
:102B4000002801D0FDF7FAFE0248FFF711F916B090
:102B500070BDC046E4030020E70300007FBB000017
:102B6000002C01407CB504468069002800D07CBD63
:102B70006069012815D00028F9D1A3882268218A2C
:102B8000E06801AD009500F085FB2878012820D889
:102B90000125E903A6482A46FEF767F80020E06011
:102BA00015E06389218AE068E288258901AE0096F4
:102BB0002D04AA1800F06EFB0120C10332789C4856
:102BC000012A0BD800252A46FEF74FF8E56065611B
:102BD0007CBD0120C1039648002200E00122FEF7DF
:102BE00044F87CBDB0B5044600202082E0606061FE
:102BF000A0610625172220462946FDF749FEA01DA3
:102C00001D222946FDF744FEB0BD000080B541619C
:102C1000012905D80A460120C1038548FEF725F899
:102C200080BDC046FEE77047FEB5002005900490C9
:102C300003900290402001907D4801A9FDF73CFFE0
:102C400006B080BDB0B586B00246401E8241784CC9
:102C5000402520462946FEF708F8002004900390FE
:102C6000012102910195059001A92046FDF724FF5D
:102C700006B0B0BDFEB50020059004900390029010
:102C8000802001906A4801A9FDF716FF06B080BDBB
:102C9000B0B586B00246401E8241654C8025204674
:102CA0002946FDF7E2FF00200490039001210291E4
:102CB0000195059001A92046FDF7FEFE06B0B0BDC6
:102CC0000004004810B503218843FDF797FBFDF78A
:102CD000C1FB0024054B2246FDF728FB044B22468E
:102CE000FDF772FAFDF7CAFB10BDC04600405F3F1A
:102CF000000018C080B503218843FDF77FFBFDF776
:102D0000A9FB054A054BFDF711FB054A054BFDF7ED
:102D10005BFAFDF7B3FB80BDD7A3703D0AF7653FB3
:102D2000CDCCCCCCCC6C47C070B500231C468B42BC
:102D30000FD0C55C65400824260607D06E002D061E
:102D400001D531256E40F5B2641EF5E75B1C2C46BB
:102D5000EDE7A01A411E8841800070BDF0B585B036
:102D600000910446FFF794FB8020FFF7B9FB07466C
:102D7000002C03D0012C05D1E32000E0E520FFF773
:102D8000AFFB07430294FFF783FB8120FFF7A8FB0B
:102D900004460520FDF76EFD3C430194FFF744FF18
:102DA0000024234FE0087C280AD80120FDF772FE9A
:102DB00040213846FDF74CFFC0B2641C0128F1D118
:102DC00040213846FDF744FF03900025194C284662
:102DD000A047074604AE30702846A047707003999C
:102DE000090602D0029D019E03E00221019E0E43CE
:102DF000029D104A39020C18012090470746012D08
:102E000005D0002D08D12046FFF75CFF02E02046E8
:102E1000FFF770FF0099086004A802213A46FFF707
:102E200083FF04463443FFF747FB204605B0F0BD5F
:102E300000040048E52300087047B0B504460020B0
:102E400020702046083002252D222946FDF720FD5E
:102E5000A01D2F222946FDF71BFDB0BDF8B5044685
:102E600001206F463946FFF779FF20700098FDF783
:102E7000F1FA0025114E2A463346FDF757FAFDF7C1
:102E8000C5FA21890818A0804620FDF703FE2846D0
:102E90003946FFF763FF2178014321700098FDF761
:102EA000D9FA2A463346FDF741FAFDF7AFFA2189F0
:102EB000081860801920FDF7EDFDF8BD00002440E2
:102EC000BFB501AD2A810291019028460830022445
:102ED0002D222146FDF7FAFCA81D2F222146FDF7E1
:102EE000F5FCBFBD80B5FEF7B1F980BD70B594B0FB
:102EF00008AC201D1821FDF747F900250795069518
:102F00000595049513950520C0041290119502268D
:102F1000109601200F9010210C910B900A20089020
:102F200003950295019500952046FEF723FB0028A6
:102F300003D0EFF3108072B6FEE70795069505966D
:102F40000720049004A80121FEF75CFA002803D0B2
:102F5000EFF3108072B6FEE70395202000906846DC
:102F6000FEF7D2F9002803D0EFF3108072B6FEE727
:102F700014B070BD7047000080B50248FEF753FEE4
:102F800080BDC0464C04002080B50248FEF74BFED1
:102F900080BDC046B404002010B50468904A904239
:102FA00002D01A4B984204D170239C434B682343B0
:102FB00000E02346154CA0420AD0154CA04207D091
:102FC000904205D0874CA04202D0874CA0421AD133
:102FD00003242402A343CC681C4380239C434B69F5
:102FE000234303608B68C3620B688362904205D001
:102FF0007C4A904202D07C4A904201D10969016327
:103000000121416110BD1C46E7E7C04600040040B5
:103010000020004010B51F230B4001219940046A95
:103020008C4304629A40016A1143016210BD0000A2
:10303000F0B5026A01239A430262026A02239A43AC
:103040008D681543436882697324A2430E68644FF8
:10305000B84205D0634CA04202D0634CA04207D1D5
:103060000C24A543CC680427BC435D4F2C4300E0EF
:103070002C463243B84205D05A4DA84202D05A4D90
:10308000A84207D103252D02AB434D698E691D432C
:10309000354300E01D464560826149684163046232
:1030A000F0BDC046F0B5026A10239A430262026A7C
:1030B00020239A438B681E011643426873231B0228
:1030C00085699D430B681B02454FB84201D03446C9
:1030D00007E0C024A643CC6824014027BC43404FEE
:1030E00034432B43B84205D03E4DA84202D03E4D5A
:1030F000A84208D10325AD02AA434D698E69AD00EF
:103100001543B2002A4342608361496881630462C7
:10311000F0BDC046F8B501221302046A9C43046264
:103120005202036A93438A6815021D434368C269C9
:103130007324A2430E682A4FB84201D02C460AE0FD
:103140000324A402A543CC68240200940E4C009FE3
:103150003C40234F2C433243B84205D0214DA84276
:1031600002D0214DA84208D103252D03AB434D6960
:103170008E692D011D4333012B434360C2614968B1
:10318000C1630462F8BDC04600FBFFFF70B50123B8
:103190001A03046A944304625A03046A94438A68D3
:1031A00012032243446873252D02C669AE430D689D
:1031B0002D0235430A4EB04205D00A4EB04202D02D
:1031C000094EB04205D19B039C434B699B012343AD
:1031D00000E023464360C56149680164026270BD36
:1031E000002C01400048014000440140B0B5036A92
:1031F000046A0125AC4304628469F025AC431201E2
:10320000224382610A2293430B430362B0BD10B58F
:10321000036A1024A34303620F231B0384699C43A6
:1032200012032243036A8261A022934309011943D6
:10323000016210BD80B506210022FDF729FB80BD8B
:10324000E0B56B469980009006211846FDF73EFBDD
:103250008CBD0000002805D40322034693430C4A8A
:103260009A1806E00F220240083A03239A43074BBC
:10327000D2188007C00E8901C9B28140FF23834064
:1032800010689843084310607047C0461CED00E08A
:1032900000E400E0F8B59DB28EB201240699AE427A
:1032A00010D8FF23AE420ED3150E0095170C060E54
:1032B000050C92B280B2904204D804D3F8B2EAB2BC
:1032C000824202D923460B70F8BDFCD30098864297
:1032D0002346F8D8002300988642F4D2DB43F2E775
:1032E000010407D00021642902D200BF491CFAE77B
:1032F000401EF5E77047000000B5D1B0FDF7B0FF04
:10330000FFF7F4FDFFF7C4FAFFF742FBFFF7BAFB44
:10331000FFF782FBFFF79AFBFFF768FB8548FEF794
:10332000E5FB8548FEF7E2FB4B20C10022915839AE
:10333000824C0127824D20463A46A8473902204652
:1033400017913A46A8471021204604913A46A847CB
:103350000821204625913A46A84739032046119175
:103360003A46A847B90320463A46A847F9032046FB
:103370003A46A847734880213A46A847FFF7DAF94A
:10338000FDF740FAFFF736F9002638463146FDF7DB
:1033900047FA46A8868046966BA0314632463B46A1
:1033A000FFF73DFA45AC2670332220463946FDF73B
:1033B0006FFA684D2868A96A014302D02078A528D1
:1033C00045D065A0002421463A463B46FFF727FA40
:1033D00045A8A521017033223946FDF777FA46A8A2
:1033E00081884698604D2246A84748A80770062263
:1033F0003946FDF76BFA5D4B0FCBFDF7D5F95C4C09
:10340000A18820681722A847E088218909040818A4
:1034100061891D22A8474F4D564903C9FDF7BCFAE3
:10342000554908884A88120410188A88C9880904EE
:103430008918FEF76DFE514A108851880904081852
:103440009188D3881B0459181289FFF739FDFFF7BB
:10345000D1F83846FFF735F949A031463A463B46A0
:10346000FFF7DDF946A8FFF7E5FE41A8FDF754F99F
:103470003AAC2046FFF7B6FB37A8FFF7DEFC35A8CD
:10348000FDF77BFA33A8FEF729FE4048FDF702FB63
:10349000FFF7FEF83E48FDF7A1FE30462897394673
:1034A000FDF7BEF920460C301090E01C0C90A01CDB
:1034B0000B90204609300A90A01D069008340D9408
:1034C00049A81030309009200390C006169031486A
:1034D00026961E962196374606462D4C2046FDF729
:1034E000ADFE102FFAD8B80001A108588746C04693
:1034F000753600081537000853370008E93800080A
:10350000953A000899350008E53A0008073B00089D
:10351000D73B0008C1350008C13500089B350008BD
:103520009B3500089B3500089B3500089B3500083B
:103530009B3500084C040020B4040020000400481F
:103540006B0C00080014004847686F67686E6F6F67
:1035500073000000240300205361766520446566F3
:1035600061756C742E2E2E00413200082802002056
:10357000D8020020C8020020D002002074030020DE
:103580004C6F6164696E672E2E2E0000B80B000030
:10359000D4030020F8020020A0E7287AA97A01438A
:1035A000090600D15AE3002830D0002028720E2FDF
:1035B00030D12546142070702F980A302F902DE3BB
:1035C000287AA97A014301D100F063FD0020A87296
:1035D0002872142070702E98C0B2022801D100F019
:1035E0002BFD01282D992B9B2C9A254601D100F00B
:1035F0002DFD002801D000F02EFD491C88B2632863
:1036000001D200F028FD632100F025FD0020A87202
:103610000A2000E001202F9A14217170101800B2C6
:10362000102F01D900F04EFF0122BA401521C90226
:103630000A4210D11121090325460A4200D1E9E2CC
:10364000642800DB64202F9001F094FBB21C309EB4
:1036500030469A49F2E22546642800DB64202F9028
:1036600001F088FBB21CDF23309E3046944901F004
:10367000D1FBE5E23078002801D100F02CFC0020DD
:103680002090307046AE3046FEF799FFF0788D4FAF
:10369000002809D10799394046A8808801434698F7
:1036A00000220791FFF7CCFD1D9C3C4046ADA88849
:1036B0000443449B439A42994198469E00961D9428
:1036C0000194FDF7C7F913901098FEF778FF1C9C42
:1036D0003C40A8880443449B439A42994198469DA4
:1036E00000950194FEF772FF00281C9401D100F0B0
:1036F000D7FD082100227448FDF7B7FA409800284A
:10370000724D01D000F0D5FD3AA80121FFF77EFAF5
:1037100000F0CFFD287AA97A014300D1DFE300242D
:10372000AC722C72142070700420012608223146DD
:10373000FEF7B9FF2798401CC1B20929274600D8D7
:103740000746F8B2214632463346FFF713F8604E7B
:10375000C6E3287AA97A01433BD00024AC722C72CC
:10376000142070702798C0B201015A4A5058209016
:1037700055182B1D0ECBA8882D9DAEB22B9DEFB2F8
:103780003F04BE192C9D2F06F61900964D4E1A9F28
:103790003740249D6D1CAEB2864200D32546249549
:1037A000AEB237431A9701972098FEF70FFF002813
:1037B0004949309D00D049492846324601F02AFB4C
:1037C0000122022328462146FFF729F83F4D444CA9
:1037D0003F4E279F30202A5C32216B5C13433AD046
:1037E00000226A542A5414207070F8B2249D2904CF
:1037F00003D10101374A51188D880101354A5058CB
:1038000053181B1D0ECB2F4C199F27406D1E24955E
:10381000ACB227432D9DADB22B9EF6B2360475197E
:103820002C9E3606AD19009519970197FEF7CEFE2E
:103830000028294900D02949309D2846224601F018
:10384000E9FA0021012202232846FEF7E8FF1F4D76
:10385000234C1F4E279F287F00282BD000261C4872
:1038600046702E77FEF714FF01241E48314632467B
:103870002346FEF7D4FF46AD249AAA804696114807
:103880001899014090B20143304618913246104ECB
:10389000FFF7D6FC2846FFF7CDFCF8B2419041ADCA
:1038A0000622284621460E4CFDF710F82846074D03
:1038B000FCF732FF7078022701F021F83854000835
:1038C000645400080000FFFF0004004824030020A7
:1038D000F8020020280200200A540008CE540008F4
:1038E000D40300203E540008287A002823D0142056
:1038F000707000242C72299A521C10B222998842AE
:1039000000DB229A299216B20A2730463946FCF784
:10391000FDFB0246DF2000905743F31B309F3846E3
:10392000F14901F077FA0122384621461346FEF7A5
:1039300076FFEE4CEE4EA87A002823D0142070704B
:103940000024AC72299A0A3210B22299884200DB14
:10395000229A299216B20A2730463946FCF7D6FB3E
:103960000246DF2000905743F31B309F3846DE4964
:1039700001F050FA0122384621461346FEF74FFF68
:10398000DA4CDB4E3020295C002922D000242C5454
:1039900014207070299908B2652800DC6521491E41
:1039A00029910EB20A2730463946FCF7AFFB024692
:1039B000DF2000905743F31B309F3846CA4901F07F
:1039C00029FA0122384621461346FEF728FFC74C44
:1039D000C74E3220295C002922D000242C54142008
:1039E0007070299908B26E2800DC6E210A3929917D
:1039F0000EB20A2730463946FCF788FB0246DF2024
:103A000000905743F31B309F3846B74901F002FA44
:103A10000122384621461346FEF701FFB34CB44E4F
:103A2000287F002800D172E21420707000262E77C3
:103A30001F98C0B206214143EB48C068445E2A94F7
:103A4000FEF726FE0D200127314632463B46FEF7A3
:103A500091FEE64839463A46FEF7FEFE0A25204624
:103A60002946FCF753FB02464543631BE04D309C5F
:103A70002046E04901F0CEF9204631463A463B4621
:103A8000FEF7CDFE2A9880B22A90984C984E0427D3
:103A900000F034FF287A002800D13BE21420707037
:103AA00000242C72D448401C2A9A521C11B2814224
:103AB00000DB02462A9215B20A2628463146FCF758
:103AC00025FB02464643AB1B309F3846C94901F0EF
:103AD000A1F90122384621461346FEF7A0FEC44D47
:103AE000834E18E2287AA97A014300D19EE2002190
:103AF000A9722972142070702398C4B2482C00D186
:103B0000E5E21220E4E2287AA97A01432E9F18D038
:103B1000F9B231A8425C521C53B2392B00DD30227D
:103B200042540021A9722972142272700124224683
:103B30002346FEF774FEB81DC0B22146FEF7EEFD27
:103B40006A4C30202A5C32216B5C13431CD02B461C
:103B500000226A542A5414207070F9B231A8405CD3
:103B6000302802D131AA3A205054421E31A8425482
:103B70000021012422462346FEF751FEB81DC0B2A3
:103B80002146FEF7CBFD594C287F0727002801D19D
:103B900000F0B4FE1420707000242C772E994D1C78
:103BA000E8B2042800D29BE2FEF7ACFD31A8052262
:103BB00092A1FCF7FBFA002801D100F01AFD0122C6
:103BC00090A021461346FEF72AFE7D200001FCF757
:103BD00061FF747089E230202A5C297A0A43120658
:103BE00000D125E214227270002900D189E300205F
:103BF00028722E98441CE0B20828309F00D888E331
:103C0000FEF746FDA2E300903846804901F002F934
:103C100000F0A8FD2F900E2F309E11D12F9A11B2D7
:103C20007548401C814200DB02462F9210B20A21E7
:103C3000FCF76CFA02B2309E3046754901F0EAF8A2
:103C400000210124304622462346FEF7E8FD0820E5
:103C50002146FEF763FD264E2C46654D30202A5C3A
:103C600032216B5C13431B0666D0002A0AD0002168
:103C700029540E2F0AD12546142070702F980A3827
:103C80002F903BE000206854624801E06148093011
:103C90002F9A14217170101800B2102F01D900F062
:103CA00016FC0122BA401521C90225460A420DD14F
:103CB000112109030A421DD0C11788432F9001F03A
:103CC00059F8B21C309E3046534925E0C11788434D
:103CD0002F9001F04FF8B21CDF23309E30464F4941
:103CE00001F098F81AE0C0464B540008D4030020B5
:103CF000F80200202F900E2F309E0FD12F9908B27E
:103D0000002800DC00212F9188B20A21FCF7E8F995
:103D10000246309E30463E4901F07CF800210124E5
:103D2000304622462346FEF77AFD08202146FEF75C
:103D3000F5FC3B4E2C462E4D287F002842D000201B
:103D400070702877FEF7DEFC38460B38052839D826
:103D5000784400794000874402060E141C2835A8D8
:103D60002F99018002E035A82F9941803699359826
:103D7000FCF712FE26E033A82F994180349933983E
:103D800004E033A82F99818033983499FEF7C0F965
:103D900018E037A82F9901812248159A024088B26D
:103DA00002433798389915920AE037A82F99C180B5
:103DB0001C49149A0A400089024337983899149292
:103DC000FFF77EF87078002801D0FFF787FBFEF739
:103DD00099FC0B3F052F73D87F443F797F00BF4488
:103DE00023303C495663C04628020020485400084E
:103DF0002403002021540008E70300003133363546
:103E00000000000057726F6E67000000AB5400089E
:103E100018540008F6FF00003854000864540008E5
:103E2000F80200200000FFFF35A8008800B200F073
:103E3000A1FFB21CDF233098EC4900F0EBFF022019
:103E40003DE0022035A9085E00F094FFB21C3098D6
:103E5000E74900F0DFFF032031E0022033A9085ECC
:103E600000F088FFB21CDF233098FA4900F0D2FF3F
:103E7000042024E0042033A9085E0A21FCF746F957
:103E800002B23098F54900F0C5FF052017E037A8C9
:103E90002599405E00F06EFFB21CDF233098ED499B
:103EA00000F0B8FF06200AE0062037A9085E00F0FF
:103EB00061FFB21C3098E84900F0ACFF07202E905B
:103EC0000021012230981346FEF7A9FC14207070DF
:103ED000259FFFF703FB289A219F00F076FD279F7F
:103EE00030202A5C32216B5C134300D109E10024AD
:103EF0006C542C5414207070042001260822314682
:103F0000FEF7D1FB380600D1F3E07F1EF2E0032775
:103F100000F0F4FC309FA87A002821D014207070A3
:103F20000024AC72CE48401C2A9A0A3211B2814257
:103F300000DB02462A9215B20A2628463146FCF7D3
:103F4000E5F802464643AB1B3846F84900F062FFED
:103F50000122384621461346FEF761FCF94DFA4E20
:103F60003020295C002921D000242C5414207070AA
:103F70002A9908B20126012800DC3146491E2A91FF
:103F80000DB20A2728463946FCF7C0F802464743D7
:103F9000EB1B309F3846F34900F03CFF3846214682
:103FA00032463346FEF73BFCEF4DF04E3220295CA3
:103FB00000291FD000242C54142070702A9908B2B4
:103FC0000A260A2800DC31460A392A910DB2284611
:103FD0003146FCF79BF802464643AB1B3846E149A5
:103FE00000F018FF0122384621461346FEF717FC61
:103FF000DD4DDE4E287F00281CD014207070002478
:104000002C77FEF745FB1020012621462246334639
:10401000FEF7B0FBDC4831463246FEF71DFC1F9828
:10402000C5B2002D00D1A7E01220A6E0239FBDE07D
:104030002E9C9DE304279DE025462C9A521CD0B26D
:104040003B282D992B9B06D33B2204E05B1CD8B266
:104050003B2800D33B232C92D0B200902D918AB202
:104060002B93DBB2309E3046C84900F0D3FE0021CE
:104070000124304622462346FEF7D1FB03202E9929
:104080004843401DC0B22146FEF748FBB74E2C46C0
:10409000B54D30202A5C32216B5C134300D13DE2E8
:1040A00000226A542A54142070702E98C0B202283C
:1040B0006CD001282D992C9A70D000282B9B00D011
:1040C0000FE288B2002800D005E2014609E2112083
:1040D00001221346FEF74EFB482C66D0482765E0C8
:1040E000C81DC0B20121FEF719FB2E959E4D00F0B0
:1040F00004FC0927F8B2214632463346FEF73AFB64
:104100009A4E287F0028279733D0142474700026F5
:104110002E77FEF7BDFA380600D159E101249CA0A4
:1041200021463246FEF798FB0F2003232146224604
:10413000FEF720FBF8B20101984A505853181B1D96
:104140000ECB974C129F2740009612970197FEF7CF
:104150003DFA0028934900D09349309C20463246CE
:1041600000F058FE02232D962B962C961F4624967F
:104170005AE101278D4C2EE011202146324633466C
:10418000FEF7F8FA002D21D0482020E02C9AD0B27A
:1041900000282D9900D0A0E102469FE12B9BD8B2C8
:1041A000002800D09CE103469BE153273020295C86
:1041B0003222AB5C0B431ED00021A9542954142099
:1041C0007070FCB2482C08D0122007E053202390D6
:1041D000654D764C0627654E90E31120012213466B
:1041E000FEF7C8FA482C05D0482704E064540008BC
:1041F000385400085327287F002823974CD00024E8
:1042000074702C77FEF744FA012369482146224650
:10421000FEF705FB46ADAC80469461481B99014012
:1042200020461B912246FFF70BF82846FFF702F8BD
:1042300041A83D4981804194F8B2532812D141A848
:10424000C48044988180299941802A9901800A304C
:1042500011E0C0466454000838540008185400089F
:10426000E703000041A8C180449841812999018158
:104270002A99C180001D048041AC012106222046FC
:10428000FCF724FB449B439A42994198FCF78CFA33
:104290002046FCF741FA344D444C707806272EE353
:1042A000082101224348FCF7E0FC3AA8FEF75AFC3B
:1042B0002D4D37AE3046FEF7D1FD3078002800D1C5
:1042C000BCE0FEF7E5F901273B4820990A463B464A
:1042D000FEF7A5FA02203946FCF7A2FA1E98421C06
:1042E000D0B23649C978884200D8209288423A46EE
:1042F0002E4C00D8289A0320269020981E901B4E02
:1043000063E3002129542E990806309F00D196E1DD
:104310004C1EFEF7BDF9E0B2082800D922E204A144
:104320004000085A40008744E70300002154000879
:1043300011002300AE01C101D301E601F9010C0215
:104340008C01C04624030020F80200200024012331
:104350001B4821462246FEF762FA3AA88378028873
:10436000C07850E42154000824030020F802002003
:104370000021012413A00A462346FEF750FA3AA86A
:10438000037AC288407A3EE448540008AB540008DF
:104390004461792053656C65637400002802002035
:1043A0000000FFFF0A540008CE540008D403002088
:1043B0003E540008000400488954000858000020BA
:1043C000C55400084D6F746F72204F666600000080
:1043D000F1484470F148C06881884A424A41062148
:1043E0001F92514340180221465E0C2000210125F6
:1043F0000A462B46FEF7BEF9E94829462A46FEF74B
:104400002BFA0A2730463946FBF780FE0246DF20AA
:1044100000905743F31B309C2046E24900F0FAFC21
:104420002B46B0B229900327DF4DDB4E002101223D
:104430002046FEF7F4F92C46DC4D5FE2042637AD4A
:10444000A85F209006270597139847434498C11901
:104450000224095F0991C15F2A5F369B359800915C
:1044600001921946099A209BFCF76CFA0896AB5FFB
:104470004498C019025F34993398FDF70DFE0994F2
:10448000285F4499C95F01268842209600DA0026F9
:104490001698179C21463246FCF7E7FBC448214694
:1044A0003246FCF7E2FB0898295E4498C219099E3F
:1044B000925F531F8B4200DCB9E0BC4D219CB64E8D
:1044C00020983DE225462F90309EFFF7B9FB254608
:1044D0002F90309E22E4491E03E0521E2B9B00E0E9
:1044E0005B1E2C92D0B200902D918AB22B93DBB23E
:1044F000309E3046AF4900F08DFC0021012430464B
:1045000022462346FEF78BF903202E994843401D8F
:10451000C0B22146FEF702F99F4EA34C287F002827
:104520003BD014207070002028772E9A521CD1B2F4
:1045300003292E9217D370702D9880B22B99C9B28F
:10454000090408182C9909064018092F13D13AA913
:10455000249B8B803A9098490F9A0A4099B2114354
:1045600017220F9115E003205043401DC0B20121D6
:10457000FEF7D4F811E0069A10803AA9249B4B81EB
:10458000010C51808C490E9A0A4099B211431D22A8
:104590000E91FEF755FEFEF7B5F87078002801D0B1
:1045A000FEF79CFFFEF7AEF82546092F06D13AA884
:1045B000028800202E900B980C9905E03AA8C2883A
:1045C00001202E900D980A99309C0378087800906D
:1045D0002046784900F01EFC0021012220461346A7
:1045E000FEF71DF914207070259F2C466F4DFEF7C5
:1045F00075FFFEF74DF801267048214622463346E6
:10460000FEF70DF93AA883780288C0780090309DB3
:104610002846684900F0FEFB2846214632463346CC
:10462000614D5D4EFEF7FBF808272E9403E7521DFF
:104630008A425E4D219C13DA0320574E80E1FEF73B
:1046400027F8002101245EA00A462346FEF7E7F87A
:104650002046FEF736F849A820210182082481E08F
:1046600037A9895F139A059B5343C35E1A463C3AA8
:104670008A42494E209800DD62E13C338B4200DAE9
:104680005DE100205CE1002101234FA00A46FEF716
:10469000C6F835A8008800B200F06CFBB21CDF231E
:1046A00038464D4900F0B6FB02245BE000210123AF
:1046B0004AA00A46FEF7B3F8022035A9085E00F0CA
:1046C00059FBB21C3846484900F0A4FB032449E0DA
:1046D0000021012345A00A46FEF7A1F8022033A9D4
:1046E000085E00F047FBB21CDF2338463A4900F071
:1046F00091FB042436E00021012340A00A46FEF786
:104700008EF8042033A9085E0A21FBF7FFFC02B2F1
:1047100038463E4900F07EFB052423E000210123BA
:104720003BA00A46FEF77BF8082037A9085E00F098
:1047300021FBB21CDF233846274900F06BFB06241F
:1047400010E00021012336A00A46FEF768F8062093
:1047500037A9085E00F00EFBB21C3846224900F073
:1047600059FB07240021012238461346FEF757F86B
:10477000287F082700286CD000202E902877E0B2F0
:10478000082866D8784400794000874451647A86C6
:10479000929EAAC6D300C046F8020020280200203C
:1047A000485400084B540008D40300202403002080
:1047B00000040048AB5400080000FFFFC554000887
:1047C000455849540000000041646A2046616E204B
:1047D00054656D70000000006454000841646A2054
:1047E00046616E2048554D003854000841646A20E7
:1047F000486561742054656D7000000041646A2052
:10480000486561742050574D00000000185400089E
:1048100043616C6962205348542054656D700000F8
:1048200043616C6962205348542048554D00000094
:104830003AA8808824903A9CFDF76AFF0520012160
:10484000FDF76CFF200E2C902D94200C2B90039FD5
:1048500053E02E9451E03AA84089249006980488A9
:104860004588FDF755FF05200121FDF757FF280476
:10487000E64D0019010E2C912D90000C2B900A276B
:104880003BE035A800882F90FDF742FF082001216A
:10489000FDF744FF0B2702202EE035A840882F901B
:1048A000FDF736FF08200121FDF738FF0C27032014
:1048B00022E033A840882F90FDF72AFF082001212D
:1048C000FDF72CFF0D27042016E033A880882F90D9
:1048D000FDF71EFF08200121FDF720FF0E27052010
:1048E0000AE037A800892F90FDF712FF0820012168
:1048F000FDF714FF0F2706202E90DF4C707800285C
:1049000001D0FEF7EBFDFDF7C3FE012028903070CB
:10491000002740972697FEF7E1FD37A8C0882F9023
:10492000FDF7F6FE08200121FDF7F8FE07202E9086
:10493000049FE2E72E98707008272E97DDE703208A
:1049400001212091FBF76CFF1E98411C002C06D022
:10495000FA480078CAB282420FD81E911BE026980E
:10496000C0B2F64A125CCBB2002793421E9700D821
:104970001E91934204D8289A03E000201E900AE07A
:104980000122022800D143E1012800D176E12092E2
:10499000002800D079E100270124ED4839463A4645
:1049A0002346FDF73CFF41A800783946224626946D
:1049B0002346FDF7DFFE2098000603D0FDF768FED2
:1049C000002700E026973A46DA4C2197286801280C
:1049D0002BD00028309F3BD14098002814D10124CF
:1049E00040943AA8002615463146FEF70FF9FDF728
:1049F0004FFE0B2031463246F34E2346CD4CFDF799
:104A0000B9FE2A460320269037A800780028209275
:104A100020D03846CF4925461CC91CC02C46C44D61
:104A20000A8802808978817034E04098012817460E
:104A300036D12546002440943AA801273946FEF78E
:104A4000E5F826943D942C46B94DFDF721FE27E06C
:104A5000174625E0022037AD285E28900A2421461B
:104A6000FBF754FB074604202E5EB14D304621462D
:104A7000FBF74CFB0246204678432899081A00971A
:104A8000309F01905443331BAA4CCF4E3846B24955
:104A900000F0C0F9012138460A46FDF7DDFE209FEF
:104AA0004420295C002905D0002129549E481199F1
:104AB000FCF7D3F84520295C002919D000242C5498
:104AC0002046FDF7FEFDA54AD07B41424141D1730E
:104AD0000028A34800D0A348012321462246FDF721
:104AE0009EFE7D20C000FBF7D5FFFDF7D1FD914C68
:104AF00028973121685C0027002849D0687A00286F
:104B000046D032202E9000242C546C546C72AC721F
:104B10001420707020462091FDF714FB35A8012564
:104B20002946FBF749FF40953AA82946FEF76EF85B
:104B30001698179E31462A467C4FB8477A48314628
:104B4000A14E2A46B847082177482A46B847FDF7BC
:104B50009FFD8548214622462B46FDF760FE31A881
:104B600004718249319121462A462B46FDF757FEB2
:104B7000FDF7CEFD06202946FDF7D0FD6C4D2E98A1
:104B80002C5420982C546C772E94AC77694C0727C2
:104B9000287F002801D1FEF7A1FC142070700024AA
:104BA0002C77FDF775FD0127714839462246FDF740
:104BB00053FE614839463A46FDF74EFE419827902C
:104BC000C0B221463A463B46FDF7D4FD2046FDF7EC
:104BD000B9FA35A83946FBF7EFFE40973AA83946AF
:104BE000FEF714F81698179E31463A464F4DA847DF
:104BF0004D4C20463146744E3A46A847082120467F
:104C00004C4C3A46A8474A4DFEF768FC2403002066
:104C10000E20022126910027032420923A462346A3
:104C2000FDF7A8FD46ADAB782A8849AE3046444929
:104C300000F0F0F80721289130463A462346FDF768
:104C4000EEFD0F200122219226992346FDF792FDC9
:104C5000AA8830463B4900F0DDF830462899219A71
:104C60002346FDF7DCFD2098000658D0FDF710FD27
:104C70000027269753E0C046D403002037A80078C9
:104C8000002805D0012026909EE62A4C209A9CE61A
:104C900037AD08982C5E0A26204620923146FBF755
:104CA00035FA0246DF20009030465043231A49A8C7
:104CB0002890254900F0AEF809982C5E2046314630
:104CC000FBF724FA02464643A31B30981F4900F025
:104CD000A1F80C200027032631463A463346FDF75B
:104CE00049FD0724289821463A463346FDF797FDAB
:104CF0000D20012529462A463346FDF73BFD309815
:104D000021462A463346FDF78AFD2098000605D045
:104D1000FDF7BEFC00270998269000E026953A464C
:104D2000034D044CFFF7EBFA000400486B0C00083D
:104D300024030020D4030020485400085800002019
:104D4000FC530008BA540008575400082C540008BB
:104D5000C0540008E8540008965400080C030020D2
:104D6000745400087F5400086B5400083030303011
:104D7000DC540008B0B50446012809DB0A212046AE
:104D8000FBF7C4F902460B460F48801C15A116E03C
:104D9000002C0FD00A212046FBF7B8F90D46092058
:104DA000C1432046FBF7B2F902466B420648801C1D
:104DB00006A104E00448801C07A10022134600F06D
:104DC00029F80148801CB0BDF80200202D2532646E
:104DD0002E25316400000000202532642E25316428
:104DE000000000002B2532642E25316400000000F5
:104DF000B0B50920C4060425012220462946FBF748
:104E000034FFC820FEF76CFA002220462946FBF743
:104E10002CFFB0BD0FB410B504A9074B02AA03982C
:104E200000F032F8044602A9002000F067FA20469C
:104E300010BC08BC04B01847FD5200082021020C29
:104E400001D010211046020A01D01046083902098B
:104E500001D01046091F820801D01046891E420861
:104E600001D0881E7047081A704702E008C8121F58
:104E700008C1002AFAD170477047002001E001C143
:104E8000121F002AFBD17047FFB591B00F460546AF
:104E9000002606E025280AD0149A139990476D1C25
:104EA000761C28780028F5D1304615B0F0BD0024D6
:104EB00000940121F34A029400E004436D1C2B7816
:104EC0000846203B98401042F7D128782A280ED077
:104ED000022128780246303A092A15D8009A0A2376
:104EE0005A43303A80180C436D1C0090F1E701CF13
:104EF0000090002805DA0120400304430098404256
:104F00000090022004436D1C28782E2815D104201F
:104F1000044368786D1C2A280AD101CF6D1C0290C9
:104F20000BE002990A225143303940186D1C02905F
:104F30002878014630390929F3D928786C2810D00F
:104F400006DC4C281AD068280ED06A2817D104E055
:104F5000742813D07A2812D110E0012040050443B0
:104F60000CE00121090501E0032109050C436978E2
:104F7000814203D10120000524186D1C6D1C287886
:104F800003906E281ED00CDC632831D004DC00288E
:104F90008AD0582811D1B2E064287BD069280CD17E
:104FA00078E073282DD004DC6F2870D0702804D1ED
:104FB000A7E075286CD078286BD0149A1399904785
:104FC000761C62E06002400F022807D003280AD056
:104FD000042838680AD006603F1D56E03868F1178B
:104FE00006604160F8E738680680F5E70670F3E789
:104FF0003878694608740020487404A8039001209A
:1050000003E0386803900020C0433F1D61070FD5BF
:10501000002101E00199491C029A0191914213DAA1
:105020008142F7DB019A0399895C0029F2D10BE0F8
:10503000002101E00199491C01918142FADB019AAA
:105040000399895C0029F5D101990098139A401AB7
:1050500000902146149B00F03BF9019980194618F5
:1050600007E0039803990078491C0391149A139957
:1050700090470198401E0190401CF2D12146149B9C
:10508000139A009800F014F986196D1C09E741E0A5
:1050900033E034E00A200021049005916002410FC2
:1050A000022905D001CFC2179446032905D007E095
:1050B000FF1DFF08FF0003CF06E000B2C2179446B1
:1050C000042902D140B2C1178C46002261469445A2
:1050D00006DA0A460021404291418C462D2102E029
:1050E000210504D52B216A461176012103E0E10751
:1050F00001D02021F7E7019154E00A200BE01020B5
:1051000009E01020049000210420044308200591A8
:10511000029003E008200021059104906002410FF5
:10512000022905D001CF00229446032906D006E0CB
:10513000FF1DFF08FF0003CF8C4603E080B2042967
:1051400000D1C0B20021019121072BD5039970290C
:1051500006D0049A1021059B4A401A4305D00EE060
:1051600040216A461176012108E06146014306D0DC
:1051700030216A4611760399517602210191049AF1
:105180000821059B4A401A430CD16146014301D1D5
:10519000610707D530216A461176012101910299F4
:1051A000491E02910399582904D037A103910FA9F0
:1051B0000F910DE039A1F9E76146059B049AFBF7D1
:1051C00079F9039B8C469B5C0F9A521E0F921370C9
:1051D00061460143F0D10F9807A9081A20300390C7
:1051E000600704D5012000048443029801E00120F7
:1051F00002900399884201DD401A00E00020411826
:105200000290019809180098401A0090E00306D413
:105210002146149B139A009800F05AF88619002032
:10522000049008E006A9085C149A13999047049822
:10523000401C761C049001998842F3DBE0030CD5F6
:105240002146149B139A009800F042F8861904E056
:10525000149A302013999047761C0299481E0290A8
:105260000029F5DC08E00F980F990078491C0F9190
:10527000149A13999047761C0399481E03900029AD
:10528000F1DCFBE6092801003031323334353637A2
:105290003839616263646566000000003031323382
:1052A0003435363738394142434445460000000022
:1052B000F8B5044600251E461746880404D405E0C8
:1052C00039462020B0476D1C641EF9D52846F8BD2C
:1052D000FFB50446002581B01E46C80301D530271E
:1052E00000E02027880404D505E038460399B0473C
:1052F0006D1C641EF9D5284605B0F0BD0A68531C24
:105300000B601070704700000400000003000000F4
:105310000800000007000000070000000600000071
:10532000030000000400000003000000060000006D
:10533000040000000400000003000000050000005D
:10534000040000000300000004000000030000004F
:10535000030000005E000020C6000020B200002014
:10536000340000202000002066000020970000206C
:10537000D600002078000020FE0000200801002058
:10538000540000205B000020E90000200C010020F8
:10539000E600002062000020EE00002094000020C3
:1053A00000000000000000000000000000000000FD
:1053B00000000000000000000000000000000000ED
:1053C00000000000000000000000000000000000DD
:1053D00000000000030000000000000004000000C6
:1053E00000000000040000000400000000000000B5
:1053F0000000000001020304060708093D202530D3
:1054000032643A253032642020003D253033642058
:1054100053657474657220002533642E3020252571
:10542000002532642E253164202525003D25336476
:105430002E25316420252500257320252500536164
:1054400076696E672E2E2E003D3E002532642E2595
:10545000316420256343003D2533642E25316420CB
:105460002563430025732025634300504153535760
:105470004F52440042555A5A4552204F4646004228
:10548000555A5A4552204F4E0053454E534F5220C5
:105490004552524F5200543D2532642E253164202E
:1054A00020483D2532642E25316400253032643A8F
:1054B000253032643A25303264003D2025336400C3
:1054C00042697264004D6F746F72204F6E003D250B
:1054D00030336420486174636865720042697264A5
:1054E0002053656C65637400543D2D2D2D2D2020B7
:1054F000483D2D2D2D2D00001855000800000020DE
:10550000F8020000C006000800570008F80200205A
:10551000280600007A4E0008211264120A14900135
:105520000A123212051A0304120A1A140C32043237
:10553000011008070A0D010E0F0C16260279010E44
:1055400016BC027401032F0708090A0B0814147C07
:1055500001071A081A12075E580277010B20281952
:105560000E101C1D0309060D0B040D1817190D2034
:105570000121091009040811445A16241C150416A7
:105580003429401C44027A063A6C403AEE1C2F2221
:105590000E101213142E5A152E3A580C290629975C
:1055A0002F020304050601205A1720191439A25AA4
:1055B00012102D06010D142E5A1910100C01201670
:1055C000011E08071F18171012FA146B01271C2C54
:1055D000016E181A0310193B13127A30091A1B0BAB
:1055E00010160B040C541F050717020202041802C0
:1055F000100903040B080807040A3415151F1A04C0
:1056000001192012044E0611090F10105A04301A05
:105610001E1721160E0A0F041812052B0705301944
:10562000462A020841295A1204451111110E2D0C67
:1056300002010270140E011F291129282910211AB4
:1056400003402C010101281D0102040220496012BF
:105650001F2A04101A111029983A046049A8216AD7
:10566000186849A841680B13120C1010161010117D
:105670000FA01A0CB83A09501302052D1517141C67
:10568000CE39A811120A43111E3C0E0A0E50111CED
:10569000040609383D040A0D09181959396F2122E9
:1056A000A63B2001103A03101ACA1029085A1C10F0
:1056B0001ABA105A031032041A3C1029085A112041
:1056C0001A281032055A1A101A6C1032065A18107D
:1056D0001A9A109A07501ADA109A08501A7C103247
:1056E000095A2A203AF250121929941481010212FF
:1056F000322AE87F221B2912011600000000000058
:04000005080000B13E
:00000001FF
