:020000040800F2
:1000000068070020C5000008B1200008BB190008DF
:1000100000000000000000000000000000000000E0
:10002000000000000000000000000000B5200008F3
:100030000000000000000000B3200008FD200008C0
:10004000D700000800000000D7000008D700000813
:10005000D7000008D7000008D7000008D700000824
:1000600000000000D7000008D7000008D7000008F3
:10007000D7000008D7000008D700000800000000E3
:10008000D70000080000000000000000D7000008B2
:100090000000000091210008A1210008D7000008FD
:1000A00000000000D700000800000000D700000892
:1000B0000348854600F05EF800480047C124000868
:1000C000680700200448804704480047FEE7FEE731
:1000D000FEE7FEE7FEE7FEE78D210008B10000081D
:1000E00003460B439B0703D009E008C9121F08C051
:1000F000042AFAD203E00B780370401C491C521EFC
:10010000F9D27047D2B201E00270401C491EFBD206
:1001100070470022F6E710B513460A460446194612
:10012000FFF7F0FF204610BD421C0178401C00295B
:10013000FBD1801A704770B50446002903D0002017
:100140002022012310E0002801D00020C043C04637
:10015000C0460DE02546D5408D4205D30D4695405D
:10016000641B1D46954040191546521E002DF1DCBA
:10017000214670BD064C0125064E05E0E36807CC1C
:100180002B430C3C98471034B442F7D3FFF794FF4D
:100190008C260008AC26000870B58C180578401C29
:1001A0006B075B0F01D10378401C2A1106D102783E
:1001B000401C03E006780E70401C491C5B1EF9D100
:1001C0002B0705D40023521E0DD40B70491CFAE7EF
:1001D0000378401CCB1A921C03E01D780D70491C5B
:1001E0005B1C521EF9D5A142D8D3002070BD00007F
:1001F00010B504460121062200F08CF82068002882
:1002000003D1064800F00CF82078C0B20001034981
:10021000091810222046FFF763FF10BD840000205C
:1002200070B505460224048100202860281D07229D
:10023000124E2146B047A81D09222146B047E86862
:100240000B222146B047E868801C0D222146B047AA
:10025000E868001D0F222146B047E868801D112282
:100260002146B047E868083013222146B047E868C5
:100270000A3015222146B04770BDC046150300085C
:100280007FB500AC0FC46E46301D02240722124D0C
:100290002146A847B01D09222146A84703980B22F2
:1002A0002146A8470398801C0D222146A8470398A1
:1002B000001D0F222146A8470398801D11222146C8
:1002C000A8470398083013222146A84703980A300C
:1002D00015222146A8477FBD510300080C48002184
:1002E000018181710170418101730A2141801921CD
:1002F000090181807047C04610B5054C002121815D
:10030000012121700A21FFF716FF608010BDC04651
:1003100058010020F0B585B004920D460746002034
:10032000C643264CA02101222046334600F0E8F9BE
:100330000028F7D10097019502962048A0210123BB
:10034000049A00F06DFA0A2000F05EF805B0F0BDE6
:10035000F0B589B00792089106900920C0060121E6
:10036000C902002605900491324600F030F9F443AA
:10037000124F089886421AD0A021012538462A46F5
:10038000234600F0BDF90028F6D1069880190090A8
:10039000019502940798301882B2A02138462B4666
:1003A00000F0EEFA0A2000F02FF8761CE1E70122B7
:1003B0000598049900F00BF909B0F0BDC4010020C4
:1003C000EFF3108072B6FEE7B0B504460225252291
:1003D0002946FFF79FFFA01C27222946FFF79AFF17
:1003E00001206060B0BDBCB5019100906C46022553
:1003F000252220462946FFF7ABFFA01C27222946CD
:10040000FFF7A6FFBCBD0000B0B5044600F0E6F85B
:100410000546601C02D004484068041900F0DEF86C
:10042000401BA042FAD3B0BD00000020F0B588B058
:1004300007465E48874201D0052000E00320009077
:1004400000220692144605970E683046E04000D11F
:10045000AAE001250295A5402E4000D19EE004941B
:1004600003924A68032314461C40601E01281AD8D0
:1004700003230192069A9340B8689843CF68974047
:100480000743059887600198C006C00F049A904002
:10049000059F7F68AF43074305984760059FD84392
:1004A0005500019A08E01846069DA840C043032C59
:1004B00002D1069D1C461CE0FB6803408F68AF40DC
:1004C0001F43059BDF60059F022C12D11C22039B5A
:1004D0001A400F239340049CE408A4003C19276AA7
:1004E0009F430B6993403B43059F23624A68032463
:1004F0001440AC403B68034023433B609003800FB3
:10050000039A049C4AD02B4B1868029D284318601C
:1005100018682840079023460C2414400F20A04060
:1005200003229343079A244D5A5982435B190920A9
:10053000C006874208D02148874207D0204887421A
:10054000009804D1022002E0002000E00298A040C0
:1005500010431860164800684B68DA0301D5304331
:1005600000E0B043049C124A106050689A0301D521
:10057000304300E0B0430E4A50609068DA0201D583
:10058000304300E0B0430A4A9060D0689A0201D537
:10059000304300E0B043039A054BD860121D069823
:1005A000801C0690641C4FE708B0F0BD000C0048AA
:1005B00000040140181002400800014000040048F7
:1005C0000008004800690840411E88417047002A21
:1005D00001D0182200E028228150704701480068AD
:1005E0007047C04660030020B0B5436C0222202B48
:1005F00017D1036C012B14D02422426402681368C3
:100600000124A3431360230315689D4315601368F9
:100610000B43136011682143116000220264202102
:1006200041641046B0BDB0B5436C0222202B17D1F7
:10063000036C012B14D02422426402681368012445
:10064000A34313600F231B0215689D43090229432E
:10065000116011682143116000220264202141646D
:100660001046B0BD70B5002820D00446406C00286C
:1006700004D100202064204600F032FA2420606477
:100680002068026801218A4302600F221206636813
:10069000934303618368184A13408360A368E56845
:1006A000012D05D1CD032B43836009E0012070BDEE
:1006B0002126B60233438360022D01D1CB02436071
:1006C00043680E4D1D434560C3681340C3602269F3
:1006D00063691343A26912021A43C260E269236A82
:1006E0001343036002680A4302600020E064202193
:1006F00061642063A06470BDFF7FFFFF0080000283
:10070000F0B589B01D461346044600220892406C9D
:100710000227202873D107922068826912046ED4C0
:10072000226C012A6BD0242262640122029222648C
:10073000079AE264384A1140384A8F180522D202DB
:100740008918039106930497E1680129394600D07E
:1007500003994160FFF742FF064620688169490915
:10076000826912090A43D10709D1681CF5D0FFF745
:1007700035FF801BA8423AD8002DEED137E08769BB
:100780000096202100222046059101922B4601F07F
:1007900001FAF90636D5002830D120681021C16150
:1007A0000599C1610899069B994211D10127B903A6
:1007B00042680A43426000962026002220463146C5
:1007C0002B4601F0E7F9069B002818D12068C66186
:1007D0000899491C089108999942049FB4D3059936
:1007E000616401982064E06C0843E06406E0202026
:1007F000606407992164E16C0143E164029F38461B
:1008000009B0F0BD0028029FF9D120680599C161A7
:10081000019F27646164F2E7FF03000000200002EB
:10082000F0B587B00546406C0224202838D10C9FD3
:10083000002F32D016460D9A002A2ED0286C01289F
:100840002ED003920693059101242C64FFF7C6FE77
:1008500004900090E10319232846224601F09AF9FA
:1008600000281DD10E99222068644020A864002031
:10087000E8646F620F460290686303986885009190
:1008800004980190284605993246069B01F006F926
:10089000002808D00298286402E001246002E8647D
:1008A000204607B0F0BD0697012426066306688D32
:1008B000000A32480396029306D0FF222A85009050
:1008C00028460599334605E0698D29850090CAB20E
:1008D0002846059901F048F9049E069B00960421DC
:1008E000002728463A4601F055F90028D8D1686A11
:1008F0002968496A0170688D401E6885686A401CD5
:100900006862288D411E2985688D0904069B1FD1C8
:1009100000281DD00096802100262846324601F08E
:1009200039F90028BCD1688D000A06D0FF222A853B
:10093000009628460599039B06E0688D2885009659
:10094000C2B228460599029B01F00EF9049E069B4F
:10095000688D0028C2D128461946324601F03FF979
:1009600000289DD128682021C16142685B4B13405B
:10097000436069642F64AF643C4691E700240080C3
:10098000F0B589B00546406C0224202838D10E9F6E
:10099000002F32D016460F9A002A2ED0286C01283C
:1009A0002ED008920593079101242C64FFF716FEC0
:1009B00004900090E10319232846224601F0EAF84A
:1009C00000281DD11099212068644020A8640020CF
:1009D000E8646F62069068630898688508910091E2
:1009E000049F0197284607993246059B01F088F835
:1009F000002808D00698286402E001246002E86418
:100A0000204609B0F0BD012426066306688D000A61
:100A1000059603930AD0FF222A85002000902846DD
:100A20000799334601F0A0F8069E08E0688D2885F6
:100A3000069E0096C2B22846079901F095F8089BD9
:100A4000284619463A4601F0EDF80028D8D1286822
:100A5000696A0A788262688D401E6885481C6862EF
:100A6000288D411E2985688D0904089B1FD1002807
:100A70001DD00097802100262846324601F08AF8D2
:100A80000028BDD1688D000A06D0FF222A85009675
:100A900028460799059B06E0688D28850096C2B216
:100AA00028460799039B01F05FF8069E089B688D16
:100AB0000028C5D1284619463A4601F090F800288A
:100AC0009ED128682021C1614268044B13404360D5
:100AD00069642E64AE64344692E7C04600E800FEC6
:100AE000B0B586B0044601A81421FFF712FB2068B8
:100AF000114988421DD10125A804104C21680143E9
:100B00002160216801400091059503951220029013
:100B100003200490800201900098094801A9FFF782
:100B200085FC6805A1680143A160A16801400091AE
:100B3000009806B0B0BDC0460054004014100240FA
:100B400000040048B0B5002822D0044600681349CC
:100B500001601349016061684160A1688160FFF72D
:100B60003DFD05462068C16849070AD0FFF736FDFC
:100B7000401B2828F6D32068C0684007F2D0032025
:100B8000B0BDE16802698A4204D10949016002E00E
:100B90000120B0BD01610020B0BDC046CCCC00003A
:100BA0005555000000680249016000207047C046AA
:100BB000AAAA00001A48406802490A68101808608A
:100BC0007047C0466003002010B5A5480168102298
:100BD0000A4302600024204600F004F800F022F8E6
:100BE000204610BD70B504467D20C0000C4E7168D3
:100BF000FFF7A1FA01469D480068FFF79CFA00F054
:100C00004FFB0125032C08D8002806D10025E84316
:100C100021462A4600F028F83460284670BDC046B8
:100C20000000002082B009480168012211430160E0
:100C30000168114001910199110742680A4342601D
:100C4000406808400090009802B0704718100240B9
:100C5000002805D41F21084001218140014801607E
:100C60007047C04600E100E080B501F0FDFB80BDAB
:100C7000F0B585B004468078C007384B38D00120E5
:100C80000290010718680840039006D118680843CD
:100C9000186018680840049004980191304E30683C
:100CA000C00538D5032528022C4B5968014012D0C5
:100CB0006268024091420ED00298000459685A6856
:100CC00002435A605A6882435A600846254A1040D7
:100CD0005860C80731D1586822490840616801430B
:100CE00059600398002803D1186801998843186057
:100CF0002068C10705D0596903229143A2680A43BD
:100D00005A610025800625D5586910218843E1687D
:100D1000014359611EE00298070230683843306091
:100D2000FFF75CFC054630683842BBD1FFF756FC44
:100D3000401B6428F7D903250CE0FFF74FFC06465B
:100D4000484F064B58688007C5D4FFF747FC801B07
:100D5000B842F6D9284605B0F0BDC0461C10024086
:100D600000700040FFFCFFFFF8B500284CD004469F
:100D70003B4A1368012003408B4208D213680126C6
:100D8000B3430B431360126832408A4266D100912C
:100D900021688A070ED54A0705D507221202424D5F
:100DA0002B6813432B60404D2A68F0239A43A368B5
:100DB00013432B60C90729D129490868012630400F
:100DC000009A904205D90868B04308600868C007D7
:100DD00044D12078400707D507200002324A116825
:100DE0008143E0680843106000F042F82E4909682A
:100DF0000906090F1C4A515CC8401C4908600026BE
:100E00003046FFF7EFFE29E0012627E06168264A19
:100E1000121F022904D0012905D11268920304E0AF
:100E20001268920101E012689207064616D51E4A22
:100E300010680326B04308431060FFF7CFFB074656
:100E4000084D194800680C2101406068800081420B
:100E5000B2D0FFF7C3FBC01BA842F2D93046F8BDA1
:100E600000200240881300007A260008800000203D
:100E700010B50D490A680C2313400C48082B08D103
:100E800093021B0F0AA4E45C896AD20303D41048BE
:100E900007E0044606E00F22114009A2515CFFF76B
:100EA0004AF94443204610BD0410024000127A0063
:100EB00002030405060708090A0B0C0D0E0F10109B
:100EC0000102030405060708090A0B0C0D0E0F109A
:100ED00000093D00F0B587B004460120002C00D188
:100EE00095E104902078C007EA4E059411D071680E
:100EF0000C200140042906D071680140082937D12F
:100F00007068C00334D53068800302D5606800285B
:100F100042D02078800758D570680007800F1BD01A
:100F200070680C210140082902D17068C00313D5F4
:100F30003068059CE168002930D001210843306009
:100F4000FFF74CFB05463068800737D4FFF746FBB8
:100F5000401B0228F7D930E130688007059A02D596
:100F6000D068012818D13068F8218843116929E038
:100F7000616801204704002900D1F3E0052900D170
:100F800007E1012900D108E1010432688A43326097
:100F900081043068884303E1049838E101218843E3
:100FA0003060FFF71BFB0546306880070DD5FFF763
:100FB00015FB411B03200229F6D928E13068F821EE
:100FC00088432169C90001433160059C20780007EE
:100FD00027D42078400700D488E00120039001073F
:100FE000F0690840029006D1F0690843F061F069A9
:100FF0000840069006980191A74F3868C00532D581
:1010000005988068A54F00283FD0052852D00128B8
:1010100054D0306A039988433062306A042188438F
:101020004FE0706AE16900290ED001210843706227
:10103000FFF7D4FA0546706A8007CAD4FFF7CEFAE4
:10104000401B0228F7D9B8E0012188437062FFF7FE
:10105000C5FA0546706A8007BBD5FFF7BFFA401B8B
:101060000228F7D9A9E003980402386820433860C1
:10107000FFF7B4FA054638682042C1D1FFF7AEFA4F
:10108000411B03206429F6D9C1E0306A03998843E3
:101090003062306A042188433062FFF79FFA0546C8
:1010A000306A80071AD5FFF799FA411B0320B9422D
:1010B000F6D9ACE0306A042101433162306A039909
:1010C00008433062FFF78AFA0546306A800705D484
:1010D000FFF784FA401BB842F7D96EE00298002867
:1010E000059C03D1F06901998843F0612078C0061E
:1010F0006DD5059A5069411D16D001281DD1706B20
:10110000042101437163706B012101437163FFF797
:1011100065FA0546706B800751D4FFF75FFA411BF3
:1011200003200229F6D972E0706B042188437063B2
:10113000706BF8218843916946E0706B042101438C
:101140007163706B012188437063FFF747FA0546AE
:10115000706B80073BD5FFF741FA411B0320022942
:10116000F6D954E0010432688A4332608004316861
:1011700081433160FFF732FA0546059C30683842FA
:1011800000D1C6E6FFF72AFA411B03206429F5D9EE
:101190003DE0810432680A4332600104306808434C
:1011A0003060FFF71BFA05463068384200D0B0E6E1
:1011B000FFF714FA401B6428F6D9032027E0706B70
:1011C000F821884305998969C9000143716305982D
:1011D000046A002C1AD070680C210140082918D12B
:1011E000012C049813D00120030471680B40F26AAB
:1011F000059D6C6AA3420AD10F231A40EC6AA242F1
:1012000005D19A041140AA6A914200D1002007B08A
:10121000F0BD012002063168049291433160470617
:10122000FFF7DCF90546022C0AD1049C30683842ED
:1012300010D0FFF7D3F9411B03200229F6D9E6E7C6
:1012400030683842E2D0FFF7C9F9411B0320022978
:10125000F6D9DCE7F06A0F218843059AD16A014389
:10126000F1623D20000471688143906A0843516A2D
:1012700001437160306820433060FFF7AFF90446E6
:1012800030683842C2D1FFF7A9F9011B03200229B7
:10129000F6D9BCE70010024000700040881300003F
:1012A000401E010E01D0012070470749074A5060D7
:1012B000074803680B400321890759180160002083
:1012C0009060072111607047FFFFFF0010E000E011
:1012D00020ED00E07047704770B50246C06B0128F2
:1012E00001D1022070BD0020D0633F231B02CC68D7
:1012F0009C430F239D028E68AE432643DB024C685D
:101300009C43344307231B030D689D43254303235C
:101310005B030C699C432C434B6923430124A403C6
:10132000A343C96919431268516470BDB0B5C26B5B
:10133000012A01D1022119E0022202640122C263C2
:1013400003685C687025AC430D6825439C685D604C
:10135000EA4DAB4202D0474DAB4204D18025AC43AD
:101360004968214399600021C16302640846B0BD09
:1013700010B500281BD00446006C002804D10020C2
:10138000E063204600F016F8022020642068211D4A
:1013900000F00EFF012060666064A064E0642065D8
:1013A0006065A065E06520662064002010BD012016
:1013B00010BD00001FB500681A49884210D01A49B4
:1013C00088421BD0CD4988422BD10120C002174949
:1013D0000A6802430A6009680140039103981FBD2F
:1013E00001218804114A1368034313601268024004
:1013F000019201981624002220460DE001204004AD
:101400000A490A6802430A60096801400291029889
:101410001524002120460A46FFF726FC2046FFF748
:1014200017FC1FBD00480140004401401810024055
:10143000016C012916D1022101640168C8680122EA
:101440001043C860AD48814202D00A4881420BD1A6
:101450008868072303400020062B09D00B6813433C
:101460000B60704701207047086810430860002037
:101470007047C04600040040F8B50446C06B012820
:1014800001D1022269E0022020640125E563206881
:101490008268344B1A4082600F680026002F22D0E9
:1014A000102F20D0202F1ED0302F1CD0402F22D024
:1014B000502F2AD0602F32D06A0397423AD02A03A5
:1014C0009742324647D0702F49D1773382681A400D
:1014D0004B688F68C9681F43090239431143816013
:1014E0008168772234E08168702291430F4307219D
:1014F000394381602EE0CA68496800F07FFF2068A8
:10150000816847220A43302112E0CA68496800F026
:1015100075FF2068816857220A43202108E0CA68C5
:10152000496800F07CFF2068816867220A43102127
:101530008A430EE0773382681A404B688F68C96827
:101540001F430902394311438160012189038268E5
:101550000A4382603246E66325641046F8BD2A4697
:10156000F9E7C0468800FFFF7047B0B50446802009
:10157000C54320680169890717D5C168890714D553
:1015800029467E3101610121E1618069800703D034
:101590002046FFF7E9FF05E0204600F0B3F82046BB
:1015A00000F030F90020E06120680169490718D592
:1015B000C168490715D529467C3101610221E161E5
:1015C00080698005800F03D02046FFF7CDFF05E03E
:1015D000204600F097F8204600F014F90020E06162
:1015E00020680169090717D5C168090714D529467C
:1015F000783101610421E161C069800703D0204690
:10160000FFF7B2FF05E0204600F07CF8204600F02E
:10161000F9F80020E06120680169C90618D5C168A1
:10162000C90615D52946703101610821E161C069FB
:101630008005800F03D02046FFF796FF05E0204687
:1016400000F060F8204600F0DDF80020E06120683E
:101650000169C90709D0C168C90706D029467F3189
:101660000161204600F022F920680169090607D5CA
:10167000C168090604D505612046FFF72BFE2068E6
:101680000169490609D5C168490606D52946403190
:101690000161204600F090F920680169890607D5AC
:1016A000C168890604D5603505612046FFF713FE41
:1016B000B0BD000010B586B0044601A81421FEF7A5
:1016C00028FD20687849884216D1012041040C4A3F
:1016D00013680B43136012680A40009202210591BF
:1016E0000022049203920291400201900920C00658
:1016F000009901A9FEF79AFE06B010BD002C01402A
:101700001410024070470000B0B50446C06B0128B9
:1017100001D10220B0BD0D460120E0630221CA4183
:10172000032A4AD87A441279520097440110223190
:101730002068294600F086FD2068816908220A4356
:101740008261816904229143816129690FE02068E7
:10175000294600F0B1FD0121CA02206883691343C4
:101760008361890282698A4382612969090218308A
:101770001FE02068294600F0D7FD2068C1690822D3
:101780000A43C261C16904229143C16129690FE022
:101790002068294600F000FE0121CA022068C369C2
:1017A0001343C3618902C2698A43C261296909027C
:1017B0001C3002680A43026000200021E163B0BDD2
:1017C00010B500281BD00446006C002804D100206E
:1017D000E063204600F015F8022020642068211DF7
:1017E00000F0E6FC012060666064A064E0642065AF
:1017F0006065A065E06520662064002010BD0120C2
:1018000010BD704770470000B0B50446002906D0EF
:101810002046082909D0042909D1483008E0606C25
:1018200001280FD12046443011E04C3000E0503008
:101830000068012806D12046082905D0042905D1D1
:10184000483004E00120B0BD4C3000E050300222AE
:101850000260206801252A4600F0E6FC2168114854
:10186000814213D01048814205D0524A914202D0A1
:101870004C4A914205D1EA034B6C13434B648142BD
:1018800004D0086828430860002005E08868072223
:1018900002400020062A00D1B0BD0A682A430A602F
:1018A000B0BDC04600040040002C0140F8B50268FD
:1018B0003C498A426ED13C4C21780029009018D0D6
:1018C000207B002804D1012251033848FEF77FFE17
:1018D0002089401C2081618880B2884217D9002568
:1018E00025810120410331482A46FEF770FE25700C
:1018F0000DE0A07900280AD06089401C6081A18891
:1019000080B2884203D90120207000206081002528
:10191000E74E274F502D3BD07419218AE068FEF71F
:1019200051FE705178606168002804D1012902D10C
:101930000021A16001E0002902D060601435E9E7D0
:10194000002810D00128F8D1E17A091F232907D8EF
:10195000617A002904D1A17A002901D101212172E3
:101960000021E172E9E7E17A491CE172C9B2C929B3
:1019700004D30021E17201216172DEE70B29DCD37F
:10198000617A0029D9D00021E1720121A172D4E746
:101990000098026807498A4200D0F8BD0448012136
:1019A0000170F8BD004401405801002000080048C3
:1019B00050010020004801407047FEE770B5054621
:1019C00002242922054E2146B047A81C2B2221467D
:1019D000B047281D23222146B04770BD15030008DB
:1019E0007CB56C46A180009002252922064E204637
:1019F0002946B047A01C2B222946B047201D232290
:101A00002946B0477CBDC046510300080068816983
:101A1000890701D5002181628169C90703D18169E4
:101A200001220A438261704770B50E460446006881
:101A30008169C90601D4002070BD1546416889013D
:101A400010D40121890342680A4342600AE0711CF4
:101A500008D0FEF7C3FD411B2020B14212D8002E52
:101A600010D0206881698906F1D51021C16120213B
:101A7000C1612046FFF7CAFF20684168064A0A4054
:101A800042600420E16C0143E16420206064002096
:101A90002064A064012070BD00E800FEFEB51D4674
:101AA000029204462F480090DAB20023204600F04C
:101AB0005BF8089E099F204631463A4600F0B2F88E
:101AC000002801D00120FEBD012D0AD02068029916
:101AD000090A8162204631463A4600F0A3F8002800
:101AE000F0D120680299C9B281620097402100229A
:101AF0002046334600F04EF8411E8841FEBDC046E8
:101B0000FEB51D460292044616480090DAB2012046
:101B10000306204600F028F8089E099F204631461B
:101B20003A4600F07FF8002801D00120FEBD012DCB
:101B30000AD020680299090A8162204631463A4655
:101B400000F070F80028F0D120680299C9B28162D3
:101B50000097802100222046334600F01BF8411EEA
:101B60008841FEBD0020008070B5049C650D0068B2
:101B70004668AE43054D3540054E0E401E431104E8
:101B8000314321432943416070BDC046009C00FCA5
:101B9000FF030000F8B51D4616460F46044606989A
:101BA0000090206880693840C01B41424141B142E9
:101BB00013D1681CF5D0FEF711FD0099401AA84218
:101BC00001D8002DEDD1E06C20210843E064616470
:101BD00000202064A0640120F8BD0020F8BDF8B505
:101BE00016460F46044620688069800617D42046B2
:101BF00039463246FFF718FF0125002810D1FEF7BD
:101C0000EDFC801BB84201D8002FECD1E06C202104
:101C10000843E064616400202064A06400E00025C3
:101C20002846F8BDF8B516460F4604462068806978
:101C3000800719D4204639463246FFF7F5FE0125C4
:101C4000002812D1781CF1D0FEF7C8FC801BB842E6
:101C500001D8002FEAD1E06C20210843E0646164E0
:101C600000202064A06400E000252846F8BD0000A4
:101C70004C210F480422425201214160002282601F
:101C800080230382016002230387974B8162C16234
:101C900002634363818441618161C2610362C16304
:101CA0000164426483640921C906C1607047C0466B
:101CB00068010020FEB502904508782635400920CD
:101CC000C40601220192864B20462946984775405A
:101CD0000027204629463A46814B984700F0ACFC45
:101CE00002980007450E20462946019A7C4B9847EA
:101CF0007B4B7540204629463A46984700F09CFCAD
:101D0000FEBDC04610B501200024214600F062F857
:101D10000220214600F05EF810BD80B5002900D0F9
:101D2000403080210143C8B2002100F053F880BD4B
:101D3000B0B50920C006022100242246FEF747FC68
:101D40000A20FEF761FB3320084D2146A8473220C8
:101D50002146A84728202146A8470C202146A8470D
:101D6000FFF7D0FF06202146A847B0BDD51D0008CB
:101D700010B5441C0078C0B2012100F02BF8611CA2
:101D8000207800280C46F6D110BDB0B50C460546AB
:101D9000022A08D0012A0CD12846FEF7C5F91021E5
:101DA000081A400806E02846FEF7BEF91021081A76
:101DB00000E00020C1B22846224600F001F8B0BD84
:101DC00010B5044608461146FFF7A7FF2046FFF767
:101DD000CFFF10BD10B50446012903D0002907D15B
:101DE000002200E001220920C0060121FEF7EFFBDE
:101DF0002046FFF75FFF10BDF0B589B000240894BE
:101E00000127F904344802680A43026002680A4064
:101E100003920399790402680A43026002680A4047
:101E200003920399B90402680A43026002680A40F7
:101E300003920399B90502680A43026000680840EA
:101E4000039003987E032548254D31462246A84736
:101E50000920C006019023492246A8472248234969
:101E60002246A8472248802102912246A84707948B
:101E700006940597049604AE1E4A184831469047CA
:101E800007940694059717480490019D284631460B
:101E9000184A9047069705940298049028463146C0
:101EA000144DA84706970594072004900E48314624
:101EB000A8470794069405970C4804900A483146B1
:101EC000A84707940694059702980490084831465D
:101ED000A84709B0F0BDC0461410024000080048F1
:101EE000CF0500087F09000000040048D8F3000077
:101EF000001400482D04000810B5134C01200021E7
:101F0000124A134B23606260A160E06020461030EB
:101F10001421FEF7FEF82046FEF7A4FB002801D0AE
:101F2000FEF74EFA08480021FEF75EFB002801D0BC
:101F3000FEF746FA04480021FEF775FB002801D0A1
:101F4000FEF73EFA10BDC046C40100200E09002075
:101F50000054004010B591480021094AF14BFF247C
:101F6000E03418C0016042608160C16001610838DE
:101F7000FFF7FEF9002801D0FEF722FA10BDC04697
:101F8000E703000010B589480021084A084BE44CDB
:101F9000046043608160C260016141618161FFF75B
:101FA000E7F9002801D0FEF70BFA10BDCF070000BB
:101FB000BF5D000070B596B000251595149513957A
:101FC00012951195109509A81C21FEF7A2F801A8F9
:101FD0002021FEF79EF82B482B49ED4A0260416014
:101FE00028318560C160056145618561FFF7C0F9F1
:101FF000002801D0FEF7E4F90126300312902148B1
:1020000012A9FFF739FA002801D0FEF7D9F91D48C7
:10201000FFF7D6FB002801D0FEF7D2F911951095F5
:10202000184810A9FFF782F9002801D0FEF7C8F977
:1020300060200990FF20F4300A9009AC2046083057
:102040001421FEF766F80F4804222146FFF75CFBD7
:10205000002801D0FEF7B4F901AC14212046FEF7A8
:1020600058F808957003069006482146FFF734F9A2
:10207000002801D0FEF7A4F90248FFF71BFB16B0B9
:1020800070BDC04628020020BF030000B0B5044662
:1020900000202082E0606061062517222046294644
:1020A000FEF738F9A01D1D222946FEF733F9B0BD11
:1020B000FEE770477047B0B5044600202070204608
:1020C000083002252D222946FEF724F9A01D2F22D3
:1020D0002946FEF71FF9B0BDBFB501AD2A810291B7
:1020E00001902846083002242D222146FEF730F9BF
:1020F000A81D2F222146FEF72BF9BFBD80B5FEF7A4
:1021000059FD80BD70B594B008AC201D1821FEF7B4
:1021100000F800250795069505950495139505206B
:10212000C004129011950226109601200F901021E4
:102130000C910B900A20089003950295019500954B
:102140002046FEF7C7FE002803D0EFF3108072B6DA
:10215000FEE70795069505960720049004A801213F
:10216000FEF702FE002803D0EFF3108072B6FEE700
:102170000395202000906846FEF77AFD002803D0E2
:10218000EFF3108072B6FEE714B070BD7047000028
:1021900080B50248FFF7E9F980BDC04690020020F3
:1021A00080B50248FFF7E1F980BDC046F802002083
:1021B00010B504688E4A904204D0194B984201D061
:1021C000234605E070239C434B68234390420CD088
:1021D000134CA04209D0134CA04206D0854CA0421B
:1021E00003D0854CA0421C4604D103242402A343FF
:1021F000CC681C4380239C434B69234303608B685A
:10220000C3620B688362904205D07A4A904202D042
:10221000794A904201D1096901630121416110BDF0
:10222000000400400020004010B51F230B40012196
:102230009940046A8C4304629A40016A1143016226
:1022400010BD0000F8B5026A01239A430262026AD7
:1022500002239A438E68164344680A680092836991
:10226000634FB84205D0634DA84202D0624DA842E8
:1022700008D10C25AE43CD68042295433543B842BE
:1022800001D106E035465B4A904202D05A4A90425C
:1022900007D10322120294434E698A6926431643EA
:1022A00000E02646009C46607322934323438361EB
:1022B000496841630562F8BDF0B5026A10239A438C
:1022C0000262036A202293438A6812011A43456816
:1022D0000C688369464EB04206D0464EB0420AD0E2
:1022E000454EB04207D00FE0C026B243CE6836015B
:1022F0004027BE4332430326B602B5434E698F6979
:10230000B6002E43BD003543456073252D02AB4317
:1023100024021C438461496881630262F0BDC046A7
:102320000048014000440140F0B501221302046A54
:102330009C4304625202036A93438A6812021A435E
:1023400045680B68C4692A4EB04206D0294EB04297
:102350000BD0294EB04208D010E00326B602B2439B
:10236000CE6836020B4F37403A4303263603B54357
:102370004E698F6936012E433D0135434560732513
:10238000AC431C43C4614968C1630262F0BDC046EE
:10239000002C014000FBFFFFF8B501221303046A83
:1023A0009C430462036A44688D6800950E68C569A1
:1023B0000F4FB84205D00F4FB84202D00E4FB8426F
:1023C00005D19703BC434F69BF01274300E027466F
:1023D000476073242402A54334022C43C461496836
:1023E000016451038B430099090319430162F8BD4D
:1023F000002C01400048014000440140B0B5036A90
:10240000046A0125AC4304628469F025AC431201DF
:10241000224382610A2293430B430362B0BD10B58D
:10242000036A1024A34303620F231B0384699C43A4
:1024300012032243036A8261A022934309011943D4
:10244000016210BDE0B5019001A806210022FDF750
:1024500061FF8CBDE0B56B4699800090062118465F
:10246000FDF776FF8CBD0000002805D4032203464B
:1024700093430C4A9A1806E00F220240083A0323BD
:102480009A43074BD2188007C00E8901C9B2814018
:10249000FF23834010689843084310607047C0468C
:1024A0001CED00E000E400E0010407D000216429F5
:1024B00002D200BF491CFAE7401EF5E77047000052
:1024C00094B0FEF781FBFFF71DFEFFF795FCFFF7C9
:1024D00013FDFFF76FFDFFF73DFDFFF753FD434889
:1024E0000421FFF791F94248FEF7A2FF4148FEF7A9
:1024F0009FFF01246102404D404E28462246B047CE
:10250000210228462246B047102128462246B047DD
:10251000082128462246B047FFF70AFCFDF7DEFEF9
:10252000FFF7A6FB6420FDF7E7FE11A800258580D4
:10253000119533A029462246FFF727FC33A02946F0
:102540002246FFF722FC34480168806A084332D1F2
:102550000020324D01460246A84713A80470062207
:102560002146FDF7F5FE2E4B0FCBFDF789FE2D4CD6
:10257000A18820681722A847E08821890904081843
:1025800061891D22A847284903C9FDF72CFF274967
:1025900008884A88120410188988FFF721FA244A0B
:1025A00010885188090408189188D3881B04591889
:1025B0001289FFF791FD11A8FFF744FF0DA8FDF761
:1025C00017FE07A8FFF762FD04A8FFF774FD02A835
:1025D000FDF7FAFE6846FFF7F1F9164C2046FEF7C4
:1025E000B1FA2046FEF7DEFAFBE7C04628020020DB
:1025F00090020020F802002000040048CF050008E7
:1026000047686F67686E6F6F730000004C6F61649E
:10261000696E672E2E2E00006801002055240008E8
:102620008400002034010020240100202C0100201F
:10263000B801002018020020B0B50920C406042506
:10264000012220462946FDF7C2FFC820FFF72CFFD4
:10265000002220462946FDF7BAFFB0BD02E008C8B7
:10266000121F08C1002AFAD170477047002001E00C
:1026700001C1121F002AFBD17047000000000000BA
:10268000000001020304060708090000B026000844
:1026900000000020500100009801000820270008D9
:1026A00050010020180600006C2600080000000001
:1026B000320432013EC201720112060A6B030C1190
:1026C00053127A12151203320222442A2090691002
:1026D0001A5C10290869101A7410193679101A2C0E
:1026E0001029C469101A68109A05101A38109A0631
:1026F000101A20039A07101A0810190479101A14D6
:10270000109A09101A5010120A12322994120A3B18
:102710002C017D3927291E01120000000000000055
:04000005080000B13E
:00000001FF
